{
	"data": {
		"bytecode": {
			"linkReferences": {},
			"object": "608060405234801561001057600080fd5b5061023d806100206000396000f3fe608060405234801561001057600080fd5b506004361061002b5760003560e01c80630126931b14610030575b600080fd5b61004a60048036038101906100459190610114565b61004c565b005b6000819080600181540180825580915050600190039060005260206000200160009091909190915055600f600080549050036100d6576000600390505b600f8110156100d45760006001826100a19190610170565b815481106100b2576100b16101a4565b5b90600052602060002001600090556002816100cd91906101d3565b9050610089565b505b50565b600080fd5b6000819050919050565b6100f1816100de565b81146100fc57600080fd5b50565b60008135905061010e816100e8565b92915050565b60006020828403121561012a576101296100d9565b5b6000610138848285016100ff565b91505092915050565b7f4e487b7100000000000000000000000000000000000000000000000000000000600052601160045260246000fd5b600061017b826100de565b9150610186836100de565b925082820390508181111561019e5761019d610141565b5b92915050565b7f4e487b7100000000000000000000000000000000000000000000000000000000600052603260045260246000fd5b60006101de826100de565b91506101e9836100de565b925082820190508082111561020157610200610141565b5b9291505056fea26469706673582212209edc3c06510cda461ac712bcf29526dedbc8bb6d44c252dbb314ad272bda9a7a64736f6c63430008120033",
			"opcodes": "PUSH1 0x80 PUSH1 0x40 MSTORE CALLVALUE DUP1 ISZERO PUSH2 0x10 JUMPI PUSH1 0x0 DUP1 REVERT JUMPDEST POP PUSH2 0x23D DUP1 PUSH2 0x20 PUSH1 0x0 CODECOPY PUSH1 0x0 RETURN INVALID PUSH1 0x80 PUSH1 0x40 MSTORE CALLVALUE DUP1 ISZERO PUSH2 0x10 JUMPI PUSH1 0x0 DUP1 REVERT JUMPDEST POP PUSH1 0x4 CALLDATASIZE LT PUSH2 0x2B JUMPI PUSH1 0x0 CALLDATALOAD PUSH1 0xE0 SHR DUP1 PUSH4 0x126931B EQ PUSH2 0x30 JUMPI JUMPDEST PUSH1 0x0 DUP1 REVERT JUMPDEST PUSH2 0x4A PUSH1 0x4 DUP1 CALLDATASIZE SUB DUP2 ADD SWAP1 PUSH2 0x45 SWAP2 SWAP1 PUSH2 0x114 JUMP JUMPDEST PUSH2 0x4C JUMP JUMPDEST STOP JUMPDEST PUSH1 0x0 DUP2 SWAP1 DUP1 PUSH1 0x1 DUP2 SLOAD ADD DUP1 DUP3 SSTORE DUP1 SWAP2 POP POP PUSH1 0x1 SWAP1 SUB SWAP1 PUSH1 0x0 MSTORE PUSH1 0x20 PUSH1 0x0 KECCAK256 ADD PUSH1 0x0 SWAP1 SWAP2 SWAP1 SWAP2 SWAP1 SWAP2 POP SSTORE PUSH1 0xF PUSH1 0x0 DUP1 SLOAD SWAP1 POP SUB PUSH2 0xD6 JUMPI PUSH1 0x0 PUSH1 0x3 SWAP1 POP JUMPDEST PUSH1 0xF DUP2 LT ISZERO PUSH2 0xD4 JUMPI PUSH1 0x0 PUSH1 0x1 DUP3 PUSH2 0xA1 SWAP2 SWAP1 PUSH2 0x170 JUMP JUMPDEST DUP2 SLOAD DUP2 LT PUSH2 0xB2 JUMPI PUSH2 0xB1 PUSH2 0x1A4 JUMP JUMPDEST JUMPDEST SWAP1 PUSH1 0x0 MSTORE PUSH1 0x20 PUSH1 0x0 KECCAK256 ADD PUSH1 0x0 SWAP1 SSTORE PUSH1 0x2 DUP2 PUSH2 0xCD SWAP2 SWAP1 PUSH2 0x1D3 JUMP JUMPDEST SWAP1 POP PUSH2 0x89 JUMP JUMPDEST POP JUMPDEST POP JUMP JUMPDEST PUSH1 0x0 DUP1 REVERT JUMPDEST PUSH1 0x0 DUP2 SWAP1 POP SWAP2 SWAP1 POP JUMP JUMPDEST PUSH2 0xF1 DUP2 PUSH2 0xDE JUMP JUMPDEST DUP2 EQ PUSH2 0xFC JUMPI PUSH1 0x0 DUP1 REVERT JUMPDEST POP JUMP JUMPDEST PUSH1 0x0 DUP2 CALLDATALOAD SWAP1 POP PUSH2 0x10E DUP2 PUSH2 0xE8 JUMP JUMPDEST SWAP3 SWAP2 POP POP JUMP JUMPDEST PUSH1 0x0 PUSH1 0x20 DUP3 DUP5 SUB SLT ISZERO PUSH2 0x12A JUMPI PUSH2 0x129 PUSH2 0xD9 JUMP JUMPDEST JUMPDEST PUSH1 0x0 PUSH2 0x138 DUP5 DUP3 DUP6 ADD PUSH2 0xFF JUMP JUMPDEST SWAP2 POP POP SWAP3 SWAP2 POP POP JUMP JUMPDEST PUSH32 0x4E487B7100000000000000000000000000000000000000000000000000000000 PUSH1 0x0 MSTORE PUSH1 0x11 PUSH1 0x4 MSTORE PUSH1 0x24 PUSH1 0x0 REVERT JUMPDEST PUSH1 0x0 PUSH2 0x17B DUP3 PUSH2 0xDE JUMP JUMPDEST SWAP2 POP PUSH2 0x186 DUP4 PUSH2 0xDE JUMP JUMPDEST SWAP3 POP DUP3 DUP3 SUB SWAP1 POP DUP2 DUP2 GT ISZERO PUSH2 0x19E JUMPI PUSH2 0x19D PUSH2 0x141 JUMP JUMPDEST JUMPDEST SWAP3 SWAP2 POP POP JUMP JUMPDEST PUSH32 0x4E487B7100000000000000000000000000000000000000000000000000000000 PUSH1 0x0 MSTORE PUSH1 0x32 PUSH1 0x4 MSTORE PUSH1 0x24 PUSH1 0x0 REVERT JUMPDEST PUSH1 0x0 PUSH2 0x1DE DUP3 PUSH2 0xDE JUMP JUMPDEST SWAP2 POP PUSH2 0x1E9 DUP4 PUSH2 0xDE JUMP JUMPDEST SWAP3 POP DUP3 DUP3 ADD SWAP1 POP DUP1 DUP3 GT ISZERO PUSH2 0x201 JUMPI PUSH2 0x200 PUSH2 0x141 JUMP JUMPDEST JUMPDEST SWAP3 SWAP2 POP POP JUMP INVALID LOG2 PUSH5 0x6970667358 0x22 SLT KECCAK256 SWAP15 0xDC EXTCODECOPY MOD MLOAD 0xC 0xDA CHAINID BYTE 0xC7 SLT 0xBC CALLCODE SWAP6 0x26 0xDE 0xDB 0xC8 0xBB PUSH14 0x44C252DBB314AD272BDA9A7A6473 PUSH16 0x6C634300081200330000000000000000 "
		},
		"gasEstimates": {
			"creation": {
				"codeDepositCost": "114600",
				"executionCost": "159",
				"totalCost": "114759"
			},
			"external": {
				"pushNumbers(uint256)": "infinite"
			}
		},
		"methodIdentifiers": {
			"pushNumbers(uint256)": "0126931b"
		}
	},
	"abi": [
		{
			"inputs": [
				{
					"internalType": "uint256",
					"name": "_n",
					"type": "uint256"
				}
			],
			"name": "pushNumbers",
			"outputs": [],
			"stateMutability": "nonpayable",
			"type": "function"
		}
	]
}