{
	"data": {
		"bytecode": {
			"linkReferences": {},
			"object": "608060405234801561001057600080fd5b5061024d806100206000396000f3fe608060405234801561001057600080fd5b506004361061002b5760003560e01c806377bed00214610030575b600080fd5b61004a60048036038101906100459190610142565b610060565b6040516100579190610191565b60405180910390f35b60008060009054906101000a900473ffffffffffffffffffffffffffffffffffffffff1673ffffffffffffffffffffffffffffffffffffffff1663771602f784846040518363ffffffff1660e01b81526004016100be9291906101ac565b602060405180830381865afa1580156100db573d6000803e3d6000fd5b505050506040513d601f19601f820116820180604052508101906100ff91906101ea565b905092915050565b600080fd5b6000819050919050565b61011f8161010c565b811461012a57600080fd5b50565b60008135905061013c81610116565b92915050565b6000806040838503121561015957610158610107565b5b60006101678582860161012d565b92505060206101788582860161012d565b9150509250929050565b61018b8161010c565b82525050565b60006020820190506101a66000830184610182565b92915050565b60006040820190506101c16000830185610182565b6101ce6020830184610182565b9392505050565b6000815190506101e481610116565b92915050565b600060208284031215610200576101ff610107565b5b600061020e848285016101d5565b9150509291505056fea26469706673582212202a8bfedec5cf42788f661c13cf4b7e7523a4627747251aea85b26d7b7a714a8664736f6c63430008120033",
			"opcodes": "PUSH1 0x80 PUSH1 0x40 MSTORE CALLVALUE DUP1 ISZERO PUSH2 0x10 JUMPI PUSH1 0x0 DUP1 REVERT JUMPDEST POP PUSH2 0x24D DUP1 PUSH2 0x20 PUSH1 0x0 CODECOPY PUSH1 0x0 RETURN INVALID PUSH1 0x80 PUSH1 0x40 MSTORE CALLVALUE DUP1 ISZERO PUSH2 0x10 JUMPI PUSH1 0x0 DUP1 REVERT JUMPDEST POP PUSH1 0x4 CALLDATASIZE LT PUSH2 0x2B JUMPI PUSH1 0x0 CALLDATALOAD PUSH1 0xE0 SHR DUP1 PUSH4 0x77BED002 EQ PUSH2 0x30 JUMPI JUMPDEST PUSH1 0x0 DUP1 REVERT JUMPDEST PUSH2 0x4A PUSH1 0x4 DUP1 CALLDATASIZE SUB DUP2 ADD SWAP1 PUSH2 0x45 SWAP2 SWAP1 PUSH2 0x142 JUMP JUMPDEST PUSH2 0x60 JUMP JUMPDEST PUSH1 0x40 MLOAD PUSH2 0x57 SWAP2 SWAP1 PUSH2 0x191 JUMP JUMPDEST PUSH1 0x40 MLOAD DUP1 SWAP2 SUB SWAP1 RETURN JUMPDEST PUSH1 0x0 DUP1 PUSH1 0x0 SWAP1 SLOAD SWAP1 PUSH2 0x100 EXP SWAP1 DIV PUSH20 0xFFFFFFFFFFFFFFFFFFFFFFFFFFFFFFFFFFFFFFFF AND PUSH20 0xFFFFFFFFFFFFFFFFFFFFFFFFFFFFFFFFFFFFFFFF AND PUSH4 0x771602F7 DUP5 DUP5 PUSH1 0x40 MLOAD DUP4 PUSH4 0xFFFFFFFF AND PUSH1 0xE0 SHL DUP2 MSTORE PUSH1 0x4 ADD PUSH2 0xBE SWAP3 SWAP2 SWAP1 PUSH2 0x1AC JUMP JUMPDEST PUSH1 0x20 PUSH1 0x40 MLOAD DUP1 DUP4 SUB DUP2 DUP7 GAS STATICCALL ISZERO DUP1 ISZERO PUSH2 0xDB JUMPI RETURNDATASIZE PUSH1 0x0 DUP1 RETURNDATACOPY RETURNDATASIZE PUSH1 0x0 REVERT JUMPDEST POP POP POP POP PUSH1 0x40 MLOAD RETURNDATASIZE PUSH1 0x1F NOT PUSH1 0x1F DUP3 ADD AND DUP3 ADD DUP1 PUSH1 0x40 MSTORE POP DUP2 ADD SWAP1 PUSH2 0xFF SWAP2 SWAP1 PUSH2 0x1EA JUMP JUMPDEST SWAP1 POP SWAP3 SWAP2 POP POP JUMP JUMPDEST PUSH1 0x0 DUP1 REVERT JUMPDEST PUSH1 0x0 DUP2 SWAP1 POP SWAP2 SWAP1 POP JUMP JUMPDEST PUSH2 0x11F DUP2 PUSH2 0x10C JUMP JUMPDEST DUP2 EQ PUSH2 0x12A JUMPI PUSH1 0x0 DUP1 REVERT JUMPDEST POP JUMP JUMPDEST PUSH1 0x0 DUP2 CALLDATALOAD SWAP1 POP PUSH2 0x13C DUP2 PUSH2 0x116 JUMP JUMPDEST SWAP3 SWAP2 POP POP JUMP JUMPDEST PUSH1 0x0 DUP1 PUSH1 0x40 DUP4 DUP6 SUB SLT ISZERO PUSH2 0x159 JUMPI PUSH2 0x158 PUSH2 0x107 JUMP JUMPDEST JUMPDEST PUSH1 0x0 PUSH2 0x167 DUP6 DUP3 DUP7 ADD PUSH2 0x12D JUMP JUMPDEST SWAP3 POP POP PUSH1 0x20 PUSH2 0x178 DUP6 DUP3 DUP7 ADD PUSH2 0x12D JUMP JUMPDEST SWAP2 POP POP SWAP3 POP SWAP3 SWAP1 POP JUMP JUMPDEST PUSH2 0x18B DUP2 PUSH2 0x10C JUMP JUMPDEST DUP3 MSTORE POP POP JUMP JUMPDEST PUSH1 0x0 PUSH1 0x20 DUP3 ADD SWAP1 POP PUSH2 0x1A6 PUSH1 0x0 DUP4 ADD DUP5 PUSH2 0x182 JUMP JUMPDEST SWAP3 SWAP2 POP POP JUMP JUMPDEST PUSH1 0x0 PUSH1 0x40 DUP3 ADD SWAP1 POP PUSH2 0x1C1 PUSH1 0x0 DUP4 ADD DUP6 PUSH2 0x182 JUMP JUMPDEST PUSH2 0x1CE PUSH1 0x20 DUP4 ADD DUP5 PUSH2 0x182 JUMP JUMPDEST SWAP4 SWAP3 POP POP POP JUMP JUMPDEST PUSH1 0x0 DUP2 MLOAD SWAP1 POP PUSH2 0x1E4 DUP2 PUSH2 0x116 JUMP JUMPDEST SWAP3 SWAP2 POP POP JUMP JUMPDEST PUSH1 0x0 PUSH1 0x20 DUP3 DUP5 SUB SLT ISZERO PUSH2 0x200 JUMPI PUSH2 0x1FF PUSH2 0x107 JUMP JUMPDEST JUMPDEST PUSH1 0x0 PUSH2 0x20E DUP5 DUP3 DUP6 ADD PUSH2 0x1D5 JUMP JUMPDEST SWAP2 POP POP SWAP3 SWAP2 POP POP JUMP INVALID LOG2 PUSH5 0x6970667358 0x22 SLT KECCAK256 0x2A DUP12 INVALID 0xDE 0xC5 0xCF TIMESTAMP PUSH25 0x8F661C13CF4B7E7523A4627747251AEA85B26D7B7A714A8664 PUSH20 0x6F6C634300081200330000000000000000000000 "
		},
		"gasEstimates": {
			"creation": {
				"codeDepositCost": "117800",
				"executionCost": "165",
				"totalCost": "117965"
			},
			"external": {
				"addFromA(uint256,uint256)": "infinite"
			}
		},
		"methodIdentifiers": {
			"addFromA(uint256,uint256)": "77bed002"
		}
	},
	"abi": [
		{
			"inputs": [
				{
					"internalType": "uint256",
					"name": "_c",
					"type": "uint256"
				},
				{
					"internalType": "uint256",
					"name": "_d",
					"type": "uint256"
				}
			],
			"name": "addFromA",
			"outputs": [
				{
					"internalType": "uint256",
					"name": "",
					"type": "uint256"
				}
			],
			"stateMutability": "view",
			"type": "function"
		}
	]
}