{
	"contract/solidity_21~30.sol": {
		"Q24": {
			"abi": [
				{
					"inputs": [
						{
							"internalType": "string",
							"name": "_input",
							"type": "string"
						}
					],
					"name": "f",
					"outputs": [
						{
							"internalType": "bool",
							"name": "",
							"type": "bool"
						}
					],
					"stateMutability": "pure",
					"type": "function"
				}
			],
			"devdoc": {
				"kind": "dev",
				"methods": {},
				"version": 1
			},
			"evm": {
				"assembly": "    /* \"contract/solidity_21~30.sol\":1052:1278  contract Q24 {... */\n  mstore(0x40, 0x80)\n  callvalue\n  dup1\n  iszero\n  tag_1\n  jumpi\n  0x00\n  dup1\n  revert\ntag_1:\n  pop\n  dataSize(sub_0)\n  dup1\n  dataOffset(sub_0)\n  0x00\n  codecopy\n  0x00\n  return\nstop\n\nsub_0: assembly {\n        /* \"contract/solidity_21~30.sol\":1052:1278  contract Q24 {... */\n      mstore(0x40, 0x80)\n      callvalue\n      dup1\n      iszero\n      tag_1\n      jumpi\n      0x00\n      dup1\n      revert\n    tag_1:\n      pop\n      jumpi(tag_2, lt(calldatasize, 0x04))\n      shr(0xe0, calldataload(0x00))\n      dup1\n      0x91e145ef\n      eq\n      tag_3\n      jumpi\n    tag_2:\n      0x00\n      dup1\n      revert\n        /* \"contract/solidity_21~30.sol\":1071:1273  function f( string memory _input ) public pure returns ( bool ) {... */\n    tag_3:\n      tag_4\n      0x04\n      dup1\n      calldatasize\n      sub\n      dup2\n      add\n      swap1\n      tag_5\n      swap2\n      swap1\n      tag_6\n      jump\t// in\n    tag_5:\n      tag_7\n      jump\t// in\n    tag_4:\n      mload(0x40)\n      tag_8\n      swap2\n      swap1\n      tag_9\n      jump\t// in\n    tag_8:\n      mload(0x40)\n      dup1\n      swap2\n      sub\n      swap1\n      return\n    tag_7:\n        /* \"contract/solidity_21~30.sol\":1128:1132  bool */\n      0x00\n        /* \"contract/solidity_21~30.sol\":1200:1227  abi.encodePacked( \"Alice\" ) */\n      add(0x20, mload(0x40))\n      tag_11\n      swap1\n      tag_12\n      jump\t// in\n    tag_11:\n      mload(0x40)\n      0x20\n      dup2\n      dup4\n      sub\n      sub\n      dup2\n      mstore\n      swap1\n      0x40\n      mstore\n        /* \"contract/solidity_21~30.sol\":1189:1229  keccak256( abi.encodePacked( \"Alice\" ) ) */\n      dup1\n      mload\n      swap1\n      0x20\n      add\n      keccak256\n        /* \"contract/solidity_21~30.sol\":1175:1181  _input */\n      dup3\n        /* \"contract/solidity_21~30.sol\":1157:1183  abi.encodePacked( _input ) */\n      add(0x20, mload(0x40))\n      tag_13\n      swap2\n      swap1\n      tag_14\n      jump\t// in\n    tag_13:\n      mload(0x40)\n      0x20\n      dup2\n      dup4\n      sub\n      sub\n      dup2\n      mstore\n      swap1\n      0x40\n      mstore\n        /* \"contract/solidity_21~30.sol\":1146:1185  keccak256( abi.encodePacked( _input ) ) */\n      dup1\n      mload\n      swap1\n      0x20\n      add\n      keccak256\n        /* \"contract/solidity_21~30.sol\":1146:1229  keccak256( abi.encodePacked( _input ) ) == keccak256( abi.encodePacked( \"Alice\" ) ) */\n      sub\n        /* \"contract/solidity_21~30.sol\":1142:1243  if( keccak256( abi.encodePacked( _input ) ) == keccak256( abi.encodePacked( \"Alice\" ) ) ) return true */\n      tag_15\n      jumpi\n        /* \"contract/solidity_21~30.sol\":1239:1243  true */\n      0x01\n        /* \"contract/solidity_21~30.sol\":1232:1243  return true */\n      swap1\n      pop\n      jump(tag_10)\n        /* \"contract/solidity_21~30.sol\":1142:1243  if( keccak256( abi.encodePacked( _input ) ) == keccak256( abi.encodePacked( \"Alice\" ) ) ) return true */\n    tag_15:\n        /* \"contract/solidity_21~30.sol\":1260:1265  false */\n      0x00\n        /* \"contract/solidity_21~30.sol\":1253:1265  return false */\n      swap1\n      pop\n        /* \"contract/solidity_21~30.sol\":1071:1273  function f( string memory _input ) public pure returns ( bool ) {... */\n    tag_10:\n      swap2\n      swap1\n      pop\n      jump\t// out\n        /* \"#utility.yul\":7:82   */\n    tag_16:\n        /* \"#utility.yul\":40:46   */\n      0x00\n        /* \"#utility.yul\":73:75   */\n      0x40\n        /* \"#utility.yul\":67:76   */\n      mload\n        /* \"#utility.yul\":57:76   */\n      swap1\n      pop\n        /* \"#utility.yul\":7:82   */\n      swap1\n      jump\t// out\n        /* \"#utility.yul\":88:205   */\n    tag_17:\n        /* \"#utility.yul\":197:198   */\n      0x00\n        /* \"#utility.yul\":194:195   */\n      dup1\n        /* \"#utility.yul\":187:199   */\n      revert\n        /* \"#utility.yul\":211:328   */\n    tag_18:\n        /* \"#utility.yul\":320:321   */\n      0x00\n        /* \"#utility.yul\":317:318   */\n      dup1\n        /* \"#utility.yul\":310:322   */\n      revert\n        /* \"#utility.yul\":334:451   */\n    tag_19:\n        /* \"#utility.yul\":443:444   */\n      0x00\n        /* \"#utility.yul\":440:441   */\n      dup1\n        /* \"#utility.yul\":433:445   */\n      revert\n        /* \"#utility.yul\":457:574   */\n    tag_20:\n        /* \"#utility.yul\":566:567   */\n      0x00\n        /* \"#utility.yul\":563:564   */\n      dup1\n        /* \"#utility.yul\":556:568   */\n      revert\n        /* \"#utility.yul\":580:682   */\n    tag_21:\n        /* \"#utility.yul\":621:627   */\n      0x00\n        /* \"#utility.yul\":672:674   */\n      0x1f\n        /* \"#utility.yul\":668:675   */\n      not\n        /* \"#utility.yul\":663:665   */\n      0x1f\n        /* \"#utility.yul\":656:661   */\n      dup4\n        /* \"#utility.yul\":652:666   */\n      add\n        /* \"#utility.yul\":648:676   */\n      and\n        /* \"#utility.yul\":638:676   */\n      swap1\n      pop\n        /* \"#utility.yul\":580:682   */\n      swap2\n      swap1\n      pop\n      jump\t// out\n        /* \"#utility.yul\":688:868   */\n    tag_22:\n        /* \"#utility.yul\":736:813   */\n      0x4e487b7100000000000000000000000000000000000000000000000000000000\n        /* \"#utility.yul\":733:734   */\n      0x00\n        /* \"#utility.yul\":726:814   */\n      mstore\n        /* \"#utility.yul\":833:837   */\n      0x41\n        /* \"#utility.yul\":830:831   */\n      0x04\n        /* \"#utility.yul\":823:838   */\n      mstore\n        /* \"#utility.yul\":857:861   */\n      0x24\n        /* \"#utility.yul\":854:855   */\n      0x00\n        /* \"#utility.yul\":847:862   */\n      revert\n        /* \"#utility.yul\":874:1155   */\n    tag_23:\n        /* \"#utility.yul\":957:984   */\n      tag_46\n        /* \"#utility.yul\":979:983   */\n      dup3\n        /* \"#utility.yul\":957:984   */\n      tag_21\n      jump\t// in\n    tag_46:\n        /* \"#utility.yul\":949:955   */\n      dup2\n        /* \"#utility.yul\":945:985   */\n      add\n        /* \"#utility.yul\":1087:1093   */\n      dup2\n        /* \"#utility.yul\":1075:1085   */\n      dup2\n        /* \"#utility.yul\":1072:1094   */\n      lt\n        /* \"#utility.yul\":1051:1069   */\n      0xffffffffffffffff\n        /* \"#utility.yul\":1039:1049   */\n      dup3\n        /* \"#utility.yul\":1036:1070   */\n      gt\n        /* \"#utility.yul\":1033:1095   */\n      or\n        /* \"#utility.yul\":1030:1118   */\n      iszero\n      tag_47\n      jumpi\n        /* \"#utility.yul\":1098:1116   */\n      tag_48\n      tag_22\n      jump\t// in\n    tag_48:\n        /* \"#utility.yul\":1030:1118   */\n    tag_47:\n        /* \"#utility.yul\":1138:1148   */\n      dup1\n        /* \"#utility.yul\":1134:1136   */\n      0x40\n        /* \"#utility.yul\":1127:1149   */\n      mstore\n        /* \"#utility.yul\":917:1155   */\n      pop\n        /* \"#utility.yul\":874:1155   */\n      pop\n      pop\n      jump\t// out\n        /* \"#utility.yul\":1161:1290   */\n    tag_24:\n        /* \"#utility.yul\":1195:1201   */\n      0x00\n        /* \"#utility.yul\":1222:1242   */\n      tag_50\n      tag_16\n      jump\t// in\n    tag_50:\n        /* \"#utility.yul\":1212:1242   */\n      swap1\n      pop\n        /* \"#utility.yul\":1251:1284   */\n      tag_51\n        /* \"#utility.yul\":1279:1283   */\n      dup3\n        /* \"#utility.yul\":1271:1277   */\n      dup3\n        /* \"#utility.yul\":1251:1284   */\n      tag_23\n      jump\t// in\n    tag_51:\n        /* \"#utility.yul\":1161:1290   */\n      swap2\n      swap1\n      pop\n      jump\t// out\n        /* \"#utility.yul\":1296:1604   */\n    tag_25:\n        /* \"#utility.yul\":1358:1362   */\n      0x00\n        /* \"#utility.yul\":1448:1466   */\n      0xffffffffffffffff\n        /* \"#utility.yul\":1440:1446   */\n      dup3\n        /* \"#utility.yul\":1437:1467   */\n      gt\n        /* \"#utility.yul\":1434:1490   */\n      iszero\n      tag_53\n      jumpi\n        /* \"#utility.yul\":1470:1488   */\n      tag_54\n      tag_22\n      jump\t// in\n    tag_54:\n        /* \"#utility.yul\":1434:1490   */\n    tag_53:\n        /* \"#utility.yul\":1508:1537   */\n      tag_55\n        /* \"#utility.yul\":1530:1536   */\n      dup3\n        /* \"#utility.yul\":1508:1537   */\n      tag_21\n      jump\t// in\n    tag_55:\n        /* \"#utility.yul\":1500:1537   */\n      swap1\n      pop\n        /* \"#utility.yul\":1592:1596   */\n      0x20\n        /* \"#utility.yul\":1586:1590   */\n      dup2\n        /* \"#utility.yul\":1582:1597   */\n      add\n        /* \"#utility.yul\":1574:1597   */\n      swap1\n      pop\n        /* \"#utility.yul\":1296:1604   */\n      swap2\n      swap1\n      pop\n      jump\t// out\n        /* \"#utility.yul\":1610:1756   */\n    tag_26:\n        /* \"#utility.yul\":1707:1713   */\n      dup3\n        /* \"#utility.yul\":1702:1705   */\n      dup2\n        /* \"#utility.yul\":1697:1700   */\n      dup4\n        /* \"#utility.yul\":1684:1714   */\n      calldatacopy\n        /* \"#utility.yul\":1748:1749   */\n      0x00\n        /* \"#utility.yul\":1739:1745   */\n      dup4\n        /* \"#utility.yul\":1734:1737   */\n      dup4\n        /* \"#utility.yul\":1730:1746   */\n      add\n        /* \"#utility.yul\":1723:1750   */\n      mstore\n        /* \"#utility.yul\":1610:1756   */\n      pop\n      pop\n      pop\n      jump\t// out\n        /* \"#utility.yul\":1762:2187   */\n    tag_27:\n        /* \"#utility.yul\":1840:1845   */\n      0x00\n        /* \"#utility.yul\":1865:1931   */\n      tag_58\n        /* \"#utility.yul\":1881:1930   */\n      tag_59\n        /* \"#utility.yul\":1923:1929   */\n      dup5\n        /* \"#utility.yul\":1881:1930   */\n      tag_25\n      jump\t// in\n    tag_59:\n        /* \"#utility.yul\":1865:1931   */\n      tag_24\n      jump\t// in\n    tag_58:\n        /* \"#utility.yul\":1856:1931   */\n      swap1\n      pop\n        /* \"#utility.yul\":1954:1960   */\n      dup3\n        /* \"#utility.yul\":1947:1952   */\n      dup2\n        /* \"#utility.yul\":1940:1961   */\n      mstore\n        /* \"#utility.yul\":1992:1996   */\n      0x20\n        /* \"#utility.yul\":1985:1990   */\n      dup2\n        /* \"#utility.yul\":1981:1997   */\n      add\n        /* \"#utility.yul\":2030:2033   */\n      dup5\n        /* \"#utility.yul\":2021:2027   */\n      dup5\n        /* \"#utility.yul\":2016:2019   */\n      dup5\n        /* \"#utility.yul\":2012:2028   */\n      add\n        /* \"#utility.yul\":2009:2034   */\n      gt\n        /* \"#utility.yul\":2006:2118   */\n      iszero\n      tag_60\n      jumpi\n        /* \"#utility.yul\":2037:2116   */\n      tag_61\n      tag_20\n      jump\t// in\n    tag_61:\n        /* \"#utility.yul\":2006:2118   */\n    tag_60:\n        /* \"#utility.yul\":2127:2181   */\n      tag_62\n        /* \"#utility.yul\":2174:2180   */\n      dup5\n        /* \"#utility.yul\":2169:2172   */\n      dup3\n        /* \"#utility.yul\":2164:2167   */\n      dup6\n        /* \"#utility.yul\":2127:2181   */\n      tag_26\n      jump\t// in\n    tag_62:\n        /* \"#utility.yul\":1846:2187   */\n      pop\n        /* \"#utility.yul\":1762:2187   */\n      swap4\n      swap3\n      pop\n      pop\n      pop\n      jump\t// out\n        /* \"#utility.yul\":2207:2547   */\n    tag_28:\n        /* \"#utility.yul\":2263:2268   */\n      0x00\n        /* \"#utility.yul\":2312:2315   */\n      dup3\n        /* \"#utility.yul\":2305:2309   */\n      0x1f\n        /* \"#utility.yul\":2297:2303   */\n      dup4\n        /* \"#utility.yul\":2293:2310   */\n      add\n        /* \"#utility.yul\":2289:2316   */\n      slt\n        /* \"#utility.yul\":2279:2401   */\n      tag_64\n      jumpi\n        /* \"#utility.yul\":2320:2399   */\n      tag_65\n      tag_19\n      jump\t// in\n    tag_65:\n        /* \"#utility.yul\":2279:2401   */\n    tag_64:\n        /* \"#utility.yul\":2437:2443   */\n      dup2\n        /* \"#utility.yul\":2424:2444   */\n      calldataload\n        /* \"#utility.yul\":2462:2541   */\n      tag_66\n        /* \"#utility.yul\":2537:2540   */\n      dup5\n        /* \"#utility.yul\":2529:2535   */\n      dup3\n        /* \"#utility.yul\":2522:2526   */\n      0x20\n        /* \"#utility.yul\":2514:2520   */\n      dup7\n        /* \"#utility.yul\":2510:2527   */\n      add\n        /* \"#utility.yul\":2462:2541   */\n      tag_27\n      jump\t// in\n    tag_66:\n        /* \"#utility.yul\":2453:2541   */\n      swap2\n      pop\n        /* \"#utility.yul\":2269:2547   */\n      pop\n        /* \"#utility.yul\":2207:2547   */\n      swap3\n      swap2\n      pop\n      pop\n      jump\t// out\n        /* \"#utility.yul\":2553:3062   */\n    tag_6:\n        /* \"#utility.yul\":2622:2628   */\n      0x00\n        /* \"#utility.yul\":2671:2673   */\n      0x20\n        /* \"#utility.yul\":2659:2668   */\n      dup3\n        /* \"#utility.yul\":2650:2657   */\n      dup5\n        /* \"#utility.yul\":2646:2669   */\n      sub\n        /* \"#utility.yul\":2642:2674   */\n      slt\n        /* \"#utility.yul\":2639:2758   */\n      iszero\n      tag_68\n      jumpi\n        /* \"#utility.yul\":2677:2756   */\n      tag_69\n      tag_17\n      jump\t// in\n    tag_69:\n        /* \"#utility.yul\":2639:2758   */\n    tag_68:\n        /* \"#utility.yul\":2825:2826   */\n      0x00\n        /* \"#utility.yul\":2814:2823   */\n      dup3\n        /* \"#utility.yul\":2810:2827   */\n      add\n        /* \"#utility.yul\":2797:2828   */\n      calldataload\n        /* \"#utility.yul\":2855:2873   */\n      0xffffffffffffffff\n        /* \"#utility.yul\":2847:2853   */\n      dup2\n        /* \"#utility.yul\":2844:2874   */\n      gt\n        /* \"#utility.yul\":2841:2958   */\n      iszero\n      tag_70\n      jumpi\n        /* \"#utility.yul\":2877:2956   */\n      tag_71\n      tag_18\n      jump\t// in\n    tag_71:\n        /* \"#utility.yul\":2841:2958   */\n    tag_70:\n        /* \"#utility.yul\":2982:3045   */\n      tag_72\n        /* \"#utility.yul\":3037:3044   */\n      dup5\n        /* \"#utility.yul\":3028:3034   */\n      dup3\n        /* \"#utility.yul\":3017:3026   */\n      dup6\n        /* \"#utility.yul\":3013:3035   */\n      add\n        /* \"#utility.yul\":2982:3045   */\n      tag_28\n      jump\t// in\n    tag_72:\n        /* \"#utility.yul\":2972:3045   */\n      swap2\n      pop\n        /* \"#utility.yul\":2768:3055   */\n      pop\n        /* \"#utility.yul\":2553:3062   */\n      swap3\n      swap2\n      pop\n      pop\n      jump\t// out\n        /* \"#utility.yul\":3068:3158   */\n    tag_29:\n        /* \"#utility.yul\":3102:3109   */\n      0x00\n        /* \"#utility.yul\":3145:3150   */\n      dup2\n        /* \"#utility.yul\":3138:3151   */\n      iszero\n        /* \"#utility.yul\":3131:3152   */\n      iszero\n        /* \"#utility.yul\":3120:3152   */\n      swap1\n      pop\n        /* \"#utility.yul\":3068:3158   */\n      swap2\n      swap1\n      pop\n      jump\t// out\n        /* \"#utility.yul\":3164:3273   */\n    tag_30:\n        /* \"#utility.yul\":3245:3266   */\n      tag_75\n        /* \"#utility.yul\":3260:3265   */\n      dup2\n        /* \"#utility.yul\":3245:3266   */\n      tag_29\n      jump\t// in\n    tag_75:\n        /* \"#utility.yul\":3240:3243   */\n      dup3\n        /* \"#utility.yul\":3233:3267   */\n      mstore\n        /* \"#utility.yul\":3164:3273   */\n      pop\n      pop\n      jump\t// out\n        /* \"#utility.yul\":3279:3489   */\n    tag_9:\n        /* \"#utility.yul\":3366:3370   */\n      0x00\n        /* \"#utility.yul\":3404:3406   */\n      0x20\n        /* \"#utility.yul\":3393:3402   */\n      dup3\n        /* \"#utility.yul\":3389:3407   */\n      add\n        /* \"#utility.yul\":3381:3407   */\n      swap1\n      pop\n        /* \"#utility.yul\":3417:3482   */\n      tag_77\n        /* \"#utility.yul\":3479:3480   */\n      0x00\n        /* \"#utility.yul\":3468:3477   */\n      dup4\n        /* \"#utility.yul\":3464:3481   */\n      add\n        /* \"#utility.yul\":3455:3461   */\n      dup5\n        /* \"#utility.yul\":3417:3482   */\n      tag_30\n      jump\t// in\n    tag_77:\n        /* \"#utility.yul\":3279:3489   */\n      swap3\n      swap2\n      pop\n      pop\n      jump\t// out\n        /* \"#utility.yul\":3495:3643   */\n    tag_31:\n        /* \"#utility.yul\":3597:3608   */\n      0x00\n        /* \"#utility.yul\":3634:3637   */\n      dup2\n        /* \"#utility.yul\":3619:3637   */\n      swap1\n      pop\n        /* \"#utility.yul\":3495:3643   */\n      swap3\n      swap2\n      pop\n      pop\n      jump\t// out\n        /* \"#utility.yul\":3649:3804   */\n    tag_32:\n        /* \"#utility.yul\":3789:3796   */\n      0x416c696365000000000000000000000000000000000000000000000000000000\n        /* \"#utility.yul\":3785:3786   */\n      0x00\n        /* \"#utility.yul\":3777:3783   */\n      dup3\n        /* \"#utility.yul\":3773:3787   */\n      add\n        /* \"#utility.yul\":3766:3797   */\n      mstore\n        /* \"#utility.yul\":3649:3804   */\n      pop\n      jump\t// out\n        /* \"#utility.yul\":3810:4210   */\n    tag_33:\n        /* \"#utility.yul\":3970:3973   */\n      0x00\n        /* \"#utility.yul\":3991:4075   */\n      tag_81\n        /* \"#utility.yul\":4073:4074   */\n      0x05\n        /* \"#utility.yul\":4068:4071   */\n      dup4\n        /* \"#utility.yul\":3991:4075   */\n      tag_31\n      jump\t// in\n    tag_81:\n        /* \"#utility.yul\":3984:4075   */\n      swap2\n      pop\n        /* \"#utility.yul\":4084:4177   */\n      tag_82\n        /* \"#utility.yul\":4173:4176   */\n      dup3\n        /* \"#utility.yul\":4084:4177   */\n      tag_32\n      jump\t// in\n    tag_82:\n        /* \"#utility.yul\":4202:4203   */\n      0x05\n        /* \"#utility.yul\":4197:4200   */\n      dup3\n        /* \"#utility.yul\":4193:4204   */\n      add\n        /* \"#utility.yul\":4186:4204   */\n      swap1\n      pop\n        /* \"#utility.yul\":3810:4210   */\n      swap2\n      swap1\n      pop\n      jump\t// out\n        /* \"#utility.yul\":4216:4597   */\n    tag_12:\n        /* \"#utility.yul\":4401:4404   */\n      0x00\n        /* \"#utility.yul\":4423:4571   */\n      tag_84\n        /* \"#utility.yul\":4567:4570   */\n      dup3\n        /* \"#utility.yul\":4423:4571   */\n      tag_33\n      jump\t// in\n    tag_84:\n        /* \"#utility.yul\":4416:4571   */\n      swap2\n      pop\n        /* \"#utility.yul\":4588:4591   */\n      dup2\n        /* \"#utility.yul\":4581:4591   */\n      swap1\n      pop\n        /* \"#utility.yul\":4216:4597   */\n      swap2\n      swap1\n      pop\n      jump\t// out\n        /* \"#utility.yul\":4603:4702   */\n    tag_34:\n        /* \"#utility.yul\":4655:4661   */\n      0x00\n        /* \"#utility.yul\":4689:4694   */\n      dup2\n        /* \"#utility.yul\":4683:4695   */\n      mload\n        /* \"#utility.yul\":4673:4695   */\n      swap1\n      pop\n        /* \"#utility.yul\":4603:4702   */\n      swap2\n      swap1\n      pop\n      jump\t// out\n        /* \"#utility.yul\":4708:4954   */\n    tag_35:\n        /* \"#utility.yul\":4789:4790   */\n      0x00\n        /* \"#utility.yul\":4799:4912   */\n    tag_87:\n        /* \"#utility.yul\":4813:4819   */\n      dup4\n        /* \"#utility.yul\":4810:4811   */\n      dup2\n        /* \"#utility.yul\":4807:4820   */\n      lt\n        /* \"#utility.yul\":4799:4912   */\n      iszero\n      tag_89\n      jumpi\n        /* \"#utility.yul\":4898:4899   */\n      dup1\n        /* \"#utility.yul\":4893:4896   */\n      dup3\n        /* \"#utility.yul\":4889:4900   */\n      add\n        /* \"#utility.yul\":4883:4901   */\n      mload\n        /* \"#utility.yul\":4879:4880   */\n      dup2\n        /* \"#utility.yul\":4874:4877   */\n      dup5\n        /* \"#utility.yul\":4870:4881   */\n      add\n        /* \"#utility.yul\":4863:4902   */\n      mstore\n        /* \"#utility.yul\":4835:4837   */\n      0x20\n        /* \"#utility.yul\":4832:4833   */\n      dup2\n        /* \"#utility.yul\":4828:4838   */\n      add\n        /* \"#utility.yul\":4823:4838   */\n      swap1\n      pop\n        /* \"#utility.yul\":4799:4912   */\n      jump(tag_87)\n    tag_89:\n        /* \"#utility.yul\":4946:4947   */\n      0x00\n        /* \"#utility.yul\":4937:4943   */\n      dup5\n        /* \"#utility.yul\":4932:4935   */\n      dup5\n        /* \"#utility.yul\":4928:4944   */\n      add\n        /* \"#utility.yul\":4921:4948   */\n      mstore\n        /* \"#utility.yul\":4770:4954   */\n      pop\n        /* \"#utility.yul\":4708:4954   */\n      pop\n      pop\n      pop\n      jump\t// out\n        /* \"#utility.yul\":4960:5350   */\n    tag_36:\n        /* \"#utility.yul\":5066:5069   */\n      0x00\n        /* \"#utility.yul\":5094:5133   */\n      tag_91\n        /* \"#utility.yul\":5127:5132   */\n      dup3\n        /* \"#utility.yul\":5094:5133   */\n      tag_34\n      jump\t// in\n    tag_91:\n        /* \"#utility.yul\":5149:5238   */\n      tag_92\n        /* \"#utility.yul\":5231:5237   */\n      dup2\n        /* \"#utility.yul\":5226:5229   */\n      dup6\n        /* \"#utility.yul\":5149:5238   */\n      tag_31\n      jump\t// in\n    tag_92:\n        /* \"#utility.yul\":5142:5238   */\n      swap4\n      pop\n        /* \"#utility.yul\":5247:5312   */\n      tag_93\n        /* \"#utility.yul\":5305:5311   */\n      dup2\n        /* \"#utility.yul\":5300:5303   */\n      dup6\n        /* \"#utility.yul\":5293:5297   */\n      0x20\n        /* \"#utility.yul\":5286:5291   */\n      dup7\n        /* \"#utility.yul\":5282:5298   */\n      add\n        /* \"#utility.yul\":5247:5312   */\n      tag_35\n      jump\t// in\n    tag_93:\n        /* \"#utility.yul\":5337:5343   */\n      dup1\n        /* \"#utility.yul\":5332:5335   */\n      dup5\n        /* \"#utility.yul\":5328:5344   */\n      add\n        /* \"#utility.yul\":5321:5344   */\n      swap2\n      pop\n        /* \"#utility.yul\":5070:5350   */\n      pop\n        /* \"#utility.yul\":4960:5350   */\n      swap3\n      swap2\n      pop\n      pop\n      jump\t// out\n        /* \"#utility.yul\":5356:5631   */\n    tag_14:\n        /* \"#utility.yul\":5488:5491   */\n      0x00\n        /* \"#utility.yul\":5510:5605   */\n      tag_95\n        /* \"#utility.yul\":5601:5604   */\n      dup3\n        /* \"#utility.yul\":5592:5598   */\n      dup5\n        /* \"#utility.yul\":5510:5605   */\n      tag_36\n      jump\t// in\n    tag_95:\n        /* \"#utility.yul\":5503:5605   */\n      swap2\n      pop\n        /* \"#utility.yul\":5622:5625   */\n      dup2\n        /* \"#utility.yul\":5615:5625   */\n      swap1\n      pop\n        /* \"#utility.yul\":5356:5631   */\n      swap3\n      swap2\n      pop\n      pop\n      jump\t// out\n\n    auxdata: 0xa264697066735822122036fe248b74de2628adb70af8d21679845947a2b4cf2f45de0f73de25a7570ac064736f6c63430008120033\n}\n",
				"bytecode": {
					"linkReferences": {},
					"object": "608060405234801561001057600080fd5b506103be806100206000396000f3fe608060405234801561001057600080fd5b506004361061002b5760003560e01c806391e145ef14610030575b600080fd5b61004a60048036038101906100459190610220565b610060565b6040516100579190610284565b60405180910390f35b6000604051602001610071906102f6565b60405160208183030381529060405280519060200120826040516020016100989190610371565b60405160208183030381529060405280519060200120036100bc57600190506100c1565b600090505b919050565b6000604051905090565b600080fd5b600080fd5b600080fd5b600080fd5b6000601f19601f8301169050919050565b7f4e487b7100000000000000000000000000000000000000000000000000000000600052604160045260246000fd5b61012d826100e4565b810181811067ffffffffffffffff8211171561014c5761014b6100f5565b5b80604052505050565b600061015f6100c6565b905061016b8282610124565b919050565b600067ffffffffffffffff82111561018b5761018a6100f5565b5b610194826100e4565b9050602081019050919050565b82818337600083830152505050565b60006101c36101be84610170565b610155565b9050828152602081018484840111156101df576101de6100df565b5b6101ea8482856101a1565b509392505050565b600082601f830112610207576102066100da565b5b81356102178482602086016101b0565b91505092915050565b600060208284031215610236576102356100d0565b5b600082013567ffffffffffffffff811115610254576102536100d5565b5b610260848285016101f2565b91505092915050565b60008115159050919050565b61027e81610269565b82525050565b60006020820190506102996000830184610275565b92915050565b600081905092915050565b7f416c696365000000000000000000000000000000000000000000000000000000600082015250565b60006102e060058361029f565b91506102eb826102aa565b600582019050919050565b6000610301826102d3565b9150819050919050565b600081519050919050565b60005b83811015610334578082015181840152602081019050610319565b60008484015250505050565b600061034b8261030b565b610355818561029f565b9350610365818560208601610316565b80840191505092915050565b600061037d8284610340565b91508190509291505056fea264697066735822122036fe248b74de2628adb70af8d21679845947a2b4cf2f45de0f73de25a7570ac064736f6c63430008120033",
					"opcodes": "PUSH1 0x80 PUSH1 0x40 MSTORE CALLVALUE DUP1 ISZERO PUSH2 0x10 JUMPI PUSH1 0x0 DUP1 REVERT JUMPDEST POP PUSH2 0x3BE DUP1 PUSH2 0x20 PUSH1 0x0 CODECOPY PUSH1 0x0 RETURN INVALID PUSH1 0x80 PUSH1 0x40 MSTORE CALLVALUE DUP1 ISZERO PUSH2 0x10 JUMPI PUSH1 0x0 DUP1 REVERT JUMPDEST POP PUSH1 0x4 CALLDATASIZE LT PUSH2 0x2B JUMPI PUSH1 0x0 CALLDATALOAD PUSH1 0xE0 SHR DUP1 PUSH4 0x91E145EF EQ PUSH2 0x30 JUMPI JUMPDEST PUSH1 0x0 DUP1 REVERT JUMPDEST PUSH2 0x4A PUSH1 0x4 DUP1 CALLDATASIZE SUB DUP2 ADD SWAP1 PUSH2 0x45 SWAP2 SWAP1 PUSH2 0x220 JUMP JUMPDEST PUSH2 0x60 JUMP JUMPDEST PUSH1 0x40 MLOAD PUSH2 0x57 SWAP2 SWAP1 PUSH2 0x284 JUMP JUMPDEST PUSH1 0x40 MLOAD DUP1 SWAP2 SUB SWAP1 RETURN JUMPDEST PUSH1 0x0 PUSH1 0x40 MLOAD PUSH1 0x20 ADD PUSH2 0x71 SWAP1 PUSH2 0x2F6 JUMP JUMPDEST PUSH1 0x40 MLOAD PUSH1 0x20 DUP2 DUP4 SUB SUB DUP2 MSTORE SWAP1 PUSH1 0x40 MSTORE DUP1 MLOAD SWAP1 PUSH1 0x20 ADD KECCAK256 DUP3 PUSH1 0x40 MLOAD PUSH1 0x20 ADD PUSH2 0x98 SWAP2 SWAP1 PUSH2 0x371 JUMP JUMPDEST PUSH1 0x40 MLOAD PUSH1 0x20 DUP2 DUP4 SUB SUB DUP2 MSTORE SWAP1 PUSH1 0x40 MSTORE DUP1 MLOAD SWAP1 PUSH1 0x20 ADD KECCAK256 SUB PUSH2 0xBC JUMPI PUSH1 0x1 SWAP1 POP PUSH2 0xC1 JUMP JUMPDEST PUSH1 0x0 SWAP1 POP JUMPDEST SWAP2 SWAP1 POP JUMP JUMPDEST PUSH1 0x0 PUSH1 0x40 MLOAD SWAP1 POP SWAP1 JUMP JUMPDEST PUSH1 0x0 DUP1 REVERT JUMPDEST PUSH1 0x0 DUP1 REVERT JUMPDEST PUSH1 0x0 DUP1 REVERT JUMPDEST PUSH1 0x0 DUP1 REVERT JUMPDEST PUSH1 0x0 PUSH1 0x1F NOT PUSH1 0x1F DUP4 ADD AND SWAP1 POP SWAP2 SWAP1 POP JUMP JUMPDEST PUSH32 0x4E487B7100000000000000000000000000000000000000000000000000000000 PUSH1 0x0 MSTORE PUSH1 0x41 PUSH1 0x4 MSTORE PUSH1 0x24 PUSH1 0x0 REVERT JUMPDEST PUSH2 0x12D DUP3 PUSH2 0xE4 JUMP JUMPDEST DUP2 ADD DUP2 DUP2 LT PUSH8 0xFFFFFFFFFFFFFFFF DUP3 GT OR ISZERO PUSH2 0x14C JUMPI PUSH2 0x14B PUSH2 0xF5 JUMP JUMPDEST JUMPDEST DUP1 PUSH1 0x40 MSTORE POP POP POP JUMP JUMPDEST PUSH1 0x0 PUSH2 0x15F PUSH2 0xC6 JUMP JUMPDEST SWAP1 POP PUSH2 0x16B DUP3 DUP3 PUSH2 0x124 JUMP JUMPDEST SWAP2 SWAP1 POP JUMP JUMPDEST PUSH1 0x0 PUSH8 0xFFFFFFFFFFFFFFFF DUP3 GT ISZERO PUSH2 0x18B JUMPI PUSH2 0x18A PUSH2 0xF5 JUMP JUMPDEST JUMPDEST PUSH2 0x194 DUP3 PUSH2 0xE4 JUMP JUMPDEST SWAP1 POP PUSH1 0x20 DUP2 ADD SWAP1 POP SWAP2 SWAP1 POP JUMP JUMPDEST DUP3 DUP2 DUP4 CALLDATACOPY PUSH1 0x0 DUP4 DUP4 ADD MSTORE POP POP POP JUMP JUMPDEST PUSH1 0x0 PUSH2 0x1C3 PUSH2 0x1BE DUP5 PUSH2 0x170 JUMP JUMPDEST PUSH2 0x155 JUMP JUMPDEST SWAP1 POP DUP3 DUP2 MSTORE PUSH1 0x20 DUP2 ADD DUP5 DUP5 DUP5 ADD GT ISZERO PUSH2 0x1DF JUMPI PUSH2 0x1DE PUSH2 0xDF JUMP JUMPDEST JUMPDEST PUSH2 0x1EA DUP5 DUP3 DUP6 PUSH2 0x1A1 JUMP JUMPDEST POP SWAP4 SWAP3 POP POP POP JUMP JUMPDEST PUSH1 0x0 DUP3 PUSH1 0x1F DUP4 ADD SLT PUSH2 0x207 JUMPI PUSH2 0x206 PUSH2 0xDA JUMP JUMPDEST JUMPDEST DUP2 CALLDATALOAD PUSH2 0x217 DUP5 DUP3 PUSH1 0x20 DUP7 ADD PUSH2 0x1B0 JUMP JUMPDEST SWAP2 POP POP SWAP3 SWAP2 POP POP JUMP JUMPDEST PUSH1 0x0 PUSH1 0x20 DUP3 DUP5 SUB SLT ISZERO PUSH2 0x236 JUMPI PUSH2 0x235 PUSH2 0xD0 JUMP JUMPDEST JUMPDEST PUSH1 0x0 DUP3 ADD CALLDATALOAD PUSH8 0xFFFFFFFFFFFFFFFF DUP2 GT ISZERO PUSH2 0x254 JUMPI PUSH2 0x253 PUSH2 0xD5 JUMP JUMPDEST JUMPDEST PUSH2 0x260 DUP5 DUP3 DUP6 ADD PUSH2 0x1F2 JUMP JUMPDEST SWAP2 POP POP SWAP3 SWAP2 POP POP JUMP JUMPDEST PUSH1 0x0 DUP2 ISZERO ISZERO SWAP1 POP SWAP2 SWAP1 POP JUMP JUMPDEST PUSH2 0x27E DUP2 PUSH2 0x269 JUMP JUMPDEST DUP3 MSTORE POP POP JUMP JUMPDEST PUSH1 0x0 PUSH1 0x20 DUP3 ADD SWAP1 POP PUSH2 0x299 PUSH1 0x0 DUP4 ADD DUP5 PUSH2 0x275 JUMP JUMPDEST SWAP3 SWAP2 POP POP JUMP JUMPDEST PUSH1 0x0 DUP2 SWAP1 POP SWAP3 SWAP2 POP POP JUMP JUMPDEST PUSH32 0x416C696365000000000000000000000000000000000000000000000000000000 PUSH1 0x0 DUP3 ADD MSTORE POP JUMP JUMPDEST PUSH1 0x0 PUSH2 0x2E0 PUSH1 0x5 DUP4 PUSH2 0x29F JUMP JUMPDEST SWAP2 POP PUSH2 0x2EB DUP3 PUSH2 0x2AA JUMP JUMPDEST PUSH1 0x5 DUP3 ADD SWAP1 POP SWAP2 SWAP1 POP JUMP JUMPDEST PUSH1 0x0 PUSH2 0x301 DUP3 PUSH2 0x2D3 JUMP JUMPDEST SWAP2 POP DUP2 SWAP1 POP SWAP2 SWAP1 POP JUMP JUMPDEST PUSH1 0x0 DUP2 MLOAD SWAP1 POP SWAP2 SWAP1 POP JUMP JUMPDEST PUSH1 0x0 JUMPDEST DUP4 DUP2 LT ISZERO PUSH2 0x334 JUMPI DUP1 DUP3 ADD MLOAD DUP2 DUP5 ADD MSTORE PUSH1 0x20 DUP2 ADD SWAP1 POP PUSH2 0x319 JUMP JUMPDEST PUSH1 0x0 DUP5 DUP5 ADD MSTORE POP POP POP POP JUMP JUMPDEST PUSH1 0x0 PUSH2 0x34B DUP3 PUSH2 0x30B JUMP JUMPDEST PUSH2 0x355 DUP2 DUP6 PUSH2 0x29F JUMP JUMPDEST SWAP4 POP PUSH2 0x365 DUP2 DUP6 PUSH1 0x20 DUP7 ADD PUSH2 0x316 JUMP JUMPDEST DUP1 DUP5 ADD SWAP2 POP POP SWAP3 SWAP2 POP POP JUMP JUMPDEST PUSH1 0x0 PUSH2 0x37D DUP3 DUP5 PUSH2 0x340 JUMP JUMPDEST SWAP2 POP DUP2 SWAP1 POP SWAP3 SWAP2 POP POP JUMP INVALID LOG2 PUSH5 0x6970667358 0x22 SLT KECCAK256 CALLDATASIZE INVALID 0x24 DUP12 PUSH21 0xDE2628ADB70AF8D21679845947A2B4CF2F45DE0F73 0xDE 0x25 0xA7 JUMPI EXP 0xC0 PUSH5 0x736F6C6343 STOP ADDMOD SLT STOP CALLER "
				},
				"gasEstimates": {
					"creation": {
						"codeDepositCost": "191600",
						"executionCost": "232",
						"totalCost": "191832"
					},
					"external": {
						"f(string)": "infinite"
					}
				},
				"methodIdentifiers": {
					"f(string)": "91e145ef"
				}
			},
			"storageLayout": {
				"storage": [],
				"types": null
			},
			"userdoc": {
				"kind": "user",
				"methods": {},
				"version": 1
			}
		}
	}
}