{
	"contract/solidity_61~70.sol": {
		"Q66": {
			"abi": [
				{
					"inputs": [
						{
							"internalType": "string",
							"name": "_input",
							"type": "string"
						}
					],
					"name": "A",
					"outputs": [
						{
							"internalType": "uint256",
							"name": "",
							"type": "uint256"
						}
					],
					"stateMutability": "pure",
					"type": "function"
				},
				{
					"inputs": [
						{
							"internalType": "uint256",
							"name": "_input",
							"type": "uint256"
						}
					],
					"name": "B",
					"outputs": [
						{
							"internalType": "uint256",
							"name": "",
							"type": "uint256"
						}
					],
					"stateMutability": "pure",
					"type": "function"
				}
			],
			"devdoc": {
				"kind": "dev",
				"methods": {},
				"version": 1
			},
			"evm": {
				"assembly": "    /* \"contract/solidity_61~70.sol\":2725:3127  contract Q66 {... */\n  mstore(0x40, 0x80)\n  callvalue\n  dup1\n  iszero\n  tag_1\n  jumpi\n  0x00\n  dup1\n  revert\ntag_1:\n  pop\n  dataSize(sub_0)\n  dup1\n  dataOffset(sub_0)\n  0x00\n  codecopy\n  0x00\n  return\nstop\n\nsub_0: assembly {\n        /* \"contract/solidity_61~70.sol\":2725:3127  contract Q66 {... */\n      mstore(0x40, 0x80)\n      callvalue\n      dup1\n      iszero\n      tag_1\n      jumpi\n      0x00\n      dup1\n      revert\n    tag_1:\n      pop\n      jumpi(tag_2, lt(calldatasize, 0x04))\n      shr(0xe0, calldataload(0x00))\n      dup1\n      0xdac0eb07\n      eq\n      tag_3\n      jumpi\n      dup1\n      0xdf7fc143\n      eq\n      tag_4\n      jumpi\n    tag_2:\n      0x00\n      dup1\n      revert\n        /* \"contract/solidity_61~70.sol\":2907:3118  function B( uint _input ) public pure returns( uint ) {... */\n    tag_3:\n      tag_5\n      0x04\n      dup1\n      calldatasize\n      sub\n      dup2\n      add\n      swap1\n      tag_6\n      swap2\n      swap1\n      tag_7\n      jump\t// in\n    tag_6:\n      tag_8\n      jump\t// in\n    tag_5:\n      mload(0x40)\n      tag_9\n      swap2\n      swap1\n      tag_10\n      jump\t// in\n    tag_9:\n      mload(0x40)\n      dup1\n      swap2\n      sub\n      swap1\n      return\n        /* \"contract/solidity_61~70.sol\":2747:2899  function A( string memory _input ) public pure returns( uint ) {... */\n    tag_4:\n      tag_11\n      0x04\n      dup1\n      calldatasize\n      sub\n      dup2\n      add\n      swap1\n      tag_12\n      swap2\n      swap1\n      tag_13\n      jump\t// in\n    tag_12:\n      tag_14\n      jump\t// in\n    tag_11:\n      mload(0x40)\n      tag_15\n      swap2\n      swap1\n      tag_10\n      jump\t// in\n    tag_15:\n      mload(0x40)\n      dup1\n      swap2\n      sub\n      swap1\n      return\n        /* \"contract/solidity_61~70.sol\":2907:3118  function B( uint _input ) public pure returns( uint ) {... */\n    tag_8:\n        /* \"contract/solidity_61~70.sol\":2954:2958  uint */\n      0x00\n        /* \"contract/solidity_61~70.sol\":2974:2982  uint cnt */\n      dup1\n        /* \"contract/solidity_61~70.sol\":2985:2986  0 */\n      0x00\n        /* \"contract/solidity_61~70.sol\":2974:2986  uint cnt = 0 */\n      swap1\n      pop\n        /* \"contract/solidity_61~70.sol\":3000:3085  while( _input > 0 ) {... */\n    tag_17:\n        /* \"contract/solidity_61~70.sol\":3016:3017  0 */\n      0x00\n        /* \"contract/solidity_61~70.sol\":3007:3013  _input */\n      dup4\n        /* \"contract/solidity_61~70.sol\":3007:3017  _input > 0 */\n      gt\n        /* \"contract/solidity_61~70.sol\":3000:3085  while( _input > 0 ) {... */\n      iszero\n      tag_18\n      jumpi\n        /* \"contract/solidity_61~70.sol\":3047:3048  5 */\n      0x05\n        /* \"contract/solidity_61~70.sol\":3037:3048  _input /= 5 */\n      dup4\n      tag_19\n      swap2\n      swap1\n      tag_20\n      jump\t// in\n    tag_19:\n      swap3\n      pop\n        /* \"contract/solidity_61~70.sol\":3064:3070  cnt ++ */\n      dup1\n      dup1\n      tag_21\n      swap1\n      tag_22\n      jump\t// in\n    tag_21:\n      swap2\n      pop\n      pop\n        /* \"contract/solidity_61~70.sol\":3000:3085  while( _input > 0 ) {... */\n      jump(tag_17)\n    tag_18:\n        /* \"contract/solidity_61~70.sol\":3104:3107  cnt */\n      dup1\n        /* \"contract/solidity_61~70.sol\":3097:3107  return cnt */\n      swap2\n      pop\n      pop\n        /* \"contract/solidity_61~70.sol\":2907:3118  function B( uint _input ) public pure returns( uint ) {... */\n      swap2\n      swap1\n      pop\n      jump\t// out\n        /* \"contract/solidity_61~70.sol\":2747:2899  function A( string memory _input ) public pure returns( uint ) {... */\n    tag_14:\n        /* \"contract/solidity_61~70.sol\":2803:2807  uint */\n      0x00\n        /* \"contract/solidity_61~70.sol\":2823:2840  bytes memory temp */\n      dup1\n        /* \"contract/solidity_61~70.sol\":2850:2856  _input */\n      dup3\n        /* \"contract/solidity_61~70.sol\":2823:2858  bytes memory temp = bytes( _input ) */\n      swap1\n      pop\n        /* \"contract/solidity_61~70.sol\":2877:2881  temp */\n      dup1\n        /* \"contract/solidity_61~70.sol\":2877:2888  temp.length */\n      mload\n        /* \"contract/solidity_61~70.sol\":2870:2888  return temp.length */\n      swap2\n      pop\n      pop\n        /* \"contract/solidity_61~70.sol\":2747:2899  function A( string memory _input ) public pure returns( uint ) {... */\n      swap2\n      swap1\n      pop\n      jump\t// out\n        /* \"#utility.yul\":7:82   */\n    tag_24:\n        /* \"#utility.yul\":40:46   */\n      0x00\n        /* \"#utility.yul\":73:75   */\n      0x40\n        /* \"#utility.yul\":67:76   */\n      mload\n        /* \"#utility.yul\":57:76   */\n      swap1\n      pop\n        /* \"#utility.yul\":7:82   */\n      swap1\n      jump\t// out\n        /* \"#utility.yul\":88:205   */\n    tag_25:\n        /* \"#utility.yul\":197:198   */\n      0x00\n        /* \"#utility.yul\":194:195   */\n      dup1\n        /* \"#utility.yul\":187:199   */\n      revert\n        /* \"#utility.yul\":211:328   */\n    tag_26:\n        /* \"#utility.yul\":320:321   */\n      0x00\n        /* \"#utility.yul\":317:318   */\n      dup1\n        /* \"#utility.yul\":310:322   */\n      revert\n        /* \"#utility.yul\":334:411   */\n    tag_27:\n        /* \"#utility.yul\":371:378   */\n      0x00\n        /* \"#utility.yul\":400:405   */\n      dup2\n        /* \"#utility.yul\":389:405   */\n      swap1\n      pop\n        /* \"#utility.yul\":334:411   */\n      swap2\n      swap1\n      pop\n      jump\t// out\n        /* \"#utility.yul\":417:539   */\n    tag_28:\n        /* \"#utility.yul\":490:514   */\n      tag_49\n        /* \"#utility.yul\":508:513   */\n      dup2\n        /* \"#utility.yul\":490:514   */\n      tag_27\n      jump\t// in\n    tag_49:\n        /* \"#utility.yul\":483:488   */\n      dup2\n        /* \"#utility.yul\":480:515   */\n      eq\n        /* \"#utility.yul\":470:533   */\n      tag_50\n      jumpi\n        /* \"#utility.yul\":529:530   */\n      0x00\n        /* \"#utility.yul\":526:527   */\n      dup1\n        /* \"#utility.yul\":519:531   */\n      revert\n        /* \"#utility.yul\":470:533   */\n    tag_50:\n        /* \"#utility.yul\":417:539   */\n      pop\n      jump\t// out\n        /* \"#utility.yul\":545:684   */\n    tag_29:\n        /* \"#utility.yul\":591:596   */\n      0x00\n        /* \"#utility.yul\":629:635   */\n      dup2\n        /* \"#utility.yul\":616:636   */\n      calldataload\n        /* \"#utility.yul\":607:636   */\n      swap1\n      pop\n        /* \"#utility.yul\":645:678   */\n      tag_52\n        /* \"#utility.yul\":672:677   */\n      dup2\n        /* \"#utility.yul\":645:678   */\n      tag_28\n      jump\t// in\n    tag_52:\n        /* \"#utility.yul\":545:684   */\n      swap3\n      swap2\n      pop\n      pop\n      jump\t// out\n        /* \"#utility.yul\":690:1019   */\n    tag_7:\n        /* \"#utility.yul\":749:755   */\n      0x00\n        /* \"#utility.yul\":798:800   */\n      0x20\n        /* \"#utility.yul\":786:795   */\n      dup3\n        /* \"#utility.yul\":777:784   */\n      dup5\n        /* \"#utility.yul\":773:796   */\n      sub\n        /* \"#utility.yul\":769:801   */\n      slt\n        /* \"#utility.yul\":766:885   */\n      iszero\n      tag_54\n      jumpi\n        /* \"#utility.yul\":804:883   */\n      tag_55\n      tag_25\n      jump\t// in\n    tag_55:\n        /* \"#utility.yul\":766:885   */\n    tag_54:\n        /* \"#utility.yul\":924:925   */\n      0x00\n        /* \"#utility.yul\":949:1002   */\n      tag_56\n        /* \"#utility.yul\":994:1001   */\n      dup5\n        /* \"#utility.yul\":985:991   */\n      dup3\n        /* \"#utility.yul\":974:983   */\n      dup6\n        /* \"#utility.yul\":970:992   */\n      add\n        /* \"#utility.yul\":949:1002   */\n      tag_29\n      jump\t// in\n    tag_56:\n        /* \"#utility.yul\":939:1002   */\n      swap2\n      pop\n        /* \"#utility.yul\":895:1012   */\n      pop\n        /* \"#utility.yul\":690:1019   */\n      swap3\n      swap2\n      pop\n      pop\n      jump\t// out\n        /* \"#utility.yul\":1025:1143   */\n    tag_30:\n        /* \"#utility.yul\":1112:1136   */\n      tag_58\n        /* \"#utility.yul\":1130:1135   */\n      dup2\n        /* \"#utility.yul\":1112:1136   */\n      tag_27\n      jump\t// in\n    tag_58:\n        /* \"#utility.yul\":1107:1110   */\n      dup3\n        /* \"#utility.yul\":1100:1137   */\n      mstore\n        /* \"#utility.yul\":1025:1143   */\n      pop\n      pop\n      jump\t// out\n        /* \"#utility.yul\":1149:1371   */\n    tag_10:\n        /* \"#utility.yul\":1242:1246   */\n      0x00\n        /* \"#utility.yul\":1280:1282   */\n      0x20\n        /* \"#utility.yul\":1269:1278   */\n      dup3\n        /* \"#utility.yul\":1265:1283   */\n      add\n        /* \"#utility.yul\":1257:1283   */\n      swap1\n      pop\n        /* \"#utility.yul\":1293:1364   */\n      tag_60\n        /* \"#utility.yul\":1361:1362   */\n      0x00\n        /* \"#utility.yul\":1350:1359   */\n      dup4\n        /* \"#utility.yul\":1346:1363   */\n      add\n        /* \"#utility.yul\":1337:1343   */\n      dup5\n        /* \"#utility.yul\":1293:1364   */\n      tag_30\n      jump\t// in\n    tag_60:\n        /* \"#utility.yul\":1149:1371   */\n      swap3\n      swap2\n      pop\n      pop\n      jump\t// out\n        /* \"#utility.yul\":1377:1494   */\n    tag_31:\n        /* \"#utility.yul\":1486:1487   */\n      0x00\n        /* \"#utility.yul\":1483:1484   */\n      dup1\n        /* \"#utility.yul\":1476:1488   */\n      revert\n        /* \"#utility.yul\":1500:1617   */\n    tag_32:\n        /* \"#utility.yul\":1609:1610   */\n      0x00\n        /* \"#utility.yul\":1606:1607   */\n      dup1\n        /* \"#utility.yul\":1599:1611   */\n      revert\n        /* \"#utility.yul\":1623:1725   */\n    tag_33:\n        /* \"#utility.yul\":1664:1670   */\n      0x00\n        /* \"#utility.yul\":1715:1717   */\n      0x1f\n        /* \"#utility.yul\":1711:1718   */\n      not\n        /* \"#utility.yul\":1706:1708   */\n      0x1f\n        /* \"#utility.yul\":1699:1704   */\n      dup4\n        /* \"#utility.yul\":1695:1709   */\n      add\n        /* \"#utility.yul\":1691:1719   */\n      and\n        /* \"#utility.yul\":1681:1719   */\n      swap1\n      pop\n        /* \"#utility.yul\":1623:1725   */\n      swap2\n      swap1\n      pop\n      jump\t// out\n        /* \"#utility.yul\":1731:1911   */\n    tag_34:\n        /* \"#utility.yul\":1779:1856   */\n      0x4e487b7100000000000000000000000000000000000000000000000000000000\n        /* \"#utility.yul\":1776:1777   */\n      0x00\n        /* \"#utility.yul\":1769:1857   */\n      mstore\n        /* \"#utility.yul\":1876:1880   */\n      0x41\n        /* \"#utility.yul\":1873:1874   */\n      0x04\n        /* \"#utility.yul\":1866:1881   */\n      mstore\n        /* \"#utility.yul\":1900:1904   */\n      0x24\n        /* \"#utility.yul\":1897:1898   */\n      0x00\n        /* \"#utility.yul\":1890:1905   */\n      revert\n        /* \"#utility.yul\":1917:2198   */\n    tag_35:\n        /* \"#utility.yul\":2000:2027   */\n      tag_66\n        /* \"#utility.yul\":2022:2026   */\n      dup3\n        /* \"#utility.yul\":2000:2027   */\n      tag_33\n      jump\t// in\n    tag_66:\n        /* \"#utility.yul\":1992:1998   */\n      dup2\n        /* \"#utility.yul\":1988:2028   */\n      add\n        /* \"#utility.yul\":2130:2136   */\n      dup2\n        /* \"#utility.yul\":2118:2128   */\n      dup2\n        /* \"#utility.yul\":2115:2137   */\n      lt\n        /* \"#utility.yul\":2094:2112   */\n      0xffffffffffffffff\n        /* \"#utility.yul\":2082:2092   */\n      dup3\n        /* \"#utility.yul\":2079:2113   */\n      gt\n        /* \"#utility.yul\":2076:2138   */\n      or\n        /* \"#utility.yul\":2073:2161   */\n      iszero\n      tag_67\n      jumpi\n        /* \"#utility.yul\":2141:2159   */\n      tag_68\n      tag_34\n      jump\t// in\n    tag_68:\n        /* \"#utility.yul\":2073:2161   */\n    tag_67:\n        /* \"#utility.yul\":2181:2191   */\n      dup1\n        /* \"#utility.yul\":2177:2179   */\n      0x40\n        /* \"#utility.yul\":2170:2192   */\n      mstore\n        /* \"#utility.yul\":1960:2198   */\n      pop\n        /* \"#utility.yul\":1917:2198   */\n      pop\n      pop\n      jump\t// out\n        /* \"#utility.yul\":2204:2333   */\n    tag_36:\n        /* \"#utility.yul\":2238:2244   */\n      0x00\n        /* \"#utility.yul\":2265:2285   */\n      tag_70\n      tag_24\n      jump\t// in\n    tag_70:\n        /* \"#utility.yul\":2255:2285   */\n      swap1\n      pop\n        /* \"#utility.yul\":2294:2327   */\n      tag_71\n        /* \"#utility.yul\":2322:2326   */\n      dup3\n        /* \"#utility.yul\":2314:2320   */\n      dup3\n        /* \"#utility.yul\":2294:2327   */\n      tag_35\n      jump\t// in\n    tag_71:\n        /* \"#utility.yul\":2204:2333   */\n      swap2\n      swap1\n      pop\n      jump\t// out\n        /* \"#utility.yul\":2339:2647   */\n    tag_37:\n        /* \"#utility.yul\":2401:2405   */\n      0x00\n        /* \"#utility.yul\":2491:2509   */\n      0xffffffffffffffff\n        /* \"#utility.yul\":2483:2489   */\n      dup3\n        /* \"#utility.yul\":2480:2510   */\n      gt\n        /* \"#utility.yul\":2477:2533   */\n      iszero\n      tag_73\n      jumpi\n        /* \"#utility.yul\":2513:2531   */\n      tag_74\n      tag_34\n      jump\t// in\n    tag_74:\n        /* \"#utility.yul\":2477:2533   */\n    tag_73:\n        /* \"#utility.yul\":2551:2580   */\n      tag_75\n        /* \"#utility.yul\":2573:2579   */\n      dup3\n        /* \"#utility.yul\":2551:2580   */\n      tag_33\n      jump\t// in\n    tag_75:\n        /* \"#utility.yul\":2543:2580   */\n      swap1\n      pop\n        /* \"#utility.yul\":2635:2639   */\n      0x20\n        /* \"#utility.yul\":2629:2633   */\n      dup2\n        /* \"#utility.yul\":2625:2640   */\n      add\n        /* \"#utility.yul\":2617:2640   */\n      swap1\n      pop\n        /* \"#utility.yul\":2339:2647   */\n      swap2\n      swap1\n      pop\n      jump\t// out\n        /* \"#utility.yul\":2653:2799   */\n    tag_38:\n        /* \"#utility.yul\":2750:2756   */\n      dup3\n        /* \"#utility.yul\":2745:2748   */\n      dup2\n        /* \"#utility.yul\":2740:2743   */\n      dup4\n        /* \"#utility.yul\":2727:2757   */\n      calldatacopy\n        /* \"#utility.yul\":2791:2792   */\n      0x00\n        /* \"#utility.yul\":2782:2788   */\n      dup4\n        /* \"#utility.yul\":2777:2780   */\n      dup4\n        /* \"#utility.yul\":2773:2789   */\n      add\n        /* \"#utility.yul\":2766:2793   */\n      mstore\n        /* \"#utility.yul\":2653:2799   */\n      pop\n      pop\n      pop\n      jump\t// out\n        /* \"#utility.yul\":2805:3230   */\n    tag_39:\n        /* \"#utility.yul\":2883:2888   */\n      0x00\n        /* \"#utility.yul\":2908:2974   */\n      tag_78\n        /* \"#utility.yul\":2924:2973   */\n      tag_79\n        /* \"#utility.yul\":2966:2972   */\n      dup5\n        /* \"#utility.yul\":2924:2973   */\n      tag_37\n      jump\t// in\n    tag_79:\n        /* \"#utility.yul\":2908:2974   */\n      tag_36\n      jump\t// in\n    tag_78:\n        /* \"#utility.yul\":2899:2974   */\n      swap1\n      pop\n        /* \"#utility.yul\":2997:3003   */\n      dup3\n        /* \"#utility.yul\":2990:2995   */\n      dup2\n        /* \"#utility.yul\":2983:3004   */\n      mstore\n        /* \"#utility.yul\":3035:3039   */\n      0x20\n        /* \"#utility.yul\":3028:3033   */\n      dup2\n        /* \"#utility.yul\":3024:3040   */\n      add\n        /* \"#utility.yul\":3073:3076   */\n      dup5\n        /* \"#utility.yul\":3064:3070   */\n      dup5\n        /* \"#utility.yul\":3059:3062   */\n      dup5\n        /* \"#utility.yul\":3055:3071   */\n      add\n        /* \"#utility.yul\":3052:3077   */\n      gt\n        /* \"#utility.yul\":3049:3161   */\n      iszero\n      tag_80\n      jumpi\n        /* \"#utility.yul\":3080:3159   */\n      tag_81\n      tag_32\n      jump\t// in\n    tag_81:\n        /* \"#utility.yul\":3049:3161   */\n    tag_80:\n        /* \"#utility.yul\":3170:3224   */\n      tag_82\n        /* \"#utility.yul\":3217:3223   */\n      dup5\n        /* \"#utility.yul\":3212:3215   */\n      dup3\n        /* \"#utility.yul\":3207:3210   */\n      dup6\n        /* \"#utility.yul\":3170:3224   */\n      tag_38\n      jump\t// in\n    tag_82:\n        /* \"#utility.yul\":2889:3230   */\n      pop\n        /* \"#utility.yul\":2805:3230   */\n      swap4\n      swap3\n      pop\n      pop\n      pop\n      jump\t// out\n        /* \"#utility.yul\":3250:3590   */\n    tag_40:\n        /* \"#utility.yul\":3306:3311   */\n      0x00\n        /* \"#utility.yul\":3355:3358   */\n      dup3\n        /* \"#utility.yul\":3348:3352   */\n      0x1f\n        /* \"#utility.yul\":3340:3346   */\n      dup4\n        /* \"#utility.yul\":3336:3353   */\n      add\n        /* \"#utility.yul\":3332:3359   */\n      slt\n        /* \"#utility.yul\":3322:3444   */\n      tag_84\n      jumpi\n        /* \"#utility.yul\":3363:3442   */\n      tag_85\n      tag_31\n      jump\t// in\n    tag_85:\n        /* \"#utility.yul\":3322:3444   */\n    tag_84:\n        /* \"#utility.yul\":3480:3486   */\n      dup2\n        /* \"#utility.yul\":3467:3487   */\n      calldataload\n        /* \"#utility.yul\":3505:3584   */\n      tag_86\n        /* \"#utility.yul\":3580:3583   */\n      dup5\n        /* \"#utility.yul\":3572:3578   */\n      dup3\n        /* \"#utility.yul\":3565:3569   */\n      0x20\n        /* \"#utility.yul\":3557:3563   */\n      dup7\n        /* \"#utility.yul\":3553:3570   */\n      add\n        /* \"#utility.yul\":3505:3584   */\n      tag_39\n      jump\t// in\n    tag_86:\n        /* \"#utility.yul\":3496:3584   */\n      swap2\n      pop\n        /* \"#utility.yul\":3312:3590   */\n      pop\n        /* \"#utility.yul\":3250:3590   */\n      swap3\n      swap2\n      pop\n      pop\n      jump\t// out\n        /* \"#utility.yul\":3596:4105   */\n    tag_13:\n        /* \"#utility.yul\":3665:3671   */\n      0x00\n        /* \"#utility.yul\":3714:3716   */\n      0x20\n        /* \"#utility.yul\":3702:3711   */\n      dup3\n        /* \"#utility.yul\":3693:3700   */\n      dup5\n        /* \"#utility.yul\":3689:3712   */\n      sub\n        /* \"#utility.yul\":3685:3717   */\n      slt\n        /* \"#utility.yul\":3682:3801   */\n      iszero\n      tag_88\n      jumpi\n        /* \"#utility.yul\":3720:3799   */\n      tag_89\n      tag_25\n      jump\t// in\n    tag_89:\n        /* \"#utility.yul\":3682:3801   */\n    tag_88:\n        /* \"#utility.yul\":3868:3869   */\n      0x00\n        /* \"#utility.yul\":3857:3866   */\n      dup3\n        /* \"#utility.yul\":3853:3870   */\n      add\n        /* \"#utility.yul\":3840:3871   */\n      calldataload\n        /* \"#utility.yul\":3898:3916   */\n      0xffffffffffffffff\n        /* \"#utility.yul\":3890:3896   */\n      dup2\n        /* \"#utility.yul\":3887:3917   */\n      gt\n        /* \"#utility.yul\":3884:4001   */\n      iszero\n      tag_90\n      jumpi\n        /* \"#utility.yul\":3920:3999   */\n      tag_91\n      tag_26\n      jump\t// in\n    tag_91:\n        /* \"#utility.yul\":3884:4001   */\n    tag_90:\n        /* \"#utility.yul\":4025:4088   */\n      tag_92\n        /* \"#utility.yul\":4080:4087   */\n      dup5\n        /* \"#utility.yul\":4071:4077   */\n      dup3\n        /* \"#utility.yul\":4060:4069   */\n      dup6\n        /* \"#utility.yul\":4056:4078   */\n      add\n        /* \"#utility.yul\":4025:4088   */\n      tag_40\n      jump\t// in\n    tag_92:\n        /* \"#utility.yul\":4015:4088   */\n      swap2\n      pop\n        /* \"#utility.yul\":3811:4098   */\n      pop\n        /* \"#utility.yul\":3596:4105   */\n      swap3\n      swap2\n      pop\n      pop\n      jump\t// out\n        /* \"#utility.yul\":4111:4291   */\n    tag_41:\n        /* \"#utility.yul\":4159:4236   */\n      0x4e487b7100000000000000000000000000000000000000000000000000000000\n        /* \"#utility.yul\":4156:4157   */\n      0x00\n        /* \"#utility.yul\":4149:4237   */\n      mstore\n        /* \"#utility.yul\":4256:4260   */\n      0x12\n        /* \"#utility.yul\":4253:4254   */\n      0x04\n        /* \"#utility.yul\":4246:4261   */\n      mstore\n        /* \"#utility.yul\":4280:4284   */\n      0x24\n        /* \"#utility.yul\":4277:4278   */\n      0x00\n        /* \"#utility.yul\":4270:4285   */\n      revert\n        /* \"#utility.yul\":4297:4477   */\n    tag_42:\n        /* \"#utility.yul\":4345:4422   */\n      0x4e487b7100000000000000000000000000000000000000000000000000000000\n        /* \"#utility.yul\":4342:4343   */\n      0x00\n        /* \"#utility.yul\":4335:4423   */\n      mstore\n        /* \"#utility.yul\":4442:4446   */\n      0x11\n        /* \"#utility.yul\":4439:4440   */\n      0x04\n        /* \"#utility.yul\":4432:4447   */\n      mstore\n        /* \"#utility.yul\":4466:4470   */\n      0x24\n        /* \"#utility.yul\":4463:4464   */\n      0x00\n        /* \"#utility.yul\":4456:4471   */\n      revert\n        /* \"#utility.yul\":4483:4668   */\n    tag_20:\n        /* \"#utility.yul\":4523:4524   */\n      0x00\n        /* \"#utility.yul\":4540:4560   */\n      tag_96\n        /* \"#utility.yul\":4558:4559   */\n      dup3\n        /* \"#utility.yul\":4540:4560   */\n      tag_27\n      jump\t// in\n    tag_96:\n        /* \"#utility.yul\":4535:4560   */\n      swap2\n      pop\n        /* \"#utility.yul\":4574:4594   */\n      tag_97\n        /* \"#utility.yul\":4592:4593   */\n      dup4\n        /* \"#utility.yul\":4574:4594   */\n      tag_27\n      jump\t// in\n    tag_97:\n        /* \"#utility.yul\":4569:4594   */\n      swap3\n      pop\n        /* \"#utility.yul\":4613:4614   */\n      dup3\n        /* \"#utility.yul\":4603:4638   */\n      tag_98\n      jumpi\n        /* \"#utility.yul\":4618:4636   */\n      tag_99\n      tag_41\n      jump\t// in\n    tag_99:\n        /* \"#utility.yul\":4603:4638   */\n    tag_98:\n        /* \"#utility.yul\":4660:4661   */\n      dup3\n        /* \"#utility.yul\":4657:4658   */\n      dup3\n        /* \"#utility.yul\":4653:4662   */\n      div\n        /* \"#utility.yul\":4648:4662   */\n      swap1\n      pop\n        /* \"#utility.yul\":4483:4668   */\n      swap3\n      swap2\n      pop\n      pop\n      jump\t// out\n        /* \"#utility.yul\":4674:4907   */\n    tag_22:\n        /* \"#utility.yul\":4713:4716   */\n      0x00\n        /* \"#utility.yul\":4736:4760   */\n      tag_101\n        /* \"#utility.yul\":4754:4759   */\n      dup3\n        /* \"#utility.yul\":4736:4760   */\n      tag_27\n      jump\t// in\n    tag_101:\n        /* \"#utility.yul\":4727:4760   */\n      swap2\n      pop\n        /* \"#utility.yul\":4782:4848   */\n      0xffffffffffffffffffffffffffffffffffffffffffffffffffffffffffffffff\n        /* \"#utility.yul\":4775:4780   */\n      dup3\n        /* \"#utility.yul\":4772:4849   */\n      sub\n        /* \"#utility.yul\":4769:4872   */\n      tag_102\n      jumpi\n        /* \"#utility.yul\":4852:4870   */\n      tag_103\n      tag_42\n      jump\t// in\n    tag_103:\n        /* \"#utility.yul\":4769:4872   */\n    tag_102:\n        /* \"#utility.yul\":4899:4900   */\n      0x01\n        /* \"#utility.yul\":4892:4897   */\n      dup3\n        /* \"#utility.yul\":4888:4901   */\n      add\n        /* \"#utility.yul\":4881:4901   */\n      swap1\n      pop\n        /* \"#utility.yul\":4674:4907   */\n      swap2\n      swap1\n      pop\n      jump\t// out\n\n    auxdata: 0xa2646970667358221220fad05b15c476a41a47dc0f057eddaff59833d94788974a15c9dc80b4d14d92e364736f6c63430008120033\n}\n",
				"bytecode": {
					"linkReferences": {},
					"object": "608060405234801561001057600080fd5b50610424806100206000396000f3fe608060405234801561001057600080fd5b50600436106100365760003560e01c8063dac0eb071461003b578063df7fc1431461006b575b600080fd5b61005560048036038101906100509190610131565b61009b565b604051610062919061016d565b60405180910390f35b610085600480360381019061008091906102ce565b6100d7565b604051610092919061016d565b60405180910390f35b600080600090505b60008311156100ce576005836100b99190610375565b925080806100c6906103a6565b9150506100a3565b80915050919050565b6000808290508051915050919050565b6000604051905090565b600080fd5b600080fd5b6000819050919050565b61010e816100fb565b811461011957600080fd5b50565b60008135905061012b81610105565b92915050565b600060208284031215610147576101466100f1565b5b60006101558482850161011c565b91505092915050565b610167816100fb565b82525050565b6000602082019050610182600083018461015e565b92915050565b600080fd5b600080fd5b6000601f19601f8301169050919050565b7f4e487b7100000000000000000000000000000000000000000000000000000000600052604160045260246000fd5b6101db82610192565b810181811067ffffffffffffffff821117156101fa576101f96101a3565b5b80604052505050565b600061020d6100e7565b905061021982826101d2565b919050565b600067ffffffffffffffff821115610239576102386101a3565b5b61024282610192565b9050602081019050919050565b82818337600083830152505050565b600061027161026c8461021e565b610203565b90508281526020810184848401111561028d5761028c61018d565b5b61029884828561024f565b509392505050565b600082601f8301126102b5576102b4610188565b5b81356102c584826020860161025e565b91505092915050565b6000602082840312156102e4576102e36100f1565b5b600082013567ffffffffffffffff811115610302576103016100f6565b5b61030e848285016102a0565b91505092915050565b7f4e487b7100000000000000000000000000000000000000000000000000000000600052601260045260246000fd5b7f4e487b7100000000000000000000000000000000000000000000000000000000600052601160045260246000fd5b6000610380826100fb565b915061038b836100fb565b92508261039b5761039a610317565b5b828204905092915050565b60006103b1826100fb565b91507fffffffffffffffffffffffffffffffffffffffffffffffffffffffffffffffff82036103e3576103e2610346565b5b60018201905091905056fea2646970667358221220fad05b15c476a41a47dc0f057eddaff59833d94788974a15c9dc80b4d14d92e364736f6c63430008120033",
					"opcodes": "PUSH1 0x80 PUSH1 0x40 MSTORE CALLVALUE DUP1 ISZERO PUSH2 0x10 JUMPI PUSH1 0x0 DUP1 REVERT JUMPDEST POP PUSH2 0x424 DUP1 PUSH2 0x20 PUSH1 0x0 CODECOPY PUSH1 0x0 RETURN INVALID PUSH1 0x80 PUSH1 0x40 MSTORE CALLVALUE DUP1 ISZERO PUSH2 0x10 JUMPI PUSH1 0x0 DUP1 REVERT JUMPDEST POP PUSH1 0x4 CALLDATASIZE LT PUSH2 0x36 JUMPI PUSH1 0x0 CALLDATALOAD PUSH1 0xE0 SHR DUP1 PUSH4 0xDAC0EB07 EQ PUSH2 0x3B JUMPI DUP1 PUSH4 0xDF7FC143 EQ PUSH2 0x6B JUMPI JUMPDEST PUSH1 0x0 DUP1 REVERT JUMPDEST PUSH2 0x55 PUSH1 0x4 DUP1 CALLDATASIZE SUB DUP2 ADD SWAP1 PUSH2 0x50 SWAP2 SWAP1 PUSH2 0x131 JUMP JUMPDEST PUSH2 0x9B JUMP JUMPDEST PUSH1 0x40 MLOAD PUSH2 0x62 SWAP2 SWAP1 PUSH2 0x16D JUMP JUMPDEST PUSH1 0x40 MLOAD DUP1 SWAP2 SUB SWAP1 RETURN JUMPDEST PUSH2 0x85 PUSH1 0x4 DUP1 CALLDATASIZE SUB DUP2 ADD SWAP1 PUSH2 0x80 SWAP2 SWAP1 PUSH2 0x2CE JUMP JUMPDEST PUSH2 0xD7 JUMP JUMPDEST PUSH1 0x40 MLOAD PUSH2 0x92 SWAP2 SWAP1 PUSH2 0x16D JUMP JUMPDEST PUSH1 0x40 MLOAD DUP1 SWAP2 SUB SWAP1 RETURN JUMPDEST PUSH1 0x0 DUP1 PUSH1 0x0 SWAP1 POP JUMPDEST PUSH1 0x0 DUP4 GT ISZERO PUSH2 0xCE JUMPI PUSH1 0x5 DUP4 PUSH2 0xB9 SWAP2 SWAP1 PUSH2 0x375 JUMP JUMPDEST SWAP3 POP DUP1 DUP1 PUSH2 0xC6 SWAP1 PUSH2 0x3A6 JUMP JUMPDEST SWAP2 POP POP PUSH2 0xA3 JUMP JUMPDEST DUP1 SWAP2 POP POP SWAP2 SWAP1 POP JUMP JUMPDEST PUSH1 0x0 DUP1 DUP3 SWAP1 POP DUP1 MLOAD SWAP2 POP POP SWAP2 SWAP1 POP JUMP JUMPDEST PUSH1 0x0 PUSH1 0x40 MLOAD SWAP1 POP SWAP1 JUMP JUMPDEST PUSH1 0x0 DUP1 REVERT JUMPDEST PUSH1 0x0 DUP1 REVERT JUMPDEST PUSH1 0x0 DUP2 SWAP1 POP SWAP2 SWAP1 POP JUMP JUMPDEST PUSH2 0x10E DUP2 PUSH2 0xFB JUMP JUMPDEST DUP2 EQ PUSH2 0x119 JUMPI PUSH1 0x0 DUP1 REVERT JUMPDEST POP JUMP JUMPDEST PUSH1 0x0 DUP2 CALLDATALOAD SWAP1 POP PUSH2 0x12B DUP2 PUSH2 0x105 JUMP JUMPDEST SWAP3 SWAP2 POP POP JUMP JUMPDEST PUSH1 0x0 PUSH1 0x20 DUP3 DUP5 SUB SLT ISZERO PUSH2 0x147 JUMPI PUSH2 0x146 PUSH2 0xF1 JUMP JUMPDEST JUMPDEST PUSH1 0x0 PUSH2 0x155 DUP5 DUP3 DUP6 ADD PUSH2 0x11C JUMP JUMPDEST SWAP2 POP POP SWAP3 SWAP2 POP POP JUMP JUMPDEST PUSH2 0x167 DUP2 PUSH2 0xFB JUMP JUMPDEST DUP3 MSTORE POP POP JUMP JUMPDEST PUSH1 0x0 PUSH1 0x20 DUP3 ADD SWAP1 POP PUSH2 0x182 PUSH1 0x0 DUP4 ADD DUP5 PUSH2 0x15E JUMP JUMPDEST SWAP3 SWAP2 POP POP JUMP JUMPDEST PUSH1 0x0 DUP1 REVERT JUMPDEST PUSH1 0x0 DUP1 REVERT JUMPDEST PUSH1 0x0 PUSH1 0x1F NOT PUSH1 0x1F DUP4 ADD AND SWAP1 POP SWAP2 SWAP1 POP JUMP JUMPDEST PUSH32 0x4E487B7100000000000000000000000000000000000000000000000000000000 PUSH1 0x0 MSTORE PUSH1 0x41 PUSH1 0x4 MSTORE PUSH1 0x24 PUSH1 0x0 REVERT JUMPDEST PUSH2 0x1DB DUP3 PUSH2 0x192 JUMP JUMPDEST DUP2 ADD DUP2 DUP2 LT PUSH8 0xFFFFFFFFFFFFFFFF DUP3 GT OR ISZERO PUSH2 0x1FA JUMPI PUSH2 0x1F9 PUSH2 0x1A3 JUMP JUMPDEST JUMPDEST DUP1 PUSH1 0x40 MSTORE POP POP POP JUMP JUMPDEST PUSH1 0x0 PUSH2 0x20D PUSH2 0xE7 JUMP JUMPDEST SWAP1 POP PUSH2 0x219 DUP3 DUP3 PUSH2 0x1D2 JUMP JUMPDEST SWAP2 SWAP1 POP JUMP JUMPDEST PUSH1 0x0 PUSH8 0xFFFFFFFFFFFFFFFF DUP3 GT ISZERO PUSH2 0x239 JUMPI PUSH2 0x238 PUSH2 0x1A3 JUMP JUMPDEST JUMPDEST PUSH2 0x242 DUP3 PUSH2 0x192 JUMP JUMPDEST SWAP1 POP PUSH1 0x20 DUP2 ADD SWAP1 POP SWAP2 SWAP1 POP JUMP JUMPDEST DUP3 DUP2 DUP4 CALLDATACOPY PUSH1 0x0 DUP4 DUP4 ADD MSTORE POP POP POP JUMP JUMPDEST PUSH1 0x0 PUSH2 0x271 PUSH2 0x26C DUP5 PUSH2 0x21E JUMP JUMPDEST PUSH2 0x203 JUMP JUMPDEST SWAP1 POP DUP3 DUP2 MSTORE PUSH1 0x20 DUP2 ADD DUP5 DUP5 DUP5 ADD GT ISZERO PUSH2 0x28D JUMPI PUSH2 0x28C PUSH2 0x18D JUMP JUMPDEST JUMPDEST PUSH2 0x298 DUP5 DUP3 DUP6 PUSH2 0x24F JUMP JUMPDEST POP SWAP4 SWAP3 POP POP POP JUMP JUMPDEST PUSH1 0x0 DUP3 PUSH1 0x1F DUP4 ADD SLT PUSH2 0x2B5 JUMPI PUSH2 0x2B4 PUSH2 0x188 JUMP JUMPDEST JUMPDEST DUP2 CALLDATALOAD PUSH2 0x2C5 DUP5 DUP3 PUSH1 0x20 DUP7 ADD PUSH2 0x25E JUMP JUMPDEST SWAP2 POP POP SWAP3 SWAP2 POP POP JUMP JUMPDEST PUSH1 0x0 PUSH1 0x20 DUP3 DUP5 SUB SLT ISZERO PUSH2 0x2E4 JUMPI PUSH2 0x2E3 PUSH2 0xF1 JUMP JUMPDEST JUMPDEST PUSH1 0x0 DUP3 ADD CALLDATALOAD PUSH8 0xFFFFFFFFFFFFFFFF DUP2 GT ISZERO PUSH2 0x302 JUMPI PUSH2 0x301 PUSH2 0xF6 JUMP JUMPDEST JUMPDEST PUSH2 0x30E DUP5 DUP3 DUP6 ADD PUSH2 0x2A0 JUMP JUMPDEST SWAP2 POP POP SWAP3 SWAP2 POP POP JUMP JUMPDEST PUSH32 0x4E487B7100000000000000000000000000000000000000000000000000000000 PUSH1 0x0 MSTORE PUSH1 0x12 PUSH1 0x4 MSTORE PUSH1 0x24 PUSH1 0x0 REVERT JUMPDEST PUSH32 0x4E487B7100000000000000000000000000000000000000000000000000000000 PUSH1 0x0 MSTORE PUSH1 0x11 PUSH1 0x4 MSTORE PUSH1 0x24 PUSH1 0x0 REVERT JUMPDEST PUSH1 0x0 PUSH2 0x380 DUP3 PUSH2 0xFB JUMP JUMPDEST SWAP2 POP PUSH2 0x38B DUP4 PUSH2 0xFB JUMP JUMPDEST SWAP3 POP DUP3 PUSH2 0x39B JUMPI PUSH2 0x39A PUSH2 0x317 JUMP JUMPDEST JUMPDEST DUP3 DUP3 DIV SWAP1 POP SWAP3 SWAP2 POP POP JUMP JUMPDEST PUSH1 0x0 PUSH2 0x3B1 DUP3 PUSH2 0xFB JUMP JUMPDEST SWAP2 POP PUSH32 0xFFFFFFFFFFFFFFFFFFFFFFFFFFFFFFFFFFFFFFFFFFFFFFFFFFFFFFFFFFFFFFFF DUP3 SUB PUSH2 0x3E3 JUMPI PUSH2 0x3E2 PUSH2 0x346 JUMP JUMPDEST JUMPDEST PUSH1 0x1 DUP3 ADD SWAP1 POP SWAP2 SWAP1 POP JUMP INVALID LOG2 PUSH5 0x6970667358 0x22 SLT KECCAK256 STATICCALL 0xD0 JUMPDEST ISZERO 0xC4 PUSH23 0xA41A47DC0F057EDDAFF59833D94788974A15C9DC80B4D1 0x4D SWAP3 0xE3 PUSH5 0x736F6C6343 STOP ADDMOD SLT STOP CALLER "
				},
				"gasEstimates": {
					"creation": {
						"codeDepositCost": "212000",
						"executionCost": "257",
						"totalCost": "212257"
					},
					"external": {
						"A(string)": "infinite",
						"B(uint256)": "infinite"
					}
				},
				"methodIdentifiers": {
					"A(string)": "df7fc143",
					"B(uint256)": "dac0eb07"
				}
			},
			"storageLayout": {
				"storage": [],
				"types": null
			},
			"userdoc": {
				"kind": "user",
				"methods": {},
				"version": 1
			}
		}
	}
}