{
	"contract/solidity_61~70.sol": {
		"Q62": {
			"abi": [
				{
					"inputs": [
						{
							"internalType": "uint256",
							"name": "_a",
							"type": "uint256"
						},
						{
							"internalType": "uint256",
							"name": "_b",
							"type": "uint256"
						}
					],
					"name": "mul",
					"outputs": [
						{
							"internalType": "uint256",
							"name": "",
							"type": "uint256"
						}
					],
					"stateMutability": "pure",
					"type": "function"
				},
				{
					"inputs": [
						{
							"internalType": "uint256",
							"name": "_a",
							"type": "uint256"
						},
						{
							"internalType": "uint256",
							"name": "_b",
							"type": "uint256"
						}
					],
					"name": "plus",
					"outputs": [
						{
							"internalType": "uint256",
							"name": "",
							"type": "uint256"
						}
					],
					"stateMutability": "pure",
					"type": "function"
				},
				{
					"inputs": [
						{
							"internalType": "uint256",
							"name": "_a",
							"type": "uint256"
						},
						{
							"internalType": "uint256",
							"name": "_b",
							"type": "uint256"
						}
					],
					"name": "power",
					"outputs": [
						{
							"internalType": "uint256",
							"name": "",
							"type": "uint256"
						}
					],
					"stateMutability": "pure",
					"type": "function"
				}
			],
			"devdoc": {
				"kind": "dev",
				"methods": {},
				"version": 1
			},
			"evm": {
				"assembly": "    /* \"contract/solidity_61~70.sol\":504:1018  contract Q62 {... */\n  mstore(0x40, 0x80)\n  callvalue\n  dup1\n  iszero\n  tag_1\n  jumpi\n  0x00\n  dup1\n  revert\ntag_1:\n  pop\n  dataSize(sub_0)\n  dup1\n  dataOffset(sub_0)\n  0x00\n  codecopy\n  0x00\n  return\nstop\n\nsub_0: assembly {\n        /* \"contract/solidity_61~70.sol\":504:1018  contract Q62 {... */\n      mstore(0x40, 0x80)\n      callvalue\n      dup1\n      iszero\n      tag_1\n      jumpi\n      0x00\n      dup1\n      revert\n    tag_1:\n      pop\n      jumpi(tag_2, lt(calldatasize, 0x04))\n      shr(0xe0, calldataload(0x00))\n      dup1\n      0x66098d4f\n      eq\n      tag_3\n      jumpi\n      dup1\n      0xc04f01fc\n      eq\n      tag_4\n      jumpi\n      dup1\n      0xc8a4ac9c\n      eq\n      tag_5\n      jumpi\n    tag_2:\n      0x00\n      dup1\n      revert\n        /* \"contract/solidity_61~70.sol\":636:756  function plus( uint _a , uint _b ) public pure chk( _a , _b ) returns( uint ) {... */\n    tag_3:\n      tag_6\n      0x04\n      dup1\n      calldatasize\n      sub\n      dup2\n      add\n      swap1\n      tag_7\n      swap2\n      swap1\n      tag_8\n      jump\t// in\n    tag_7:\n      tag_9\n      jump\t// in\n    tag_6:\n      mload(0x40)\n      tag_10\n      swap2\n      swap1\n      tag_11\n      jump\t// in\n    tag_10:\n      mload(0x40)\n      dup1\n      swap2\n      sub\n      swap1\n      return\n        /* \"contract/solidity_61~70.sol\":891:1013  function power( uint _a , uint _b ) public pure chk( _a , _b ) returns( uint ) {... */\n    tag_4:\n      tag_12\n      0x04\n      dup1\n      calldatasize\n      sub\n      dup2\n      add\n      swap1\n      tag_13\n      swap2\n      swap1\n      tag_8\n      jump\t// in\n    tag_13:\n      tag_14\n      jump\t// in\n    tag_12:\n      mload(0x40)\n      tag_15\n      swap2\n      swap1\n      tag_11\n      jump\t// in\n    tag_15:\n      mload(0x40)\n      dup1\n      swap2\n      sub\n      swap1\n      return\n        /* \"contract/solidity_61~70.sol\":764:883  function mul( uint _a , uint _b ) public pure chk( _a , _b ) returns( uint ) {... */\n    tag_5:\n      tag_16\n      0x04\n      dup1\n      calldatasize\n      sub\n      dup2\n      add\n      swap1\n      tag_17\n      swap2\n      swap1\n      tag_8\n      jump\t// in\n    tag_17:\n      tag_18\n      jump\t// in\n    tag_16:\n      mload(0x40)\n      tag_19\n      swap2\n      swap1\n      tag_11\n      jump\t// in\n    tag_19:\n      mload(0x40)\n      dup1\n      swap2\n      sub\n      swap1\n      return\n        /* \"contract/solidity_61~70.sol\":636:756  function plus( uint _a , uint _b ) public pure chk( _a , _b ) returns( uint ) {... */\n    tag_9:\n        /* \"contract/solidity_61~70.sol\":707:711  uint */\n      0x00\n        /* \"contract/solidity_61~70.sol\":688:690  _a */\n      dup3\n        /* \"contract/solidity_61~70.sol\":693:695  _b */\n      dup3\n        /* \"contract/solidity_61~70.sol\":588:590  10 */\n      0x0a\n        /* \"contract/solidity_61~70.sol\":582:584  _a */\n      dup3\n        /* \"contract/solidity_61~70.sol\":582:590  _a <= 10 */\n      gt\n      iszero\n        /* \"contract/solidity_61~70.sol\":582:602  _a <= 10 && _b <= 10 */\n      dup1\n      iszero\n      tag_21\n      jumpi\n      pop\n        /* \"contract/solidity_61~70.sol\":600:602  10 */\n      0x0a\n        /* \"contract/solidity_61~70.sol\":594:596  _b */\n      dup2\n        /* \"contract/solidity_61~70.sol\":594:602  _b <= 10 */\n      gt\n      iszero\n        /* \"contract/solidity_61~70.sol\":582:602  _a <= 10 && _b <= 10 */\n    tag_21:\n        /* \"contract/solidity_61~70.sol\":573:604  require( _a <= 10 && _b <= 10 ) */\n      tag_22\n      jumpi\n      0x00\n      dup1\n      revert\n    tag_22:\n        /* \"contract/solidity_61~70.sol\":741:743  _b */\n      dup4\n        /* \"contract/solidity_61~70.sol\":736:738  _a */\n      dup6\n        /* \"contract/solidity_61~70.sol\":736:743  _a + _b */\n      tag_24\n      swap2\n      swap1\n      tag_25\n      jump\t// in\n    tag_24:\n        /* \"contract/solidity_61~70.sol\":727:745  return ( _a + _b ) */\n      swap3\n      pop\n        /* \"contract/solidity_61~70.sol\":636:756  function plus( uint _a , uint _b ) public pure chk( _a , _b ) returns( uint ) {... */\n      pop\n      pop\n      swap3\n      swap2\n      pop\n      pop\n      jump\t// out\n        /* \"contract/solidity_61~70.sol\":891:1013  function power( uint _a , uint _b ) public pure chk( _a , _b ) returns( uint ) {... */\n    tag_14:\n        /* \"contract/solidity_61~70.sol\":963:967  uint */\n      0x00\n        /* \"contract/solidity_61~70.sol\":944:946  _a */\n      dup3\n        /* \"contract/solidity_61~70.sol\":949:951  _b */\n      dup3\n        /* \"contract/solidity_61~70.sol\":588:590  10 */\n      0x0a\n        /* \"contract/solidity_61~70.sol\":582:584  _a */\n      dup3\n        /* \"contract/solidity_61~70.sol\":582:590  _a <= 10 */\n      gt\n      iszero\n        /* \"contract/solidity_61~70.sol\":582:602  _a <= 10 && _b <= 10 */\n      dup1\n      iszero\n      tag_27\n      jumpi\n      pop\n        /* \"contract/solidity_61~70.sol\":600:602  10 */\n      0x0a\n        /* \"contract/solidity_61~70.sol\":594:596  _b */\n      dup2\n        /* \"contract/solidity_61~70.sol\":594:602  _b <= 10 */\n      gt\n      iszero\n        /* \"contract/solidity_61~70.sol\":582:602  _a <= 10 && _b <= 10 */\n    tag_27:\n        /* \"contract/solidity_61~70.sol\":573:604  require( _a <= 10 && _b <= 10 ) */\n      tag_28\n      jumpi\n      0x00\n      dup1\n      revert\n    tag_28:\n        /* \"contract/solidity_61~70.sol\":998:1000  _b */\n      dup4\n        /* \"contract/solidity_61~70.sol\":992:994  _a */\n      dup6\n        /* \"contract/solidity_61~70.sol\":992:1000  _a ** _b */\n      tag_30\n      swap2\n      swap1\n      tag_31\n      jump\t// in\n    tag_30:\n        /* \"contract/solidity_61~70.sol\":983:1002  return ( _a ** _b ) */\n      swap3\n      pop\n        /* \"contract/solidity_61~70.sol\":891:1013  function power( uint _a , uint _b ) public pure chk( _a , _b ) returns( uint ) {... */\n      pop\n      pop\n      swap3\n      swap2\n      pop\n      pop\n      jump\t// out\n        /* \"contract/solidity_61~70.sol\":764:883  function mul( uint _a , uint _b ) public pure chk( _a , _b ) returns( uint ) {... */\n    tag_18:\n        /* \"contract/solidity_61~70.sol\":834:838  uint */\n      0x00\n        /* \"contract/solidity_61~70.sol\":815:817  _a */\n      dup3\n        /* \"contract/solidity_61~70.sol\":820:822  _b */\n      dup3\n        /* \"contract/solidity_61~70.sol\":588:590  10 */\n      0x0a\n        /* \"contract/solidity_61~70.sol\":582:584  _a */\n      dup3\n        /* \"contract/solidity_61~70.sol\":582:590  _a <= 10 */\n      gt\n      iszero\n        /* \"contract/solidity_61~70.sol\":582:602  _a <= 10 && _b <= 10 */\n      dup1\n      iszero\n      tag_33\n      jumpi\n      pop\n        /* \"contract/solidity_61~70.sol\":600:602  10 */\n      0x0a\n        /* \"contract/solidity_61~70.sol\":594:596  _b */\n      dup2\n        /* \"contract/solidity_61~70.sol\":594:602  _b <= 10 */\n      gt\n      iszero\n        /* \"contract/solidity_61~70.sol\":582:602  _a <= 10 && _b <= 10 */\n    tag_33:\n        /* \"contract/solidity_61~70.sol\":573:604  require( _a <= 10 && _b <= 10 ) */\n      tag_34\n      jumpi\n      0x00\n      dup1\n      revert\n    tag_34:\n        /* \"contract/solidity_61~70.sol\":868:870  _b */\n      dup4\n        /* \"contract/solidity_61~70.sol\":863:865  _a */\n      dup6\n        /* \"contract/solidity_61~70.sol\":863:870  _a * _b */\n      tag_36\n      swap2\n      swap1\n      tag_37\n      jump\t// in\n    tag_36:\n        /* \"contract/solidity_61~70.sol\":854:872  return ( _a * _b ) */\n      swap3\n      pop\n        /* \"contract/solidity_61~70.sol\":764:883  function mul( uint _a , uint _b ) public pure chk( _a , _b ) returns( uint ) {... */\n      pop\n      pop\n      swap3\n      swap2\n      pop\n      pop\n      jump\t// out\n        /* \"#utility.yul\":88:205   */\n    tag_39:\n        /* \"#utility.yul\":197:198   */\n      0x00\n        /* \"#utility.yul\":194:195   */\n      dup1\n        /* \"#utility.yul\":187:199   */\n      revert\n        /* \"#utility.yul\":334:411   */\n    tag_41:\n        /* \"#utility.yul\":371:378   */\n      0x00\n        /* \"#utility.yul\":400:405   */\n      dup2\n        /* \"#utility.yul\":389:405   */\n      swap1\n      pop\n        /* \"#utility.yul\":334:411   */\n      swap2\n      swap1\n      pop\n      jump\t// out\n        /* \"#utility.yul\":417:539   */\n    tag_42:\n        /* \"#utility.yul\":490:514   */\n      tag_55\n        /* \"#utility.yul\":508:513   */\n      dup2\n        /* \"#utility.yul\":490:514   */\n      tag_41\n      jump\t// in\n    tag_55:\n        /* \"#utility.yul\":483:488   */\n      dup2\n        /* \"#utility.yul\":480:515   */\n      eq\n        /* \"#utility.yul\":470:533   */\n      tag_56\n      jumpi\n        /* \"#utility.yul\":529:530   */\n      0x00\n        /* \"#utility.yul\":526:527   */\n      dup1\n        /* \"#utility.yul\":519:531   */\n      revert\n        /* \"#utility.yul\":470:533   */\n    tag_56:\n        /* \"#utility.yul\":417:539   */\n      pop\n      jump\t// out\n        /* \"#utility.yul\":545:684   */\n    tag_43:\n        /* \"#utility.yul\":591:596   */\n      0x00\n        /* \"#utility.yul\":629:635   */\n      dup2\n        /* \"#utility.yul\":616:636   */\n      calldataload\n        /* \"#utility.yul\":607:636   */\n      swap1\n      pop\n        /* \"#utility.yul\":645:678   */\n      tag_58\n        /* \"#utility.yul\":672:677   */\n      dup2\n        /* \"#utility.yul\":645:678   */\n      tag_42\n      jump\t// in\n    tag_58:\n        /* \"#utility.yul\":545:684   */\n      swap3\n      swap2\n      pop\n      pop\n      jump\t// out\n        /* \"#utility.yul\":690:1164   */\n    tag_8:\n        /* \"#utility.yul\":758:764   */\n      0x00\n        /* \"#utility.yul\":766:772   */\n      dup1\n        /* \"#utility.yul\":815:817   */\n      0x40\n        /* \"#utility.yul\":803:812   */\n      dup4\n        /* \"#utility.yul\":794:801   */\n      dup6\n        /* \"#utility.yul\":790:813   */\n      sub\n        /* \"#utility.yul\":786:818   */\n      slt\n        /* \"#utility.yul\":783:902   */\n      iszero\n      tag_60\n      jumpi\n        /* \"#utility.yul\":821:900   */\n      tag_61\n      tag_39\n      jump\t// in\n    tag_61:\n        /* \"#utility.yul\":783:902   */\n    tag_60:\n        /* \"#utility.yul\":941:942   */\n      0x00\n        /* \"#utility.yul\":966:1019   */\n      tag_62\n        /* \"#utility.yul\":1011:1018   */\n      dup6\n        /* \"#utility.yul\":1002:1008   */\n      dup3\n        /* \"#utility.yul\":991:1000   */\n      dup7\n        /* \"#utility.yul\":987:1009   */\n      add\n        /* \"#utility.yul\":966:1019   */\n      tag_43\n      jump\t// in\n    tag_62:\n        /* \"#utility.yul\":956:1019   */\n      swap3\n      pop\n        /* \"#utility.yul\":912:1029   */\n      pop\n        /* \"#utility.yul\":1068:1070   */\n      0x20\n        /* \"#utility.yul\":1094:1147   */\n      tag_63\n        /* \"#utility.yul\":1139:1146   */\n      dup6\n        /* \"#utility.yul\":1130:1136   */\n      dup3\n        /* \"#utility.yul\":1119:1128   */\n      dup7\n        /* \"#utility.yul\":1115:1137   */\n      add\n        /* \"#utility.yul\":1094:1147   */\n      tag_43\n      jump\t// in\n    tag_63:\n        /* \"#utility.yul\":1084:1147   */\n      swap2\n      pop\n        /* \"#utility.yul\":1039:1157   */\n      pop\n        /* \"#utility.yul\":690:1164   */\n      swap3\n      pop\n      swap3\n      swap1\n      pop\n      jump\t// out\n        /* \"#utility.yul\":1170:1288   */\n    tag_44:\n        /* \"#utility.yul\":1257:1281   */\n      tag_65\n        /* \"#utility.yul\":1275:1280   */\n      dup2\n        /* \"#utility.yul\":1257:1281   */\n      tag_41\n      jump\t// in\n    tag_65:\n        /* \"#utility.yul\":1252:1255   */\n      dup3\n        /* \"#utility.yul\":1245:1282   */\n      mstore\n        /* \"#utility.yul\":1170:1288   */\n      pop\n      pop\n      jump\t// out\n        /* \"#utility.yul\":1294:1516   */\n    tag_11:\n        /* \"#utility.yul\":1387:1391   */\n      0x00\n        /* \"#utility.yul\":1425:1427   */\n      0x20\n        /* \"#utility.yul\":1414:1423   */\n      dup3\n        /* \"#utility.yul\":1410:1428   */\n      add\n        /* \"#utility.yul\":1402:1428   */\n      swap1\n      pop\n        /* \"#utility.yul\":1438:1509   */\n      tag_67\n        /* \"#utility.yul\":1506:1507   */\n      0x00\n        /* \"#utility.yul\":1495:1504   */\n      dup4\n        /* \"#utility.yul\":1491:1508   */\n      add\n        /* \"#utility.yul\":1482:1488   */\n      dup5\n        /* \"#utility.yul\":1438:1509   */\n      tag_44\n      jump\t// in\n    tag_67:\n        /* \"#utility.yul\":1294:1516   */\n      swap3\n      swap2\n      pop\n      pop\n      jump\t// out\n        /* \"#utility.yul\":1522:1702   */\n    tag_45:\n        /* \"#utility.yul\":1570:1647   */\n      0x4e487b7100000000000000000000000000000000000000000000000000000000\n        /* \"#utility.yul\":1567:1568   */\n      0x00\n        /* \"#utility.yul\":1560:1648   */\n      mstore\n        /* \"#utility.yul\":1667:1671   */\n      0x11\n        /* \"#utility.yul\":1664:1665   */\n      0x04\n        /* \"#utility.yul\":1657:1672   */\n      mstore\n        /* \"#utility.yul\":1691:1695   */\n      0x24\n        /* \"#utility.yul\":1688:1689   */\n      0x00\n        /* \"#utility.yul\":1681:1696   */\n      revert\n        /* \"#utility.yul\":1708:1899   */\n    tag_25:\n        /* \"#utility.yul\":1748:1751   */\n      0x00\n        /* \"#utility.yul\":1767:1787   */\n      tag_70\n        /* \"#utility.yul\":1785:1786   */\n      dup3\n        /* \"#utility.yul\":1767:1787   */\n      tag_41\n      jump\t// in\n    tag_70:\n        /* \"#utility.yul\":1762:1787   */\n      swap2\n      pop\n        /* \"#utility.yul\":1801:1821   */\n      tag_71\n        /* \"#utility.yul\":1819:1820   */\n      dup4\n        /* \"#utility.yul\":1801:1821   */\n      tag_41\n      jump\t// in\n    tag_71:\n        /* \"#utility.yul\":1796:1821   */\n      swap3\n      pop\n        /* \"#utility.yul\":1844:1845   */\n      dup3\n        /* \"#utility.yul\":1841:1842   */\n      dup3\n        /* \"#utility.yul\":1837:1846   */\n      add\n        /* \"#utility.yul\":1830:1846   */\n      swap1\n      pop\n        /* \"#utility.yul\":1865:1868   */\n      dup1\n        /* \"#utility.yul\":1862:1863   */\n      dup3\n        /* \"#utility.yul\":1859:1869   */\n      gt\n        /* \"#utility.yul\":1856:1892   */\n      iszero\n      tag_72\n      jumpi\n        /* \"#utility.yul\":1872:1890   */\n      tag_73\n      tag_45\n      jump\t// in\n    tag_73:\n        /* \"#utility.yul\":1856:1892   */\n    tag_72:\n        /* \"#utility.yul\":1708:1899   */\n      swap3\n      swap2\n      pop\n      pop\n      jump\t// out\n        /* \"#utility.yul\":1905:2007   */\n    tag_46:\n        /* \"#utility.yul\":1947:1955   */\n      0x00\n        /* \"#utility.yul\":1994:1999   */\n      dup2\n        /* \"#utility.yul\":1991:1992   */\n      0x01\n        /* \"#utility.yul\":1987:2000   */\n      shr\n        /* \"#utility.yul\":1966:2000   */\n      swap1\n      pop\n        /* \"#utility.yul\":1905:2007   */\n      swap2\n      swap1\n      pop\n      jump\t// out\n        /* \"#utility.yul\":2013:2861   */\n    tag_47:\n        /* \"#utility.yul\":2074:2079   */\n      0x00\n        /* \"#utility.yul\":2081:2085   */\n      dup1\n        /* \"#utility.yul\":2105:2111   */\n      dup3\n        /* \"#utility.yul\":2096:2111   */\n      swap2\n      pop\n        /* \"#utility.yul\":2129:2134   */\n      dup4\n        /* \"#utility.yul\":2120:2134   */\n      swap1\n      pop\n        /* \"#utility.yul\":2143:2855   */\n    tag_76:\n        /* \"#utility.yul\":2164:2165   */\n      0x01\n        /* \"#utility.yul\":2154:2162   */\n      dup6\n        /* \"#utility.yul\":2151:2166   */\n      gt\n        /* \"#utility.yul\":2143:2855   */\n      iszero\n      tag_78\n      jumpi\n        /* \"#utility.yul\":2259:2263   */\n      dup1\n        /* \"#utility.yul\":2254:2257   */\n      dup7\n        /* \"#utility.yul\":2250:2264   */\n      div\n        /* \"#utility.yul\":2244:2248   */\n      dup2\n        /* \"#utility.yul\":2241:2265   */\n      gt\n        /* \"#utility.yul\":2238:2288   */\n      iszero\n      tag_79\n      jumpi\n        /* \"#utility.yul\":2268:2286   */\n      tag_80\n      tag_45\n      jump\t// in\n    tag_80:\n        /* \"#utility.yul\":2238:2288   */\n    tag_79:\n        /* \"#utility.yul\":2318:2319   */\n      0x01\n        /* \"#utility.yul\":2308:2316   */\n      dup6\n        /* \"#utility.yul\":2304:2320   */\n      and\n        /* \"#utility.yul\":2301:2752   */\n      iszero\n      tag_81\n      jumpi\n        /* \"#utility.yul\":2733:2737   */\n      dup1\n        /* \"#utility.yul\":2726:2731   */\n      dup3\n        /* \"#utility.yul\":2722:2738   */\n      mul\n        /* \"#utility.yul\":2713:2738   */\n      swap2\n      pop\n        /* \"#utility.yul\":2301:2752   */\n    tag_81:\n        /* \"#utility.yul\":2783:2787   */\n      dup1\n        /* \"#utility.yul\":2777:2781   */\n      dup2\n        /* \"#utility.yul\":2773:2788   */\n      mul\n        /* \"#utility.yul\":2765:2788   */\n      swap1\n      pop\n        /* \"#utility.yul\":2813:2845   */\n      tag_82\n        /* \"#utility.yul\":2836:2844   */\n      dup6\n        /* \"#utility.yul\":2813:2845   */\n      tag_46\n      jump\t// in\n    tag_82:\n        /* \"#utility.yul\":2801:2845   */\n      swap5\n      pop\n        /* \"#utility.yul\":2143:2855   */\n      jump(tag_76)\n    tag_78:\n        /* \"#utility.yul\":2013:2861   */\n      swap5\n      pop\n      swap5\n      swap3\n      pop\n      pop\n      pop\n      jump\t// out\n        /* \"#utility.yul\":2867:3940   */\n    tag_48:\n        /* \"#utility.yul\":2921:2926   */\n      0x00\n        /* \"#utility.yul\":3112:3120   */\n      dup3\n        /* \"#utility.yul\":3102:3142   */\n      tag_84\n      jumpi\n        /* \"#utility.yul\":3133:3134   */\n      0x01\n        /* \"#utility.yul\":3124:3134   */\n      swap1\n      pop\n        /* \"#utility.yul\":3135:3140   */\n      jump(tag_83)\n        /* \"#utility.yul\":3102:3142   */\n    tag_84:\n        /* \"#utility.yul\":3161:3165   */\n      dup2\n        /* \"#utility.yul\":3151:3187   */\n      tag_85\n      jumpi\n        /* \"#utility.yul\":3178:3179   */\n      0x00\n        /* \"#utility.yul\":3169:3179   */\n      swap1\n      pop\n        /* \"#utility.yul\":3180:3185   */\n      jump(tag_83)\n        /* \"#utility.yul\":3151:3187   */\n    tag_85:\n        /* \"#utility.yul\":3247:3251   */\n      dup2\n        /* \"#utility.yul\":3295:3296   */\n      0x01\n        /* \"#utility.yul\":3290:3317   */\n      dup2\n      eq\n      tag_87\n      jumpi\n        /* \"#utility.yul\":3331:3332   */\n      0x02\n        /* \"#utility.yul\":3326:3517   */\n      dup2\n      eq\n      tag_88\n      jumpi\n        /* \"#utility.yul\":3240:3517   */\n      jump(tag_86)\n        /* \"#utility.yul\":3290:3317   */\n    tag_87:\n        /* \"#utility.yul\":3308:3309   */\n      0x01\n        /* \"#utility.yul\":3299:3309   */\n      swap2\n      pop\n        /* \"#utility.yul\":3310:3315   */\n      pop\n      jump(tag_83)\n        /* \"#utility.yul\":3326:3517   */\n    tag_88:\n        /* \"#utility.yul\":3371:3374   */\n      0xff\n        /* \"#utility.yul\":3361:3369   */\n      dup5\n        /* \"#utility.yul\":3358:3375   */\n      gt\n        /* \"#utility.yul\":3355:3398   */\n      iszero\n      tag_89\n      jumpi\n        /* \"#utility.yul\":3378:3396   */\n      tag_90\n      tag_45\n      jump\t// in\n    tag_90:\n        /* \"#utility.yul\":3355:3398   */\n    tag_89:\n        /* \"#utility.yul\":3427:3435   */\n      dup4\n        /* \"#utility.yul\":3424:3425   */\n      0x02\n        /* \"#utility.yul\":3420:3436   */\n      exp\n        /* \"#utility.yul\":3411:3436   */\n      swap2\n      pop\n        /* \"#utility.yul\":3462:3465   */\n      dup5\n        /* \"#utility.yul\":3455:3460   */\n      dup3\n        /* \"#utility.yul\":3452:3466   */\n      gt\n        /* \"#utility.yul\":3449:3489   */\n      iszero\n      tag_91\n      jumpi\n        /* \"#utility.yul\":3469:3487   */\n      tag_92\n      tag_45\n      jump\t// in\n    tag_92:\n        /* \"#utility.yul\":3449:3489   */\n    tag_91:\n        /* \"#utility.yul\":3502:3507   */\n      pop\n      jump(tag_83)\n        /* \"#utility.yul\":3240:3517   */\n    tag_86:\n      pop\n        /* \"#utility.yul\":3626:3628   */\n      0x20\n        /* \"#utility.yul\":3616:3624   */\n      dup4\n        /* \"#utility.yul\":3613:3629   */\n      lt\n        /* \"#utility.yul\":3607:3610   */\n      0x0133\n        /* \"#utility.yul\":3601:3605   */\n      dup4\n        /* \"#utility.yul\":3598:3611   */\n      lt\n        /* \"#utility.yul\":3594:3630   */\n      and\n        /* \"#utility.yul\":3576:3578   */\n      0x4e\n        /* \"#utility.yul\":3566:3574   */\n      dup5\n        /* \"#utility.yul\":3563:3579   */\n      lt\n        /* \"#utility.yul\":3558:3560   */\n      0x0b\n        /* \"#utility.yul\":3552:3556   */\n      dup5\n        /* \"#utility.yul\":3549:3561   */\n      lt\n        /* \"#utility.yul\":3545:3580   */\n      and\n        /* \"#utility.yul\":3529:3640   */\n      or\n        /* \"#utility.yul\":3526:3772   */\n      iszero\n      tag_93\n      jumpi\n        /* \"#utility.yul\":3682:3690   */\n      dup3\n        /* \"#utility.yul\":3676:3680   */\n      dup3\n        /* \"#utility.yul\":3672:3691   */\n      exp\n        /* \"#utility.yul\":3663:3691   */\n      swap1\n      pop\n        /* \"#utility.yul\":3717:3720   */\n      dup4\n        /* \"#utility.yul\":3710:3715   */\n      dup2\n        /* \"#utility.yul\":3707:3721   */\n      gt\n        /* \"#utility.yul\":3704:3744   */\n      iszero\n      tag_94\n      jumpi\n        /* \"#utility.yul\":3724:3742   */\n      tag_95\n      tag_45\n      jump\t// in\n    tag_95:\n        /* \"#utility.yul\":3704:3744   */\n    tag_94:\n        /* \"#utility.yul\":3757:3762   */\n      jump(tag_83)\n        /* \"#utility.yul\":3526:3772   */\n    tag_93:\n        /* \"#utility.yul\":3797:3839   */\n      tag_96\n        /* \"#utility.yul\":3835:3838   */\n      dup5\n        /* \"#utility.yul\":3825:3833   */\n      dup5\n        /* \"#utility.yul\":3819:3823   */\n      dup5\n        /* \"#utility.yul\":3816:3817   */\n      0x01\n        /* \"#utility.yul\":3797:3839   */\n      tag_47\n      jump\t// in\n    tag_96:\n        /* \"#utility.yul\":3782:3839   */\n      swap3\n      pop\n      swap1\n      pop\n        /* \"#utility.yul\":3871:3875   */\n      dup2\n        /* \"#utility.yul\":3866:3869   */\n      dup5\n        /* \"#utility.yul\":3862:3876   */\n      div\n        /* \"#utility.yul\":3855:3860   */\n      dup2\n        /* \"#utility.yul\":3852:3877   */\n      gt\n        /* \"#utility.yul\":3849:3900   */\n      iszero\n      tag_97\n      jumpi\n        /* \"#utility.yul\":3880:3898   */\n      tag_98\n      tag_45\n      jump\t// in\n    tag_98:\n        /* \"#utility.yul\":3849:3900   */\n    tag_97:\n        /* \"#utility.yul\":3929:3933   */\n      dup2\n        /* \"#utility.yul\":3922:3927   */\n      dup2\n        /* \"#utility.yul\":3918:3934   */\n      mul\n        /* \"#utility.yul\":3909:3934   */\n      swap1\n      pop\n        /* \"#utility.yul\":2867:3940   */\n    tag_83:\n      swap4\n      swap3\n      pop\n      pop\n      pop\n      jump\t// out\n        /* \"#utility.yul\":3946:4231   */\n    tag_31:\n        /* \"#utility.yul\":4006:4011   */\n      0x00\n        /* \"#utility.yul\":4030:4053   */\n      tag_100\n        /* \"#utility.yul\":4048:4052   */\n      dup3\n        /* \"#utility.yul\":4030:4053   */\n      tag_41\n      jump\t// in\n    tag_100:\n        /* \"#utility.yul\":4022:4053   */\n      swap2\n      pop\n        /* \"#utility.yul\":4074:4101   */\n      tag_101\n        /* \"#utility.yul\":4092:4100   */\n      dup4\n        /* \"#utility.yul\":4074:4101   */\n      tag_41\n      jump\t// in\n    tag_101:\n        /* \"#utility.yul\":4062:4101   */\n      swap3\n      pop\n        /* \"#utility.yul\":4120:4224   */\n      tag_102\n        /* \"#utility.yul\":4157:4223   */\n      0xffffffffffffffffffffffffffffffffffffffffffffffffffffffffffffffff\n        /* \"#utility.yul\":4147:4155   */\n      dup5\n        /* \"#utility.yul\":4141:4145   */\n      dup5\n        /* \"#utility.yul\":4120:4224   */\n      tag_48\n      jump\t// in\n    tag_102:\n        /* \"#utility.yul\":4111:4224   */\n      swap1\n      pop\n        /* \"#utility.yul\":3946:4231   */\n      swap3\n      swap2\n      pop\n      pop\n      jump\t// out\n        /* \"#utility.yul\":4237:4647   */\n    tag_37:\n        /* \"#utility.yul\":4277:4284   */\n      0x00\n        /* \"#utility.yul\":4300:4320   */\n      tag_104\n        /* \"#utility.yul\":4318:4319   */\n      dup3\n        /* \"#utility.yul\":4300:4320   */\n      tag_41\n      jump\t// in\n    tag_104:\n        /* \"#utility.yul\":4295:4320   */\n      swap2\n      pop\n        /* \"#utility.yul\":4334:4354   */\n      tag_105\n        /* \"#utility.yul\":4352:4353   */\n      dup4\n        /* \"#utility.yul\":4334:4354   */\n      tag_41\n      jump\t// in\n    tag_105:\n        /* \"#utility.yul\":4329:4354   */\n      swap3\n      pop\n        /* \"#utility.yul\":4389:4390   */\n      dup3\n        /* \"#utility.yul\":4386:4387   */\n      dup3\n        /* \"#utility.yul\":4382:4391   */\n      mul\n        /* \"#utility.yul\":4411:4441   */\n      tag_106\n        /* \"#utility.yul\":4429:4440   */\n      dup2\n        /* \"#utility.yul\":4411:4441   */\n      tag_41\n      jump\t// in\n    tag_106:\n        /* \"#utility.yul\":4400:4441   */\n      swap2\n      pop\n        /* \"#utility.yul\":4590:4591   */\n      dup3\n        /* \"#utility.yul\":4581:4588   */\n      dup3\n        /* \"#utility.yul\":4577:4592   */\n      div\n        /* \"#utility.yul\":4574:4575   */\n      dup5\n        /* \"#utility.yul\":4571:4593   */\n      eq\n        /* \"#utility.yul\":4551:4552   */\n      dup4\n        /* \"#utility.yul\":4544:4553   */\n      iszero\n        /* \"#utility.yul\":4524:4607   */\n      or\n        /* \"#utility.yul\":4501:4640   */\n      tag_107\n      jumpi\n        /* \"#utility.yul\":4620:4638   */\n      tag_108\n      tag_45\n      jump\t// in\n    tag_108:\n        /* \"#utility.yul\":4501:4640   */\n    tag_107:\n        /* \"#utility.yul\":4285:4647   */\n      pop\n        /* \"#utility.yul\":4237:4647   */\n      swap3\n      swap2\n      pop\n      pop\n      jump\t// out\n\n    auxdata: 0xa26469706673582212206f68598a748ad30b2adf127bf2dc952727b44c07ff92b6920c2d538afd1c89ac64736f6c63430008120033\n}\n",
				"bytecode": {
					"linkReferences": {},
					"object": "608060405234801561001057600080fd5b50610473806100206000396000f3fe608060405234801561001057600080fd5b50600436106100415760003560e01c806366098d4f14610046578063c04f01fc14610076578063c8a4ac9c146100a6575b600080fd5b610060600480360381019061005b91906101b0565b6100d6565b60405161006d91906101ff565b60405180910390f35b610090600480360381019061008b91906101b0565b61010b565b60405161009d91906101ff565b60405180910390f35b6100c060048036038101906100bb91906101b0565b610140565b6040516100cd91906101ff565b60405180910390f35b60008282600a82111580156100ec5750600a8111155b6100f557600080fd5b83856101019190610249565b9250505092915050565b60008282600a82111580156101215750600a8111155b61012a57600080fd5b838561013691906103b0565b9250505092915050565b60008282600a82111580156101565750600a8111155b61015f57600080fd5b838561016b91906103fb565b9250505092915050565b600080fd5b6000819050919050565b61018d8161017a565b811461019857600080fd5b50565b6000813590506101aa81610184565b92915050565b600080604083850312156101c7576101c6610175565b5b60006101d58582860161019b565b92505060206101e68582860161019b565b9150509250929050565b6101f98161017a565b82525050565b600060208201905061021460008301846101f0565b92915050565b7f4e487b7100000000000000000000000000000000000000000000000000000000600052601160045260246000fd5b60006102548261017a565b915061025f8361017a565b92508282019050808211156102775761027661021a565b5b92915050565b60008160011c9050919050565b6000808291508390505b60018511156102d4578086048111156102b0576102af61021a565b5b60018516156102bf5780820291505b80810290506102cd8561027d565b9450610294565b94509492505050565b6000826102ed57600190506103a9565b816102fb57600090506103a9565b8160018114610311576002811461031b5761034a565b60019150506103a9565b60ff84111561032d5761032c61021a565b5b8360020a9150848211156103445761034361021a565b5b506103a9565b5060208310610133831016604e8410600b841016171561037f5782820a90508381111561037a5761037961021a565b5b6103a9565b61038c848484600161028a565b925090508184048111156103a3576103a261021a565b5b81810290505b9392505050565b60006103bb8261017a565b91506103c68361017a565b92506103f37fffffffffffffffffffffffffffffffffffffffffffffffffffffffffffffffff84846102dd565b905092915050565b60006104068261017a565b91506104118361017a565b925082820261041f8161017a565b915082820484148315176104365761043561021a565b5b509291505056fea26469706673582212206f68598a748ad30b2adf127bf2dc952727b44c07ff92b6920c2d538afd1c89ac64736f6c63430008120033",
					"opcodes": "PUSH1 0x80 PUSH1 0x40 MSTORE CALLVALUE DUP1 ISZERO PUSH2 0x10 JUMPI PUSH1 0x0 DUP1 REVERT JUMPDEST POP PUSH2 0x473 DUP1 PUSH2 0x20 PUSH1 0x0 CODECOPY PUSH1 0x0 RETURN INVALID PUSH1 0x80 PUSH1 0x40 MSTORE CALLVALUE DUP1 ISZERO PUSH2 0x10 JUMPI PUSH1 0x0 DUP1 REVERT JUMPDEST POP PUSH1 0x4 CALLDATASIZE LT PUSH2 0x41 JUMPI PUSH1 0x0 CALLDATALOAD PUSH1 0xE0 SHR DUP1 PUSH4 0x66098D4F EQ PUSH2 0x46 JUMPI DUP1 PUSH4 0xC04F01FC EQ PUSH2 0x76 JUMPI DUP1 PUSH4 0xC8A4AC9C EQ PUSH2 0xA6 JUMPI JUMPDEST PUSH1 0x0 DUP1 REVERT JUMPDEST PUSH2 0x60 PUSH1 0x4 DUP1 CALLDATASIZE SUB DUP2 ADD SWAP1 PUSH2 0x5B SWAP2 SWAP1 PUSH2 0x1B0 JUMP JUMPDEST PUSH2 0xD6 JUMP JUMPDEST PUSH1 0x40 MLOAD PUSH2 0x6D SWAP2 SWAP1 PUSH2 0x1FF JUMP JUMPDEST PUSH1 0x40 MLOAD DUP1 SWAP2 SUB SWAP1 RETURN JUMPDEST PUSH2 0x90 PUSH1 0x4 DUP1 CALLDATASIZE SUB DUP2 ADD SWAP1 PUSH2 0x8B SWAP2 SWAP1 PUSH2 0x1B0 JUMP JUMPDEST PUSH2 0x10B JUMP JUMPDEST PUSH1 0x40 MLOAD PUSH2 0x9D SWAP2 SWAP1 PUSH2 0x1FF JUMP JUMPDEST PUSH1 0x40 MLOAD DUP1 SWAP2 SUB SWAP1 RETURN JUMPDEST PUSH2 0xC0 PUSH1 0x4 DUP1 CALLDATASIZE SUB DUP2 ADD SWAP1 PUSH2 0xBB SWAP2 SWAP1 PUSH2 0x1B0 JUMP JUMPDEST PUSH2 0x140 JUMP JUMPDEST PUSH1 0x40 MLOAD PUSH2 0xCD SWAP2 SWAP1 PUSH2 0x1FF JUMP JUMPDEST PUSH1 0x40 MLOAD DUP1 SWAP2 SUB SWAP1 RETURN JUMPDEST PUSH1 0x0 DUP3 DUP3 PUSH1 0xA DUP3 GT ISZERO DUP1 ISZERO PUSH2 0xEC JUMPI POP PUSH1 0xA DUP2 GT ISZERO JUMPDEST PUSH2 0xF5 JUMPI PUSH1 0x0 DUP1 REVERT JUMPDEST DUP4 DUP6 PUSH2 0x101 SWAP2 SWAP1 PUSH2 0x249 JUMP JUMPDEST SWAP3 POP POP POP SWAP3 SWAP2 POP POP JUMP JUMPDEST PUSH1 0x0 DUP3 DUP3 PUSH1 0xA DUP3 GT ISZERO DUP1 ISZERO PUSH2 0x121 JUMPI POP PUSH1 0xA DUP2 GT ISZERO JUMPDEST PUSH2 0x12A JUMPI PUSH1 0x0 DUP1 REVERT JUMPDEST DUP4 DUP6 PUSH2 0x136 SWAP2 SWAP1 PUSH2 0x3B0 JUMP JUMPDEST SWAP3 POP POP POP SWAP3 SWAP2 POP POP JUMP JUMPDEST PUSH1 0x0 DUP3 DUP3 PUSH1 0xA DUP3 GT ISZERO DUP1 ISZERO PUSH2 0x156 JUMPI POP PUSH1 0xA DUP2 GT ISZERO JUMPDEST PUSH2 0x15F JUMPI PUSH1 0x0 DUP1 REVERT JUMPDEST DUP4 DUP6 PUSH2 0x16B SWAP2 SWAP1 PUSH2 0x3FB JUMP JUMPDEST SWAP3 POP POP POP SWAP3 SWAP2 POP POP JUMP JUMPDEST PUSH1 0x0 DUP1 REVERT JUMPDEST PUSH1 0x0 DUP2 SWAP1 POP SWAP2 SWAP1 POP JUMP JUMPDEST PUSH2 0x18D DUP2 PUSH2 0x17A JUMP JUMPDEST DUP2 EQ PUSH2 0x198 JUMPI PUSH1 0x0 DUP1 REVERT JUMPDEST POP JUMP JUMPDEST PUSH1 0x0 DUP2 CALLDATALOAD SWAP1 POP PUSH2 0x1AA DUP2 PUSH2 0x184 JUMP JUMPDEST SWAP3 SWAP2 POP POP JUMP JUMPDEST PUSH1 0x0 DUP1 PUSH1 0x40 DUP4 DUP6 SUB SLT ISZERO PUSH2 0x1C7 JUMPI PUSH2 0x1C6 PUSH2 0x175 JUMP JUMPDEST JUMPDEST PUSH1 0x0 PUSH2 0x1D5 DUP6 DUP3 DUP7 ADD PUSH2 0x19B JUMP JUMPDEST SWAP3 POP POP PUSH1 0x20 PUSH2 0x1E6 DUP6 DUP3 DUP7 ADD PUSH2 0x19B JUMP JUMPDEST SWAP2 POP POP SWAP3 POP SWAP3 SWAP1 POP JUMP JUMPDEST PUSH2 0x1F9 DUP2 PUSH2 0x17A JUMP JUMPDEST DUP3 MSTORE POP POP JUMP JUMPDEST PUSH1 0x0 PUSH1 0x20 DUP3 ADD SWAP1 POP PUSH2 0x214 PUSH1 0x0 DUP4 ADD DUP5 PUSH2 0x1F0 JUMP JUMPDEST SWAP3 SWAP2 POP POP JUMP JUMPDEST PUSH32 0x4E487B7100000000000000000000000000000000000000000000000000000000 PUSH1 0x0 MSTORE PUSH1 0x11 PUSH1 0x4 MSTORE PUSH1 0x24 PUSH1 0x0 REVERT JUMPDEST PUSH1 0x0 PUSH2 0x254 DUP3 PUSH2 0x17A JUMP JUMPDEST SWAP2 POP PUSH2 0x25F DUP4 PUSH2 0x17A JUMP JUMPDEST SWAP3 POP DUP3 DUP3 ADD SWAP1 POP DUP1 DUP3 GT ISZERO PUSH2 0x277 JUMPI PUSH2 0x276 PUSH2 0x21A JUMP JUMPDEST JUMPDEST SWAP3 SWAP2 POP POP JUMP JUMPDEST PUSH1 0x0 DUP2 PUSH1 0x1 SHR SWAP1 POP SWAP2 SWAP1 POP JUMP JUMPDEST PUSH1 0x0 DUP1 DUP3 SWAP2 POP DUP4 SWAP1 POP JUMPDEST PUSH1 0x1 DUP6 GT ISZERO PUSH2 0x2D4 JUMPI DUP1 DUP7 DIV DUP2 GT ISZERO PUSH2 0x2B0 JUMPI PUSH2 0x2AF PUSH2 0x21A JUMP JUMPDEST JUMPDEST PUSH1 0x1 DUP6 AND ISZERO PUSH2 0x2BF JUMPI DUP1 DUP3 MUL SWAP2 POP JUMPDEST DUP1 DUP2 MUL SWAP1 POP PUSH2 0x2CD DUP6 PUSH2 0x27D JUMP JUMPDEST SWAP5 POP PUSH2 0x294 JUMP JUMPDEST SWAP5 POP SWAP5 SWAP3 POP POP POP JUMP JUMPDEST PUSH1 0x0 DUP3 PUSH2 0x2ED JUMPI PUSH1 0x1 SWAP1 POP PUSH2 0x3A9 JUMP JUMPDEST DUP2 PUSH2 0x2FB JUMPI PUSH1 0x0 SWAP1 POP PUSH2 0x3A9 JUMP JUMPDEST DUP2 PUSH1 0x1 DUP2 EQ PUSH2 0x311 JUMPI PUSH1 0x2 DUP2 EQ PUSH2 0x31B JUMPI PUSH2 0x34A JUMP JUMPDEST PUSH1 0x1 SWAP2 POP POP PUSH2 0x3A9 JUMP JUMPDEST PUSH1 0xFF DUP5 GT ISZERO PUSH2 0x32D JUMPI PUSH2 0x32C PUSH2 0x21A JUMP JUMPDEST JUMPDEST DUP4 PUSH1 0x2 EXP SWAP2 POP DUP5 DUP3 GT ISZERO PUSH2 0x344 JUMPI PUSH2 0x343 PUSH2 0x21A JUMP JUMPDEST JUMPDEST POP PUSH2 0x3A9 JUMP JUMPDEST POP PUSH1 0x20 DUP4 LT PUSH2 0x133 DUP4 LT AND PUSH1 0x4E DUP5 LT PUSH1 0xB DUP5 LT AND OR ISZERO PUSH2 0x37F JUMPI DUP3 DUP3 EXP SWAP1 POP DUP4 DUP2 GT ISZERO PUSH2 0x37A JUMPI PUSH2 0x379 PUSH2 0x21A JUMP JUMPDEST JUMPDEST PUSH2 0x3A9 JUMP JUMPDEST PUSH2 0x38C DUP5 DUP5 DUP5 PUSH1 0x1 PUSH2 0x28A JUMP JUMPDEST SWAP3 POP SWAP1 POP DUP2 DUP5 DIV DUP2 GT ISZERO PUSH2 0x3A3 JUMPI PUSH2 0x3A2 PUSH2 0x21A JUMP JUMPDEST JUMPDEST DUP2 DUP2 MUL SWAP1 POP JUMPDEST SWAP4 SWAP3 POP POP POP JUMP JUMPDEST PUSH1 0x0 PUSH2 0x3BB DUP3 PUSH2 0x17A JUMP JUMPDEST SWAP2 POP PUSH2 0x3C6 DUP4 PUSH2 0x17A JUMP JUMPDEST SWAP3 POP PUSH2 0x3F3 PUSH32 0xFFFFFFFFFFFFFFFFFFFFFFFFFFFFFFFFFFFFFFFFFFFFFFFFFFFFFFFFFFFFFFFF DUP5 DUP5 PUSH2 0x2DD JUMP JUMPDEST SWAP1 POP SWAP3 SWAP2 POP POP JUMP JUMPDEST PUSH1 0x0 PUSH2 0x406 DUP3 PUSH2 0x17A JUMP JUMPDEST SWAP2 POP PUSH2 0x411 DUP4 PUSH2 0x17A JUMP JUMPDEST SWAP3 POP DUP3 DUP3 MUL PUSH2 0x41F DUP2 PUSH2 0x17A JUMP JUMPDEST SWAP2 POP DUP3 DUP3 DIV DUP5 EQ DUP4 ISZERO OR PUSH2 0x436 JUMPI PUSH2 0x435 PUSH2 0x21A JUMP JUMPDEST JUMPDEST POP SWAP3 SWAP2 POP POP JUMP INVALID LOG2 PUSH5 0x6970667358 0x22 SLT KECCAK256 PUSH16 0x68598A748AD30B2ADF127BF2DC952727 0xB4 0x4C SMOD SELFDESTRUCT SWAP3 0xB6 SWAP3 0xC 0x2D MSTORE8 DUP11 REVERT SHR DUP10 0xAC PUSH5 0x736F6C6343 STOP ADDMOD SLT STOP CALLER "
				},
				"gasEstimates": {
					"creation": {
						"codeDepositCost": "227800",
						"executionCost": "269",
						"totalCost": "228069"
					},
					"external": {
						"mul(uint256,uint256)": "infinite",
						"plus(uint256,uint256)": "infinite",
						"power(uint256,uint256)": "infinite"
					}
				},
				"methodIdentifiers": {
					"mul(uint256,uint256)": "c8a4ac9c",
					"plus(uint256,uint256)": "66098d4f",
					"power(uint256,uint256)": "c04f01fc"
				}
			},
			"storageLayout": {
				"storage": [],
				"types": null
			},
			"userdoc": {
				"kind": "user",
				"methods": {},
				"version": 1
			}
		}
	}
}