{
	"contract/solidity_61~70.sol": {
		"Q65": {
			"abi": [
				{
					"inputs": [
						{
							"internalType": "uint256",
							"name": "_a",
							"type": "uint256"
						},
						{
							"internalType": "uint256",
							"name": "_b",
							"type": "uint256"
						},
						{
							"internalType": "uint256",
							"name": "_c",
							"type": "uint256"
						}
					],
					"name": "A",
					"outputs": [
						{
							"internalType": "uint256",
							"name": "",
							"type": "uint256"
						},
						{
							"internalType": "uint256",
							"name": "",
							"type": "uint256"
						},
						{
							"internalType": "uint256",
							"name": "",
							"type": "uint256"
						}
					],
					"stateMutability": "pure",
					"type": "function"
				},
				{
					"inputs": [
						{
							"internalType": "uint256",
							"name": "_a",
							"type": "uint256"
						},
						{
							"internalType": "uint256",
							"name": "_b",
							"type": "uint256"
						},
						{
							"internalType": "uint256",
							"name": "_c",
							"type": "uint256"
						}
					],
					"name": "B",
					"outputs": [
						{
							"internalType": "uint256",
							"name": "",
							"type": "uint256"
						}
					],
					"stateMutability": "pure",
					"type": "function"
				}
			],
			"devdoc": {
				"kind": "dev",
				"methods": {},
				"version": 1
			},
			"evm": {
				"assembly": "    /* \"contract/solidity_61~70.sol\":1900:2497  contract Q65 {... */\n  mstore(0x40, 0x80)\n  callvalue\n  dup1\n  iszero\n  tag_1\n  jumpi\n  0x00\n  dup1\n  revert\ntag_1:\n  pop\n  dataSize(sub_0)\n  dup1\n  dataOffset(sub_0)\n  0x00\n  codecopy\n  0x00\n  return\nstop\n\nsub_0: assembly {\n        /* \"contract/solidity_61~70.sol\":1900:2497  contract Q65 {... */\n      mstore(0x40, 0x80)\n      callvalue\n      dup1\n      iszero\n      tag_1\n      jumpi\n      0x00\n      dup1\n      revert\n    tag_1:\n      pop\n      jumpi(tag_2, lt(calldatasize, 0x04))\n      shr(0xe0, calldataload(0x00))\n      dup1\n      0x9c8f3b77\n      eq\n      tag_3\n      jumpi\n      dup1\n      0xe99a4eae\n      eq\n      tag_4\n      jumpi\n    tag_2:\n      0x00\n      dup1\n      revert\n        /* \"contract/solidity_61~70.sol\":1922:2068  function A( uint _a , uint _b , uint _c ) public pure returns( uint , uint , uint ) {... */\n    tag_3:\n      tag_5\n      0x04\n      dup1\n      calldatasize\n      sub\n      dup2\n      add\n      swap1\n      tag_6\n      swap2\n      swap1\n      tag_7\n      jump\t// in\n    tag_6:\n      tag_8\n      jump\t// in\n    tag_5:\n      mload(0x40)\n      tag_9\n      swap4\n      swap3\n      swap2\n      swap1\n      tag_10\n      jump\t// in\n    tag_9:\n      mload(0x40)\n      dup1\n      swap2\n      sub\n      swap1\n      return\n        /* \"contract/solidity_61~70.sol\":2076:2492  function B( uint _a , uint _b , uint _c ) public pure returns( uint ) {... */\n    tag_4:\n      tag_11\n      0x04\n      dup1\n      calldatasize\n      sub\n      dup2\n      add\n      swap1\n      tag_12\n      swap2\n      swap1\n      tag_7\n      jump\t// in\n    tag_12:\n      tag_13\n      jump\t// in\n    tag_11:\n      mload(0x40)\n      tag_14\n      swap2\n      swap1\n      tag_15\n      jump\t// in\n    tag_14:\n      mload(0x40)\n      dup1\n      swap2\n      sub\n      swap1\n      return\n        /* \"contract/solidity_61~70.sol\":1922:2068  function A( uint _a , uint _b , uint _c ) public pure returns( uint , uint , uint ) {... */\n    tag_8:\n        /* \"contract/solidity_61~70.sol\":1985:1989  uint */\n      0x00\n        /* \"contract/solidity_61~70.sol\":1992:1996  uint */\n      dup1\n        /* \"contract/solidity_61~70.sol\":1999:2003  uint */\n      0x00\n        /* \"contract/solidity_61~70.sol\":2033:2035  _a */\n      dup6\n        /* \"contract/solidity_61~70.sol\":2028:2030  _a */\n      dup7\n        /* \"contract/solidity_61~70.sol\":2028:2035  _a * _a */\n      tag_17\n      swap2\n      swap1\n      tag_18\n      jump\t// in\n    tag_17:\n        /* \"contract/solidity_61~70.sol\":2043:2045  _b */\n      dup6\n        /* \"contract/solidity_61~70.sol\":2038:2040  _b */\n      dup7\n        /* \"contract/solidity_61~70.sol\":2038:2045  _b * _b */\n      tag_19\n      swap2\n      swap1\n      tag_18\n      jump\t// in\n    tag_19:\n        /* \"contract/solidity_61~70.sol\":2053:2055  _c */\n      dup6\n        /* \"contract/solidity_61~70.sol\":2048:2050  _c */\n      dup7\n        /* \"contract/solidity_61~70.sol\":2048:2055  _c * _c */\n      tag_20\n      swap2\n      swap1\n      tag_18\n      jump\t// in\n    tag_20:\n        /* \"contract/solidity_61~70.sol\":2019:2057  return ( _a * _a , _b * _b , _c * _c ) */\n      swap3\n      pop\n      swap3\n      pop\n      swap3\n      pop\n        /* \"contract/solidity_61~70.sol\":1922:2068  function A( uint _a , uint _b , uint _c ) public pure returns( uint , uint , uint ) {... */\n      swap4\n      pop\n      swap4\n      pop\n      swap4\n      swap1\n      pop\n      jump\t// out\n        /* \"contract/solidity_61~70.sol\":2076:2492  function B( uint _a , uint _b , uint _c ) public pure returns( uint ) {... */\n    tag_13:\n        /* \"contract/solidity_61~70.sol\":2139:2143  uint */\n      0x00\n        /* \"contract/solidity_61~70.sol\":2159:2181  uint[ 3 ] memory array */\n      tag_22\n      tag_23\n      jump\t// in\n    tag_22:\n        /* \"contract/solidity_61~70.sol\":2236:2253  A( _a , _b , _c ) */\n      tag_24\n        /* \"contract/solidity_61~70.sol\":2239:2241  _a */\n      dup6\n        /* \"contract/solidity_61~70.sol\":2244:2246  _b */\n      dup6\n        /* \"contract/solidity_61~70.sol\":2249:2251  _c */\n      dup6\n        /* \"contract/solidity_61~70.sol\":2236:2237  A */\n      tag_8\n        /* \"contract/solidity_61~70.sol\":2236:2253  A( _a , _b , _c ) */\n      jump\t// in\n    tag_24:\n        /* \"contract/solidity_61~70.sol\":2195:2200  array */\n      dup4\n        /* \"contract/solidity_61~70.sol\":2202:2203  0 */\n      0x00\n        /* \"contract/solidity_61~70.sol\":2195:2205  array[ 0 ] */\n      0x03\n      dup2\n      lt\n      tag_25\n      jumpi\n      tag_26\n      tag_27\n      jump\t// in\n    tag_26:\n    tag_25:\n      0x20\n      mul\n      add\n        /* \"contract/solidity_61~70.sol\":2208:2213  array */\n      dup5\n        /* \"contract/solidity_61~70.sol\":2215:2216  1 */\n      0x01\n        /* \"contract/solidity_61~70.sol\":2208:2218  array[ 1 ] */\n      0x03\n      dup2\n      lt\n      tag_28\n      jumpi\n      tag_29\n      tag_27\n      jump\t// in\n    tag_29:\n    tag_28:\n      0x20\n      mul\n      add\n        /* \"contract/solidity_61~70.sol\":2221:2226  array */\n      dup6\n        /* \"contract/solidity_61~70.sol\":2228:2229  2 */\n      0x02\n        /* \"contract/solidity_61~70.sol\":2221:2231  array[ 2 ] */\n      0x03\n      dup2\n      lt\n      tag_30\n      jumpi\n      tag_31\n      tag_27\n      jump\t// in\n    tag_31:\n    tag_30:\n      0x20\n      mul\n      add\n        /* \"contract/solidity_61~70.sol\":2193:2253  ( array[ 0 ] , array[ 1 ] , array[ 2 ] ) = A( _a , _b , _c ) */\n      dup4\n      dup2\n      mstore\n      pop\n      dup4\n      dup2\n      mstore\n      pop\n      dup4\n      dup2\n      mstore\n      pop\n      pop\n      pop\n      pop\n        /* \"contract/solidity_61~70.sol\":2272:2278  uint i */\n      0x00\n        /* \"contract/solidity_61~70.sol\":2267:2446  for( uint i = 0 ; i < 3 ; i ++ )... */\n    tag_32:\n        /* \"contract/solidity_61~70.sol\":2289:2290  3 */\n      0x03\n        /* \"contract/solidity_61~70.sol\":2285:2286  i */\n      dup2\n        /* \"contract/solidity_61~70.sol\":2285:2290  i < 3 */\n      lt\n        /* \"contract/solidity_61~70.sol\":2267:2446  for( uint i = 0 ; i < 3 ; i ++ )... */\n      iszero\n      tag_33\n      jumpi\n        /* \"contract/solidity_61~70.sol\":2314:2320  uint j */\n      0x00\n        /* \"contract/solidity_61~70.sol\":2327:2328  1 */\n      0x01\n        /* \"contract/solidity_61~70.sol\":2323:2324  i */\n      dup3\n        /* \"contract/solidity_61~70.sol\":2323:2328  i + 1 */\n      tag_38\n      swap2\n      swap1\n      tag_39\n      jump\t// in\n    tag_38:\n        /* \"contract/solidity_61~70.sol\":2314:2328  uint j = i + 1 */\n      swap1\n      pop\n        /* \"contract/solidity_61~70.sol\":2309:2446  for( uint j = i + 1 ; j < 3 ; j ++ )... */\n    tag_35:\n        /* \"contract/solidity_61~70.sol\":2335:2336  3 */\n      0x03\n        /* \"contract/solidity_61~70.sol\":2331:2332  j */\n      dup2\n        /* \"contract/solidity_61~70.sol\":2331:2336  j < 3 */\n      lt\n        /* \"contract/solidity_61~70.sol\":2309:2446  for( uint j = i + 1 ; j < 3 ; j ++ )... */\n      iszero\n      tag_36\n      jumpi\n        /* \"contract/solidity_61~70.sol\":2376:2381  array */\n      dup3\n        /* \"contract/solidity_61~70.sol\":2383:2384  j */\n      dup2\n        /* \"contract/solidity_61~70.sol\":2376:2386  array[ j ] */\n      0x03\n      dup2\n      lt\n      tag_40\n      jumpi\n      tag_41\n      tag_27\n      jump\t// in\n    tag_41:\n    tag_40:\n      0x20\n      mul\n      add\n      mload\n        /* \"contract/solidity_61~70.sol\":2363:2368  array */\n      dup4\n        /* \"contract/solidity_61~70.sol\":2370:2371  i */\n      dup4\n        /* \"contract/solidity_61~70.sol\":2363:2373  array[ i ] */\n      0x03\n      dup2\n      lt\n      tag_42\n      jumpi\n      tag_43\n      tag_27\n      jump\t// in\n    tag_43:\n    tag_42:\n      0x20\n      mul\n      add\n      mload\n        /* \"contract/solidity_61~70.sol\":2363:2386  array[ i ] > array[ j ] */\n      gt\n        /* \"contract/solidity_61~70.sol\":2359:2446  if( array[ i ] > array[ j ] ) ( array[ i ] , array[ j ] ) = ( array[ j ] , array[ i ] ) */\n      iszero\n      tag_44\n      jumpi\n        /* \"contract/solidity_61~70.sol\":2421:2426  array */\n      dup3\n        /* \"contract/solidity_61~70.sol\":2428:2429  j */\n      dup2\n        /* \"contract/solidity_61~70.sol\":2421:2431  array[ j ] */\n      0x03\n      dup2\n      lt\n      tag_45\n      jumpi\n      tag_46\n      tag_27\n      jump\t// in\n    tag_46:\n    tag_45:\n      0x20\n      mul\n      add\n      mload\n        /* \"contract/solidity_61~70.sol\":2434:2439  array */\n      dup4\n        /* \"contract/solidity_61~70.sol\":2441:2442  i */\n      dup4\n        /* \"contract/solidity_61~70.sol\":2434:2444  array[ i ] */\n      0x03\n      dup2\n      lt\n      tag_47\n      jumpi\n      tag_48\n      tag_27\n      jump\t// in\n    tag_48:\n    tag_47:\n      0x20\n      mul\n      add\n      mload\n        /* \"contract/solidity_61~70.sol\":2391:2396  array */\n      dup5\n        /* \"contract/solidity_61~70.sol\":2398:2399  i */\n      dup5\n        /* \"contract/solidity_61~70.sol\":2391:2401  array[ i ] */\n      0x03\n      dup2\n      lt\n      tag_49\n      jumpi\n      tag_50\n      tag_27\n      jump\t// in\n    tag_50:\n    tag_49:\n      0x20\n      mul\n      add\n        /* \"contract/solidity_61~70.sol\":2404:2409  array */\n      dup6\n        /* \"contract/solidity_61~70.sol\":2411:2412  j */\n      dup5\n        /* \"contract/solidity_61~70.sol\":2404:2414  array[ j ] */\n      0x03\n      dup2\n      lt\n      tag_51\n      jumpi\n      tag_52\n      tag_27\n      jump\t// in\n    tag_52:\n    tag_51:\n      0x20\n      mul\n      add\n        /* \"contract/solidity_61~70.sol\":2389:2446  ( array[ i ] , array[ j ] ) = ( array[ j ] , array[ i ] ) */\n      dup3\n      dup2\n      mstore\n      pop\n      dup3\n      dup2\n      mstore\n      pop\n      pop\n      pop\n        /* \"contract/solidity_61~70.sol\":2359:2446  if( array[ i ] > array[ j ] ) ( array[ i ] , array[ j ] ) = ( array[ j ] , array[ i ] ) */\n    tag_44:\n        /* \"contract/solidity_61~70.sol\":2339:2343  j ++ */\n      dup1\n      dup1\n      tag_53\n      swap1\n      tag_54\n      jump\t// in\n    tag_53:\n      swap2\n      pop\n      pop\n        /* \"contract/solidity_61~70.sol\":2309:2446  for( uint j = i + 1 ; j < 3 ; j ++ )... */\n      jump(tag_35)\n    tag_36:\n      pop\n        /* \"contract/solidity_61~70.sol\":2293:2297  i ++ */\n      dup1\n      dup1\n      tag_55\n      swap1\n      tag_54\n      jump\t// in\n    tag_55:\n      swap2\n      pop\n      pop\n        /* \"contract/solidity_61~70.sol\":2267:2446  for( uint i = 0 ; i < 3 ; i ++ )... */\n      jump(tag_32)\n    tag_33:\n      pop\n        /* \"contract/solidity_61~70.sol\":2467:2472  array */\n      dup1\n        /* \"contract/solidity_61~70.sol\":2474:2475  1 */\n      0x01\n        /* \"contract/solidity_61~70.sol\":2467:2477  array[ 1 ] */\n      0x03\n      dup2\n      lt\n      tag_56\n      jumpi\n      tag_57\n      tag_27\n      jump\t// in\n    tag_57:\n    tag_56:\n      0x20\n      mul\n      add\n      mload\n        /* \"contract/solidity_61~70.sol\":2460:2477  return array[ 1 ] */\n      swap2\n      pop\n      pop\n        /* \"contract/solidity_61~70.sol\":2076:2492  function B( uint _a , uint _b , uint _c ) public pure returns( uint ) {... */\n      swap4\n      swap3\n      pop\n      pop\n      pop\n      jump\t// out\n    tag_23:\n      mload(0x40)\n      dup1\n      0x60\n      add\n      0x40\n      mstore\n      dup1\n      0x03\n      swap1\n      0x20\n      dup3\n      mul\n      dup1\n      calldatasize\n      dup4\n      calldatacopy\n      dup1\n      dup3\n      add\n      swap2\n      pop\n      pop\n      swap1\n      pop\n      pop\n      swap1\n      jump\t// out\n        /* \"#utility.yul\":88:205   */\n    tag_59:\n        /* \"#utility.yul\":197:198   */\n      0x00\n        /* \"#utility.yul\":194:195   */\n      dup1\n        /* \"#utility.yul\":187:199   */\n      revert\n        /* \"#utility.yul\":334:411   */\n    tag_61:\n        /* \"#utility.yul\":371:378   */\n      0x00\n        /* \"#utility.yul\":400:405   */\n      dup2\n        /* \"#utility.yul\":389:405   */\n      swap1\n      pop\n        /* \"#utility.yul\":334:411   */\n      swap2\n      swap1\n      pop\n      jump\t// out\n        /* \"#utility.yul\":417:539   */\n    tag_62:\n        /* \"#utility.yul\":490:514   */\n      tag_72\n        /* \"#utility.yul\":508:513   */\n      dup2\n        /* \"#utility.yul\":490:514   */\n      tag_61\n      jump\t// in\n    tag_72:\n        /* \"#utility.yul\":483:488   */\n      dup2\n        /* \"#utility.yul\":480:515   */\n      eq\n        /* \"#utility.yul\":470:533   */\n      tag_73\n      jumpi\n        /* \"#utility.yul\":529:530   */\n      0x00\n        /* \"#utility.yul\":526:527   */\n      dup1\n        /* \"#utility.yul\":519:531   */\n      revert\n        /* \"#utility.yul\":470:533   */\n    tag_73:\n        /* \"#utility.yul\":417:539   */\n      pop\n      jump\t// out\n        /* \"#utility.yul\":545:684   */\n    tag_63:\n        /* \"#utility.yul\":591:596   */\n      0x00\n        /* \"#utility.yul\":629:635   */\n      dup2\n        /* \"#utility.yul\":616:636   */\n      calldataload\n        /* \"#utility.yul\":607:636   */\n      swap1\n      pop\n        /* \"#utility.yul\":645:678   */\n      tag_75\n        /* \"#utility.yul\":672:677   */\n      dup2\n        /* \"#utility.yul\":645:678   */\n      tag_62\n      jump\t// in\n    tag_75:\n        /* \"#utility.yul\":545:684   */\n      swap3\n      swap2\n      pop\n      pop\n      jump\t// out\n        /* \"#utility.yul\":690:1309   */\n    tag_7:\n        /* \"#utility.yul\":767:773   */\n      0x00\n        /* \"#utility.yul\":775:781   */\n      dup1\n        /* \"#utility.yul\":783:789   */\n      0x00\n        /* \"#utility.yul\":832:834   */\n      0x60\n        /* \"#utility.yul\":820:829   */\n      dup5\n        /* \"#utility.yul\":811:818   */\n      dup7\n        /* \"#utility.yul\":807:830   */\n      sub\n        /* \"#utility.yul\":803:835   */\n      slt\n        /* \"#utility.yul\":800:919   */\n      iszero\n      tag_77\n      jumpi\n        /* \"#utility.yul\":838:917   */\n      tag_78\n      tag_59\n      jump\t// in\n    tag_78:\n        /* \"#utility.yul\":800:919   */\n    tag_77:\n        /* \"#utility.yul\":958:959   */\n      0x00\n        /* \"#utility.yul\":983:1036   */\n      tag_79\n        /* \"#utility.yul\":1028:1035   */\n      dup7\n        /* \"#utility.yul\":1019:1025   */\n      dup3\n        /* \"#utility.yul\":1008:1017   */\n      dup8\n        /* \"#utility.yul\":1004:1026   */\n      add\n        /* \"#utility.yul\":983:1036   */\n      tag_63\n      jump\t// in\n    tag_79:\n        /* \"#utility.yul\":973:1036   */\n      swap4\n      pop\n        /* \"#utility.yul\":929:1046   */\n      pop\n        /* \"#utility.yul\":1085:1087   */\n      0x20\n        /* \"#utility.yul\":1111:1164   */\n      tag_80\n        /* \"#utility.yul\":1156:1163   */\n      dup7\n        /* \"#utility.yul\":1147:1153   */\n      dup3\n        /* \"#utility.yul\":1136:1145   */\n      dup8\n        /* \"#utility.yul\":1132:1154   */\n      add\n        /* \"#utility.yul\":1111:1164   */\n      tag_63\n      jump\t// in\n    tag_80:\n        /* \"#utility.yul\":1101:1164   */\n      swap3\n      pop\n        /* \"#utility.yul\":1056:1174   */\n      pop\n        /* \"#utility.yul\":1213:1215   */\n      0x40\n        /* \"#utility.yul\":1239:1292   */\n      tag_81\n        /* \"#utility.yul\":1284:1291   */\n      dup7\n        /* \"#utility.yul\":1275:1281   */\n      dup3\n        /* \"#utility.yul\":1264:1273   */\n      dup8\n        /* \"#utility.yul\":1260:1282   */\n      add\n        /* \"#utility.yul\":1239:1292   */\n      tag_63\n      jump\t// in\n    tag_81:\n        /* \"#utility.yul\":1229:1292   */\n      swap2\n      pop\n        /* \"#utility.yul\":1184:1302   */\n      pop\n        /* \"#utility.yul\":690:1309   */\n      swap3\n      pop\n      swap3\n      pop\n      swap3\n      jump\t// out\n        /* \"#utility.yul\":1315:1433   */\n    tag_64:\n        /* \"#utility.yul\":1402:1426   */\n      tag_83\n        /* \"#utility.yul\":1420:1425   */\n      dup2\n        /* \"#utility.yul\":1402:1426   */\n      tag_61\n      jump\t// in\n    tag_83:\n        /* \"#utility.yul\":1397:1400   */\n      dup3\n        /* \"#utility.yul\":1390:1427   */\n      mstore\n        /* \"#utility.yul\":1315:1433   */\n      pop\n      pop\n      jump\t// out\n        /* \"#utility.yul\":1439:1881   */\n    tag_10:\n        /* \"#utility.yul\":1588:1592   */\n      0x00\n        /* \"#utility.yul\":1626:1628   */\n      0x60\n        /* \"#utility.yul\":1615:1624   */\n      dup3\n        /* \"#utility.yul\":1611:1629   */\n      add\n        /* \"#utility.yul\":1603:1629   */\n      swap1\n      pop\n        /* \"#utility.yul\":1639:1710   */\n      tag_85\n        /* \"#utility.yul\":1707:1708   */\n      0x00\n        /* \"#utility.yul\":1696:1705   */\n      dup4\n        /* \"#utility.yul\":1692:1709   */\n      add\n        /* \"#utility.yul\":1683:1689   */\n      dup7\n        /* \"#utility.yul\":1639:1710   */\n      tag_64\n      jump\t// in\n    tag_85:\n        /* \"#utility.yul\":1720:1792   */\n      tag_86\n        /* \"#utility.yul\":1788:1790   */\n      0x20\n        /* \"#utility.yul\":1777:1786   */\n      dup4\n        /* \"#utility.yul\":1773:1791   */\n      add\n        /* \"#utility.yul\":1764:1770   */\n      dup6\n        /* \"#utility.yul\":1720:1792   */\n      tag_64\n      jump\t// in\n    tag_86:\n        /* \"#utility.yul\":1802:1874   */\n      tag_87\n        /* \"#utility.yul\":1870:1872   */\n      0x40\n        /* \"#utility.yul\":1859:1868   */\n      dup4\n        /* \"#utility.yul\":1855:1873   */\n      add\n        /* \"#utility.yul\":1846:1852   */\n      dup5\n        /* \"#utility.yul\":1802:1874   */\n      tag_64\n      jump\t// in\n    tag_87:\n        /* \"#utility.yul\":1439:1881   */\n      swap5\n      swap4\n      pop\n      pop\n      pop\n      pop\n      jump\t// out\n        /* \"#utility.yul\":1887:2109   */\n    tag_15:\n        /* \"#utility.yul\":1980:1984   */\n      0x00\n        /* \"#utility.yul\":2018:2020   */\n      0x20\n        /* \"#utility.yul\":2007:2016   */\n      dup3\n        /* \"#utility.yul\":2003:2021   */\n      add\n        /* \"#utility.yul\":1995:2021   */\n      swap1\n      pop\n        /* \"#utility.yul\":2031:2102   */\n      tag_89\n        /* \"#utility.yul\":2099:2100   */\n      0x00\n        /* \"#utility.yul\":2088:2097   */\n      dup4\n        /* \"#utility.yul\":2084:2101   */\n      add\n        /* \"#utility.yul\":2075:2081   */\n      dup5\n        /* \"#utility.yul\":2031:2102   */\n      tag_64\n      jump\t// in\n    tag_89:\n        /* \"#utility.yul\":1887:2109   */\n      swap3\n      swap2\n      pop\n      pop\n      jump\t// out\n        /* \"#utility.yul\":2115:2295   */\n    tag_65:\n        /* \"#utility.yul\":2163:2240   */\n      0x4e487b7100000000000000000000000000000000000000000000000000000000\n        /* \"#utility.yul\":2160:2161   */\n      0x00\n        /* \"#utility.yul\":2153:2241   */\n      mstore\n        /* \"#utility.yul\":2260:2264   */\n      0x11\n        /* \"#utility.yul\":2257:2258   */\n      0x04\n        /* \"#utility.yul\":2250:2265   */\n      mstore\n        /* \"#utility.yul\":2284:2288   */\n      0x24\n        /* \"#utility.yul\":2281:2282   */\n      0x00\n        /* \"#utility.yul\":2274:2289   */\n      revert\n        /* \"#utility.yul\":2301:2711   */\n    tag_18:\n        /* \"#utility.yul\":2341:2348   */\n      0x00\n        /* \"#utility.yul\":2364:2384   */\n      tag_92\n        /* \"#utility.yul\":2382:2383   */\n      dup3\n        /* \"#utility.yul\":2364:2384   */\n      tag_61\n      jump\t// in\n    tag_92:\n        /* \"#utility.yul\":2359:2384   */\n      swap2\n      pop\n        /* \"#utility.yul\":2398:2418   */\n      tag_93\n        /* \"#utility.yul\":2416:2417   */\n      dup4\n        /* \"#utility.yul\":2398:2418   */\n      tag_61\n      jump\t// in\n    tag_93:\n        /* \"#utility.yul\":2393:2418   */\n      swap3\n      pop\n        /* \"#utility.yul\":2453:2454   */\n      dup3\n        /* \"#utility.yul\":2450:2451   */\n      dup3\n        /* \"#utility.yul\":2446:2455   */\n      mul\n        /* \"#utility.yul\":2475:2505   */\n      tag_94\n        /* \"#utility.yul\":2493:2504   */\n      dup2\n        /* \"#utility.yul\":2475:2505   */\n      tag_61\n      jump\t// in\n    tag_94:\n        /* \"#utility.yul\":2464:2505   */\n      swap2\n      pop\n        /* \"#utility.yul\":2654:2655   */\n      dup3\n        /* \"#utility.yul\":2645:2652   */\n      dup3\n        /* \"#utility.yul\":2641:2656   */\n      div\n        /* \"#utility.yul\":2638:2639   */\n      dup5\n        /* \"#utility.yul\":2635:2657   */\n      eq\n        /* \"#utility.yul\":2615:2616   */\n      dup4\n        /* \"#utility.yul\":2608:2617   */\n      iszero\n        /* \"#utility.yul\":2588:2671   */\n      or\n        /* \"#utility.yul\":2565:2704   */\n      tag_95\n      jumpi\n        /* \"#utility.yul\":2684:2702   */\n      tag_96\n      tag_65\n      jump\t// in\n    tag_96:\n        /* \"#utility.yul\":2565:2704   */\n    tag_95:\n        /* \"#utility.yul\":2349:2711   */\n      pop\n        /* \"#utility.yul\":2301:2711   */\n      swap3\n      swap2\n      pop\n      pop\n      jump\t// out\n        /* \"#utility.yul\":2717:2897   */\n    tag_27:\n        /* \"#utility.yul\":2765:2842   */\n      0x4e487b7100000000000000000000000000000000000000000000000000000000\n        /* \"#utility.yul\":2762:2763   */\n      0x00\n        /* \"#utility.yul\":2755:2843   */\n      mstore\n        /* \"#utility.yul\":2862:2866   */\n      0x32\n        /* \"#utility.yul\":2859:2860   */\n      0x04\n        /* \"#utility.yul\":2852:2867   */\n      mstore\n        /* \"#utility.yul\":2886:2890   */\n      0x24\n        /* \"#utility.yul\":2883:2884   */\n      0x00\n        /* \"#utility.yul\":2876:2891   */\n      revert\n        /* \"#utility.yul\":2903:3094   */\n    tag_39:\n        /* \"#utility.yul\":2943:2946   */\n      0x00\n        /* \"#utility.yul\":2962:2982   */\n      tag_99\n        /* \"#utility.yul\":2980:2981   */\n      dup3\n        /* \"#utility.yul\":2962:2982   */\n      tag_61\n      jump\t// in\n    tag_99:\n        /* \"#utility.yul\":2957:2982   */\n      swap2\n      pop\n        /* \"#utility.yul\":2996:3016   */\n      tag_100\n        /* \"#utility.yul\":3014:3015   */\n      dup4\n        /* \"#utility.yul\":2996:3016   */\n      tag_61\n      jump\t// in\n    tag_100:\n        /* \"#utility.yul\":2991:3016   */\n      swap3\n      pop\n        /* \"#utility.yul\":3039:3040   */\n      dup3\n        /* \"#utility.yul\":3036:3037   */\n      dup3\n        /* \"#utility.yul\":3032:3041   */\n      add\n        /* \"#utility.yul\":3025:3041   */\n      swap1\n      pop\n        /* \"#utility.yul\":3060:3063   */\n      dup1\n        /* \"#utility.yul\":3057:3058   */\n      dup3\n        /* \"#utility.yul\":3054:3064   */\n      gt\n        /* \"#utility.yul\":3051:3087   */\n      iszero\n      tag_101\n      jumpi\n        /* \"#utility.yul\":3067:3085   */\n      tag_102\n      tag_65\n      jump\t// in\n    tag_102:\n        /* \"#utility.yul\":3051:3087   */\n    tag_101:\n        /* \"#utility.yul\":2903:3094   */\n      swap3\n      swap2\n      pop\n      pop\n      jump\t// out\n        /* \"#utility.yul\":3100:3333   */\n    tag_54:\n        /* \"#utility.yul\":3139:3142   */\n      0x00\n        /* \"#utility.yul\":3162:3186   */\n      tag_104\n        /* \"#utility.yul\":3180:3185   */\n      dup3\n        /* \"#utility.yul\":3162:3186   */\n      tag_61\n      jump\t// in\n    tag_104:\n        /* \"#utility.yul\":3153:3186   */\n      swap2\n      pop\n        /* \"#utility.yul\":3208:3274   */\n      0xffffffffffffffffffffffffffffffffffffffffffffffffffffffffffffffff\n        /* \"#utility.yul\":3201:3206   */\n      dup3\n        /* \"#utility.yul\":3198:3275   */\n      sub\n        /* \"#utility.yul\":3195:3298   */\n      tag_105\n      jumpi\n        /* \"#utility.yul\":3278:3296   */\n      tag_106\n      tag_65\n      jump\t// in\n    tag_106:\n        /* \"#utility.yul\":3195:3298   */\n    tag_105:\n        /* \"#utility.yul\":3325:3326   */\n      0x01\n        /* \"#utility.yul\":3318:3323   */\n      dup3\n        /* \"#utility.yul\":3314:3327   */\n      add\n        /* \"#utility.yul\":3307:3327   */\n      swap1\n      pop\n        /* \"#utility.yul\":3100:3333   */\n      swap2\n      swap1\n      pop\n      jump\t// out\n\n    auxdata: 0xa26469706673582212207c60549b4a54539f6d8067b8e4e0dfa9888801954c77373924aa6b4cb856574464736f6c63430008120033\n}\n",
				"bytecode": {
					"linkReferences": {},
					"object": "608060405234801561001057600080fd5b506104b5806100206000396000f3fe608060405234801561001057600080fd5b50600436106100365760003560e01c80639c8f3b771461003b578063e99a4eae1461006d575b600080fd5b610055600480360381019061005091906102af565b61009d565b60405161006493929190610311565b60405180910390f35b610087600480360381019061008291906102af565b6100d5565b6040516100949190610348565b60405180910390f35b600080600085866100ae9190610392565b85866100ba9190610392565b85866100c69190610392565b92509250925093509350939050565b60006100df610252565b6100ea85858561009d565b836000600381106100fe576100fd6103d4565b5b6020020184600160038110610116576101156103d4565b5b602002018560026003811061012e5761012d6103d4565b5b6020020183815250838152508381525050505060005b600381101561022e57600060018261015c9190610403565b90505b600381101561021a5782816003811061017b5761017a6103d4565b5b6020020151838360038110610193576101926103d4565b5b60200201511115610207578281600381106101b1576101b06103d4565b5b60200201518383600381106101c9576101c86103d4565b5b60200201518484600381106101e1576101e06103d4565b5b602002018584600381106101f8576101f76103d4565b5b60200201828152508281525050505b808061021290610437565b91505061015f565b50808061022690610437565b915050610144565b5080600160038110610243576102426103d4565b5b60200201519150509392505050565b6040518060600160405280600390602082028036833780820191505090505090565b600080fd5b6000819050919050565b61028c81610279565b811461029757600080fd5b50565b6000813590506102a981610283565b92915050565b6000806000606084860312156102c8576102c7610274565b5b60006102d68682870161029a565b93505060206102e78682870161029a565b92505060406102f88682870161029a565b9150509250925092565b61030b81610279565b82525050565b60006060820190506103266000830186610302565b6103336020830185610302565b6103406040830184610302565b949350505050565b600060208201905061035d6000830184610302565b92915050565b7f4e487b7100000000000000000000000000000000000000000000000000000000600052601160045260246000fd5b600061039d82610279565b91506103a883610279565b92508282026103b681610279565b915082820484148315176103cd576103cc610363565b5b5092915050565b7f4e487b7100000000000000000000000000000000000000000000000000000000600052603260045260246000fd5b600061040e82610279565b915061041983610279565b925082820190508082111561043157610430610363565b5b92915050565b600061044282610279565b91507fffffffffffffffffffffffffffffffffffffffffffffffffffffffffffffffff820361047457610473610363565b5b60018201905091905056fea26469706673582212207c60549b4a54539f6d8067b8e4e0dfa9888801954c77373924aa6b4cb856574464736f6c63430008120033",
					"opcodes": "PUSH1 0x80 PUSH1 0x40 MSTORE CALLVALUE DUP1 ISZERO PUSH2 0x10 JUMPI PUSH1 0x0 DUP1 REVERT JUMPDEST POP PUSH2 0x4B5 DUP1 PUSH2 0x20 PUSH1 0x0 CODECOPY PUSH1 0x0 RETURN INVALID PUSH1 0x80 PUSH1 0x40 MSTORE CALLVALUE DUP1 ISZERO PUSH2 0x10 JUMPI PUSH1 0x0 DUP1 REVERT JUMPDEST POP PUSH1 0x4 CALLDATASIZE LT PUSH2 0x36 JUMPI PUSH1 0x0 CALLDATALOAD PUSH1 0xE0 SHR DUP1 PUSH4 0x9C8F3B77 EQ PUSH2 0x3B JUMPI DUP1 PUSH4 0xE99A4EAE EQ PUSH2 0x6D JUMPI JUMPDEST PUSH1 0x0 DUP1 REVERT JUMPDEST PUSH2 0x55 PUSH1 0x4 DUP1 CALLDATASIZE SUB DUP2 ADD SWAP1 PUSH2 0x50 SWAP2 SWAP1 PUSH2 0x2AF JUMP JUMPDEST PUSH2 0x9D JUMP JUMPDEST PUSH1 0x40 MLOAD PUSH2 0x64 SWAP4 SWAP3 SWAP2 SWAP1 PUSH2 0x311 JUMP JUMPDEST PUSH1 0x40 MLOAD DUP1 SWAP2 SUB SWAP1 RETURN JUMPDEST PUSH2 0x87 PUSH1 0x4 DUP1 CALLDATASIZE SUB DUP2 ADD SWAP1 PUSH2 0x82 SWAP2 SWAP1 PUSH2 0x2AF JUMP JUMPDEST PUSH2 0xD5 JUMP JUMPDEST PUSH1 0x40 MLOAD PUSH2 0x94 SWAP2 SWAP1 PUSH2 0x348 JUMP JUMPDEST PUSH1 0x40 MLOAD DUP1 SWAP2 SUB SWAP1 RETURN JUMPDEST PUSH1 0x0 DUP1 PUSH1 0x0 DUP6 DUP7 PUSH2 0xAE SWAP2 SWAP1 PUSH2 0x392 JUMP JUMPDEST DUP6 DUP7 PUSH2 0xBA SWAP2 SWAP1 PUSH2 0x392 JUMP JUMPDEST DUP6 DUP7 PUSH2 0xC6 SWAP2 SWAP1 PUSH2 0x392 JUMP JUMPDEST SWAP3 POP SWAP3 POP SWAP3 POP SWAP4 POP SWAP4 POP SWAP4 SWAP1 POP JUMP JUMPDEST PUSH1 0x0 PUSH2 0xDF PUSH2 0x252 JUMP JUMPDEST PUSH2 0xEA DUP6 DUP6 DUP6 PUSH2 0x9D JUMP JUMPDEST DUP4 PUSH1 0x0 PUSH1 0x3 DUP2 LT PUSH2 0xFE JUMPI PUSH2 0xFD PUSH2 0x3D4 JUMP JUMPDEST JUMPDEST PUSH1 0x20 MUL ADD DUP5 PUSH1 0x1 PUSH1 0x3 DUP2 LT PUSH2 0x116 JUMPI PUSH2 0x115 PUSH2 0x3D4 JUMP JUMPDEST JUMPDEST PUSH1 0x20 MUL ADD DUP6 PUSH1 0x2 PUSH1 0x3 DUP2 LT PUSH2 0x12E JUMPI PUSH2 0x12D PUSH2 0x3D4 JUMP JUMPDEST JUMPDEST PUSH1 0x20 MUL ADD DUP4 DUP2 MSTORE POP DUP4 DUP2 MSTORE POP DUP4 DUP2 MSTORE POP POP POP POP PUSH1 0x0 JUMPDEST PUSH1 0x3 DUP2 LT ISZERO PUSH2 0x22E JUMPI PUSH1 0x0 PUSH1 0x1 DUP3 PUSH2 0x15C SWAP2 SWAP1 PUSH2 0x403 JUMP JUMPDEST SWAP1 POP JUMPDEST PUSH1 0x3 DUP2 LT ISZERO PUSH2 0x21A JUMPI DUP3 DUP2 PUSH1 0x3 DUP2 LT PUSH2 0x17B JUMPI PUSH2 0x17A PUSH2 0x3D4 JUMP JUMPDEST JUMPDEST PUSH1 0x20 MUL ADD MLOAD DUP4 DUP4 PUSH1 0x3 DUP2 LT PUSH2 0x193 JUMPI PUSH2 0x192 PUSH2 0x3D4 JUMP JUMPDEST JUMPDEST PUSH1 0x20 MUL ADD MLOAD GT ISZERO PUSH2 0x207 JUMPI DUP3 DUP2 PUSH1 0x3 DUP2 LT PUSH2 0x1B1 JUMPI PUSH2 0x1B0 PUSH2 0x3D4 JUMP JUMPDEST JUMPDEST PUSH1 0x20 MUL ADD MLOAD DUP4 DUP4 PUSH1 0x3 DUP2 LT PUSH2 0x1C9 JUMPI PUSH2 0x1C8 PUSH2 0x3D4 JUMP JUMPDEST JUMPDEST PUSH1 0x20 MUL ADD MLOAD DUP5 DUP5 PUSH1 0x3 DUP2 LT PUSH2 0x1E1 JUMPI PUSH2 0x1E0 PUSH2 0x3D4 JUMP JUMPDEST JUMPDEST PUSH1 0x20 MUL ADD DUP6 DUP5 PUSH1 0x3 DUP2 LT PUSH2 0x1F8 JUMPI PUSH2 0x1F7 PUSH2 0x3D4 JUMP JUMPDEST JUMPDEST PUSH1 0x20 MUL ADD DUP3 DUP2 MSTORE POP DUP3 DUP2 MSTORE POP POP POP JUMPDEST DUP1 DUP1 PUSH2 0x212 SWAP1 PUSH2 0x437 JUMP JUMPDEST SWAP2 POP POP PUSH2 0x15F JUMP JUMPDEST POP DUP1 DUP1 PUSH2 0x226 SWAP1 PUSH2 0x437 JUMP JUMPDEST SWAP2 POP POP PUSH2 0x144 JUMP JUMPDEST POP DUP1 PUSH1 0x1 PUSH1 0x3 DUP2 LT PUSH2 0x243 JUMPI PUSH2 0x242 PUSH2 0x3D4 JUMP JUMPDEST JUMPDEST PUSH1 0x20 MUL ADD MLOAD SWAP2 POP POP SWAP4 SWAP3 POP POP POP JUMP JUMPDEST PUSH1 0x40 MLOAD DUP1 PUSH1 0x60 ADD PUSH1 0x40 MSTORE DUP1 PUSH1 0x3 SWAP1 PUSH1 0x20 DUP3 MUL DUP1 CALLDATASIZE DUP4 CALLDATACOPY DUP1 DUP3 ADD SWAP2 POP POP SWAP1 POP POP SWAP1 JUMP JUMPDEST PUSH1 0x0 DUP1 REVERT JUMPDEST PUSH1 0x0 DUP2 SWAP1 POP SWAP2 SWAP1 POP JUMP JUMPDEST PUSH2 0x28C DUP2 PUSH2 0x279 JUMP JUMPDEST DUP2 EQ PUSH2 0x297 JUMPI PUSH1 0x0 DUP1 REVERT JUMPDEST POP JUMP JUMPDEST PUSH1 0x0 DUP2 CALLDATALOAD SWAP1 POP PUSH2 0x2A9 DUP2 PUSH2 0x283 JUMP JUMPDEST SWAP3 SWAP2 POP POP JUMP JUMPDEST PUSH1 0x0 DUP1 PUSH1 0x0 PUSH1 0x60 DUP5 DUP7 SUB SLT ISZERO PUSH2 0x2C8 JUMPI PUSH2 0x2C7 PUSH2 0x274 JUMP JUMPDEST JUMPDEST PUSH1 0x0 PUSH2 0x2D6 DUP7 DUP3 DUP8 ADD PUSH2 0x29A JUMP JUMPDEST SWAP4 POP POP PUSH1 0x20 PUSH2 0x2E7 DUP7 DUP3 DUP8 ADD PUSH2 0x29A JUMP JUMPDEST SWAP3 POP POP PUSH1 0x40 PUSH2 0x2F8 DUP7 DUP3 DUP8 ADD PUSH2 0x29A JUMP JUMPDEST SWAP2 POP POP SWAP3 POP SWAP3 POP SWAP3 JUMP JUMPDEST PUSH2 0x30B DUP2 PUSH2 0x279 JUMP JUMPDEST DUP3 MSTORE POP POP JUMP JUMPDEST PUSH1 0x0 PUSH1 0x60 DUP3 ADD SWAP1 POP PUSH2 0x326 PUSH1 0x0 DUP4 ADD DUP7 PUSH2 0x302 JUMP JUMPDEST PUSH2 0x333 PUSH1 0x20 DUP4 ADD DUP6 PUSH2 0x302 JUMP JUMPDEST PUSH2 0x340 PUSH1 0x40 DUP4 ADD DUP5 PUSH2 0x302 JUMP JUMPDEST SWAP5 SWAP4 POP POP POP POP JUMP JUMPDEST PUSH1 0x0 PUSH1 0x20 DUP3 ADD SWAP1 POP PUSH2 0x35D PUSH1 0x0 DUP4 ADD DUP5 PUSH2 0x302 JUMP JUMPDEST SWAP3 SWAP2 POP POP JUMP JUMPDEST PUSH32 0x4E487B7100000000000000000000000000000000000000000000000000000000 PUSH1 0x0 MSTORE PUSH1 0x11 PUSH1 0x4 MSTORE PUSH1 0x24 PUSH1 0x0 REVERT JUMPDEST PUSH1 0x0 PUSH2 0x39D DUP3 PUSH2 0x279 JUMP JUMPDEST SWAP2 POP PUSH2 0x3A8 DUP4 PUSH2 0x279 JUMP JUMPDEST SWAP3 POP DUP3 DUP3 MUL PUSH2 0x3B6 DUP2 PUSH2 0x279 JUMP JUMPDEST SWAP2 POP DUP3 DUP3 DIV DUP5 EQ DUP4 ISZERO OR PUSH2 0x3CD JUMPI PUSH2 0x3CC PUSH2 0x363 JUMP JUMPDEST JUMPDEST POP SWAP3 SWAP2 POP POP JUMP JUMPDEST PUSH32 0x4E487B7100000000000000000000000000000000000000000000000000000000 PUSH1 0x0 MSTORE PUSH1 0x32 PUSH1 0x4 MSTORE PUSH1 0x24 PUSH1 0x0 REVERT JUMPDEST PUSH1 0x0 PUSH2 0x40E DUP3 PUSH2 0x279 JUMP JUMPDEST SWAP2 POP PUSH2 0x419 DUP4 PUSH2 0x279 JUMP JUMPDEST SWAP3 POP DUP3 DUP3 ADD SWAP1 POP DUP1 DUP3 GT ISZERO PUSH2 0x431 JUMPI PUSH2 0x430 PUSH2 0x363 JUMP JUMPDEST JUMPDEST SWAP3 SWAP2 POP POP JUMP JUMPDEST PUSH1 0x0 PUSH2 0x442 DUP3 PUSH2 0x279 JUMP JUMPDEST SWAP2 POP PUSH32 0xFFFFFFFFFFFFFFFFFFFFFFFFFFFFFFFFFFFFFFFFFFFFFFFFFFFFFFFFFFFFFFFF DUP3 SUB PUSH2 0x474 JUMPI PUSH2 0x473 PUSH2 0x363 JUMP JUMPDEST JUMPDEST PUSH1 0x1 DUP3 ADD SWAP1 POP SWAP2 SWAP1 POP JUMP INVALID LOG2 PUSH5 0x6970667358 0x22 SLT KECCAK256 PUSH29 0x60549B4A54539F6D8067B8E4E0DFA9888801954C77373924AA6B4CB856 JUMPI PREVRANDAO PUSH5 0x736F6C6343 STOP ADDMOD SLT STOP CALLER "
				},
				"gasEstimates": {
					"creation": {
						"codeDepositCost": "241000",
						"executionCost": "281",
						"totalCost": "241281"
					},
					"external": {
						"A(uint256,uint256,uint256)": "infinite",
						"B(uint256,uint256,uint256)": "infinite"
					}
				},
				"methodIdentifiers": {
					"A(uint256,uint256,uint256)": "9c8f3b77",
					"B(uint256,uint256,uint256)": "e99a4eae"
				}
			},
			"storageLayout": {
				"storage": [],
				"types": null
			},
			"userdoc": {
				"kind": "user",
				"methods": {},
				"version": 1
			}
		}
	}
}