{
	"contract/solidity_61~70.sol": {
		"Q69": {
			"abi": [
				{
					"inputs": [
						{
							"internalType": "uint256",
							"name": "_a",
							"type": "uint256"
						},
						{
							"internalType": "uint256",
							"name": "_b",
							"type": "uint256"
						},
						{
							"internalType": "uint256",
							"name": "_c",
							"type": "uint256"
						}
					],
					"name": "f",
					"outputs": [
						{
							"internalType": "string",
							"name": "",
							"type": "string"
						}
					],
					"stateMutability": "pure",
					"type": "function"
				}
			],
			"devdoc": {
				"kind": "dev",
				"methods": {},
				"version": 1
			},
			"evm": {
				"assembly": "    /* \"contract/solidity_61~70.sol\":4009:4221  contract Q69 {... */\n  mstore(0x40, 0x80)\n  callvalue\n  dup1\n  iszero\n  tag_1\n  jumpi\n  0x00\n  dup1\n  revert\ntag_1:\n  pop\n  dataSize(sub_0)\n  dup1\n  dataOffset(sub_0)\n  0x00\n  codecopy\n  0x00\n  return\nstop\n\nsub_0: assembly {\n        /* \"contract/solidity_61~70.sol\":4009:4221  contract Q69 {... */\n      mstore(0x40, 0x80)\n      callvalue\n      dup1\n      iszero\n      tag_1\n      jumpi\n      0x00\n      dup1\n      revert\n    tag_1:\n      pop\n      jumpi(tag_2, lt(calldatasize, 0x04))\n      shr(0xe0, calldataload(0x00))\n      dup1\n      0xbf06dbf1\n      eq\n      tag_3\n      jumpi\n    tag_2:\n      0x00\n      dup1\n      revert\n        /* \"contract/solidity_61~70.sol\":4031:4216  function f( uint _a , uint _b , uint _c ) public pure returns( string memory ){... */\n    tag_3:\n      tag_4\n      0x04\n      dup1\n      calldatasize\n      sub\n      dup2\n      add\n      swap1\n      tag_5\n      swap2\n      swap1\n      tag_6\n      jump\t// in\n    tag_5:\n      tag_7\n      jump\t// in\n    tag_4:\n      mload(0x40)\n      tag_8\n      swap2\n      swap1\n      tag_9\n      jump\t// in\n    tag_8:\n      mload(0x40)\n      dup1\n      swap2\n      sub\n      swap1\n      return\n    tag_7:\n        /* \"contract/solidity_61~70.sol\":4094:4107  string memory */\n      0x60\n        /* \"contract/solidity_61~70.sol\":4160:4162  48 */\n      0x30\n        /* \"contract/solidity_61~70.sol\":4155:4157  _a */\n      dup5\n        /* \"contract/solidity_61~70.sol\":4155:4162  _a + 48 */\n      tag_11\n      swap2\n      swap1\n      tag_12\n      jump\t// in\n    tag_11:\n        /* \"contract/solidity_61~70.sol\":4180:4182  48 */\n      0x30\n        /* \"contract/solidity_61~70.sol\":4175:4177  _b */\n      dup5\n        /* \"contract/solidity_61~70.sol\":4175:4182  _b + 48 */\n      tag_13\n      swap2\n      swap1\n      tag_12\n      jump\t// in\n    tag_13:\n        /* \"contract/solidity_61~70.sol\":4199:4201  96 */\n      0x60\n        /* \"contract/solidity_61~70.sol\":4194:4196  _c */\n      dup5\n        /* \"contract/solidity_61~70.sol\":4194:4201  _c + 96 */\n      tag_14\n      swap2\n      swap1\n      tag_12\n      jump\t// in\n    tag_14:\n        /* \"contract/solidity_61~70.sol\":4137:4203  abi.encodePacked( _a + 48 , ' and ' , _b + 48 , ' or ' , _c + 96 ) */\n      add(0x20, mload(0x40))\n      tag_15\n      swap4\n      swap3\n      swap2\n      swap1\n      tag_16\n      jump\t// in\n    tag_15:\n      mload(0x40)\n      0x20\n      dup2\n      dup4\n      sub\n      sub\n      dup2\n      mstore\n      swap1\n      0x40\n      mstore\n        /* \"contract/solidity_61~70.sol\":4122:4205  return string( abi.encodePacked( _a + 48 , ' and ' , _b + 48 , ' or ' , _c + 96 ) ) */\n      swap1\n      pop\n        /* \"contract/solidity_61~70.sol\":4031:4216  function f( uint _a , uint _b , uint _c ) public pure returns( string memory ){... */\n      swap4\n      swap3\n      pop\n      pop\n      pop\n      jump\t// out\n        /* \"#utility.yul\":88:205   */\n    tag_18:\n        /* \"#utility.yul\":197:198   */\n      0x00\n        /* \"#utility.yul\":194:195   */\n      dup1\n        /* \"#utility.yul\":187:199   */\n      revert\n        /* \"#utility.yul\":334:411   */\n    tag_20:\n        /* \"#utility.yul\":371:378   */\n      0x00\n        /* \"#utility.yul\":400:405   */\n      dup2\n        /* \"#utility.yul\":389:405   */\n      swap1\n      pop\n        /* \"#utility.yul\":334:411   */\n      swap2\n      swap1\n      pop\n      jump\t// out\n        /* \"#utility.yul\":417:539   */\n    tag_21:\n        /* \"#utility.yul\":490:514   */\n      tag_42\n        /* \"#utility.yul\":508:513   */\n      dup2\n        /* \"#utility.yul\":490:514   */\n      tag_20\n      jump\t// in\n    tag_42:\n        /* \"#utility.yul\":483:488   */\n      dup2\n        /* \"#utility.yul\":480:515   */\n      eq\n        /* \"#utility.yul\":470:533   */\n      tag_43\n      jumpi\n        /* \"#utility.yul\":529:530   */\n      0x00\n        /* \"#utility.yul\":526:527   */\n      dup1\n        /* \"#utility.yul\":519:531   */\n      revert\n        /* \"#utility.yul\":470:533   */\n    tag_43:\n        /* \"#utility.yul\":417:539   */\n      pop\n      jump\t// out\n        /* \"#utility.yul\":545:684   */\n    tag_22:\n        /* \"#utility.yul\":591:596   */\n      0x00\n        /* \"#utility.yul\":629:635   */\n      dup2\n        /* \"#utility.yul\":616:636   */\n      calldataload\n        /* \"#utility.yul\":607:636   */\n      swap1\n      pop\n        /* \"#utility.yul\":645:678   */\n      tag_45\n        /* \"#utility.yul\":672:677   */\n      dup2\n        /* \"#utility.yul\":645:678   */\n      tag_21\n      jump\t// in\n    tag_45:\n        /* \"#utility.yul\":545:684   */\n      swap3\n      swap2\n      pop\n      pop\n      jump\t// out\n        /* \"#utility.yul\":690:1309   */\n    tag_6:\n        /* \"#utility.yul\":767:773   */\n      0x00\n        /* \"#utility.yul\":775:781   */\n      dup1\n        /* \"#utility.yul\":783:789   */\n      0x00\n        /* \"#utility.yul\":832:834   */\n      0x60\n        /* \"#utility.yul\":820:829   */\n      dup5\n        /* \"#utility.yul\":811:818   */\n      dup7\n        /* \"#utility.yul\":807:830   */\n      sub\n        /* \"#utility.yul\":803:835   */\n      slt\n        /* \"#utility.yul\":800:919   */\n      iszero\n      tag_47\n      jumpi\n        /* \"#utility.yul\":838:917   */\n      tag_48\n      tag_18\n      jump\t// in\n    tag_48:\n        /* \"#utility.yul\":800:919   */\n    tag_47:\n        /* \"#utility.yul\":958:959   */\n      0x00\n        /* \"#utility.yul\":983:1036   */\n      tag_49\n        /* \"#utility.yul\":1028:1035   */\n      dup7\n        /* \"#utility.yul\":1019:1025   */\n      dup3\n        /* \"#utility.yul\":1008:1017   */\n      dup8\n        /* \"#utility.yul\":1004:1026   */\n      add\n        /* \"#utility.yul\":983:1036   */\n      tag_22\n      jump\t// in\n    tag_49:\n        /* \"#utility.yul\":973:1036   */\n      swap4\n      pop\n        /* \"#utility.yul\":929:1046   */\n      pop\n        /* \"#utility.yul\":1085:1087   */\n      0x20\n        /* \"#utility.yul\":1111:1164   */\n      tag_50\n        /* \"#utility.yul\":1156:1163   */\n      dup7\n        /* \"#utility.yul\":1147:1153   */\n      dup3\n        /* \"#utility.yul\":1136:1145   */\n      dup8\n        /* \"#utility.yul\":1132:1154   */\n      add\n        /* \"#utility.yul\":1111:1164   */\n      tag_22\n      jump\t// in\n    tag_50:\n        /* \"#utility.yul\":1101:1164   */\n      swap3\n      pop\n        /* \"#utility.yul\":1056:1174   */\n      pop\n        /* \"#utility.yul\":1213:1215   */\n      0x40\n        /* \"#utility.yul\":1239:1292   */\n      tag_51\n        /* \"#utility.yul\":1284:1291   */\n      dup7\n        /* \"#utility.yul\":1275:1281   */\n      dup3\n        /* \"#utility.yul\":1264:1273   */\n      dup8\n        /* \"#utility.yul\":1260:1282   */\n      add\n        /* \"#utility.yul\":1239:1292   */\n      tag_22\n      jump\t// in\n    tag_51:\n        /* \"#utility.yul\":1229:1292   */\n      swap2\n      pop\n        /* \"#utility.yul\":1184:1302   */\n      pop\n        /* \"#utility.yul\":690:1309   */\n      swap3\n      pop\n      swap3\n      pop\n      swap3\n      jump\t// out\n        /* \"#utility.yul\":1315:1414   */\n    tag_23:\n        /* \"#utility.yul\":1367:1373   */\n      0x00\n        /* \"#utility.yul\":1401:1406   */\n      dup2\n        /* \"#utility.yul\":1395:1407   */\n      mload\n        /* \"#utility.yul\":1385:1407   */\n      swap1\n      pop\n        /* \"#utility.yul\":1315:1414   */\n      swap2\n      swap1\n      pop\n      jump\t// out\n        /* \"#utility.yul\":1420:1589   */\n    tag_24:\n        /* \"#utility.yul\":1504:1515   */\n      0x00\n        /* \"#utility.yul\":1538:1544   */\n      dup3\n        /* \"#utility.yul\":1533:1536   */\n      dup3\n        /* \"#utility.yul\":1526:1545   */\n      mstore\n        /* \"#utility.yul\":1578:1582   */\n      0x20\n        /* \"#utility.yul\":1573:1576   */\n      dup3\n        /* \"#utility.yul\":1569:1583   */\n      add\n        /* \"#utility.yul\":1554:1583   */\n      swap1\n      pop\n        /* \"#utility.yul\":1420:1589   */\n      swap3\n      swap2\n      pop\n      pop\n      jump\t// out\n        /* \"#utility.yul\":1595:1841   */\n    tag_25:\n        /* \"#utility.yul\":1676:1677   */\n      0x00\n        /* \"#utility.yul\":1686:1799   */\n    tag_55:\n        /* \"#utility.yul\":1700:1706   */\n      dup4\n        /* \"#utility.yul\":1697:1698   */\n      dup2\n        /* \"#utility.yul\":1694:1707   */\n      lt\n        /* \"#utility.yul\":1686:1799   */\n      iszero\n      tag_57\n      jumpi\n        /* \"#utility.yul\":1785:1786   */\n      dup1\n        /* \"#utility.yul\":1780:1783   */\n      dup3\n        /* \"#utility.yul\":1776:1787   */\n      add\n        /* \"#utility.yul\":1770:1788   */\n      mload\n        /* \"#utility.yul\":1766:1767   */\n      dup2\n        /* \"#utility.yul\":1761:1764   */\n      dup5\n        /* \"#utility.yul\":1757:1768   */\n      add\n        /* \"#utility.yul\":1750:1789   */\n      mstore\n        /* \"#utility.yul\":1722:1724   */\n      0x20\n        /* \"#utility.yul\":1719:1720   */\n      dup2\n        /* \"#utility.yul\":1715:1725   */\n      add\n        /* \"#utility.yul\":1710:1725   */\n      swap1\n      pop\n        /* \"#utility.yul\":1686:1799   */\n      jump(tag_55)\n    tag_57:\n        /* \"#utility.yul\":1833:1834   */\n      0x00\n        /* \"#utility.yul\":1824:1830   */\n      dup5\n        /* \"#utility.yul\":1819:1822   */\n      dup5\n        /* \"#utility.yul\":1815:1831   */\n      add\n        /* \"#utility.yul\":1808:1835   */\n      mstore\n        /* \"#utility.yul\":1657:1841   */\n      pop\n        /* \"#utility.yul\":1595:1841   */\n      pop\n      pop\n      pop\n      jump\t// out\n        /* \"#utility.yul\":1847:1949   */\n    tag_26:\n        /* \"#utility.yul\":1888:1894   */\n      0x00\n        /* \"#utility.yul\":1939:1941   */\n      0x1f\n        /* \"#utility.yul\":1935:1942   */\n      not\n        /* \"#utility.yul\":1930:1932   */\n      0x1f\n        /* \"#utility.yul\":1923:1928   */\n      dup4\n        /* \"#utility.yul\":1919:1933   */\n      add\n        /* \"#utility.yul\":1915:1943   */\n      and\n        /* \"#utility.yul\":1905:1943   */\n      swap1\n      pop\n        /* \"#utility.yul\":1847:1949   */\n      swap2\n      swap1\n      pop\n      jump\t// out\n        /* \"#utility.yul\":1955:2332   */\n    tag_27:\n        /* \"#utility.yul\":2043:2046   */\n      0x00\n        /* \"#utility.yul\":2071:2110   */\n      tag_60\n        /* \"#utility.yul\":2104:2109   */\n      dup3\n        /* \"#utility.yul\":2071:2110   */\n      tag_23\n      jump\t// in\n    tag_60:\n        /* \"#utility.yul\":2126:2197   */\n      tag_61\n        /* \"#utility.yul\":2190:2196   */\n      dup2\n        /* \"#utility.yul\":2185:2188   */\n      dup6\n        /* \"#utility.yul\":2126:2197   */\n      tag_24\n      jump\t// in\n    tag_61:\n        /* \"#utility.yul\":2119:2197   */\n      swap4\n      pop\n        /* \"#utility.yul\":2206:2271   */\n      tag_62\n        /* \"#utility.yul\":2264:2270   */\n      dup2\n        /* \"#utility.yul\":2259:2262   */\n      dup6\n        /* \"#utility.yul\":2252:2256   */\n      0x20\n        /* \"#utility.yul\":2245:2250   */\n      dup7\n        /* \"#utility.yul\":2241:2257   */\n      add\n        /* \"#utility.yul\":2206:2271   */\n      tag_25\n      jump\t// in\n    tag_62:\n        /* \"#utility.yul\":2296:2325   */\n      tag_63\n        /* \"#utility.yul\":2318:2324   */\n      dup2\n        /* \"#utility.yul\":2296:2325   */\n      tag_26\n      jump\t// in\n    tag_63:\n        /* \"#utility.yul\":2291:2294   */\n      dup5\n        /* \"#utility.yul\":2287:2326   */\n      add\n        /* \"#utility.yul\":2280:2326   */\n      swap2\n      pop\n        /* \"#utility.yul\":2047:2332   */\n      pop\n        /* \"#utility.yul\":1955:2332   */\n      swap3\n      swap2\n      pop\n      pop\n      jump\t// out\n        /* \"#utility.yul\":2338:2651   */\n    tag_9:\n        /* \"#utility.yul\":2451:2455   */\n      0x00\n        /* \"#utility.yul\":2489:2491   */\n      0x20\n        /* \"#utility.yul\":2478:2487   */\n      dup3\n        /* \"#utility.yul\":2474:2492   */\n      add\n        /* \"#utility.yul\":2466:2492   */\n      swap1\n      pop\n        /* \"#utility.yul\":2538:2547   */\n      dup2\n        /* \"#utility.yul\":2532:2536   */\n      dup2\n        /* \"#utility.yul\":2528:2548   */\n      sub\n        /* \"#utility.yul\":2524:2525   */\n      0x00\n        /* \"#utility.yul\":2513:2522   */\n      dup4\n        /* \"#utility.yul\":2509:2526   */\n      add\n        /* \"#utility.yul\":2502:2549   */\n      mstore\n        /* \"#utility.yul\":2566:2644   */\n      tag_65\n        /* \"#utility.yul\":2639:2643   */\n      dup2\n        /* \"#utility.yul\":2630:2636   */\n      dup5\n        /* \"#utility.yul\":2566:2644   */\n      tag_27\n      jump\t// in\n    tag_65:\n        /* \"#utility.yul\":2558:2644   */\n      swap1\n      pop\n        /* \"#utility.yul\":2338:2651   */\n      swap3\n      swap2\n      pop\n      pop\n      jump\t// out\n        /* \"#utility.yul\":2657:2837   */\n    tag_28:\n        /* \"#utility.yul\":2705:2782   */\n      0x4e487b7100000000000000000000000000000000000000000000000000000000\n        /* \"#utility.yul\":2702:2703   */\n      0x00\n        /* \"#utility.yul\":2695:2783   */\n      mstore\n        /* \"#utility.yul\":2802:2806   */\n      0x11\n        /* \"#utility.yul\":2799:2800   */\n      0x04\n        /* \"#utility.yul\":2792:2807   */\n      mstore\n        /* \"#utility.yul\":2826:2830   */\n      0x24\n        /* \"#utility.yul\":2823:2824   */\n      0x00\n        /* \"#utility.yul\":2816:2831   */\n      revert\n        /* \"#utility.yul\":2843:3034   */\n    tag_12:\n        /* \"#utility.yul\":2883:2886   */\n      0x00\n        /* \"#utility.yul\":2902:2922   */\n      tag_68\n        /* \"#utility.yul\":2920:2921   */\n      dup3\n        /* \"#utility.yul\":2902:2922   */\n      tag_20\n      jump\t// in\n    tag_68:\n        /* \"#utility.yul\":2897:2922   */\n      swap2\n      pop\n        /* \"#utility.yul\":2936:2956   */\n      tag_69\n        /* \"#utility.yul\":2954:2955   */\n      dup4\n        /* \"#utility.yul\":2936:2956   */\n      tag_20\n      jump\t// in\n    tag_69:\n        /* \"#utility.yul\":2931:2956   */\n      swap3\n      pop\n        /* \"#utility.yul\":2979:2980   */\n      dup3\n        /* \"#utility.yul\":2976:2977   */\n      dup3\n        /* \"#utility.yul\":2972:2981   */\n      add\n        /* \"#utility.yul\":2965:2981   */\n      swap1\n      pop\n        /* \"#utility.yul\":3000:3003   */\n      dup1\n        /* \"#utility.yul\":2997:2998   */\n      dup3\n        /* \"#utility.yul\":2994:3004   */\n      gt\n        /* \"#utility.yul\":2991:3027   */\n      iszero\n      tag_70\n      jumpi\n        /* \"#utility.yul\":3007:3025   */\n      tag_71\n      tag_28\n      jump\t// in\n    tag_71:\n        /* \"#utility.yul\":2991:3027   */\n    tag_70:\n        /* \"#utility.yul\":2843:3034   */\n      swap3\n      swap2\n      pop\n      pop\n      jump\t// out\n        /* \"#utility.yul\":3040:3119   */\n    tag_29:\n        /* \"#utility.yul\":3079:3086   */\n      0x00\n        /* \"#utility.yul\":3108:3113   */\n      dup2\n        /* \"#utility.yul\":3097:3113   */\n      swap1\n      pop\n        /* \"#utility.yul\":3040:3119   */\n      swap2\n      swap1\n      pop\n      jump\t// out\n        /* \"#utility.yul\":3125:3282   */\n    tag_30:\n        /* \"#utility.yul\":3230:3275   */\n      tag_74\n        /* \"#utility.yul\":3250:3274   */\n      tag_75\n        /* \"#utility.yul\":3268:3273   */\n      dup3\n        /* \"#utility.yul\":3250:3274   */\n      tag_20\n      jump\t// in\n    tag_75:\n        /* \"#utility.yul\":3230:3275   */\n      tag_29\n      jump\t// in\n    tag_74:\n        /* \"#utility.yul\":3225:3228   */\n      dup3\n        /* \"#utility.yul\":3218:3276   */\n      mstore\n        /* \"#utility.yul\":3125:3282   */\n      pop\n      pop\n      jump\t// out\n        /* \"#utility.yul\":3288:3436   */\n    tag_31:\n        /* \"#utility.yul\":3390:3401   */\n      0x00\n        /* \"#utility.yul\":3427:3430   */\n      dup2\n        /* \"#utility.yul\":3412:3430   */\n      swap1\n      pop\n        /* \"#utility.yul\":3288:3436   */\n      swap3\n      swap2\n      pop\n      pop\n      jump\t// out\n        /* \"#utility.yul\":3442:3597   */\n    tag_32:\n        /* \"#utility.yul\":3582:3589   */\n      0x20616e6420000000000000000000000000000000000000000000000000000000\n        /* \"#utility.yul\":3578:3579   */\n      0x00\n        /* \"#utility.yul\":3570:3576   */\n      dup3\n        /* \"#utility.yul\":3566:3580   */\n      add\n        /* \"#utility.yul\":3559:3590   */\n      mstore\n        /* \"#utility.yul\":3442:3597   */\n      pop\n      jump\t// out\n        /* \"#utility.yul\":3603:4003   */\n    tag_33:\n        /* \"#utility.yul\":3763:3766   */\n      0x00\n        /* \"#utility.yul\":3784:3868   */\n      tag_79\n        /* \"#utility.yul\":3866:3867   */\n      0x05\n        /* \"#utility.yul\":3861:3864   */\n      dup4\n        /* \"#utility.yul\":3784:3868   */\n      tag_31\n      jump\t// in\n    tag_79:\n        /* \"#utility.yul\":3777:3868   */\n      swap2\n      pop\n        /* \"#utility.yul\":3877:3970   */\n      tag_80\n        /* \"#utility.yul\":3966:3969   */\n      dup3\n        /* \"#utility.yul\":3877:3970   */\n      tag_32\n      jump\t// in\n    tag_80:\n        /* \"#utility.yul\":3995:3996   */\n      0x05\n        /* \"#utility.yul\":3990:3993   */\n      dup3\n        /* \"#utility.yul\":3986:3997   */\n      add\n        /* \"#utility.yul\":3979:3997   */\n      swap1\n      pop\n        /* \"#utility.yul\":3603:4003   */\n      swap2\n      swap1\n      pop\n      jump\t// out\n        /* \"#utility.yul\":4009:4163   */\n    tag_34:\n        /* \"#utility.yul\":4149:4155   */\n      0x206f722000000000000000000000000000000000000000000000000000000000\n        /* \"#utility.yul\":4145:4146   */\n      0x00\n        /* \"#utility.yul\":4137:4143   */\n      dup3\n        /* \"#utility.yul\":4133:4147   */\n      add\n        /* \"#utility.yul\":4126:4156   */\n      mstore\n        /* \"#utility.yul\":4009:4163   */\n      pop\n      jump\t// out\n        /* \"#utility.yul\":4169:4569   */\n    tag_35:\n        /* \"#utility.yul\":4329:4332   */\n      0x00\n        /* \"#utility.yul\":4350:4434   */\n      tag_83\n        /* \"#utility.yul\":4432:4433   */\n      0x04\n        /* \"#utility.yul\":4427:4430   */\n      dup4\n        /* \"#utility.yul\":4350:4434   */\n      tag_31\n      jump\t// in\n    tag_83:\n        /* \"#utility.yul\":4343:4434   */\n      swap2\n      pop\n        /* \"#utility.yul\":4443:4536   */\n      tag_84\n        /* \"#utility.yul\":4532:4535   */\n      dup3\n        /* \"#utility.yul\":4443:4536   */\n      tag_34\n      jump\t// in\n    tag_84:\n        /* \"#utility.yul\":4561:4562   */\n      0x04\n        /* \"#utility.yul\":4556:4559   */\n      dup3\n        /* \"#utility.yul\":4552:4563   */\n      add\n        /* \"#utility.yul\":4545:4563   */\n      swap1\n      pop\n        /* \"#utility.yul\":4169:4569   */\n      swap2\n      swap1\n      pop\n      jump\t// out\n        /* \"#utility.yul\":4575:5645   */\n    tag_16:\n        /* \"#utility.yul\":4945:4948   */\n      0x00\n        /* \"#utility.yul\":4960:5035   */\n      tag_86\n        /* \"#utility.yul\":5031:5034   */\n      dup3\n        /* \"#utility.yul\":5022:5028   */\n      dup7\n        /* \"#utility.yul\":4960:5035   */\n      tag_30\n      jump\t// in\n    tag_86:\n        /* \"#utility.yul\":5060:5062   */\n      0x20\n        /* \"#utility.yul\":5055:5058   */\n      dup3\n        /* \"#utility.yul\":5051:5063   */\n      add\n        /* \"#utility.yul\":5044:5063   */\n      swap2\n      pop\n        /* \"#utility.yul\":5080:5228   */\n      tag_87\n        /* \"#utility.yul\":5224:5227   */\n      dup3\n        /* \"#utility.yul\":5080:5228   */\n      tag_33\n      jump\t// in\n    tag_87:\n        /* \"#utility.yul\":5073:5228   */\n      swap2\n      pop\n        /* \"#utility.yul\":5238:5313   */\n      tag_88\n        /* \"#utility.yul\":5309:5312   */\n      dup3\n        /* \"#utility.yul\":5300:5306   */\n      dup6\n        /* \"#utility.yul\":5238:5313   */\n      tag_30\n      jump\t// in\n    tag_88:\n        /* \"#utility.yul\":5338:5340   */\n      0x20\n        /* \"#utility.yul\":5333:5336   */\n      dup3\n        /* \"#utility.yul\":5329:5341   */\n      add\n        /* \"#utility.yul\":5322:5341   */\n      swap2\n      pop\n        /* \"#utility.yul\":5358:5506   */\n      tag_89\n        /* \"#utility.yul\":5502:5505   */\n      dup3\n        /* \"#utility.yul\":5358:5506   */\n      tag_35\n      jump\t// in\n    tag_89:\n        /* \"#utility.yul\":5351:5506   */\n      swap2\n      pop\n        /* \"#utility.yul\":5516:5591   */\n      tag_90\n        /* \"#utility.yul\":5587:5590   */\n      dup3\n        /* \"#utility.yul\":5578:5584   */\n      dup5\n        /* \"#utility.yul\":5516:5591   */\n      tag_30\n      jump\t// in\n    tag_90:\n        /* \"#utility.yul\":5616:5618   */\n      0x20\n        /* \"#utility.yul\":5611:5614   */\n      dup3\n        /* \"#utility.yul\":5607:5619   */\n      add\n        /* \"#utility.yul\":5600:5619   */\n      swap2\n      pop\n        /* \"#utility.yul\":5636:5639   */\n      dup2\n        /* \"#utility.yul\":5629:5639   */\n      swap1\n      pop\n        /* \"#utility.yul\":4575:5645   */\n      swap5\n      swap4\n      pop\n      pop\n      pop\n      pop\n      jump\t// out\n\n    auxdata: 0xa26469706673582212203779fd9e4abd1df57d2243a0520482138caf635e9fb38f53302a1990c7e9512364736f6c63430008120033\n}\n",
				"bytecode": {
					"linkReferences": {},
					"object": "608060405234801561001057600080fd5b506103a3806100206000396000f3fe608060405234801561001057600080fd5b506004361061002b5760003560e01c8063bf06dbf114610030575b600080fd5b61004a600480360381019061004591906100ee565b610060565b60405161005791906101d1565b60405180910390f35b606060308461006f9190610222565b60308461007c9190610222565b6060846100899190610222565b60405160200161009b9392919061031a565b60405160208183030381529060405290509392505050565b600080fd5b6000819050919050565b6100cb816100b8565b81146100d657600080fd5b50565b6000813590506100e8816100c2565b92915050565b600080600060608486031215610107576101066100b3565b5b6000610115868287016100d9565b9350506020610126868287016100d9565b9250506040610137868287016100d9565b9150509250925092565b600081519050919050565b600082825260208201905092915050565b60005b8381101561017b578082015181840152602081019050610160565b60008484015250505050565b6000601f19601f8301169050919050565b60006101a382610141565b6101ad818561014c565b93506101bd81856020860161015d565b6101c681610187565b840191505092915050565b600060208201905081810360008301526101eb8184610198565b905092915050565b7f4e487b7100000000000000000000000000000000000000000000000000000000600052601160045260246000fd5b600061022d826100b8565b9150610238836100b8565b92508282019050808211156102505761024f6101f3565b5b92915050565b6000819050919050565b61027161026c826100b8565b610256565b82525050565b600081905092915050565b7f20616e6420000000000000000000000000000000000000000000000000000000600082015250565b60006102b8600583610277565b91506102c382610282565b600582019050919050565b7f206f722000000000000000000000000000000000000000000000000000000000600082015250565b6000610304600483610277565b915061030f826102ce565b600482019050919050565b60006103268286610260565b602082019150610335826102ab565b91506103418285610260565b602082019150610350826102f7565b915061035c8284610260565b60208201915081905094935050505056fea26469706673582212203779fd9e4abd1df57d2243a0520482138caf635e9fb38f53302a1990c7e9512364736f6c63430008120033",
					"opcodes": "PUSH1 0x80 PUSH1 0x40 MSTORE CALLVALUE DUP1 ISZERO PUSH2 0x10 JUMPI PUSH1 0x0 DUP1 REVERT JUMPDEST POP PUSH2 0x3A3 DUP1 PUSH2 0x20 PUSH1 0x0 CODECOPY PUSH1 0x0 RETURN INVALID PUSH1 0x80 PUSH1 0x40 MSTORE CALLVALUE DUP1 ISZERO PUSH2 0x10 JUMPI PUSH1 0x0 DUP1 REVERT JUMPDEST POP PUSH1 0x4 CALLDATASIZE LT PUSH2 0x2B JUMPI PUSH1 0x0 CALLDATALOAD PUSH1 0xE0 SHR DUP1 PUSH4 0xBF06DBF1 EQ PUSH2 0x30 JUMPI JUMPDEST PUSH1 0x0 DUP1 REVERT JUMPDEST PUSH2 0x4A PUSH1 0x4 DUP1 CALLDATASIZE SUB DUP2 ADD SWAP1 PUSH2 0x45 SWAP2 SWAP1 PUSH2 0xEE JUMP JUMPDEST PUSH2 0x60 JUMP JUMPDEST PUSH1 0x40 MLOAD PUSH2 0x57 SWAP2 SWAP1 PUSH2 0x1D1 JUMP JUMPDEST PUSH1 0x40 MLOAD DUP1 SWAP2 SUB SWAP1 RETURN JUMPDEST PUSH1 0x60 PUSH1 0x30 DUP5 PUSH2 0x6F SWAP2 SWAP1 PUSH2 0x222 JUMP JUMPDEST PUSH1 0x30 DUP5 PUSH2 0x7C SWAP2 SWAP1 PUSH2 0x222 JUMP JUMPDEST PUSH1 0x60 DUP5 PUSH2 0x89 SWAP2 SWAP1 PUSH2 0x222 JUMP JUMPDEST PUSH1 0x40 MLOAD PUSH1 0x20 ADD PUSH2 0x9B SWAP4 SWAP3 SWAP2 SWAP1 PUSH2 0x31A JUMP JUMPDEST PUSH1 0x40 MLOAD PUSH1 0x20 DUP2 DUP4 SUB SUB DUP2 MSTORE SWAP1 PUSH1 0x40 MSTORE SWAP1 POP SWAP4 SWAP3 POP POP POP JUMP JUMPDEST PUSH1 0x0 DUP1 REVERT JUMPDEST PUSH1 0x0 DUP2 SWAP1 POP SWAP2 SWAP1 POP JUMP JUMPDEST PUSH2 0xCB DUP2 PUSH2 0xB8 JUMP JUMPDEST DUP2 EQ PUSH2 0xD6 JUMPI PUSH1 0x0 DUP1 REVERT JUMPDEST POP JUMP JUMPDEST PUSH1 0x0 DUP2 CALLDATALOAD SWAP1 POP PUSH2 0xE8 DUP2 PUSH2 0xC2 JUMP JUMPDEST SWAP3 SWAP2 POP POP JUMP JUMPDEST PUSH1 0x0 DUP1 PUSH1 0x0 PUSH1 0x60 DUP5 DUP7 SUB SLT ISZERO PUSH2 0x107 JUMPI PUSH2 0x106 PUSH2 0xB3 JUMP JUMPDEST JUMPDEST PUSH1 0x0 PUSH2 0x115 DUP7 DUP3 DUP8 ADD PUSH2 0xD9 JUMP JUMPDEST SWAP4 POP POP PUSH1 0x20 PUSH2 0x126 DUP7 DUP3 DUP8 ADD PUSH2 0xD9 JUMP JUMPDEST SWAP3 POP POP PUSH1 0x40 PUSH2 0x137 DUP7 DUP3 DUP8 ADD PUSH2 0xD9 JUMP JUMPDEST SWAP2 POP POP SWAP3 POP SWAP3 POP SWAP3 JUMP JUMPDEST PUSH1 0x0 DUP2 MLOAD SWAP1 POP SWAP2 SWAP1 POP JUMP JUMPDEST PUSH1 0x0 DUP3 DUP3 MSTORE PUSH1 0x20 DUP3 ADD SWAP1 POP SWAP3 SWAP2 POP POP JUMP JUMPDEST PUSH1 0x0 JUMPDEST DUP4 DUP2 LT ISZERO PUSH2 0x17B JUMPI DUP1 DUP3 ADD MLOAD DUP2 DUP5 ADD MSTORE PUSH1 0x20 DUP2 ADD SWAP1 POP PUSH2 0x160 JUMP JUMPDEST PUSH1 0x0 DUP5 DUP5 ADD MSTORE POP POP POP POP JUMP JUMPDEST PUSH1 0x0 PUSH1 0x1F NOT PUSH1 0x1F DUP4 ADD AND SWAP1 POP SWAP2 SWAP1 POP JUMP JUMPDEST PUSH1 0x0 PUSH2 0x1A3 DUP3 PUSH2 0x141 JUMP JUMPDEST PUSH2 0x1AD DUP2 DUP6 PUSH2 0x14C JUMP JUMPDEST SWAP4 POP PUSH2 0x1BD DUP2 DUP6 PUSH1 0x20 DUP7 ADD PUSH2 0x15D JUMP JUMPDEST PUSH2 0x1C6 DUP2 PUSH2 0x187 JUMP JUMPDEST DUP5 ADD SWAP2 POP POP SWAP3 SWAP2 POP POP JUMP JUMPDEST PUSH1 0x0 PUSH1 0x20 DUP3 ADD SWAP1 POP DUP2 DUP2 SUB PUSH1 0x0 DUP4 ADD MSTORE PUSH2 0x1EB DUP2 DUP5 PUSH2 0x198 JUMP JUMPDEST SWAP1 POP SWAP3 SWAP2 POP POP JUMP JUMPDEST PUSH32 0x4E487B7100000000000000000000000000000000000000000000000000000000 PUSH1 0x0 MSTORE PUSH1 0x11 PUSH1 0x4 MSTORE PUSH1 0x24 PUSH1 0x0 REVERT JUMPDEST PUSH1 0x0 PUSH2 0x22D DUP3 PUSH2 0xB8 JUMP JUMPDEST SWAP2 POP PUSH2 0x238 DUP4 PUSH2 0xB8 JUMP JUMPDEST SWAP3 POP DUP3 DUP3 ADD SWAP1 POP DUP1 DUP3 GT ISZERO PUSH2 0x250 JUMPI PUSH2 0x24F PUSH2 0x1F3 JUMP JUMPDEST JUMPDEST SWAP3 SWAP2 POP POP JUMP JUMPDEST PUSH1 0x0 DUP2 SWAP1 POP SWAP2 SWAP1 POP JUMP JUMPDEST PUSH2 0x271 PUSH2 0x26C DUP3 PUSH2 0xB8 JUMP JUMPDEST PUSH2 0x256 JUMP JUMPDEST DUP3 MSTORE POP POP JUMP JUMPDEST PUSH1 0x0 DUP2 SWAP1 POP SWAP3 SWAP2 POP POP JUMP JUMPDEST PUSH32 0x20616E6420000000000000000000000000000000000000000000000000000000 PUSH1 0x0 DUP3 ADD MSTORE POP JUMP JUMPDEST PUSH1 0x0 PUSH2 0x2B8 PUSH1 0x5 DUP4 PUSH2 0x277 JUMP JUMPDEST SWAP2 POP PUSH2 0x2C3 DUP3 PUSH2 0x282 JUMP JUMPDEST PUSH1 0x5 DUP3 ADD SWAP1 POP SWAP2 SWAP1 POP JUMP JUMPDEST PUSH32 0x206F722000000000000000000000000000000000000000000000000000000000 PUSH1 0x0 DUP3 ADD MSTORE POP JUMP JUMPDEST PUSH1 0x0 PUSH2 0x304 PUSH1 0x4 DUP4 PUSH2 0x277 JUMP JUMPDEST SWAP2 POP PUSH2 0x30F DUP3 PUSH2 0x2CE JUMP JUMPDEST PUSH1 0x4 DUP3 ADD SWAP1 POP SWAP2 SWAP1 POP JUMP JUMPDEST PUSH1 0x0 PUSH2 0x326 DUP3 DUP7 PUSH2 0x260 JUMP JUMPDEST PUSH1 0x20 DUP3 ADD SWAP2 POP PUSH2 0x335 DUP3 PUSH2 0x2AB JUMP JUMPDEST SWAP2 POP PUSH2 0x341 DUP3 DUP6 PUSH2 0x260 JUMP JUMPDEST PUSH1 0x20 DUP3 ADD SWAP2 POP PUSH2 0x350 DUP3 PUSH2 0x2F7 JUMP JUMPDEST SWAP2 POP PUSH2 0x35C DUP3 DUP5 PUSH2 0x260 JUMP JUMPDEST PUSH1 0x20 DUP3 ADD SWAP2 POP DUP2 SWAP1 POP SWAP5 SWAP4 POP POP POP POP JUMP INVALID LOG2 PUSH5 0x6970667358 0x22 SLT KECCAK256 CALLDATACOPY PUSH26 0xFD9E4ABD1DF57D2243A0520482138CAF635E9FB38F53302A1990 0xC7 0xE9 MLOAD 0x23 PUSH5 0x736F6C6343 STOP ADDMOD SLT STOP CALLER "
				},
				"gasEstimates": {
					"creation": {
						"codeDepositCost": "186200",
						"executionCost": "232",
						"totalCost": "186432"
					},
					"external": {
						"f(uint256,uint256,uint256)": "infinite"
					}
				},
				"methodIdentifiers": {
					"f(uint256,uint256,uint256)": "bf06dbf1"
				}
			},
			"storageLayout": {
				"storage": [],
				"types": null
			},
			"userdoc": {
				"kind": "user",
				"methods": {},
				"version": 1
			}
		}
	}
}