{
	"contract/solidity_71~80.sol": {
		"Q76": {
			"abi": [
				{
					"inputs": [
						{
							"internalType": "uint256",
							"name": "_input",
							"type": "uint256"
						}
					],
					"name": "A",
					"outputs": [
						{
							"internalType": "string",
							"name": "",
							"type": "string"
						}
					],
					"stateMutability": "pure",
					"type": "function"
				}
			],
			"devdoc": {
				"kind": "dev",
				"methods": {},
				"version": 1
			},
			"evm": {
				"assembly": "    /* \"contract/solidity_71~80.sol\":3644:4057  contract Q76{... */\n  mstore(0x40, 0x80)\n  callvalue\n  dup1\n  iszero\n  tag_1\n  jumpi\n  0x00\n  dup1\n  revert\ntag_1:\n  pop\n  dataSize(sub_0)\n  dup1\n  dataOffset(sub_0)\n  0x00\n  codecopy\n  0x00\n  return\nstop\n\nsub_0: assembly {\n        /* \"contract/solidity_71~80.sol\":3644:4057  contract Q76{... */\n      mstore(0x40, 0x80)\n      callvalue\n      dup1\n      iszero\n      tag_1\n      jumpi\n      0x00\n      dup1\n      revert\n    tag_1:\n      pop\n      jumpi(tag_2, lt(calldatasize, 0x04))\n      shr(0xe0, calldataload(0x00))\n      dup1\n      0xa17a9e66\n      eq\n      tag_3\n      jumpi\n    tag_2:\n      0x00\n      dup1\n      revert\n        /* \"contract/solidity_71~80.sol\":3665:4052  function A( uint _input ) public pure returns( string memory ) {... */\n    tag_3:\n      tag_4\n      0x04\n      dup1\n      calldatasize\n      sub\n      dup2\n      add\n      swap1\n      tag_5\n      swap2\n      swap1\n      tag_6\n      jump\t// in\n    tag_5:\n      tag_7\n      jump\t// in\n    tag_4:\n      mload(0x40)\n      tag_8\n      swap2\n      swap1\n      tag_9\n      jump\t// in\n    tag_8:\n      mload(0x40)\n      dup1\n      swap2\n      sub\n      swap1\n      return\n    tag_7:\n        /* \"contract/solidity_71~80.sol\":3712:3725  string memory */\n      0x60\n        /* \"contract/solidity_71~80.sol\":3741:3762  bytes memory rt_value */\n      dup1\n        /* \"contract/solidity_71~80.sol\":3781:3787  uint i */\n      0x00\n        /* \"contract/solidity_71~80.sol\":3776:3967  for( uint i = 0 ; i < 3 ; i ++ ) {... */\n    tag_11:\n        /* \"contract/solidity_71~80.sol\":3798:3799  3 */\n      0x03\n        /* \"contract/solidity_71~80.sol\":3794:3795  i */\n      dup2\n        /* \"contract/solidity_71~80.sol\":3794:3799  i < 3 */\n      lt\n        /* \"contract/solidity_71~80.sol\":3776:3967  for( uint i = 0 ; i < 3 ; i ++ ) {... */\n      iszero\n      tag_12\n      jumpi\n        /* \"contract/solidity_71~80.sol\":3853:3861  rt_value */\n      dup2\n        /* \"contract/solidity_71~80.sol\":3907:3920  bytes1( '0' ) */\n      0x3000000000000000000000000000000000000000000000000000000000000000\n        /* \"contract/solidity_71~80.sol\":3900:3922  uint8( bytes1( '0' ) ) */\n      0xf8\n      shr\n        /* \"contract/solidity_71~80.sol\":3882:3922  ( _input % 10 ) + uint8( bytes1( '0' ) ) */\n      0xff\n      and\n        /* \"contract/solidity_71~80.sol\":3893:3895  10 */\n      0x0a\n        /* \"contract/solidity_71~80.sol\":3884:3890  _input */\n      dup7\n        /* \"contract/solidity_71~80.sol\":3884:3895  _input % 10 */\n      tag_14\n      swap2\n      swap1\n      tag_15\n      jump\t// in\n    tag_14:\n        /* \"contract/solidity_71~80.sol\":3882:3922  ( _input % 10 ) + uint8( bytes1( '0' ) ) */\n      tag_16\n      swap2\n      swap1\n      tag_17\n      jump\t// in\n    tag_16:\n        /* \"contract/solidity_71~80.sol\":3864:3924  abi.encodePacked( ( _input % 10 ) + uint8( bytes1( '0' ) ) ) */\n      add(0x20, mload(0x40))\n      tag_18\n      swap2\n      swap1\n      tag_19\n      jump\t// in\n    tag_18:\n      mload(0x40)\n      0x20\n      dup2\n      dup4\n      sub\n      sub\n      dup2\n      mstore\n      swap1\n      0x40\n      mstore\n        /* \"contract/solidity_71~80.sol\":3835:3926  abi.encodePacked( rt_value , abi.encodePacked( ( _input % 10 ) + uint8( bytes1( '0' ) ) ) ) */\n      add(0x20, mload(0x40))\n      tag_20\n      swap3\n      swap2\n      swap1\n      tag_21\n      jump\t// in\n    tag_20:\n      mload(0x40)\n      0x20\n      dup2\n      dup4\n      sub\n      sub\n      dup2\n      mstore\n      swap1\n      0x40\n      mstore\n        /* \"contract/solidity_71~80.sol\":3824:3926  rt_value = abi.encodePacked( rt_value , abi.encodePacked( ( _input % 10 ) + uint8( bytes1( '0' ) ) ) ) */\n      swap2\n      pop\n        /* \"contract/solidity_71~80.sol\":3952:3954  10 */\n      0x0a\n        /* \"contract/solidity_71~80.sol\":3942:3954  _input /= 10 */\n      dup5\n      tag_22\n      swap2\n      swap1\n      tag_23\n      jump\t// in\n    tag_22:\n      swap4\n      pop\n        /* \"contract/solidity_71~80.sol\":3802:3806  i ++ */\n      dup1\n      dup1\n      tag_24\n      swap1\n      tag_25\n      jump\t// in\n    tag_24:\n      swap2\n      pop\n      pop\n        /* \"contract/solidity_71~80.sol\":3776:3967  for( uint i = 0 ; i < 3 ; i ++ ) {... */\n      jump(tag_11)\n    tag_12:\n      pop\n        /* \"contract/solidity_71~80.sol\":4031:4039  rt_value */\n      dup1\n        /* \"contract/solidity_71~80.sol\":4016:4041  return string( rt_value ) */\n      swap2\n      pop\n      pop\n        /* \"contract/solidity_71~80.sol\":3665:4052  function A( uint _input ) public pure returns( string memory ) {... */\n      swap2\n      swap1\n      pop\n      jump\t// out\n        /* \"#utility.yul\":88:205   */\n    tag_27:\n        /* \"#utility.yul\":197:198   */\n      0x00\n        /* \"#utility.yul\":194:195   */\n      dup1\n        /* \"#utility.yul\":187:199   */\n      revert\n        /* \"#utility.yul\":334:411   */\n    tag_29:\n        /* \"#utility.yul\":371:378   */\n      0x00\n        /* \"#utility.yul\":400:405   */\n      dup2\n        /* \"#utility.yul\":389:405   */\n      swap1\n      pop\n        /* \"#utility.yul\":334:411   */\n      swap2\n      swap1\n      pop\n      jump\t// out\n        /* \"#utility.yul\":417:539   */\n    tag_30:\n        /* \"#utility.yul\":490:514   */\n      tag_50\n        /* \"#utility.yul\":508:513   */\n      dup2\n        /* \"#utility.yul\":490:514   */\n      tag_29\n      jump\t// in\n    tag_50:\n        /* \"#utility.yul\":483:488   */\n      dup2\n        /* \"#utility.yul\":480:515   */\n      eq\n        /* \"#utility.yul\":470:533   */\n      tag_51\n      jumpi\n        /* \"#utility.yul\":529:530   */\n      0x00\n        /* \"#utility.yul\":526:527   */\n      dup1\n        /* \"#utility.yul\":519:531   */\n      revert\n        /* \"#utility.yul\":470:533   */\n    tag_51:\n        /* \"#utility.yul\":417:539   */\n      pop\n      jump\t// out\n        /* \"#utility.yul\":545:684   */\n    tag_31:\n        /* \"#utility.yul\":591:596   */\n      0x00\n        /* \"#utility.yul\":629:635   */\n      dup2\n        /* \"#utility.yul\":616:636   */\n      calldataload\n        /* \"#utility.yul\":607:636   */\n      swap1\n      pop\n        /* \"#utility.yul\":645:678   */\n      tag_53\n        /* \"#utility.yul\":672:677   */\n      dup2\n        /* \"#utility.yul\":645:678   */\n      tag_30\n      jump\t// in\n    tag_53:\n        /* \"#utility.yul\":545:684   */\n      swap3\n      swap2\n      pop\n      pop\n      jump\t// out\n        /* \"#utility.yul\":690:1019   */\n    tag_6:\n        /* \"#utility.yul\":749:755   */\n      0x00\n        /* \"#utility.yul\":798:800   */\n      0x20\n        /* \"#utility.yul\":786:795   */\n      dup3\n        /* \"#utility.yul\":777:784   */\n      dup5\n        /* \"#utility.yul\":773:796   */\n      sub\n        /* \"#utility.yul\":769:801   */\n      slt\n        /* \"#utility.yul\":766:885   */\n      iszero\n      tag_55\n      jumpi\n        /* \"#utility.yul\":804:883   */\n      tag_56\n      tag_27\n      jump\t// in\n    tag_56:\n        /* \"#utility.yul\":766:885   */\n    tag_55:\n        /* \"#utility.yul\":924:925   */\n      0x00\n        /* \"#utility.yul\":949:1002   */\n      tag_57\n        /* \"#utility.yul\":994:1001   */\n      dup5\n        /* \"#utility.yul\":985:991   */\n      dup3\n        /* \"#utility.yul\":974:983   */\n      dup6\n        /* \"#utility.yul\":970:992   */\n      add\n        /* \"#utility.yul\":949:1002   */\n      tag_31\n      jump\t// in\n    tag_57:\n        /* \"#utility.yul\":939:1002   */\n      swap2\n      pop\n        /* \"#utility.yul\":895:1012   */\n      pop\n        /* \"#utility.yul\":690:1019   */\n      swap3\n      swap2\n      pop\n      pop\n      jump\t// out\n        /* \"#utility.yul\":1025:1124   */\n    tag_32:\n        /* \"#utility.yul\":1077:1083   */\n      0x00\n        /* \"#utility.yul\":1111:1116   */\n      dup2\n        /* \"#utility.yul\":1105:1117   */\n      mload\n        /* \"#utility.yul\":1095:1117   */\n      swap1\n      pop\n        /* \"#utility.yul\":1025:1124   */\n      swap2\n      swap1\n      pop\n      jump\t// out\n        /* \"#utility.yul\":1130:1299   */\n    tag_33:\n        /* \"#utility.yul\":1214:1225   */\n      0x00\n        /* \"#utility.yul\":1248:1254   */\n      dup3\n        /* \"#utility.yul\":1243:1246   */\n      dup3\n        /* \"#utility.yul\":1236:1255   */\n      mstore\n        /* \"#utility.yul\":1288:1292   */\n      0x20\n        /* \"#utility.yul\":1283:1286   */\n      dup3\n        /* \"#utility.yul\":1279:1293   */\n      add\n        /* \"#utility.yul\":1264:1293   */\n      swap1\n      pop\n        /* \"#utility.yul\":1130:1299   */\n      swap3\n      swap2\n      pop\n      pop\n      jump\t// out\n        /* \"#utility.yul\":1305:1551   */\n    tag_34:\n        /* \"#utility.yul\":1386:1387   */\n      0x00\n        /* \"#utility.yul\":1396:1509   */\n    tag_61:\n        /* \"#utility.yul\":1410:1416   */\n      dup4\n        /* \"#utility.yul\":1407:1408   */\n      dup2\n        /* \"#utility.yul\":1404:1417   */\n      lt\n        /* \"#utility.yul\":1396:1509   */\n      iszero\n      tag_63\n      jumpi\n        /* \"#utility.yul\":1495:1496   */\n      dup1\n        /* \"#utility.yul\":1490:1493   */\n      dup3\n        /* \"#utility.yul\":1486:1497   */\n      add\n        /* \"#utility.yul\":1480:1498   */\n      mload\n        /* \"#utility.yul\":1476:1477   */\n      dup2\n        /* \"#utility.yul\":1471:1474   */\n      dup5\n        /* \"#utility.yul\":1467:1478   */\n      add\n        /* \"#utility.yul\":1460:1499   */\n      mstore\n        /* \"#utility.yul\":1432:1434   */\n      0x20\n        /* \"#utility.yul\":1429:1430   */\n      dup2\n        /* \"#utility.yul\":1425:1435   */\n      add\n        /* \"#utility.yul\":1420:1435   */\n      swap1\n      pop\n        /* \"#utility.yul\":1396:1509   */\n      jump(tag_61)\n    tag_63:\n        /* \"#utility.yul\":1543:1544   */\n      0x00\n        /* \"#utility.yul\":1534:1540   */\n      dup5\n        /* \"#utility.yul\":1529:1532   */\n      dup5\n        /* \"#utility.yul\":1525:1541   */\n      add\n        /* \"#utility.yul\":1518:1545   */\n      mstore\n        /* \"#utility.yul\":1367:1551   */\n      pop\n        /* \"#utility.yul\":1305:1551   */\n      pop\n      pop\n      pop\n      jump\t// out\n        /* \"#utility.yul\":1557:1659   */\n    tag_35:\n        /* \"#utility.yul\":1598:1604   */\n      0x00\n        /* \"#utility.yul\":1649:1651   */\n      0x1f\n        /* \"#utility.yul\":1645:1652   */\n      not\n        /* \"#utility.yul\":1640:1642   */\n      0x1f\n        /* \"#utility.yul\":1633:1638   */\n      dup4\n        /* \"#utility.yul\":1629:1643   */\n      add\n        /* \"#utility.yul\":1625:1653   */\n      and\n        /* \"#utility.yul\":1615:1653   */\n      swap1\n      pop\n        /* \"#utility.yul\":1557:1659   */\n      swap2\n      swap1\n      pop\n      jump\t// out\n        /* \"#utility.yul\":1665:2042   */\n    tag_36:\n        /* \"#utility.yul\":1753:1756   */\n      0x00\n        /* \"#utility.yul\":1781:1820   */\n      tag_66\n        /* \"#utility.yul\":1814:1819   */\n      dup3\n        /* \"#utility.yul\":1781:1820   */\n      tag_32\n      jump\t// in\n    tag_66:\n        /* \"#utility.yul\":1836:1907   */\n      tag_67\n        /* \"#utility.yul\":1900:1906   */\n      dup2\n        /* \"#utility.yul\":1895:1898   */\n      dup6\n        /* \"#utility.yul\":1836:1907   */\n      tag_33\n      jump\t// in\n    tag_67:\n        /* \"#utility.yul\":1829:1907   */\n      swap4\n      pop\n        /* \"#utility.yul\":1916:1981   */\n      tag_68\n        /* \"#utility.yul\":1974:1980   */\n      dup2\n        /* \"#utility.yul\":1969:1972   */\n      dup6\n        /* \"#utility.yul\":1962:1966   */\n      0x20\n        /* \"#utility.yul\":1955:1960   */\n      dup7\n        /* \"#utility.yul\":1951:1967   */\n      add\n        /* \"#utility.yul\":1916:1981   */\n      tag_34\n      jump\t// in\n    tag_68:\n        /* \"#utility.yul\":2006:2035   */\n      tag_69\n        /* \"#utility.yul\":2028:2034   */\n      dup2\n        /* \"#utility.yul\":2006:2035   */\n      tag_35\n      jump\t// in\n    tag_69:\n        /* \"#utility.yul\":2001:2004   */\n      dup5\n        /* \"#utility.yul\":1997:2036   */\n      add\n        /* \"#utility.yul\":1990:2036   */\n      swap2\n      pop\n        /* \"#utility.yul\":1757:2042   */\n      pop\n        /* \"#utility.yul\":1665:2042   */\n      swap3\n      swap2\n      pop\n      pop\n      jump\t// out\n        /* \"#utility.yul\":2048:2361   */\n    tag_9:\n        /* \"#utility.yul\":2161:2165   */\n      0x00\n        /* \"#utility.yul\":2199:2201   */\n      0x20\n        /* \"#utility.yul\":2188:2197   */\n      dup3\n        /* \"#utility.yul\":2184:2202   */\n      add\n        /* \"#utility.yul\":2176:2202   */\n      swap1\n      pop\n        /* \"#utility.yul\":2248:2257   */\n      dup2\n        /* \"#utility.yul\":2242:2246   */\n      dup2\n        /* \"#utility.yul\":2238:2258   */\n      sub\n        /* \"#utility.yul\":2234:2235   */\n      0x00\n        /* \"#utility.yul\":2223:2232   */\n      dup4\n        /* \"#utility.yul\":2219:2236   */\n      add\n        /* \"#utility.yul\":2212:2259   */\n      mstore\n        /* \"#utility.yul\":2276:2354   */\n      tag_71\n        /* \"#utility.yul\":2349:2353   */\n      dup2\n        /* \"#utility.yul\":2340:2346   */\n      dup5\n        /* \"#utility.yul\":2276:2354   */\n      tag_36\n      jump\t// in\n    tag_71:\n        /* \"#utility.yul\":2268:2354   */\n      swap1\n      pop\n        /* \"#utility.yul\":2048:2361   */\n      swap3\n      swap2\n      pop\n      pop\n      jump\t// out\n        /* \"#utility.yul\":2367:2547   */\n    tag_37:\n        /* \"#utility.yul\":2415:2492   */\n      0x4e487b7100000000000000000000000000000000000000000000000000000000\n        /* \"#utility.yul\":2412:2413   */\n      0x00\n        /* \"#utility.yul\":2405:2493   */\n      mstore\n        /* \"#utility.yul\":2512:2516   */\n      0x12\n        /* \"#utility.yul\":2509:2510   */\n      0x04\n        /* \"#utility.yul\":2502:2517   */\n      mstore\n        /* \"#utility.yul\":2536:2540   */\n      0x24\n        /* \"#utility.yul\":2533:2534   */\n      0x00\n        /* \"#utility.yul\":2526:2541   */\n      revert\n        /* \"#utility.yul\":2553:2729   */\n    tag_15:\n        /* \"#utility.yul\":2585:2586   */\n      0x00\n        /* \"#utility.yul\":2602:2622   */\n      tag_74\n        /* \"#utility.yul\":2620:2621   */\n      dup3\n        /* \"#utility.yul\":2602:2622   */\n      tag_29\n      jump\t// in\n    tag_74:\n        /* \"#utility.yul\":2597:2622   */\n      swap2\n      pop\n        /* \"#utility.yul\":2636:2656   */\n      tag_75\n        /* \"#utility.yul\":2654:2655   */\n      dup4\n        /* \"#utility.yul\":2636:2656   */\n      tag_29\n      jump\t// in\n    tag_75:\n        /* \"#utility.yul\":2631:2656   */\n      swap3\n      pop\n        /* \"#utility.yul\":2675:2676   */\n      dup3\n        /* \"#utility.yul\":2665:2700   */\n      tag_76\n      jumpi\n        /* \"#utility.yul\":2680:2698   */\n      tag_77\n      tag_37\n      jump\t// in\n    tag_77:\n        /* \"#utility.yul\":2665:2700   */\n    tag_76:\n        /* \"#utility.yul\":2721:2722   */\n      dup3\n        /* \"#utility.yul\":2718:2719   */\n      dup3\n        /* \"#utility.yul\":2714:2723   */\n      mod\n        /* \"#utility.yul\":2709:2723   */\n      swap1\n      pop\n        /* \"#utility.yul\":2553:2729   */\n      swap3\n      swap2\n      pop\n      pop\n      jump\t// out\n        /* \"#utility.yul\":2735:2915   */\n    tag_38:\n        /* \"#utility.yul\":2783:2860   */\n      0x4e487b7100000000000000000000000000000000000000000000000000000000\n        /* \"#utility.yul\":2780:2781   */\n      0x00\n        /* \"#utility.yul\":2773:2861   */\n      mstore\n        /* \"#utility.yul\":2880:2884   */\n      0x11\n        /* \"#utility.yul\":2877:2878   */\n      0x04\n        /* \"#utility.yul\":2870:2885   */\n      mstore\n        /* \"#utility.yul\":2904:2908   */\n      0x24\n        /* \"#utility.yul\":2901:2902   */\n      0x00\n        /* \"#utility.yul\":2894:2909   */\n      revert\n        /* \"#utility.yul\":2921:3112   */\n    tag_17:\n        /* \"#utility.yul\":2961:2964   */\n      0x00\n        /* \"#utility.yul\":2980:3000   */\n      tag_80\n        /* \"#utility.yul\":2998:2999   */\n      dup3\n        /* \"#utility.yul\":2980:3000   */\n      tag_29\n      jump\t// in\n    tag_80:\n        /* \"#utility.yul\":2975:3000   */\n      swap2\n      pop\n        /* \"#utility.yul\":3014:3034   */\n      tag_81\n        /* \"#utility.yul\":3032:3033   */\n      dup4\n        /* \"#utility.yul\":3014:3034   */\n      tag_29\n      jump\t// in\n    tag_81:\n        /* \"#utility.yul\":3009:3034   */\n      swap3\n      pop\n        /* \"#utility.yul\":3057:3058   */\n      dup3\n        /* \"#utility.yul\":3054:3055   */\n      dup3\n        /* \"#utility.yul\":3050:3059   */\n      add\n        /* \"#utility.yul\":3043:3059   */\n      swap1\n      pop\n        /* \"#utility.yul\":3078:3081   */\n      dup1\n        /* \"#utility.yul\":3075:3076   */\n      dup3\n        /* \"#utility.yul\":3072:3082   */\n      gt\n        /* \"#utility.yul\":3069:3105   */\n      iszero\n      tag_82\n      jumpi\n        /* \"#utility.yul\":3085:3103   */\n      tag_83\n      tag_38\n      jump\t// in\n    tag_83:\n        /* \"#utility.yul\":3069:3105   */\n    tag_82:\n        /* \"#utility.yul\":2921:3112   */\n      swap3\n      swap2\n      pop\n      pop\n      jump\t// out\n        /* \"#utility.yul\":3118:3197   */\n    tag_39:\n        /* \"#utility.yul\":3157:3164   */\n      0x00\n        /* \"#utility.yul\":3186:3191   */\n      dup2\n        /* \"#utility.yul\":3175:3191   */\n      swap1\n      pop\n        /* \"#utility.yul\":3118:3197   */\n      swap2\n      swap1\n      pop\n      jump\t// out\n        /* \"#utility.yul\":3203:3360   */\n    tag_40:\n        /* \"#utility.yul\":3308:3353   */\n      tag_86\n        /* \"#utility.yul\":3328:3352   */\n      tag_87\n        /* \"#utility.yul\":3346:3351   */\n      dup3\n        /* \"#utility.yul\":3328:3352   */\n      tag_29\n      jump\t// in\n    tag_87:\n        /* \"#utility.yul\":3308:3353   */\n      tag_39\n      jump\t// in\n    tag_86:\n        /* \"#utility.yul\":3303:3306   */\n      dup3\n        /* \"#utility.yul\":3296:3354   */\n      mstore\n        /* \"#utility.yul\":3203:3360   */\n      pop\n      pop\n      jump\t// out\n        /* \"#utility.yul\":3366:3622   */\n    tag_19:\n        /* \"#utility.yul\":3478:3481   */\n      0x00\n        /* \"#utility.yul\":3493:3568   */\n      tag_89\n        /* \"#utility.yul\":3564:3567   */\n      dup3\n        /* \"#utility.yul\":3555:3561   */\n      dup5\n        /* \"#utility.yul\":3493:3568   */\n      tag_40\n      jump\t// in\n    tag_89:\n        /* \"#utility.yul\":3593:3595   */\n      0x20\n        /* \"#utility.yul\":3588:3591   */\n      dup3\n        /* \"#utility.yul\":3584:3596   */\n      add\n        /* \"#utility.yul\":3577:3596   */\n      swap2\n      pop\n        /* \"#utility.yul\":3613:3616   */\n      dup2\n        /* \"#utility.yul\":3606:3616   */\n      swap1\n      pop\n        /* \"#utility.yul\":3366:3622   */\n      swap3\n      swap2\n      pop\n      pop\n      jump\t// out\n        /* \"#utility.yul\":3628:3726   */\n    tag_41:\n        /* \"#utility.yul\":3679:3685   */\n      0x00\n        /* \"#utility.yul\":3713:3718   */\n      dup2\n        /* \"#utility.yul\":3707:3719   */\n      mload\n        /* \"#utility.yul\":3697:3719   */\n      swap1\n      pop\n        /* \"#utility.yul\":3628:3726   */\n      swap2\n      swap1\n      pop\n      jump\t// out\n        /* \"#utility.yul\":3732:3879   */\n    tag_42:\n        /* \"#utility.yul\":3833:3844   */\n      0x00\n        /* \"#utility.yul\":3870:3873   */\n      dup2\n        /* \"#utility.yul\":3855:3873   */\n      swap1\n      pop\n        /* \"#utility.yul\":3732:3879   */\n      swap3\n      swap2\n      pop\n      pop\n      jump\t// out\n        /* \"#utility.yul\":3885:4271   */\n    tag_43:\n        /* \"#utility.yul\":3989:3992   */\n      0x00\n        /* \"#utility.yul\":4017:4055   */\n      tag_93\n        /* \"#utility.yul\":4049:4054   */\n      dup3\n        /* \"#utility.yul\":4017:4055   */\n      tag_41\n      jump\t// in\n    tag_93:\n        /* \"#utility.yul\":4071:4159   */\n      tag_94\n        /* \"#utility.yul\":4152:4158   */\n      dup2\n        /* \"#utility.yul\":4147:4150   */\n      dup6\n        /* \"#utility.yul\":4071:4159   */\n      tag_42\n      jump\t// in\n    tag_94:\n        /* \"#utility.yul\":4064:4159   */\n      swap4\n      pop\n        /* \"#utility.yul\":4168:4233   */\n      tag_95\n        /* \"#utility.yul\":4226:4232   */\n      dup2\n        /* \"#utility.yul\":4221:4224   */\n      dup6\n        /* \"#utility.yul\":4214:4218   */\n      0x20\n        /* \"#utility.yul\":4207:4212   */\n      dup7\n        /* \"#utility.yul\":4203:4219   */\n      add\n        /* \"#utility.yul\":4168:4233   */\n      tag_34\n      jump\t// in\n    tag_95:\n        /* \"#utility.yul\":4258:4264   */\n      dup1\n        /* \"#utility.yul\":4253:4256   */\n      dup5\n        /* \"#utility.yul\":4249:4265   */\n      add\n        /* \"#utility.yul\":4242:4265   */\n      swap2\n      pop\n        /* \"#utility.yul\":3993:4271   */\n      pop\n        /* \"#utility.yul\":3885:4271   */\n      swap3\n      swap2\n      pop\n      pop\n      jump\t// out\n        /* \"#utility.yul\":4277:4704   */\n    tag_21:\n        /* \"#utility.yul\":4453:4456   */\n      0x00\n        /* \"#utility.yul\":4475:4568   */\n      tag_97\n        /* \"#utility.yul\":4564:4567   */\n      dup3\n        /* \"#utility.yul\":4555:4561   */\n      dup6\n        /* \"#utility.yul\":4475:4568   */\n      tag_43\n      jump\t// in\n    tag_97:\n        /* \"#utility.yul\":4468:4568   */\n      swap2\n      pop\n        /* \"#utility.yul\":4585:4678   */\n      tag_98\n        /* \"#utility.yul\":4674:4677   */\n      dup3\n        /* \"#utility.yul\":4665:4671   */\n      dup5\n        /* \"#utility.yul\":4585:4678   */\n      tag_43\n      jump\t// in\n    tag_98:\n        /* \"#utility.yul\":4578:4678   */\n      swap2\n      pop\n        /* \"#utility.yul\":4695:4698   */\n      dup2\n        /* \"#utility.yul\":4688:4698   */\n      swap1\n      pop\n        /* \"#utility.yul\":4277:4704   */\n      swap4\n      swap3\n      pop\n      pop\n      pop\n      jump\t// out\n        /* \"#utility.yul\":4710:4895   */\n    tag_23:\n        /* \"#utility.yul\":4750:4751   */\n      0x00\n        /* \"#utility.yul\":4767:4787   */\n      tag_100\n        /* \"#utility.yul\":4785:4786   */\n      dup3\n        /* \"#utility.yul\":4767:4787   */\n      tag_29\n      jump\t// in\n    tag_100:\n        /* \"#utility.yul\":4762:4787   */\n      swap2\n      pop\n        /* \"#utility.yul\":4801:4821   */\n      tag_101\n        /* \"#utility.yul\":4819:4820   */\n      dup4\n        /* \"#utility.yul\":4801:4821   */\n      tag_29\n      jump\t// in\n    tag_101:\n        /* \"#utility.yul\":4796:4821   */\n      swap3\n      pop\n        /* \"#utility.yul\":4840:4841   */\n      dup3\n        /* \"#utility.yul\":4830:4865   */\n      tag_102\n      jumpi\n        /* \"#utility.yul\":4845:4863   */\n      tag_103\n      tag_37\n      jump\t// in\n    tag_103:\n        /* \"#utility.yul\":4830:4865   */\n    tag_102:\n        /* \"#utility.yul\":4887:4888   */\n      dup3\n        /* \"#utility.yul\":4884:4885   */\n      dup3\n        /* \"#utility.yul\":4880:4889   */\n      div\n        /* \"#utility.yul\":4875:4889   */\n      swap1\n      pop\n        /* \"#utility.yul\":4710:4895   */\n      swap3\n      swap2\n      pop\n      pop\n      jump\t// out\n        /* \"#utility.yul\":4901:5134   */\n    tag_25:\n        /* \"#utility.yul\":4940:4943   */\n      0x00\n        /* \"#utility.yul\":4963:4987   */\n      tag_105\n        /* \"#utility.yul\":4981:4986   */\n      dup3\n        /* \"#utility.yul\":4963:4987   */\n      tag_29\n      jump\t// in\n    tag_105:\n        /* \"#utility.yul\":4954:4987   */\n      swap2\n      pop\n        /* \"#utility.yul\":5009:5075   */\n      0xffffffffffffffffffffffffffffffffffffffffffffffffffffffffffffffff\n        /* \"#utility.yul\":5002:5007   */\n      dup3\n        /* \"#utility.yul\":4999:5076   */\n      sub\n        /* \"#utility.yul\":4996:5099   */\n      tag_106\n      jumpi\n        /* \"#utility.yul\":5079:5097   */\n      tag_107\n      tag_38\n      jump\t// in\n    tag_107:\n        /* \"#utility.yul\":4996:5099   */\n    tag_106:\n        /* \"#utility.yul\":5126:5127   */\n      0x01\n        /* \"#utility.yul\":5119:5124   */\n      dup3\n        /* \"#utility.yul\":5115:5128   */\n      add\n        /* \"#utility.yul\":5108:5128   */\n      swap1\n      pop\n        /* \"#utility.yul\":4901:5134   */\n      swap2\n      swap1\n      pop\n      jump\t// out\n\n    auxdata: 0xa2646970667358221220c5135a8fae93879e7f1587b7639458d6605a7c08a74be1d7cfd248333ea89e1c64736f6c63430008120033\n}\n",
				"bytecode": {
					"linkReferences": {},
					"object": "608060405234801561001057600080fd5b5061044e806100206000396000f3fe608060405234801561001057600080fd5b506004361061002b5760003560e01c8063a17a9e6614610030575b600080fd5b61004a60048036038101906100459190610156565b610060565b6040516100579190610213565b60405180910390f35b60608060005b600381101561011157817f300000000000000000000000000000000000000000000000000000000000000060f81c60ff16600a866100a49190610264565b6100ae91906102c4565b6040516020016100be9190610319565b6040516020818303038152906040526040516020016100de92919061037b565b6040516020818303038152906040529150600a846100fc919061039f565b93508080610109906103d0565b915050610066565b5080915050919050565b600080fd5b6000819050919050565b61013381610120565b811461013e57600080fd5b50565b6000813590506101508161012a565b92915050565b60006020828403121561016c5761016b61011b565b5b600061017a84828501610141565b91505092915050565b600081519050919050565b600082825260208201905092915050565b60005b838110156101bd5780820151818401526020810190506101a2565b60008484015250505050565b6000601f19601f8301169050919050565b60006101e582610183565b6101ef818561018e565b93506101ff81856020860161019f565b610208816101c9565b840191505092915050565b6000602082019050818103600083015261022d81846101da565b905092915050565b7f4e487b7100000000000000000000000000000000000000000000000000000000600052601260045260246000fd5b600061026f82610120565b915061027a83610120565b92508261028a57610289610235565b5b828206905092915050565b7f4e487b7100000000000000000000000000000000000000000000000000000000600052601160045260246000fd5b60006102cf82610120565b91506102da83610120565b92508282019050808211156102f2576102f1610295565b5b92915050565b6000819050919050565b61031361030e82610120565b6102f8565b82525050565b60006103258284610302565b60208201915081905092915050565b600081519050919050565b600081905092915050565b600061035582610334565b61035f818561033f565b935061036f81856020860161019f565b80840191505092915050565b6000610387828561034a565b9150610393828461034a565b91508190509392505050565b60006103aa82610120565b91506103b583610120565b9250826103c5576103c4610235565b5b828204905092915050565b60006103db82610120565b91507fffffffffffffffffffffffffffffffffffffffffffffffffffffffffffffffff820361040d5761040c610295565b5b60018201905091905056fea2646970667358221220c5135a8fae93879e7f1587b7639458d6605a7c08a74be1d7cfd248333ea89e1c64736f6c63430008120033",
					"opcodes": "PUSH1 0x80 PUSH1 0x40 MSTORE CALLVALUE DUP1 ISZERO PUSH2 0x10 JUMPI PUSH1 0x0 DUP1 REVERT JUMPDEST POP PUSH2 0x44E DUP1 PUSH2 0x20 PUSH1 0x0 CODECOPY PUSH1 0x0 RETURN INVALID PUSH1 0x80 PUSH1 0x40 MSTORE CALLVALUE DUP1 ISZERO PUSH2 0x10 JUMPI PUSH1 0x0 DUP1 REVERT JUMPDEST POP PUSH1 0x4 CALLDATASIZE LT PUSH2 0x2B JUMPI PUSH1 0x0 CALLDATALOAD PUSH1 0xE0 SHR DUP1 PUSH4 0xA17A9E66 EQ PUSH2 0x30 JUMPI JUMPDEST PUSH1 0x0 DUP1 REVERT JUMPDEST PUSH2 0x4A PUSH1 0x4 DUP1 CALLDATASIZE SUB DUP2 ADD SWAP1 PUSH2 0x45 SWAP2 SWAP1 PUSH2 0x156 JUMP JUMPDEST PUSH2 0x60 JUMP JUMPDEST PUSH1 0x40 MLOAD PUSH2 0x57 SWAP2 SWAP1 PUSH2 0x213 JUMP JUMPDEST PUSH1 0x40 MLOAD DUP1 SWAP2 SUB SWAP1 RETURN JUMPDEST PUSH1 0x60 DUP1 PUSH1 0x0 JUMPDEST PUSH1 0x3 DUP2 LT ISZERO PUSH2 0x111 JUMPI DUP2 PUSH32 0x3000000000000000000000000000000000000000000000000000000000000000 PUSH1 0xF8 SHR PUSH1 0xFF AND PUSH1 0xA DUP7 PUSH2 0xA4 SWAP2 SWAP1 PUSH2 0x264 JUMP JUMPDEST PUSH2 0xAE SWAP2 SWAP1 PUSH2 0x2C4 JUMP JUMPDEST PUSH1 0x40 MLOAD PUSH1 0x20 ADD PUSH2 0xBE SWAP2 SWAP1 PUSH2 0x319 JUMP JUMPDEST PUSH1 0x40 MLOAD PUSH1 0x20 DUP2 DUP4 SUB SUB DUP2 MSTORE SWAP1 PUSH1 0x40 MSTORE PUSH1 0x40 MLOAD PUSH1 0x20 ADD PUSH2 0xDE SWAP3 SWAP2 SWAP1 PUSH2 0x37B JUMP JUMPDEST PUSH1 0x40 MLOAD PUSH1 0x20 DUP2 DUP4 SUB SUB DUP2 MSTORE SWAP1 PUSH1 0x40 MSTORE SWAP2 POP PUSH1 0xA DUP5 PUSH2 0xFC SWAP2 SWAP1 PUSH2 0x39F JUMP JUMPDEST SWAP4 POP DUP1 DUP1 PUSH2 0x109 SWAP1 PUSH2 0x3D0 JUMP JUMPDEST SWAP2 POP POP PUSH2 0x66 JUMP JUMPDEST POP DUP1 SWAP2 POP POP SWAP2 SWAP1 POP JUMP JUMPDEST PUSH1 0x0 DUP1 REVERT JUMPDEST PUSH1 0x0 DUP2 SWAP1 POP SWAP2 SWAP1 POP JUMP JUMPDEST PUSH2 0x133 DUP2 PUSH2 0x120 JUMP JUMPDEST DUP2 EQ PUSH2 0x13E JUMPI PUSH1 0x0 DUP1 REVERT JUMPDEST POP JUMP JUMPDEST PUSH1 0x0 DUP2 CALLDATALOAD SWAP1 POP PUSH2 0x150 DUP2 PUSH2 0x12A JUMP JUMPDEST SWAP3 SWAP2 POP POP JUMP JUMPDEST PUSH1 0x0 PUSH1 0x20 DUP3 DUP5 SUB SLT ISZERO PUSH2 0x16C JUMPI PUSH2 0x16B PUSH2 0x11B JUMP JUMPDEST JUMPDEST PUSH1 0x0 PUSH2 0x17A DUP5 DUP3 DUP6 ADD PUSH2 0x141 JUMP JUMPDEST SWAP2 POP POP SWAP3 SWAP2 POP POP JUMP JUMPDEST PUSH1 0x0 DUP2 MLOAD SWAP1 POP SWAP2 SWAP1 POP JUMP JUMPDEST PUSH1 0x0 DUP3 DUP3 MSTORE PUSH1 0x20 DUP3 ADD SWAP1 POP SWAP3 SWAP2 POP POP JUMP JUMPDEST PUSH1 0x0 JUMPDEST DUP4 DUP2 LT ISZERO PUSH2 0x1BD JUMPI DUP1 DUP3 ADD MLOAD DUP2 DUP5 ADD MSTORE PUSH1 0x20 DUP2 ADD SWAP1 POP PUSH2 0x1A2 JUMP JUMPDEST PUSH1 0x0 DUP5 DUP5 ADD MSTORE POP POP POP POP JUMP JUMPDEST PUSH1 0x0 PUSH1 0x1F NOT PUSH1 0x1F DUP4 ADD AND SWAP1 POP SWAP2 SWAP1 POP JUMP JUMPDEST PUSH1 0x0 PUSH2 0x1E5 DUP3 PUSH2 0x183 JUMP JUMPDEST PUSH2 0x1EF DUP2 DUP6 PUSH2 0x18E JUMP JUMPDEST SWAP4 POP PUSH2 0x1FF DUP2 DUP6 PUSH1 0x20 DUP7 ADD PUSH2 0x19F JUMP JUMPDEST PUSH2 0x208 DUP2 PUSH2 0x1C9 JUMP JUMPDEST DUP5 ADD SWAP2 POP POP SWAP3 SWAP2 POP POP JUMP JUMPDEST PUSH1 0x0 PUSH1 0x20 DUP3 ADD SWAP1 POP DUP2 DUP2 SUB PUSH1 0x0 DUP4 ADD MSTORE PUSH2 0x22D DUP2 DUP5 PUSH2 0x1DA JUMP JUMPDEST SWAP1 POP SWAP3 SWAP2 POP POP JUMP JUMPDEST PUSH32 0x4E487B7100000000000000000000000000000000000000000000000000000000 PUSH1 0x0 MSTORE PUSH1 0x12 PUSH1 0x4 MSTORE PUSH1 0x24 PUSH1 0x0 REVERT JUMPDEST PUSH1 0x0 PUSH2 0x26F DUP3 PUSH2 0x120 JUMP JUMPDEST SWAP2 POP PUSH2 0x27A DUP4 PUSH2 0x120 JUMP JUMPDEST SWAP3 POP DUP3 PUSH2 0x28A JUMPI PUSH2 0x289 PUSH2 0x235 JUMP JUMPDEST JUMPDEST DUP3 DUP3 MOD SWAP1 POP SWAP3 SWAP2 POP POP JUMP JUMPDEST PUSH32 0x4E487B7100000000000000000000000000000000000000000000000000000000 PUSH1 0x0 MSTORE PUSH1 0x11 PUSH1 0x4 MSTORE PUSH1 0x24 PUSH1 0x0 REVERT JUMPDEST PUSH1 0x0 PUSH2 0x2CF DUP3 PUSH2 0x120 JUMP JUMPDEST SWAP2 POP PUSH2 0x2DA DUP4 PUSH2 0x120 JUMP JUMPDEST SWAP3 POP DUP3 DUP3 ADD SWAP1 POP DUP1 DUP3 GT ISZERO PUSH2 0x2F2 JUMPI PUSH2 0x2F1 PUSH2 0x295 JUMP JUMPDEST JUMPDEST SWAP3 SWAP2 POP POP JUMP JUMPDEST PUSH1 0x0 DUP2 SWAP1 POP SWAP2 SWAP1 POP JUMP JUMPDEST PUSH2 0x313 PUSH2 0x30E DUP3 PUSH2 0x120 JUMP JUMPDEST PUSH2 0x2F8 JUMP JUMPDEST DUP3 MSTORE POP POP JUMP JUMPDEST PUSH1 0x0 PUSH2 0x325 DUP3 DUP5 PUSH2 0x302 JUMP JUMPDEST PUSH1 0x20 DUP3 ADD SWAP2 POP DUP2 SWAP1 POP SWAP3 SWAP2 POP POP JUMP JUMPDEST PUSH1 0x0 DUP2 MLOAD SWAP1 POP SWAP2 SWAP1 POP JUMP JUMPDEST PUSH1 0x0 DUP2 SWAP1 POP SWAP3 SWAP2 POP POP JUMP JUMPDEST PUSH1 0x0 PUSH2 0x355 DUP3 PUSH2 0x334 JUMP JUMPDEST PUSH2 0x35F DUP2 DUP6 PUSH2 0x33F JUMP JUMPDEST SWAP4 POP PUSH2 0x36F DUP2 DUP6 PUSH1 0x20 DUP7 ADD PUSH2 0x19F JUMP JUMPDEST DUP1 DUP5 ADD SWAP2 POP POP SWAP3 SWAP2 POP POP JUMP JUMPDEST PUSH1 0x0 PUSH2 0x387 DUP3 DUP6 PUSH2 0x34A JUMP JUMPDEST SWAP2 POP PUSH2 0x393 DUP3 DUP5 PUSH2 0x34A JUMP JUMPDEST SWAP2 POP DUP2 SWAP1 POP SWAP4 SWAP3 POP POP POP JUMP JUMPDEST PUSH1 0x0 PUSH2 0x3AA DUP3 PUSH2 0x120 JUMP JUMPDEST SWAP2 POP PUSH2 0x3B5 DUP4 PUSH2 0x120 JUMP JUMPDEST SWAP3 POP DUP3 PUSH2 0x3C5 JUMPI PUSH2 0x3C4 PUSH2 0x235 JUMP JUMPDEST JUMPDEST DUP3 DUP3 DIV SWAP1 POP SWAP3 SWAP2 POP POP JUMP JUMPDEST PUSH1 0x0 PUSH2 0x3DB DUP3 PUSH2 0x120 JUMP JUMPDEST SWAP2 POP PUSH32 0xFFFFFFFFFFFFFFFFFFFFFFFFFFFFFFFFFFFFFFFFFFFFFFFFFFFFFFFFFFFFFFFF DUP3 SUB PUSH2 0x40D JUMPI PUSH2 0x40C PUSH2 0x295 JUMP JUMPDEST JUMPDEST PUSH1 0x1 DUP3 ADD SWAP1 POP SWAP2 SWAP1 POP JUMP INVALID LOG2 PUSH5 0x6970667358 0x22 SLT KECCAK256 0xC5 SGT GAS DUP16 0xAE SWAP4 DUP8 SWAP15 PUSH32 0x1587B7639458D6605A7C08A74BE1D7CFD248333EA89E1C64736F6C6343000812 STOP CALLER "
				},
				"gasEstimates": {
					"creation": {
						"codeDepositCost": "220400",
						"executionCost": "263",
						"totalCost": "220663"
					},
					"external": {
						"A(uint256)": "infinite"
					}
				},
				"methodIdentifiers": {
					"A(uint256)": "a17a9e66"
				}
			},
			"storageLayout": {
				"storage": [],
				"types": null
			},
			"userdoc": {
				"kind": "user",
				"methods": {},
				"version": 1
			}
		}
	}
}