{
	"contract/solidity_71~80.sol": {
		"Q71": {
			"abi": [
				{
					"inputs": [],
					"name": "a",
					"outputs": [
						{
							"internalType": "uint256",
							"name": "",
							"type": "uint256"
						}
					],
					"stateMutability": "view",
					"type": "function"
				},
				{
					"inputs": [
						{
							"internalType": "uint256",
							"name": "_a",
							"type": "uint256"
						}
					],
					"name": "setA",
					"outputs": [],
					"stateMutability": "nonpayable",
					"type": "function"
				}
			],
			"devdoc": {
				"kind": "dev",
				"methods": {},
				"version": 1
			},
			"evm": {
				"assembly": "    /* \"contract/solidity_71~80.sol\":271:518  contract Q71{... */\n  mstore(0x40, 0x80)\n    /* \"contract/solidity_71~80.sol\":347:350  600 */\n  0x0258\n    /* \"contract/solidity_71~80.sol\":329:344  block.timestamp */\n  timestamp\n    /* \"contract/solidity_71~80.sol\":329:350  block.timestamp - 600 */\n  tag_1\n  swap2\n  swap1\n  tag_2\n  jump\t// in\ntag_1:\n    /* \"contract/solidity_71~80.sol\":315:350  uint a_time = block.timestamp - 600 */\n  0x01\n  sstore\n    /* \"contract/solidity_71~80.sol\":271:518  contract Q71{... */\n  callvalue\n  dup1\n  iszero\n  tag_3\n  jumpi\n  0x00\n  dup1\n  revert\ntag_3:\n  pop\n  jump(tag_4)\n    /* \"#utility.yul\":7:84   */\ntag_5:\n    /* \"#utility.yul\":44:51   */\n  0x00\n    /* \"#utility.yul\":73:78   */\n  dup2\n    /* \"#utility.yul\":62:78   */\n  swap1\n  pop\n    /* \"#utility.yul\":7:84   */\n  swap2\n  swap1\n  pop\n  jump\t// out\n    /* \"#utility.yul\":90:270   */\ntag_6:\n    /* \"#utility.yul\":138:215   */\n  0x4e487b7100000000000000000000000000000000000000000000000000000000\n    /* \"#utility.yul\":135:136   */\n  0x00\n    /* \"#utility.yul\":128:216   */\n  mstore\n    /* \"#utility.yul\":235:239   */\n  0x11\n    /* \"#utility.yul\":232:233   */\n  0x04\n    /* \"#utility.yul\":225:240   */\n  mstore\n    /* \"#utility.yul\":259:263   */\n  0x24\n    /* \"#utility.yul\":256:257   */\n  0x00\n    /* \"#utility.yul\":249:264   */\n  revert\n    /* \"#utility.yul\":276:470   */\ntag_2:\n    /* \"#utility.yul\":316:320   */\n  0x00\n    /* \"#utility.yul\":336:356   */\n  tag_11\n    /* \"#utility.yul\":354:355   */\n  dup3\n    /* \"#utility.yul\":336:356   */\n  tag_5\n  jump\t// in\ntag_11:\n    /* \"#utility.yul\":331:356   */\n  swap2\n  pop\n    /* \"#utility.yul\":370:390   */\n  tag_12\n    /* \"#utility.yul\":388:389   */\n  dup4\n    /* \"#utility.yul\":370:390   */\n  tag_5\n  jump\t// in\ntag_12:\n    /* \"#utility.yul\":365:390   */\n  swap3\n  pop\n    /* \"#utility.yul\":414:415   */\n  dup3\n    /* \"#utility.yul\":411:412   */\n  dup3\n    /* \"#utility.yul\":407:416   */\n  sub\n    /* \"#utility.yul\":399:416   */\n  swap1\n  pop\n    /* \"#utility.yul\":438:439   */\n  dup2\n    /* \"#utility.yul\":432:436   */\n  dup2\n    /* \"#utility.yul\":429:440   */\n  gt\n    /* \"#utility.yul\":426:463   */\n  iszero\n  tag_13\n  jumpi\n    /* \"#utility.yul\":443:461   */\n  tag_14\n  tag_6\n  jump\t// in\ntag_14:\n    /* \"#utility.yul\":426:463   */\ntag_13:\n    /* \"#utility.yul\":276:470   */\n  swap3\n  swap2\n  pop\n  pop\n  jump\t// out\n    /* \"contract/solidity_71~80.sol\":271:518  contract Q71{... */\ntag_4:\n  dataSize(sub_0)\n  dup1\n  dataOffset(sub_0)\n  0x00\n  codecopy\n  0x00\n  return\nstop\n\nsub_0: assembly {\n        /* \"contract/solidity_71~80.sol\":271:518  contract Q71{... */\n      mstore(0x40, 0x80)\n      callvalue\n      dup1\n      iszero\n      tag_1\n      jumpi\n      0x00\n      dup1\n      revert\n    tag_1:\n      pop\n      jumpi(tag_2, lt(calldatasize, 0x04))\n      shr(0xe0, calldataload(0x00))\n      dup1\n      0x0dbe671f\n      eq\n      tag_3\n      jumpi\n      dup1\n      0xee919d50\n      eq\n      tag_4\n      jumpi\n    tag_2:\n      0x00\n      dup1\n      revert\n        /* \"contract/solidity_71~80.sol\":292:305  uint public a */\n    tag_3:\n      tag_5\n      tag_6\n      jump\t// in\n    tag_5:\n      mload(0x40)\n      tag_7\n      swap2\n      swap1\n      tag_8\n      jump\t// in\n    tag_7:\n      mload(0x40)\n      dup1\n      swap2\n      sub\n      swap1\n      return\n        /* \"contract/solidity_71~80.sol\":360:513  function setA( uint _a ) public {... */\n    tag_4:\n      tag_9\n      0x04\n      dup1\n      calldatasize\n      sub\n      dup2\n      add\n      swap1\n      tag_10\n      swap2\n      swap1\n      tag_11\n      jump\t// in\n    tag_10:\n      tag_12\n      jump\t// in\n    tag_9:\n      stop\n        /* \"contract/solidity_71~80.sol\":292:305  uint public a */\n    tag_6:\n      sload(0x00)\n      dup2\n      jump\t// out\n        /* \"contract/solidity_71~80.sol\":360:513  function setA( uint _a ) public {... */\n    tag_12:\n        /* \"contract/solidity_71~80.sol\":429:444  block.timestamp */\n      timestamp\n        /* \"contract/solidity_71~80.sol\":423:426  600 */\n      0x0258\n        /* \"contract/solidity_71~80.sol\":414:420  a_time */\n      sload(0x01)\n        /* \"contract/solidity_71~80.sol\":414:426  a_time + 600 */\n      tag_14\n      swap2\n      swap1\n      tag_15\n      jump\t// in\n    tag_14:\n        /* \"contract/solidity_71~80.sol\":414:444  a_time + 600 < block.timestamp */\n      lt\n        /* \"contract/solidity_71~80.sol\":405:446  require( a_time + 600 < block.timestamp ) */\n      tag_16\n      jumpi\n      0x00\n      dup1\n      revert\n    tag_16:\n        /* \"contract/solidity_71~80.sol\":469:484  block.timestamp */\n      timestamp\n        /* \"contract/solidity_71~80.sol\":460:466  a_time */\n      0x01\n        /* \"contract/solidity_71~80.sol\":460:484  a_time = block.timestamp */\n      dup2\n      swap1\n      sstore\n      pop\n        /* \"contract/solidity_71~80.sol\":500:502  _a */\n      dup1\n        /* \"contract/solidity_71~80.sol\":496:497  a */\n      0x00\n        /* \"contract/solidity_71~80.sol\":496:502  a = _a */\n      dup2\n      swap1\n      sstore\n      pop\n        /* \"contract/solidity_71~80.sol\":360:513  function setA( uint _a ) public {... */\n      pop\n      jump\t// out\n        /* \"#utility.yul\":7:84   */\n    tag_17:\n        /* \"#utility.yul\":44:51   */\n      0x00\n        /* \"#utility.yul\":73:78   */\n      dup2\n        /* \"#utility.yul\":62:78   */\n      swap1\n      pop\n        /* \"#utility.yul\":7:84   */\n      swap2\n      swap1\n      pop\n      jump\t// out\n        /* \"#utility.yul\":90:208   */\n    tag_18:\n        /* \"#utility.yul\":177:201   */\n      tag_28\n        /* \"#utility.yul\":195:200   */\n      dup2\n        /* \"#utility.yul\":177:201   */\n      tag_17\n      jump\t// in\n    tag_28:\n        /* \"#utility.yul\":172:175   */\n      dup3\n        /* \"#utility.yul\":165:202   */\n      mstore\n        /* \"#utility.yul\":90:208   */\n      pop\n      pop\n      jump\t// out\n        /* \"#utility.yul\":214:436   */\n    tag_8:\n        /* \"#utility.yul\":307:311   */\n      0x00\n        /* \"#utility.yul\":345:347   */\n      0x20\n        /* \"#utility.yul\":334:343   */\n      dup3\n        /* \"#utility.yul\":330:348   */\n      add\n        /* \"#utility.yul\":322:348   */\n      swap1\n      pop\n        /* \"#utility.yul\":358:429   */\n      tag_30\n        /* \"#utility.yul\":426:427   */\n      0x00\n        /* \"#utility.yul\":415:424   */\n      dup4\n        /* \"#utility.yul\":411:428   */\n      add\n        /* \"#utility.yul\":402:408   */\n      dup5\n        /* \"#utility.yul\":358:429   */\n      tag_18\n      jump\t// in\n    tag_30:\n        /* \"#utility.yul\":214:436   */\n      swap3\n      swap2\n      pop\n      pop\n      jump\t// out\n        /* \"#utility.yul\":523:640   */\n    tag_20:\n        /* \"#utility.yul\":632:633   */\n      0x00\n        /* \"#utility.yul\":629:630   */\n      dup1\n        /* \"#utility.yul\":622:634   */\n      revert\n        /* \"#utility.yul\":769:891   */\n    tag_22:\n        /* \"#utility.yul\":842:866   */\n      tag_35\n        /* \"#utility.yul\":860:865   */\n      dup2\n        /* \"#utility.yul\":842:866   */\n      tag_17\n      jump\t// in\n    tag_35:\n        /* \"#utility.yul\":835:840   */\n      dup2\n        /* \"#utility.yul\":832:867   */\n      eq\n        /* \"#utility.yul\":822:885   */\n      tag_36\n      jumpi\n        /* \"#utility.yul\":881:882   */\n      0x00\n        /* \"#utility.yul\":878:879   */\n      dup1\n        /* \"#utility.yul\":871:883   */\n      revert\n        /* \"#utility.yul\":822:885   */\n    tag_36:\n        /* \"#utility.yul\":769:891   */\n      pop\n      jump\t// out\n        /* \"#utility.yul\":897:1036   */\n    tag_23:\n        /* \"#utility.yul\":943:948   */\n      0x00\n        /* \"#utility.yul\":981:987   */\n      dup2\n        /* \"#utility.yul\":968:988   */\n      calldataload\n        /* \"#utility.yul\":959:988   */\n      swap1\n      pop\n        /* \"#utility.yul\":997:1030   */\n      tag_38\n        /* \"#utility.yul\":1024:1029   */\n      dup2\n        /* \"#utility.yul\":997:1030   */\n      tag_22\n      jump\t// in\n    tag_38:\n        /* \"#utility.yul\":897:1036   */\n      swap3\n      swap2\n      pop\n      pop\n      jump\t// out\n        /* \"#utility.yul\":1042:1371   */\n    tag_11:\n        /* \"#utility.yul\":1101:1107   */\n      0x00\n        /* \"#utility.yul\":1150:1152   */\n      0x20\n        /* \"#utility.yul\":1138:1147   */\n      dup3\n        /* \"#utility.yul\":1129:1136   */\n      dup5\n        /* \"#utility.yul\":1125:1148   */\n      sub\n        /* \"#utility.yul\":1121:1153   */\n      slt\n        /* \"#utility.yul\":1118:1237   */\n      iszero\n      tag_40\n      jumpi\n        /* \"#utility.yul\":1156:1235   */\n      tag_41\n      tag_20\n      jump\t// in\n    tag_41:\n        /* \"#utility.yul\":1118:1237   */\n    tag_40:\n        /* \"#utility.yul\":1276:1277   */\n      0x00\n        /* \"#utility.yul\":1301:1354   */\n      tag_42\n        /* \"#utility.yul\":1346:1353   */\n      dup5\n        /* \"#utility.yul\":1337:1343   */\n      dup3\n        /* \"#utility.yul\":1326:1335   */\n      dup6\n        /* \"#utility.yul\":1322:1344   */\n      add\n        /* \"#utility.yul\":1301:1354   */\n      tag_23\n      jump\t// in\n    tag_42:\n        /* \"#utility.yul\":1291:1354   */\n      swap2\n      pop\n        /* \"#utility.yul\":1247:1364   */\n      pop\n        /* \"#utility.yul\":1042:1371   */\n      swap3\n      swap2\n      pop\n      pop\n      jump\t// out\n        /* \"#utility.yul\":1377:1557   */\n    tag_24:\n        /* \"#utility.yul\":1425:1502   */\n      0x4e487b7100000000000000000000000000000000000000000000000000000000\n        /* \"#utility.yul\":1422:1423   */\n      0x00\n        /* \"#utility.yul\":1415:1503   */\n      mstore\n        /* \"#utility.yul\":1522:1526   */\n      0x11\n        /* \"#utility.yul\":1519:1520   */\n      0x04\n        /* \"#utility.yul\":1512:1527   */\n      mstore\n        /* \"#utility.yul\":1546:1550   */\n      0x24\n        /* \"#utility.yul\":1543:1544   */\n      0x00\n        /* \"#utility.yul\":1536:1551   */\n      revert\n        /* \"#utility.yul\":1563:1754   */\n    tag_15:\n        /* \"#utility.yul\":1603:1606   */\n      0x00\n        /* \"#utility.yul\":1622:1642   */\n      tag_45\n        /* \"#utility.yul\":1640:1641   */\n      dup3\n        /* \"#utility.yul\":1622:1642   */\n      tag_17\n      jump\t// in\n    tag_45:\n        /* \"#utility.yul\":1617:1642   */\n      swap2\n      pop\n        /* \"#utility.yul\":1656:1676   */\n      tag_46\n        /* \"#utility.yul\":1674:1675   */\n      dup4\n        /* \"#utility.yul\":1656:1676   */\n      tag_17\n      jump\t// in\n    tag_46:\n        /* \"#utility.yul\":1651:1676   */\n      swap3\n      pop\n        /* \"#utility.yul\":1699:1700   */\n      dup3\n        /* \"#utility.yul\":1696:1697   */\n      dup3\n        /* \"#utility.yul\":1692:1701   */\n      add\n        /* \"#utility.yul\":1685:1701   */\n      swap1\n      pop\n        /* \"#utility.yul\":1720:1723   */\n      dup1\n        /* \"#utility.yul\":1717:1718   */\n      dup3\n        /* \"#utility.yul\":1714:1724   */\n      gt\n        /* \"#utility.yul\":1711:1747   */\n      iszero\n      tag_47\n      jumpi\n        /* \"#utility.yul\":1727:1745   */\n      tag_48\n      tag_24\n      jump\t// in\n    tag_48:\n        /* \"#utility.yul\":1711:1747   */\n    tag_47:\n        /* \"#utility.yul\":1563:1754   */\n      swap3\n      swap2\n      pop\n      pop\n      jump\t// out\n\n    auxdata: 0xa26469706673582212203e31b30cd0fde05b4028c213139e57dfa315c28bf67386ae493bd370961079f264736f6c63430008120033\n}\n",
				"bytecode": {
					"linkReferences": {},
					"object": "6080604052610258426100129190610060565b60015534801561002157600080fd5b50610094565b6000819050919050565b7f4e487b7100000000000000000000000000000000000000000000000000000000600052601160045260246000fd5b600061006b82610027565b915061007683610027565b925082820390508181111561008e5761008d610031565b5b92915050565b6101d2806100a36000396000f3fe608060405234801561001057600080fd5b50600436106100365760003560e01c80630dbe671f1461003b578063ee919d5014610059575b600080fd5b610043610075565b60405161005091906100c0565b60405180910390f35b610073600480360381019061006e919061010c565b61007b565b005b60005481565b4261025860015461008c9190610168565b1061009657600080fd5b426001819055508060008190555050565b6000819050919050565b6100ba816100a7565b82525050565b60006020820190506100d560008301846100b1565b92915050565b600080fd5b6100e9816100a7565b81146100f457600080fd5b50565b600081359050610106816100e0565b92915050565b600060208284031215610122576101216100db565b5b6000610130848285016100f7565b91505092915050565b7f4e487b7100000000000000000000000000000000000000000000000000000000600052601160045260246000fd5b6000610173826100a7565b915061017e836100a7565b925082820190508082111561019657610195610139565b5b9291505056fea26469706673582212203e31b30cd0fde05b4028c213139e57dfa315c28bf67386ae493bd370961079f264736f6c63430008120033",
					"opcodes": "PUSH1 0x80 PUSH1 0x40 MSTORE PUSH2 0x258 TIMESTAMP PUSH2 0x12 SWAP2 SWAP1 PUSH2 0x60 JUMP JUMPDEST PUSH1 0x1 SSTORE CALLVALUE DUP1 ISZERO PUSH2 0x21 JUMPI PUSH1 0x0 DUP1 REVERT JUMPDEST POP PUSH2 0x94 JUMP JUMPDEST PUSH1 0x0 DUP2 SWAP1 POP SWAP2 SWAP1 POP JUMP JUMPDEST PUSH32 0x4E487B7100000000000000000000000000000000000000000000000000000000 PUSH1 0x0 MSTORE PUSH1 0x11 PUSH1 0x4 MSTORE PUSH1 0x24 PUSH1 0x0 REVERT JUMPDEST PUSH1 0x0 PUSH2 0x6B DUP3 PUSH2 0x27 JUMP JUMPDEST SWAP2 POP PUSH2 0x76 DUP4 PUSH2 0x27 JUMP JUMPDEST SWAP3 POP DUP3 DUP3 SUB SWAP1 POP DUP2 DUP2 GT ISZERO PUSH2 0x8E JUMPI PUSH2 0x8D PUSH2 0x31 JUMP JUMPDEST JUMPDEST SWAP3 SWAP2 POP POP JUMP JUMPDEST PUSH2 0x1D2 DUP1 PUSH2 0xA3 PUSH1 0x0 CODECOPY PUSH1 0x0 RETURN INVALID PUSH1 0x80 PUSH1 0x40 MSTORE CALLVALUE DUP1 ISZERO PUSH2 0x10 JUMPI PUSH1 0x0 DUP1 REVERT JUMPDEST POP PUSH1 0x4 CALLDATASIZE LT PUSH2 0x36 JUMPI PUSH1 0x0 CALLDATALOAD PUSH1 0xE0 SHR DUP1 PUSH4 0xDBE671F EQ PUSH2 0x3B JUMPI DUP1 PUSH4 0xEE919D50 EQ PUSH2 0x59 JUMPI JUMPDEST PUSH1 0x0 DUP1 REVERT JUMPDEST PUSH2 0x43 PUSH2 0x75 JUMP JUMPDEST PUSH1 0x40 MLOAD PUSH2 0x50 SWAP2 SWAP1 PUSH2 0xC0 JUMP JUMPDEST PUSH1 0x40 MLOAD DUP1 SWAP2 SUB SWAP1 RETURN JUMPDEST PUSH2 0x73 PUSH1 0x4 DUP1 CALLDATASIZE SUB DUP2 ADD SWAP1 PUSH2 0x6E SWAP2 SWAP1 PUSH2 0x10C JUMP JUMPDEST PUSH2 0x7B JUMP JUMPDEST STOP JUMPDEST PUSH1 0x0 SLOAD DUP2 JUMP JUMPDEST TIMESTAMP PUSH2 0x258 PUSH1 0x1 SLOAD PUSH2 0x8C SWAP2 SWAP1 PUSH2 0x168 JUMP JUMPDEST LT PUSH2 0x96 JUMPI PUSH1 0x0 DUP1 REVERT JUMPDEST TIMESTAMP PUSH1 0x1 DUP2 SWAP1 SSTORE POP DUP1 PUSH1 0x0 DUP2 SWAP1 SSTORE POP POP JUMP JUMPDEST PUSH1 0x0 DUP2 SWAP1 POP SWAP2 SWAP1 POP JUMP JUMPDEST PUSH2 0xBA DUP2 PUSH2 0xA7 JUMP JUMPDEST DUP3 MSTORE POP POP JUMP JUMPDEST PUSH1 0x0 PUSH1 0x20 DUP3 ADD SWAP1 POP PUSH2 0xD5 PUSH1 0x0 DUP4 ADD DUP5 PUSH2 0xB1 JUMP JUMPDEST SWAP3 SWAP2 POP POP JUMP JUMPDEST PUSH1 0x0 DUP1 REVERT JUMPDEST PUSH2 0xE9 DUP2 PUSH2 0xA7 JUMP JUMPDEST DUP2 EQ PUSH2 0xF4 JUMPI PUSH1 0x0 DUP1 REVERT JUMPDEST POP JUMP JUMPDEST PUSH1 0x0 DUP2 CALLDATALOAD SWAP1 POP PUSH2 0x106 DUP2 PUSH2 0xE0 JUMP JUMPDEST SWAP3 SWAP2 POP POP JUMP JUMPDEST PUSH1 0x0 PUSH1 0x20 DUP3 DUP5 SUB SLT ISZERO PUSH2 0x122 JUMPI PUSH2 0x121 PUSH2 0xDB JUMP JUMPDEST JUMPDEST PUSH1 0x0 PUSH2 0x130 DUP5 DUP3 DUP6 ADD PUSH2 0xF7 JUMP JUMPDEST SWAP2 POP POP SWAP3 SWAP2 POP POP JUMP JUMPDEST PUSH32 0x4E487B7100000000000000000000000000000000000000000000000000000000 PUSH1 0x0 MSTORE PUSH1 0x11 PUSH1 0x4 MSTORE PUSH1 0x24 PUSH1 0x0 REVERT JUMPDEST PUSH1 0x0 PUSH2 0x173 DUP3 PUSH2 0xA7 JUMP JUMPDEST SWAP2 POP PUSH2 0x17E DUP4 PUSH2 0xA7 JUMP JUMPDEST SWAP3 POP DUP3 DUP3 ADD SWAP1 POP DUP1 DUP3 GT ISZERO PUSH2 0x196 JUMPI PUSH2 0x195 PUSH2 0x139 JUMP JUMPDEST JUMPDEST SWAP3 SWAP2 POP POP JUMP INVALID LOG2 PUSH5 0x6970667358 0x22 SLT KECCAK256 RETURNDATACOPY BALANCE 0xB3 0xC 0xD0 REVERT 0xE0 JUMPDEST BLOCKHASH 0x28 0xC2 SGT SGT SWAP15 JUMPI 0xDF LOG3 ISZERO 0xC2 DUP12 0xF6 PUSH20 0x86AE493BD370961079F264736F6C634300081200 CALLER "
				},
				"gasEstimates": {
					"creation": {
						"codeDepositCost": "93200",
						"executionCost": "infinite",
						"totalCost": "infinite"
					},
					"external": {
						"a()": "2407",
						"setA(uint256)": "infinite"
					}
				},
				"methodIdentifiers": {
					"a()": "0dbe671f",
					"setA(uint256)": "ee919d50"
				}
			},
			"storageLayout": {
				"storage": [
					{
						"astId": 3,
						"contract": "contract/solidity_71~80.sol:Q71",
						"label": "a",
						"offset": 0,
						"slot": "0",
						"type": "t_uint256"
					},
					{
						"astId": 9,
						"contract": "contract/solidity_71~80.sol:Q71",
						"label": "a_time",
						"offset": 0,
						"slot": "1",
						"type": "t_uint256"
					}
				],
				"types": {
					"t_uint256": {
						"encoding": "inplace",
						"label": "uint256",
						"numberOfBytes": "32"
					}
				}
			},
			"userdoc": {
				"kind": "user",
				"methods": {},
				"version": 1
			}
		}
	}
}