{
	"contract/solidity_71~80.sol": {
		"Q74": {
			"abi": [
				{
					"inputs": [
						{
							"internalType": "uint256",
							"name": "_input",
							"type": "uint256"
						}
					],
					"name": "A",
					"outputs": [
						{
							"internalType": "uint256",
							"name": "",
							"type": "uint256"
						},
						{
							"internalType": "uint256",
							"name": "",
							"type": "uint256"
						}
					],
					"stateMutability": "pure",
					"type": "function"
				}
			],
			"devdoc": {
				"kind": "dev",
				"methods": {},
				"version": 1
			},
			"evm": {
				"assembly": "    /* \"contract/solidity_71~80.sol\":2892:3053  contract Q74{... */\n  mstore(0x40, 0x80)\n  callvalue\n  dup1\n  iszero\n  tag_1\n  jumpi\n  0x00\n  dup1\n  revert\ntag_1:\n  pop\n  dataSize(sub_0)\n  dup1\n  dataOffset(sub_0)\n  0x00\n  codecopy\n  0x00\n  return\nstop\n\nsub_0: assembly {\n        /* \"contract/solidity_71~80.sol\":2892:3053  contract Q74{... */\n      mstore(0x40, 0x80)\n      callvalue\n      dup1\n      iszero\n      tag_1\n      jumpi\n      0x00\n      dup1\n      revert\n    tag_1:\n      pop\n      jumpi(tag_2, lt(calldatasize, 0x04))\n      shr(0xe0, calldataload(0x00))\n      dup1\n      0xa17a9e66\n      eq\n      tag_3\n      jumpi\n    tag_2:\n      0x00\n      dup1\n      revert\n        /* \"contract/solidity_71~80.sol\":2913:3048  function A( uint _input ) public pure returns( uint , uint ) {... */\n    tag_3:\n      tag_4\n      0x04\n      dup1\n      calldatasize\n      sub\n      dup2\n      add\n      swap1\n      tag_5\n      swap2\n      swap1\n      tag_6\n      jump\t// in\n    tag_5:\n      tag_7\n      jump\t// in\n    tag_4:\n      mload(0x40)\n      tag_8\n      swap3\n      swap2\n      swap1\n      tag_9\n      jump\t// in\n    tag_8:\n      mload(0x40)\n      dup1\n      swap2\n      sub\n      swap1\n      return\n    tag_7:\n        /* \"contract/solidity_71~80.sol\":2960:2964  uint */\n      0x00\n        /* \"contract/solidity_71~80.sol\":2967:2971  uint */\n      dup1\n        /* \"contract/solidity_71~80.sol\":3010:3012  10 */\n      0x0a\n        /* \"contract/solidity_71~80.sol\":3005:3007  11 */\n      0x0b\n        /* \"contract/solidity_71~80.sol\":2996:3002  _input */\n      dup5\n        /* \"contract/solidity_71~80.sol\":2996:3007  _input * 11 */\n      tag_11\n      swap2\n      swap1\n      tag_12\n      jump\t// in\n    tag_11:\n        /* \"contract/solidity_71~80.sol\":2996:3012  _input * 11 / 10 */\n      tag_13\n      swap2\n      swap1\n      tag_14\n      jump\t// in\n    tag_13:\n        /* \"contract/solidity_71~80.sol\":3033:3035  10 */\n      0x0a\n        /* \"contract/solidity_71~80.sol\":3026:3028  11 */\n      0x0b\n        /* \"contract/solidity_71~80.sol\":3017:3023  _input */\n      dup6\n        /* \"contract/solidity_71~80.sol\":3017:3028  _input * 11 */\n      tag_15\n      swap2\n      swap1\n      tag_12\n      jump\t// in\n    tag_15:\n        /* \"contract/solidity_71~80.sol\":3015:3035  ( _input * 11 ) % 10 */\n      tag_16\n      swap2\n      swap1\n      tag_17\n      jump\t// in\n    tag_16:\n        /* \"contract/solidity_71~80.sol\":2987:3037  return ( _input * 11 / 10 , ( _input * 11 ) % 10 ) */\n      swap2\n      pop\n      swap2\n      pop\n        /* \"contract/solidity_71~80.sol\":2913:3048  function A( uint _input ) public pure returns( uint , uint ) {... */\n      swap2\n      pop\n      swap2\n      jump\t// out\n        /* \"#utility.yul\":88:205   */\n    tag_19:\n        /* \"#utility.yul\":197:198   */\n      0x00\n        /* \"#utility.yul\":194:195   */\n      dup1\n        /* \"#utility.yul\":187:199   */\n      revert\n        /* \"#utility.yul\":334:411   */\n    tag_21:\n        /* \"#utility.yul\":371:378   */\n      0x00\n        /* \"#utility.yul\":400:405   */\n      dup2\n        /* \"#utility.yul\":389:405   */\n      swap1\n      pop\n        /* \"#utility.yul\":334:411   */\n      swap2\n      swap1\n      pop\n      jump\t// out\n        /* \"#utility.yul\":417:539   */\n    tag_22:\n        /* \"#utility.yul\":490:514   */\n      tag_33\n        /* \"#utility.yul\":508:513   */\n      dup2\n        /* \"#utility.yul\":490:514   */\n      tag_21\n      jump\t// in\n    tag_33:\n        /* \"#utility.yul\":483:488   */\n      dup2\n        /* \"#utility.yul\":480:515   */\n      eq\n        /* \"#utility.yul\":470:533   */\n      tag_34\n      jumpi\n        /* \"#utility.yul\":529:530   */\n      0x00\n        /* \"#utility.yul\":526:527   */\n      dup1\n        /* \"#utility.yul\":519:531   */\n      revert\n        /* \"#utility.yul\":470:533   */\n    tag_34:\n        /* \"#utility.yul\":417:539   */\n      pop\n      jump\t// out\n        /* \"#utility.yul\":545:684   */\n    tag_23:\n        /* \"#utility.yul\":591:596   */\n      0x00\n        /* \"#utility.yul\":629:635   */\n      dup2\n        /* \"#utility.yul\":616:636   */\n      calldataload\n        /* \"#utility.yul\":607:636   */\n      swap1\n      pop\n        /* \"#utility.yul\":645:678   */\n      tag_36\n        /* \"#utility.yul\":672:677   */\n      dup2\n        /* \"#utility.yul\":645:678   */\n      tag_22\n      jump\t// in\n    tag_36:\n        /* \"#utility.yul\":545:684   */\n      swap3\n      swap2\n      pop\n      pop\n      jump\t// out\n        /* \"#utility.yul\":690:1019   */\n    tag_6:\n        /* \"#utility.yul\":749:755   */\n      0x00\n        /* \"#utility.yul\":798:800   */\n      0x20\n        /* \"#utility.yul\":786:795   */\n      dup3\n        /* \"#utility.yul\":777:784   */\n      dup5\n        /* \"#utility.yul\":773:796   */\n      sub\n        /* \"#utility.yul\":769:801   */\n      slt\n        /* \"#utility.yul\":766:885   */\n      iszero\n      tag_38\n      jumpi\n        /* \"#utility.yul\":804:883   */\n      tag_39\n      tag_19\n      jump\t// in\n    tag_39:\n        /* \"#utility.yul\":766:885   */\n    tag_38:\n        /* \"#utility.yul\":924:925   */\n      0x00\n        /* \"#utility.yul\":949:1002   */\n      tag_40\n        /* \"#utility.yul\":994:1001   */\n      dup5\n        /* \"#utility.yul\":985:991   */\n      dup3\n        /* \"#utility.yul\":974:983   */\n      dup6\n        /* \"#utility.yul\":970:992   */\n      add\n        /* \"#utility.yul\":949:1002   */\n      tag_23\n      jump\t// in\n    tag_40:\n        /* \"#utility.yul\":939:1002   */\n      swap2\n      pop\n        /* \"#utility.yul\":895:1012   */\n      pop\n        /* \"#utility.yul\":690:1019   */\n      swap3\n      swap2\n      pop\n      pop\n      jump\t// out\n        /* \"#utility.yul\":1025:1143   */\n    tag_24:\n        /* \"#utility.yul\":1112:1136   */\n      tag_42\n        /* \"#utility.yul\":1130:1135   */\n      dup2\n        /* \"#utility.yul\":1112:1136   */\n      tag_21\n      jump\t// in\n    tag_42:\n        /* \"#utility.yul\":1107:1110   */\n      dup3\n        /* \"#utility.yul\":1100:1137   */\n      mstore\n        /* \"#utility.yul\":1025:1143   */\n      pop\n      pop\n      jump\t// out\n        /* \"#utility.yul\":1149:1481   */\n    tag_9:\n        /* \"#utility.yul\":1270:1274   */\n      0x00\n        /* \"#utility.yul\":1308:1310   */\n      0x40\n        /* \"#utility.yul\":1297:1306   */\n      dup3\n        /* \"#utility.yul\":1293:1311   */\n      add\n        /* \"#utility.yul\":1285:1311   */\n      swap1\n      pop\n        /* \"#utility.yul\":1321:1392   */\n      tag_44\n        /* \"#utility.yul\":1389:1390   */\n      0x00\n        /* \"#utility.yul\":1378:1387   */\n      dup4\n        /* \"#utility.yul\":1374:1391   */\n      add\n        /* \"#utility.yul\":1365:1371   */\n      dup6\n        /* \"#utility.yul\":1321:1392   */\n      tag_24\n      jump\t// in\n    tag_44:\n        /* \"#utility.yul\":1402:1474   */\n      tag_45\n        /* \"#utility.yul\":1470:1472   */\n      0x20\n        /* \"#utility.yul\":1459:1468   */\n      dup4\n        /* \"#utility.yul\":1455:1473   */\n      add\n        /* \"#utility.yul\":1446:1452   */\n      dup5\n        /* \"#utility.yul\":1402:1474   */\n      tag_24\n      jump\t// in\n    tag_45:\n        /* \"#utility.yul\":1149:1481   */\n      swap4\n      swap3\n      pop\n      pop\n      pop\n      jump\t// out\n        /* \"#utility.yul\":1487:1667   */\n    tag_25:\n        /* \"#utility.yul\":1535:1612   */\n      0x4e487b7100000000000000000000000000000000000000000000000000000000\n        /* \"#utility.yul\":1532:1533   */\n      0x00\n        /* \"#utility.yul\":1525:1613   */\n      mstore\n        /* \"#utility.yul\":1632:1636   */\n      0x11\n        /* \"#utility.yul\":1629:1630   */\n      0x04\n        /* \"#utility.yul\":1622:1637   */\n      mstore\n        /* \"#utility.yul\":1656:1660   */\n      0x24\n        /* \"#utility.yul\":1653:1654   */\n      0x00\n        /* \"#utility.yul\":1646:1661   */\n      revert\n        /* \"#utility.yul\":1673:2083   */\n    tag_12:\n        /* \"#utility.yul\":1713:1720   */\n      0x00\n        /* \"#utility.yul\":1736:1756   */\n      tag_48\n        /* \"#utility.yul\":1754:1755   */\n      dup3\n        /* \"#utility.yul\":1736:1756   */\n      tag_21\n      jump\t// in\n    tag_48:\n        /* \"#utility.yul\":1731:1756   */\n      swap2\n      pop\n        /* \"#utility.yul\":1770:1790   */\n      tag_49\n        /* \"#utility.yul\":1788:1789   */\n      dup4\n        /* \"#utility.yul\":1770:1790   */\n      tag_21\n      jump\t// in\n    tag_49:\n        /* \"#utility.yul\":1765:1790   */\n      swap3\n      pop\n        /* \"#utility.yul\":1825:1826   */\n      dup3\n        /* \"#utility.yul\":1822:1823   */\n      dup3\n        /* \"#utility.yul\":1818:1827   */\n      mul\n        /* \"#utility.yul\":1847:1877   */\n      tag_50\n        /* \"#utility.yul\":1865:1876   */\n      dup2\n        /* \"#utility.yul\":1847:1877   */\n      tag_21\n      jump\t// in\n    tag_50:\n        /* \"#utility.yul\":1836:1877   */\n      swap2\n      pop\n        /* \"#utility.yul\":2026:2027   */\n      dup3\n        /* \"#utility.yul\":2017:2024   */\n      dup3\n        /* \"#utility.yul\":2013:2028   */\n      div\n        /* \"#utility.yul\":2010:2011   */\n      dup5\n        /* \"#utility.yul\":2007:2029   */\n      eq\n        /* \"#utility.yul\":1987:1988   */\n      dup4\n        /* \"#utility.yul\":1980:1989   */\n      iszero\n        /* \"#utility.yul\":1960:2043   */\n      or\n        /* \"#utility.yul\":1937:2076   */\n      tag_51\n      jumpi\n        /* \"#utility.yul\":2056:2074   */\n      tag_52\n      tag_25\n      jump\t// in\n    tag_52:\n        /* \"#utility.yul\":1937:2076   */\n    tag_51:\n        /* \"#utility.yul\":1721:2083   */\n      pop\n        /* \"#utility.yul\":1673:2083   */\n      swap3\n      swap2\n      pop\n      pop\n      jump\t// out\n        /* \"#utility.yul\":2089:2269   */\n    tag_26:\n        /* \"#utility.yul\":2137:2214   */\n      0x4e487b7100000000000000000000000000000000000000000000000000000000\n        /* \"#utility.yul\":2134:2135   */\n      0x00\n        /* \"#utility.yul\":2127:2215   */\n      mstore\n        /* \"#utility.yul\":2234:2238   */\n      0x12\n        /* \"#utility.yul\":2231:2232   */\n      0x04\n        /* \"#utility.yul\":2224:2239   */\n      mstore\n        /* \"#utility.yul\":2258:2262   */\n      0x24\n        /* \"#utility.yul\":2255:2256   */\n      0x00\n        /* \"#utility.yul\":2248:2263   */\n      revert\n        /* \"#utility.yul\":2275:2460   */\n    tag_14:\n        /* \"#utility.yul\":2315:2316   */\n      0x00\n        /* \"#utility.yul\":2332:2352   */\n      tag_55\n        /* \"#utility.yul\":2350:2351   */\n      dup3\n        /* \"#utility.yul\":2332:2352   */\n      tag_21\n      jump\t// in\n    tag_55:\n        /* \"#utility.yul\":2327:2352   */\n      swap2\n      pop\n        /* \"#utility.yul\":2366:2386   */\n      tag_56\n        /* \"#utility.yul\":2384:2385   */\n      dup4\n        /* \"#utility.yul\":2366:2386   */\n      tag_21\n      jump\t// in\n    tag_56:\n        /* \"#utility.yul\":2361:2386   */\n      swap3\n      pop\n        /* \"#utility.yul\":2405:2406   */\n      dup3\n        /* \"#utility.yul\":2395:2430   */\n      tag_57\n      jumpi\n        /* \"#utility.yul\":2410:2428   */\n      tag_58\n      tag_26\n      jump\t// in\n    tag_58:\n        /* \"#utility.yul\":2395:2430   */\n    tag_57:\n        /* \"#utility.yul\":2452:2453   */\n      dup3\n        /* \"#utility.yul\":2449:2450   */\n      dup3\n        /* \"#utility.yul\":2445:2454   */\n      div\n        /* \"#utility.yul\":2440:2454   */\n      swap1\n      pop\n        /* \"#utility.yul\":2275:2460   */\n      swap3\n      swap2\n      pop\n      pop\n      jump\t// out\n        /* \"#utility.yul\":2466:2642   */\n    tag_17:\n        /* \"#utility.yul\":2498:2499   */\n      0x00\n        /* \"#utility.yul\":2515:2535   */\n      tag_60\n        /* \"#utility.yul\":2533:2534   */\n      dup3\n        /* \"#utility.yul\":2515:2535   */\n      tag_21\n      jump\t// in\n    tag_60:\n        /* \"#utility.yul\":2510:2535   */\n      swap2\n      pop\n        /* \"#utility.yul\":2549:2569   */\n      tag_61\n        /* \"#utility.yul\":2567:2568   */\n      dup4\n        /* \"#utility.yul\":2549:2569   */\n      tag_21\n      jump\t// in\n    tag_61:\n        /* \"#utility.yul\":2544:2569   */\n      swap3\n      pop\n        /* \"#utility.yul\":2588:2589   */\n      dup3\n        /* \"#utility.yul\":2578:2613   */\n      tag_62\n      jumpi\n        /* \"#utility.yul\":2593:2611   */\n      tag_63\n      tag_26\n      jump\t// in\n    tag_63:\n        /* \"#utility.yul\":2578:2613   */\n    tag_62:\n        /* \"#utility.yul\":2634:2635   */\n      dup3\n        /* \"#utility.yul\":2631:2632   */\n      dup3\n        /* \"#utility.yul\":2627:2636   */\n      mod\n        /* \"#utility.yul\":2622:2636   */\n      swap1\n      pop\n        /* \"#utility.yul\":2466:2642   */\n      swap3\n      swap2\n      pop\n      pop\n      jump\t// out\n\n    auxdata: 0xa26469706673582212206795345792c7b9fa0b9a87abec6400ea2ad6366352d613e9fbb9343217f90f1664736f6c63430008120033\n}\n",
				"bytecode": {
					"linkReferences": {},
					"object": "608060405234801561001057600080fd5b50610277806100206000396000f3fe608060405234801561001057600080fd5b506004361061002b5760003560e01c8063a17a9e6614610030575b600080fd5b61004a600480360381019061004591906100da565b610061565b604051610058929190610116565b60405180910390f35b600080600a600b84610073919061016e565b61007d91906101df565b600a600b8561008c919061016e565b6100969190610210565b91509150915091565b600080fd5b6000819050919050565b6100b7816100a4565b81146100c257600080fd5b50565b6000813590506100d4816100ae565b92915050565b6000602082840312156100f0576100ef61009f565b5b60006100fe848285016100c5565b91505092915050565b610110816100a4565b82525050565b600060408201905061012b6000830185610107565b6101386020830184610107565b9392505050565b7f4e487b7100000000000000000000000000000000000000000000000000000000600052601160045260246000fd5b6000610179826100a4565b9150610184836100a4565b9250828202610192816100a4565b915082820484148315176101a9576101a861013f565b5b5092915050565b7f4e487b7100000000000000000000000000000000000000000000000000000000600052601260045260246000fd5b60006101ea826100a4565b91506101f5836100a4565b925082610205576102046101b0565b5b828204905092915050565b600061021b826100a4565b9150610226836100a4565b925082610236576102356101b0565b5b82820690509291505056fea26469706673582212206795345792c7b9fa0b9a87abec6400ea2ad6366352d613e9fbb9343217f90f1664736f6c63430008120033",
					"opcodes": "PUSH1 0x80 PUSH1 0x40 MSTORE CALLVALUE DUP1 ISZERO PUSH2 0x10 JUMPI PUSH1 0x0 DUP1 REVERT JUMPDEST POP PUSH2 0x277 DUP1 PUSH2 0x20 PUSH1 0x0 CODECOPY PUSH1 0x0 RETURN INVALID PUSH1 0x80 PUSH1 0x40 MSTORE CALLVALUE DUP1 ISZERO PUSH2 0x10 JUMPI PUSH1 0x0 DUP1 REVERT JUMPDEST POP PUSH1 0x4 CALLDATASIZE LT PUSH2 0x2B JUMPI PUSH1 0x0 CALLDATALOAD PUSH1 0xE0 SHR DUP1 PUSH4 0xA17A9E66 EQ PUSH2 0x30 JUMPI JUMPDEST PUSH1 0x0 DUP1 REVERT JUMPDEST PUSH2 0x4A PUSH1 0x4 DUP1 CALLDATASIZE SUB DUP2 ADD SWAP1 PUSH2 0x45 SWAP2 SWAP1 PUSH2 0xDA JUMP JUMPDEST PUSH2 0x61 JUMP JUMPDEST PUSH1 0x40 MLOAD PUSH2 0x58 SWAP3 SWAP2 SWAP1 PUSH2 0x116 JUMP JUMPDEST PUSH1 0x40 MLOAD DUP1 SWAP2 SUB SWAP1 RETURN JUMPDEST PUSH1 0x0 DUP1 PUSH1 0xA PUSH1 0xB DUP5 PUSH2 0x73 SWAP2 SWAP1 PUSH2 0x16E JUMP JUMPDEST PUSH2 0x7D SWAP2 SWAP1 PUSH2 0x1DF JUMP JUMPDEST PUSH1 0xA PUSH1 0xB DUP6 PUSH2 0x8C SWAP2 SWAP1 PUSH2 0x16E JUMP JUMPDEST PUSH2 0x96 SWAP2 SWAP1 PUSH2 0x210 JUMP JUMPDEST SWAP2 POP SWAP2 POP SWAP2 POP SWAP2 JUMP JUMPDEST PUSH1 0x0 DUP1 REVERT JUMPDEST PUSH1 0x0 DUP2 SWAP1 POP SWAP2 SWAP1 POP JUMP JUMPDEST PUSH2 0xB7 DUP2 PUSH2 0xA4 JUMP JUMPDEST DUP2 EQ PUSH2 0xC2 JUMPI PUSH1 0x0 DUP1 REVERT JUMPDEST POP JUMP JUMPDEST PUSH1 0x0 DUP2 CALLDATALOAD SWAP1 POP PUSH2 0xD4 DUP2 PUSH2 0xAE JUMP JUMPDEST SWAP3 SWAP2 POP POP JUMP JUMPDEST PUSH1 0x0 PUSH1 0x20 DUP3 DUP5 SUB SLT ISZERO PUSH2 0xF0 JUMPI PUSH2 0xEF PUSH2 0x9F JUMP JUMPDEST JUMPDEST PUSH1 0x0 PUSH2 0xFE DUP5 DUP3 DUP6 ADD PUSH2 0xC5 JUMP JUMPDEST SWAP2 POP POP SWAP3 SWAP2 POP POP JUMP JUMPDEST PUSH2 0x110 DUP2 PUSH2 0xA4 JUMP JUMPDEST DUP3 MSTORE POP POP JUMP JUMPDEST PUSH1 0x0 PUSH1 0x40 DUP3 ADD SWAP1 POP PUSH2 0x12B PUSH1 0x0 DUP4 ADD DUP6 PUSH2 0x107 JUMP JUMPDEST PUSH2 0x138 PUSH1 0x20 DUP4 ADD DUP5 PUSH2 0x107 JUMP JUMPDEST SWAP4 SWAP3 POP POP POP JUMP JUMPDEST PUSH32 0x4E487B7100000000000000000000000000000000000000000000000000000000 PUSH1 0x0 MSTORE PUSH1 0x11 PUSH1 0x4 MSTORE PUSH1 0x24 PUSH1 0x0 REVERT JUMPDEST PUSH1 0x0 PUSH2 0x179 DUP3 PUSH2 0xA4 JUMP JUMPDEST SWAP2 POP PUSH2 0x184 DUP4 PUSH2 0xA4 JUMP JUMPDEST SWAP3 POP DUP3 DUP3 MUL PUSH2 0x192 DUP2 PUSH2 0xA4 JUMP JUMPDEST SWAP2 POP DUP3 DUP3 DIV DUP5 EQ DUP4 ISZERO OR PUSH2 0x1A9 JUMPI PUSH2 0x1A8 PUSH2 0x13F JUMP JUMPDEST JUMPDEST POP SWAP3 SWAP2 POP POP JUMP JUMPDEST PUSH32 0x4E487B7100000000000000000000000000000000000000000000000000000000 PUSH1 0x0 MSTORE PUSH1 0x12 PUSH1 0x4 MSTORE PUSH1 0x24 PUSH1 0x0 REVERT JUMPDEST PUSH1 0x0 PUSH2 0x1EA DUP3 PUSH2 0xA4 JUMP JUMPDEST SWAP2 POP PUSH2 0x1F5 DUP4 PUSH2 0xA4 JUMP JUMPDEST SWAP3 POP DUP3 PUSH2 0x205 JUMPI PUSH2 0x204 PUSH2 0x1B0 JUMP JUMPDEST JUMPDEST DUP3 DUP3 DIV SWAP1 POP SWAP3 SWAP2 POP POP JUMP JUMPDEST PUSH1 0x0 PUSH2 0x21B DUP3 PUSH2 0xA4 JUMP JUMPDEST SWAP2 POP PUSH2 0x226 DUP4 PUSH2 0xA4 JUMP JUMPDEST SWAP3 POP DUP3 PUSH2 0x236 JUMPI PUSH2 0x235 PUSH2 0x1B0 JUMP JUMPDEST JUMPDEST DUP3 DUP3 MOD SWAP1 POP SWAP3 SWAP2 POP POP JUMP INVALID LOG2 PUSH5 0x6970667358 0x22 SLT KECCAK256 PUSH8 0x95345792C7B9FA0B SWAP11 DUP8 0xAB 0xEC PUSH5 0xEA2AD636 PUSH4 0x52D613E9 0xFB 0xB9 CALLVALUE ORIGIN OR 0xF9 0xF AND PUSH5 0x736F6C6343 STOP ADDMOD SLT STOP CALLER "
				},
				"gasEstimates": {
					"creation": {
						"codeDepositCost": "126200",
						"executionCost": "171",
						"totalCost": "126371"
					},
					"external": {
						"A(uint256)": "infinite"
					}
				},
				"methodIdentifiers": {
					"A(uint256)": "a17a9e66"
				}
			},
			"storageLayout": {
				"storage": [],
				"types": null
			},
			"userdoc": {
				"kind": "user",
				"methods": {},
				"version": 1
			}
		}
	}
}