{
	"contract/solidity_51~60.sol": {
		"Q53": {
			"abi": [
				{
					"inputs": [
						{
							"internalType": "string",
							"name": "_bank",
							"type": "string"
						}
					],
					"name": "chk_bal",
					"outputs": [
						{
							"internalType": "uint256",
							"name": "",
							"type": "uint256"
						}
					],
					"stateMutability": "view",
					"type": "function"
				},
				{
					"inputs": [
						{
							"internalType": "string",
							"name": "_bank",
							"type": "string"
						}
					],
					"name": "deposit",
					"outputs": [],
					"stateMutability": "payable",
					"type": "function"
				},
				{
					"inputs": [
						{
							"internalType": "string",
							"name": "_bank",
							"type": "string"
						},
						{
							"internalType": "uint256",
							"name": "_amount",
							"type": "uint256"
						}
					],
					"name": "withdraw",
					"outputs": [],
					"stateMutability": "nonpayable",
					"type": "function"
				}
			],
			"devdoc": {
				"kind": "dev",
				"methods": {},
				"version": 1
			},
			"evm": {
				"assembly": "    /* \"contract/solidity_51~60.sol\":1569:2182  contract Q53{... */\n  mstore(0x40, 0x80)\n  callvalue\n  dup1\n  iszero\n  tag_1\n  jumpi\n  0x00\n  dup1\n  revert\ntag_1:\n  pop\n  dataSize(sub_0)\n  dup1\n  dataOffset(sub_0)\n  0x00\n  codecopy\n  0x00\n  return\nstop\n\nsub_0: assembly {\n        /* \"contract/solidity_51~60.sol\":1569:2182  contract Q53{... */\n      mstore(0x40, 0x80)\n      jumpi(tag_1, lt(calldatasize, 0x04))\n      shr(0xe0, calldataload(0x00))\n      dup1\n      0x30b39a62\n      eq\n      tag_2\n      jumpi\n      dup1\n      0x96705950\n      eq\n      tag_3\n      jumpi\n      dup1\n      0xa26e1186\n      eq\n      tag_4\n      jumpi\n    tag_1:\n      0x00\n      dup1\n      revert\n        /* \"contract/solidity_51~60.sol\":1926:2175  function withdraw( string calldata _bank , uint _amount ) public {... */\n    tag_2:\n      callvalue\n      dup1\n      iszero\n      tag_5\n      jumpi\n      0x00\n      dup1\n      revert\n    tag_5:\n      pop\n      tag_6\n      0x04\n      dup1\n      calldatasize\n      sub\n      dup2\n      add\n      swap1\n      tag_7\n      swap2\n      swap1\n      tag_8\n      jump\t// in\n    tag_7:\n      tag_9\n      jump\t// in\n    tag_6:\n      stop\n        /* \"contract/solidity_51~60.sol\":1655:1786  function chk_bal( string calldata _bank ) public view returns( uint ) {... */\n    tag_3:\n      callvalue\n      dup1\n      iszero\n      tag_10\n      jumpi\n      0x00\n      dup1\n      revert\n    tag_10:\n      pop\n      tag_11\n      0x04\n      dup1\n      calldatasize\n      sub\n      dup2\n      add\n      swap1\n      tag_12\n      swap2\n      swap1\n      tag_13\n      jump\t// in\n    tag_12:\n      tag_14\n      jump\t// in\n    tag_11:\n      mload(0x40)\n      tag_15\n      swap2\n      swap1\n      tag_16\n      jump\t// in\n    tag_15:\n      mload(0x40)\n      dup1\n      swap2\n      sub\n      swap1\n      return\n        /* \"contract/solidity_51~60.sol\":1794:1918  function deposit( string calldata _bank ) public payable {... */\n    tag_4:\n      tag_17\n      0x04\n      dup1\n      calldatasize\n      sub\n      dup2\n      add\n      swap1\n      tag_18\n      swap2\n      swap1\n      tag_13\n      jump\t// in\n    tag_18:\n      tag_19\n      jump\t// in\n    tag_17:\n      stop\n        /* \"contract/solidity_51~60.sol\":1926:2175  function withdraw( string calldata _bank , uint _amount ) public {... */\n    tag_9:\n        /* \"contract/solidity_51~60.sol\":2047:2054  _amount */\n      dup1\n        /* \"contract/solidity_51~60.sol\":2013:2020  balance */\n      0x00\n        /* \"contract/solidity_51~60.sol\":2022:2027  _bank */\n      dup5\n      dup5\n        /* \"contract/solidity_51~60.sol\":2013:2029  balance[ _bank ] */\n      mload(0x40)\n      tag_21\n      swap3\n      swap2\n      swap1\n      tag_22\n      jump\t// in\n    tag_21:\n      swap1\n      dup2\n      mstore\n      0x20\n      add\n      mload(0x40)\n      dup1\n      swap2\n      sub\n      swap1\n      keccak256\n        /* \"contract/solidity_51~60.sol\":2013:2043  balance[ _bank ][ msg.sender ] */\n      0x00\n        /* \"contract/solidity_51~60.sol\":2031:2041  msg.sender */\n      caller\n        /* \"contract/solidity_51~60.sol\":2013:2043  balance[ _bank ][ msg.sender ] */\n      0xffffffffffffffffffffffffffffffffffffffff\n      and\n      0xffffffffffffffffffffffffffffffffffffffff\n      and\n      dup2\n      mstore\n      0x20\n      add\n      swap1\n      dup2\n      mstore\n      0x20\n      add\n      0x00\n      keccak256\n      sload\n        /* \"contract/solidity_51~60.sol\":2013:2054  balance[ _bank ][ msg.sender ] >= _amount */\n      lt\n      iszero\n        /* \"contract/solidity_51~60.sol\":2004:2056  require( balance[ _bank ][ msg.sender ] >= _amount ) */\n      tag_23\n      jumpi\n      0x00\n      dup1\n      revert\n    tag_23:\n        /* \"contract/solidity_51~60.sol\":2079:2089  msg.sender */\n      caller\n        /* \"contract/solidity_51~60.sol\":2070:2100  payable( msg.sender ).transfer */\n      0xffffffffffffffffffffffffffffffffffffffff\n      and\n        /* \"contract/solidity_51~60.sol\":2070:2111  payable( msg.sender ).transfer( _amount ) */\n      0x08fc\n        /* \"contract/solidity_51~60.sol\":2102:2109  _amount */\n      dup3\n        /* \"contract/solidity_51~60.sol\":2070:2111  payable( msg.sender ).transfer( _amount ) */\n      swap1\n      dup2\n      iszero\n      mul\n      swap1\n      mload(0x40)\n      0x00\n      mload(0x40)\n      dup1\n      dup4\n      sub\n      dup2\n      dup6\n      dup9\n      dup9\n      call\n      swap4\n      pop\n      pop\n      pop\n      pop\n      iszero\n      dup1\n      iszero\n      tag_25\n      jumpi\n      returndatasize\n      0x00\n      dup1\n      returndatacopy\n      revert(0x00, returndatasize)\n    tag_25:\n      pop\n        /* \"contract/solidity_51~60.sol\":2157:2164  _amount */\n      dup1\n        /* \"contract/solidity_51~60.sol\":2123:2130  balance */\n      0x00\n        /* \"contract/solidity_51~60.sol\":2132:2137  _bank */\n      dup5\n      dup5\n        /* \"contract/solidity_51~60.sol\":2123:2139  balance[ _bank ] */\n      mload(0x40)\n      tag_26\n      swap3\n      swap2\n      swap1\n      tag_22\n      jump\t// in\n    tag_26:\n      swap1\n      dup2\n      mstore\n      0x20\n      add\n      mload(0x40)\n      dup1\n      swap2\n      sub\n      swap1\n      keccak256\n        /* \"contract/solidity_51~60.sol\":2123:2153  balance[ _bank ][ msg.sender ] */\n      0x00\n        /* \"contract/solidity_51~60.sol\":2141:2151  msg.sender */\n      caller\n        /* \"contract/solidity_51~60.sol\":2123:2153  balance[ _bank ][ msg.sender ] */\n      0xffffffffffffffffffffffffffffffffffffffff\n      and\n      0xffffffffffffffffffffffffffffffffffffffff\n      and\n      dup2\n      mstore\n      0x20\n      add\n      swap1\n      dup2\n      mstore\n      0x20\n      add\n      0x00\n      keccak256\n      0x00\n        /* \"contract/solidity_51~60.sol\":2123:2164  balance[ _bank ][ msg.sender ] -= _amount */\n      dup3\n      dup3\n      sload\n      tag_27\n      swap2\n      swap1\n      tag_28\n      jump\t// in\n    tag_27:\n      swap3\n      pop\n      pop\n      dup2\n      swap1\n      sstore\n      pop\n        /* \"contract/solidity_51~60.sol\":1926:2175  function withdraw( string calldata _bank , uint _amount ) public {... */\n      pop\n      pop\n      pop\n      jump\t// out\n        /* \"contract/solidity_51~60.sol\":1655:1786  function chk_bal( string calldata _bank ) public view returns( uint ) {... */\n    tag_14:\n        /* \"contract/solidity_51~60.sol\":1718:1722  uint */\n      0x00\n        /* \"contract/solidity_51~60.sol\":1745:1752  balance */\n      dup1\n        /* \"contract/solidity_51~60.sol\":1754:1759  _bank */\n      dup4\n      dup4\n        /* \"contract/solidity_51~60.sol\":1745:1761  balance[ _bank ] */\n      mload(0x40)\n      tag_30\n      swap3\n      swap2\n      swap1\n      tag_22\n      jump\t// in\n    tag_30:\n      swap1\n      dup2\n      mstore\n      0x20\n      add\n      mload(0x40)\n      dup1\n      swap2\n      sub\n      swap1\n      keccak256\n        /* \"contract/solidity_51~60.sol\":1745:1775  balance[ _bank ][ msg.sender ] */\n      0x00\n        /* \"contract/solidity_51~60.sol\":1763:1773  msg.sender */\n      caller\n        /* \"contract/solidity_51~60.sol\":1745:1775  balance[ _bank ][ msg.sender ] */\n      0xffffffffffffffffffffffffffffffffffffffff\n      and\n      0xffffffffffffffffffffffffffffffffffffffff\n      and\n      dup2\n      mstore\n      0x20\n      add\n      swap1\n      dup2\n      mstore\n      0x20\n      add\n      0x00\n      keccak256\n      sload\n        /* \"contract/solidity_51~60.sol\":1738:1775  return balance[ _bank ][ msg.sender ] */\n      swap1\n      pop\n        /* \"contract/solidity_51~60.sol\":1655:1786  function chk_bal( string calldata _bank ) public view returns( uint ) {... */\n      swap3\n      swap2\n      pop\n      pop\n      jump\t// out\n        /* \"contract/solidity_51~60.sol\":1794:1918  function deposit( string calldata _bank ) public payable {... */\n    tag_19:\n        /* \"contract/solidity_51~60.sol\":1898:1907  msg.value */\n      callvalue\n        /* \"contract/solidity_51~60.sol\":1864:1871  balance */\n      0x00\n        /* \"contract/solidity_51~60.sol\":1873:1878  _bank */\n      dup4\n      dup4\n        /* \"contract/solidity_51~60.sol\":1864:1880  balance[ _bank ] */\n      mload(0x40)\n      tag_32\n      swap3\n      swap2\n      swap1\n      tag_22\n      jump\t// in\n    tag_32:\n      swap1\n      dup2\n      mstore\n      0x20\n      add\n      mload(0x40)\n      dup1\n      swap2\n      sub\n      swap1\n      keccak256\n        /* \"contract/solidity_51~60.sol\":1864:1894  balance[ _bank ][ msg.sender ] */\n      0x00\n        /* \"contract/solidity_51~60.sol\":1882:1892  msg.sender */\n      caller\n        /* \"contract/solidity_51~60.sol\":1864:1894  balance[ _bank ][ msg.sender ] */\n      0xffffffffffffffffffffffffffffffffffffffff\n      and\n      0xffffffffffffffffffffffffffffffffffffffff\n      and\n      dup2\n      mstore\n      0x20\n      add\n      swap1\n      dup2\n      mstore\n      0x20\n      add\n      0x00\n      keccak256\n      0x00\n        /* \"contract/solidity_51~60.sol\":1864:1907  balance[ _bank ][ msg.sender ] += msg.value */\n      dup3\n      dup3\n      sload\n      tag_33\n      swap2\n      swap1\n      tag_34\n      jump\t// in\n    tag_33:\n      swap3\n      pop\n      pop\n      dup2\n      swap1\n      sstore\n      pop\n        /* \"contract/solidity_51~60.sol\":1794:1918  function deposit( string calldata _bank ) public payable {... */\n      pop\n      pop\n      jump\t// out\n        /* \"#utility.yul\":88:205   */\n    tag_36:\n        /* \"#utility.yul\":197:198   */\n      0x00\n        /* \"#utility.yul\":194:195   */\n      dup1\n        /* \"#utility.yul\":187:199   */\n      revert\n        /* \"#utility.yul\":211:328   */\n    tag_37:\n        /* \"#utility.yul\":320:321   */\n      0x00\n        /* \"#utility.yul\":317:318   */\n      dup1\n        /* \"#utility.yul\":310:322   */\n      revert\n        /* \"#utility.yul\":334:451   */\n    tag_38:\n        /* \"#utility.yul\":443:444   */\n      0x00\n        /* \"#utility.yul\":440:441   */\n      dup1\n        /* \"#utility.yul\":433:445   */\n      revert\n        /* \"#utility.yul\":457:574   */\n    tag_39:\n        /* \"#utility.yul\":566:567   */\n      0x00\n        /* \"#utility.yul\":563:564   */\n      dup1\n        /* \"#utility.yul\":556:568   */\n      revert\n        /* \"#utility.yul\":580:697   */\n    tag_40:\n        /* \"#utility.yul\":689:690   */\n      0x00\n        /* \"#utility.yul\":686:687   */\n      dup1\n        /* \"#utility.yul\":679:691   */\n      revert\n        /* \"#utility.yul\":717:1270   */\n    tag_41:\n        /* \"#utility.yul\":775:783   */\n      0x00\n        /* \"#utility.yul\":785:791   */\n      dup1\n        /* \"#utility.yul\":835:838   */\n      dup4\n        /* \"#utility.yul\":828:832   */\n      0x1f\n        /* \"#utility.yul\":820:826   */\n      dup5\n        /* \"#utility.yul\":816:833   */\n      add\n        /* \"#utility.yul\":812:839   */\n      slt\n        /* \"#utility.yul\":802:924   */\n      tag_58\n      jumpi\n        /* \"#utility.yul\":843:922   */\n      tag_59\n      tag_38\n      jump\t// in\n    tag_59:\n        /* \"#utility.yul\":802:924   */\n    tag_58:\n        /* \"#utility.yul\":956:962   */\n      dup3\n        /* \"#utility.yul\":943:963   */\n      calldataload\n        /* \"#utility.yul\":933:963   */\n      swap1\n      pop\n        /* \"#utility.yul\":986:1004   */\n      0xffffffffffffffff\n        /* \"#utility.yul\":978:984   */\n      dup2\n        /* \"#utility.yul\":975:1005   */\n      gt\n        /* \"#utility.yul\":972:1089   */\n      iszero\n      tag_60\n      jumpi\n        /* \"#utility.yul\":1008:1087   */\n      tag_61\n      tag_39\n      jump\t// in\n    tag_61:\n        /* \"#utility.yul\":972:1089   */\n    tag_60:\n        /* \"#utility.yul\":1122:1126   */\n      0x20\n        /* \"#utility.yul\":1114:1120   */\n      dup4\n        /* \"#utility.yul\":1110:1127   */\n      add\n        /* \"#utility.yul\":1098:1127   */\n      swap2\n      pop\n        /* \"#utility.yul\":1176:1179   */\n      dup4\n        /* \"#utility.yul\":1168:1172   */\n      0x01\n        /* \"#utility.yul\":1160:1166   */\n      dup3\n        /* \"#utility.yul\":1156:1173   */\n      mul\n        /* \"#utility.yul\":1146:1154   */\n      dup4\n        /* \"#utility.yul\":1142:1174   */\n      add\n        /* \"#utility.yul\":1139:1180   */\n      gt\n        /* \"#utility.yul\":1136:1264   */\n      iszero\n      tag_62\n      jumpi\n        /* \"#utility.yul\":1183:1262   */\n      tag_63\n      tag_40\n      jump\t// in\n    tag_63:\n        /* \"#utility.yul\":1136:1264   */\n    tag_62:\n        /* \"#utility.yul\":717:1270   */\n      swap3\n      pop\n      swap3\n      swap1\n      pop\n      jump\t// out\n        /* \"#utility.yul\":1276:1353   */\n    tag_42:\n        /* \"#utility.yul\":1313:1320   */\n      0x00\n        /* \"#utility.yul\":1342:1347   */\n      dup2\n        /* \"#utility.yul\":1331:1347   */\n      swap1\n      pop\n        /* \"#utility.yul\":1276:1353   */\n      swap2\n      swap1\n      pop\n      jump\t// out\n        /* \"#utility.yul\":1359:1481   */\n    tag_43:\n        /* \"#utility.yul\":1432:1456   */\n      tag_66\n        /* \"#utility.yul\":1450:1455   */\n      dup2\n        /* \"#utility.yul\":1432:1456   */\n      tag_42\n      jump\t// in\n    tag_66:\n        /* \"#utility.yul\":1425:1430   */\n      dup2\n        /* \"#utility.yul\":1422:1457   */\n      eq\n        /* \"#utility.yul\":1412:1475   */\n      tag_67\n      jumpi\n        /* \"#utility.yul\":1471:1472   */\n      0x00\n        /* \"#utility.yul\":1468:1469   */\n      dup1\n        /* \"#utility.yul\":1461:1473   */\n      revert\n        /* \"#utility.yul\":1412:1475   */\n    tag_67:\n        /* \"#utility.yul\":1359:1481   */\n      pop\n      jump\t// out\n        /* \"#utility.yul\":1487:1626   */\n    tag_44:\n        /* \"#utility.yul\":1533:1538   */\n      0x00\n        /* \"#utility.yul\":1571:1577   */\n      dup2\n        /* \"#utility.yul\":1558:1578   */\n      calldataload\n        /* \"#utility.yul\":1549:1578   */\n      swap1\n      pop\n        /* \"#utility.yul\":1587:1620   */\n      tag_69\n        /* \"#utility.yul\":1614:1619   */\n      dup2\n        /* \"#utility.yul\":1587:1620   */\n      tag_43\n      jump\t// in\n    tag_69:\n        /* \"#utility.yul\":1487:1626   */\n      swap3\n      swap2\n      pop\n      pop\n      jump\t// out\n        /* \"#utility.yul\":1632:2306   */\n    tag_8:\n        /* \"#utility.yul\":1712:1718   */\n      0x00\n        /* \"#utility.yul\":1720:1726   */\n      dup1\n        /* \"#utility.yul\":1728:1734   */\n      0x00\n        /* \"#utility.yul\":1777:1779   */\n      0x40\n        /* \"#utility.yul\":1765:1774   */\n      dup5\n        /* \"#utility.yul\":1756:1763   */\n      dup7\n        /* \"#utility.yul\":1752:1775   */\n      sub\n        /* \"#utility.yul\":1748:1780   */\n      slt\n        /* \"#utility.yul\":1745:1864   */\n      iszero\n      tag_71\n      jumpi\n        /* \"#utility.yul\":1783:1862   */\n      tag_72\n      tag_36\n      jump\t// in\n    tag_72:\n        /* \"#utility.yul\":1745:1864   */\n    tag_71:\n        /* \"#utility.yul\":1931:1932   */\n      0x00\n        /* \"#utility.yul\":1920:1929   */\n      dup5\n        /* \"#utility.yul\":1916:1933   */\n      add\n        /* \"#utility.yul\":1903:1934   */\n      calldataload\n        /* \"#utility.yul\":1961:1979   */\n      0xffffffffffffffff\n        /* \"#utility.yul\":1953:1959   */\n      dup2\n        /* \"#utility.yul\":1950:1980   */\n      gt\n        /* \"#utility.yul\":1947:2064   */\n      iszero\n      tag_73\n      jumpi\n        /* \"#utility.yul\":1983:2062   */\n      tag_74\n      tag_37\n      jump\t// in\n    tag_74:\n        /* \"#utility.yul\":1947:2064   */\n    tag_73:\n        /* \"#utility.yul\":2096:2161   */\n      tag_75\n        /* \"#utility.yul\":2153:2160   */\n      dup7\n        /* \"#utility.yul\":2144:2150   */\n      dup3\n        /* \"#utility.yul\":2133:2142   */\n      dup8\n        /* \"#utility.yul\":2129:2151   */\n      add\n        /* \"#utility.yul\":2096:2161   */\n      tag_41\n      jump\t// in\n    tag_75:\n        /* \"#utility.yul\":2078:2161   */\n      swap4\n      pop\n      swap4\n      pop\n        /* \"#utility.yul\":1874:2171   */\n      pop\n        /* \"#utility.yul\":2210:2212   */\n      0x20\n        /* \"#utility.yul\":2236:2289   */\n      tag_76\n        /* \"#utility.yul\":2281:2288   */\n      dup7\n        /* \"#utility.yul\":2272:2278   */\n      dup3\n        /* \"#utility.yul\":2261:2270   */\n      dup8\n        /* \"#utility.yul\":2257:2279   */\n      add\n        /* \"#utility.yul\":2236:2289   */\n      tag_44\n      jump\t// in\n    tag_76:\n        /* \"#utility.yul\":2226:2289   */\n      swap2\n      pop\n        /* \"#utility.yul\":2181:2299   */\n      pop\n        /* \"#utility.yul\":1632:2306   */\n      swap3\n      pop\n      swap3\n      pop\n      swap3\n      jump\t// out\n        /* \"#utility.yul\":2312:2841   */\n    tag_13:\n        /* \"#utility.yul\":2383:2389   */\n      0x00\n        /* \"#utility.yul\":2391:2397   */\n      dup1\n        /* \"#utility.yul\":2440:2442   */\n      0x20\n        /* \"#utility.yul\":2428:2437   */\n      dup4\n        /* \"#utility.yul\":2419:2426   */\n      dup6\n        /* \"#utility.yul\":2415:2438   */\n      sub\n        /* \"#utility.yul\":2411:2443   */\n      slt\n        /* \"#utility.yul\":2408:2527   */\n      iszero\n      tag_78\n      jumpi\n        /* \"#utility.yul\":2446:2525   */\n      tag_79\n      tag_36\n      jump\t// in\n    tag_79:\n        /* \"#utility.yul\":2408:2527   */\n    tag_78:\n        /* \"#utility.yul\":2594:2595   */\n      0x00\n        /* \"#utility.yul\":2583:2592   */\n      dup4\n        /* \"#utility.yul\":2579:2596   */\n      add\n        /* \"#utility.yul\":2566:2597   */\n      calldataload\n        /* \"#utility.yul\":2624:2642   */\n      0xffffffffffffffff\n        /* \"#utility.yul\":2616:2622   */\n      dup2\n        /* \"#utility.yul\":2613:2643   */\n      gt\n        /* \"#utility.yul\":2610:2727   */\n      iszero\n      tag_80\n      jumpi\n        /* \"#utility.yul\":2646:2725   */\n      tag_81\n      tag_37\n      jump\t// in\n    tag_81:\n        /* \"#utility.yul\":2610:2727   */\n    tag_80:\n        /* \"#utility.yul\":2759:2824   */\n      tag_82\n        /* \"#utility.yul\":2816:2823   */\n      dup6\n        /* \"#utility.yul\":2807:2813   */\n      dup3\n        /* \"#utility.yul\":2796:2805   */\n      dup7\n        /* \"#utility.yul\":2792:2814   */\n      add\n        /* \"#utility.yul\":2759:2824   */\n      tag_41\n      jump\t// in\n    tag_82:\n        /* \"#utility.yul\":2741:2824   */\n      swap3\n      pop\n      swap3\n      pop\n        /* \"#utility.yul\":2537:2834   */\n      pop\n        /* \"#utility.yul\":2312:2841   */\n      swap3\n      pop\n      swap3\n      swap1\n      pop\n      jump\t// out\n        /* \"#utility.yul\":2847:2965   */\n    tag_45:\n        /* \"#utility.yul\":2934:2958   */\n      tag_84\n        /* \"#utility.yul\":2952:2957   */\n      dup2\n        /* \"#utility.yul\":2934:2958   */\n      tag_42\n      jump\t// in\n    tag_84:\n        /* \"#utility.yul\":2929:2932   */\n      dup3\n        /* \"#utility.yul\":2922:2959   */\n      mstore\n        /* \"#utility.yul\":2847:2965   */\n      pop\n      pop\n      jump\t// out\n        /* \"#utility.yul\":2971:3193   */\n    tag_16:\n        /* \"#utility.yul\":3064:3068   */\n      0x00\n        /* \"#utility.yul\":3102:3104   */\n      0x20\n        /* \"#utility.yul\":3091:3100   */\n      dup3\n        /* \"#utility.yul\":3087:3105   */\n      add\n        /* \"#utility.yul\":3079:3105   */\n      swap1\n      pop\n        /* \"#utility.yul\":3115:3186   */\n      tag_86\n        /* \"#utility.yul\":3183:3184   */\n      0x00\n        /* \"#utility.yul\":3172:3181   */\n      dup4\n        /* \"#utility.yul\":3168:3185   */\n      add\n        /* \"#utility.yul\":3159:3165   */\n      dup5\n        /* \"#utility.yul\":3115:3186   */\n      tag_45\n      jump\t// in\n    tag_86:\n        /* \"#utility.yul\":2971:3193   */\n      swap3\n      swap2\n      pop\n      pop\n      jump\t// out\n        /* \"#utility.yul\":3199:3347   */\n    tag_46:\n        /* \"#utility.yul\":3301:3312   */\n      0x00\n        /* \"#utility.yul\":3338:3341   */\n      dup2\n        /* \"#utility.yul\":3323:3341   */\n      swap1\n      pop\n        /* \"#utility.yul\":3199:3347   */\n      swap3\n      swap2\n      pop\n      pop\n      jump\t// out\n        /* \"#utility.yul\":3353:3499   */\n    tag_47:\n        /* \"#utility.yul\":3450:3456   */\n      dup3\n        /* \"#utility.yul\":3445:3448   */\n      dup2\n        /* \"#utility.yul\":3440:3443   */\n      dup4\n        /* \"#utility.yul\":3427:3457   */\n      calldatacopy\n        /* \"#utility.yul\":3491:3492   */\n      0x00\n        /* \"#utility.yul\":3482:3488   */\n      dup4\n        /* \"#utility.yul\":3477:3480   */\n      dup4\n        /* \"#utility.yul\":3473:3489   */\n      add\n        /* \"#utility.yul\":3466:3493   */\n      mstore\n        /* \"#utility.yul\":3353:3499   */\n      pop\n      pop\n      pop\n      jump\t// out\n        /* \"#utility.yul\":3529:3859   */\n    tag_48:\n        /* \"#utility.yul\":3645:3648   */\n      0x00\n        /* \"#utility.yul\":3666:3755   */\n      tag_90\n        /* \"#utility.yul\":3748:3754   */\n      dup4\n        /* \"#utility.yul\":3743:3746   */\n      dup6\n        /* \"#utility.yul\":3666:3755   */\n      tag_46\n      jump\t// in\n    tag_90:\n        /* \"#utility.yul\":3659:3755   */\n      swap4\n      pop\n        /* \"#utility.yul\":3765:3821   */\n      tag_91\n        /* \"#utility.yul\":3814:3820   */\n      dup4\n        /* \"#utility.yul\":3809:3812   */\n      dup6\n        /* \"#utility.yul\":3802:3807   */\n      dup5\n        /* \"#utility.yul\":3765:3821   */\n      tag_47\n      jump\t// in\n    tag_91:\n        /* \"#utility.yul\":3846:3852   */\n      dup3\n        /* \"#utility.yul\":3841:3844   */\n      dup5\n        /* \"#utility.yul\":3837:3853   */\n      add\n        /* \"#utility.yul\":3830:3853   */\n      swap1\n      pop\n        /* \"#utility.yul\":3529:3859   */\n      swap4\n      swap3\n      pop\n      pop\n      pop\n      jump\t// out\n        /* \"#utility.yul\":3865:4160   */\n    tag_22:\n        /* \"#utility.yul\":4007:4010   */\n      0x00\n        /* \"#utility.yul\":4029:4134   */\n      tag_93\n        /* \"#utility.yul\":4130:4133   */\n      dup3\n        /* \"#utility.yul\":4121:4127   */\n      dup5\n        /* \"#utility.yul\":4113:4119   */\n      dup7\n        /* \"#utility.yul\":4029:4134   */\n      tag_48\n      jump\t// in\n    tag_93:\n        /* \"#utility.yul\":4022:4134   */\n      swap2\n      pop\n        /* \"#utility.yul\":4151:4154   */\n      dup2\n        /* \"#utility.yul\":4144:4154   */\n      swap1\n      pop\n        /* \"#utility.yul\":3865:4160   */\n      swap4\n      swap3\n      pop\n      pop\n      pop\n      jump\t// out\n        /* \"#utility.yul\":4166:4346   */\n    tag_49:\n        /* \"#utility.yul\":4214:4291   */\n      0x4e487b7100000000000000000000000000000000000000000000000000000000\n        /* \"#utility.yul\":4211:4212   */\n      0x00\n        /* \"#utility.yul\":4204:4292   */\n      mstore\n        /* \"#utility.yul\":4311:4315   */\n      0x11\n        /* \"#utility.yul\":4308:4309   */\n      0x04\n        /* \"#utility.yul\":4301:4316   */\n      mstore\n        /* \"#utility.yul\":4335:4339   */\n      0x24\n        /* \"#utility.yul\":4332:4333   */\n      0x00\n        /* \"#utility.yul\":4325:4340   */\n      revert\n        /* \"#utility.yul\":4352:4546   */\n    tag_28:\n        /* \"#utility.yul\":4392:4396   */\n      0x00\n        /* \"#utility.yul\":4412:4432   */\n      tag_96\n        /* \"#utility.yul\":4430:4431   */\n      dup3\n        /* \"#utility.yul\":4412:4432   */\n      tag_42\n      jump\t// in\n    tag_96:\n        /* \"#utility.yul\":4407:4432   */\n      swap2\n      pop\n        /* \"#utility.yul\":4446:4466   */\n      tag_97\n        /* \"#utility.yul\":4464:4465   */\n      dup4\n        /* \"#utility.yul\":4446:4466   */\n      tag_42\n      jump\t// in\n    tag_97:\n        /* \"#utility.yul\":4441:4466   */\n      swap3\n      pop\n        /* \"#utility.yul\":4490:4491   */\n      dup3\n        /* \"#utility.yul\":4487:4488   */\n      dup3\n        /* \"#utility.yul\":4483:4492   */\n      sub\n        /* \"#utility.yul\":4475:4492   */\n      swap1\n      pop\n        /* \"#utility.yul\":4514:4515   */\n      dup2\n        /* \"#utility.yul\":4508:4512   */\n      dup2\n        /* \"#utility.yul\":4505:4516   */\n      gt\n        /* \"#utility.yul\":4502:4539   */\n      iszero\n      tag_98\n      jumpi\n        /* \"#utility.yul\":4519:4537   */\n      tag_99\n      tag_49\n      jump\t// in\n    tag_99:\n        /* \"#utility.yul\":4502:4539   */\n    tag_98:\n        /* \"#utility.yul\":4352:4546   */\n      swap3\n      swap2\n      pop\n      pop\n      jump\t// out\n        /* \"#utility.yul\":4552:4743   */\n    tag_34:\n        /* \"#utility.yul\":4592:4595   */\n      0x00\n        /* \"#utility.yul\":4611:4631   */\n      tag_101\n        /* \"#utility.yul\":4629:4630   */\n      dup3\n        /* \"#utility.yul\":4611:4631   */\n      tag_42\n      jump\t// in\n    tag_101:\n        /* \"#utility.yul\":4606:4631   */\n      swap2\n      pop\n        /* \"#utility.yul\":4645:4665   */\n      tag_102\n        /* \"#utility.yul\":4663:4664   */\n      dup4\n        /* \"#utility.yul\":4645:4665   */\n      tag_42\n      jump\t// in\n    tag_102:\n        /* \"#utility.yul\":4640:4665   */\n      swap3\n      pop\n        /* \"#utility.yul\":4688:4689   */\n      dup3\n        /* \"#utility.yul\":4685:4686   */\n      dup3\n        /* \"#utility.yul\":4681:4690   */\n      add\n        /* \"#utility.yul\":4674:4690   */\n      swap1\n      pop\n        /* \"#utility.yul\":4709:4712   */\n      dup1\n        /* \"#utility.yul\":4706:4707   */\n      dup3\n        /* \"#utility.yul\":4703:4713   */\n      gt\n        /* \"#utility.yul\":4700:4736   */\n      iszero\n      tag_103\n      jumpi\n        /* \"#utility.yul\":4716:4734   */\n      tag_104\n      tag_49\n      jump\t// in\n    tag_104:\n        /* \"#utility.yul\":4700:4736   */\n    tag_103:\n        /* \"#utility.yul\":4552:4743   */\n      swap3\n      swap2\n      pop\n      pop\n      jump\t// out\n\n    auxdata: 0xa26469706673582212208e5f5e7fd54d962b78a4a0311b7567f8eb8e3818944ca45784545977dee90d1b64736f6c63430008120033\n}\n",
				"bytecode": {
					"linkReferences": {},
					"object": "608060405234801561001057600080fd5b50610565806100206000396000f3fe6080604052600436106100345760003560e01c806330b39a62146100395780639670595014610062578063a26e11861461009f575b600080fd5b34801561004557600080fd5b50610060600480360381019061005b9190610369565b6100bb565b005b34801561006e57600080fd5b50610089600480360381019061008491906103c9565b6101e5565b6040516100969190610425565b60405180910390f35b6100b960048036038101906100b491906103c9565b61024c565b005b80600084846040516100ce92919061047f565b908152602001604051809103902060003373ffffffffffffffffffffffffffffffffffffffff1673ffffffffffffffffffffffffffffffffffffffff16815260200190815260200160002054101561012557600080fd5b3373ffffffffffffffffffffffffffffffffffffffff166108fc829081150290604051600060405180830381858888f1935050505015801561016b573d6000803e3d6000fd5b50806000848460405161017f92919061047f565b908152602001604051809103902060003373ffffffffffffffffffffffffffffffffffffffff1673ffffffffffffffffffffffffffffffffffffffff16815260200190815260200160002060008282546101d991906104c7565b92505081905550505050565b60008083836040516101f892919061047f565b908152602001604051809103902060003373ffffffffffffffffffffffffffffffffffffffff1673ffffffffffffffffffffffffffffffffffffffff16815260200190815260200160002054905092915050565b346000838360405161025f92919061047f565b908152602001604051809103902060003373ffffffffffffffffffffffffffffffffffffffff1673ffffffffffffffffffffffffffffffffffffffff16815260200190815260200160002060008282546102b991906104fb565b925050819055505050565b600080fd5b600080fd5b600080fd5b600080fd5b600080fd5b60008083601f8401126102f3576102f26102ce565b5b8235905067ffffffffffffffff8111156103105761030f6102d3565b5b60208301915083600182028301111561032c5761032b6102d8565b5b9250929050565b6000819050919050565b61034681610333565b811461035157600080fd5b50565b6000813590506103638161033d565b92915050565b600080600060408486031215610382576103816102c4565b5b600084013567ffffffffffffffff8111156103a05761039f6102c9565b5b6103ac868287016102dd565b935093505060206103bf86828701610354565b9150509250925092565b600080602083850312156103e0576103df6102c4565b5b600083013567ffffffffffffffff8111156103fe576103fd6102c9565b5b61040a858286016102dd565b92509250509250929050565b61041f81610333565b82525050565b600060208201905061043a6000830184610416565b92915050565b600081905092915050565b82818337600083830152505050565b60006104668385610440565b935061047383858461044b565b82840190509392505050565b600061048c82848661045a565b91508190509392505050565b7f4e487b7100000000000000000000000000000000000000000000000000000000600052601160045260246000fd5b60006104d282610333565b91506104dd83610333565b92508282039050818111156104f5576104f4610498565b5b92915050565b600061050682610333565b915061051183610333565b925082820190508082111561052957610528610498565b5b9291505056fea26469706673582212208e5f5e7fd54d962b78a4a0311b7567f8eb8e3818944ca45784545977dee90d1b64736f6c63430008120033",
					"opcodes": "PUSH1 0x80 PUSH1 0x40 MSTORE CALLVALUE DUP1 ISZERO PUSH2 0x10 JUMPI PUSH1 0x0 DUP1 REVERT JUMPDEST POP PUSH2 0x565 DUP1 PUSH2 0x20 PUSH1 0x0 CODECOPY PUSH1 0x0 RETURN INVALID PUSH1 0x80 PUSH1 0x40 MSTORE PUSH1 0x4 CALLDATASIZE LT PUSH2 0x34 JUMPI PUSH1 0x0 CALLDATALOAD PUSH1 0xE0 SHR DUP1 PUSH4 0x30B39A62 EQ PUSH2 0x39 JUMPI DUP1 PUSH4 0x96705950 EQ PUSH2 0x62 JUMPI DUP1 PUSH4 0xA26E1186 EQ PUSH2 0x9F JUMPI JUMPDEST PUSH1 0x0 DUP1 REVERT JUMPDEST CALLVALUE DUP1 ISZERO PUSH2 0x45 JUMPI PUSH1 0x0 DUP1 REVERT JUMPDEST POP PUSH2 0x60 PUSH1 0x4 DUP1 CALLDATASIZE SUB DUP2 ADD SWAP1 PUSH2 0x5B SWAP2 SWAP1 PUSH2 0x369 JUMP JUMPDEST PUSH2 0xBB JUMP JUMPDEST STOP JUMPDEST CALLVALUE DUP1 ISZERO PUSH2 0x6E JUMPI PUSH1 0x0 DUP1 REVERT JUMPDEST POP PUSH2 0x89 PUSH1 0x4 DUP1 CALLDATASIZE SUB DUP2 ADD SWAP1 PUSH2 0x84 SWAP2 SWAP1 PUSH2 0x3C9 JUMP JUMPDEST PUSH2 0x1E5 JUMP JUMPDEST PUSH1 0x40 MLOAD PUSH2 0x96 SWAP2 SWAP1 PUSH2 0x425 JUMP JUMPDEST PUSH1 0x40 MLOAD DUP1 SWAP2 SUB SWAP1 RETURN JUMPDEST PUSH2 0xB9 PUSH1 0x4 DUP1 CALLDATASIZE SUB DUP2 ADD SWAP1 PUSH2 0xB4 SWAP2 SWAP1 PUSH2 0x3C9 JUMP JUMPDEST PUSH2 0x24C JUMP JUMPDEST STOP JUMPDEST DUP1 PUSH1 0x0 DUP5 DUP5 PUSH1 0x40 MLOAD PUSH2 0xCE SWAP3 SWAP2 SWAP1 PUSH2 0x47F JUMP JUMPDEST SWAP1 DUP2 MSTORE PUSH1 0x20 ADD PUSH1 0x40 MLOAD DUP1 SWAP2 SUB SWAP1 KECCAK256 PUSH1 0x0 CALLER PUSH20 0xFFFFFFFFFFFFFFFFFFFFFFFFFFFFFFFFFFFFFFFF AND PUSH20 0xFFFFFFFFFFFFFFFFFFFFFFFFFFFFFFFFFFFFFFFF AND DUP2 MSTORE PUSH1 0x20 ADD SWAP1 DUP2 MSTORE PUSH1 0x20 ADD PUSH1 0x0 KECCAK256 SLOAD LT ISZERO PUSH2 0x125 JUMPI PUSH1 0x0 DUP1 REVERT JUMPDEST CALLER PUSH20 0xFFFFFFFFFFFFFFFFFFFFFFFFFFFFFFFFFFFFFFFF AND PUSH2 0x8FC DUP3 SWAP1 DUP2 ISZERO MUL SWAP1 PUSH1 0x40 MLOAD PUSH1 0x0 PUSH1 0x40 MLOAD DUP1 DUP4 SUB DUP2 DUP6 DUP9 DUP9 CALL SWAP4 POP POP POP POP ISZERO DUP1 ISZERO PUSH2 0x16B JUMPI RETURNDATASIZE PUSH1 0x0 DUP1 RETURNDATACOPY RETURNDATASIZE PUSH1 0x0 REVERT JUMPDEST POP DUP1 PUSH1 0x0 DUP5 DUP5 PUSH1 0x40 MLOAD PUSH2 0x17F SWAP3 SWAP2 SWAP1 PUSH2 0x47F JUMP JUMPDEST SWAP1 DUP2 MSTORE PUSH1 0x20 ADD PUSH1 0x40 MLOAD DUP1 SWAP2 SUB SWAP1 KECCAK256 PUSH1 0x0 CALLER PUSH20 0xFFFFFFFFFFFFFFFFFFFFFFFFFFFFFFFFFFFFFFFF AND PUSH20 0xFFFFFFFFFFFFFFFFFFFFFFFFFFFFFFFFFFFFFFFF AND DUP2 MSTORE PUSH1 0x20 ADD SWAP1 DUP2 MSTORE PUSH1 0x20 ADD PUSH1 0x0 KECCAK256 PUSH1 0x0 DUP3 DUP3 SLOAD PUSH2 0x1D9 SWAP2 SWAP1 PUSH2 0x4C7 JUMP JUMPDEST SWAP3 POP POP DUP2 SWAP1 SSTORE POP POP POP POP JUMP JUMPDEST PUSH1 0x0 DUP1 DUP4 DUP4 PUSH1 0x40 MLOAD PUSH2 0x1F8 SWAP3 SWAP2 SWAP1 PUSH2 0x47F JUMP JUMPDEST SWAP1 DUP2 MSTORE PUSH1 0x20 ADD PUSH1 0x40 MLOAD DUP1 SWAP2 SUB SWAP1 KECCAK256 PUSH1 0x0 CALLER PUSH20 0xFFFFFFFFFFFFFFFFFFFFFFFFFFFFFFFFFFFFFFFF AND PUSH20 0xFFFFFFFFFFFFFFFFFFFFFFFFFFFFFFFFFFFFFFFF AND DUP2 MSTORE PUSH1 0x20 ADD SWAP1 DUP2 MSTORE PUSH1 0x20 ADD PUSH1 0x0 KECCAK256 SLOAD SWAP1 POP SWAP3 SWAP2 POP POP JUMP JUMPDEST CALLVALUE PUSH1 0x0 DUP4 DUP4 PUSH1 0x40 MLOAD PUSH2 0x25F SWAP3 SWAP2 SWAP1 PUSH2 0x47F JUMP JUMPDEST SWAP1 DUP2 MSTORE PUSH1 0x20 ADD PUSH1 0x40 MLOAD DUP1 SWAP2 SUB SWAP1 KECCAK256 PUSH1 0x0 CALLER PUSH20 0xFFFFFFFFFFFFFFFFFFFFFFFFFFFFFFFFFFFFFFFF AND PUSH20 0xFFFFFFFFFFFFFFFFFFFFFFFFFFFFFFFFFFFFFFFF AND DUP2 MSTORE PUSH1 0x20 ADD SWAP1 DUP2 MSTORE PUSH1 0x20 ADD PUSH1 0x0 KECCAK256 PUSH1 0x0 DUP3 DUP3 SLOAD PUSH2 0x2B9 SWAP2 SWAP1 PUSH2 0x4FB JUMP JUMPDEST SWAP3 POP POP DUP2 SWAP1 SSTORE POP POP POP JUMP JUMPDEST PUSH1 0x0 DUP1 REVERT JUMPDEST PUSH1 0x0 DUP1 REVERT JUMPDEST PUSH1 0x0 DUP1 REVERT JUMPDEST PUSH1 0x0 DUP1 REVERT JUMPDEST PUSH1 0x0 DUP1 REVERT JUMPDEST PUSH1 0x0 DUP1 DUP4 PUSH1 0x1F DUP5 ADD SLT PUSH2 0x2F3 JUMPI PUSH2 0x2F2 PUSH2 0x2CE JUMP JUMPDEST JUMPDEST DUP3 CALLDATALOAD SWAP1 POP PUSH8 0xFFFFFFFFFFFFFFFF DUP2 GT ISZERO PUSH2 0x310 JUMPI PUSH2 0x30F PUSH2 0x2D3 JUMP JUMPDEST JUMPDEST PUSH1 0x20 DUP4 ADD SWAP2 POP DUP4 PUSH1 0x1 DUP3 MUL DUP4 ADD GT ISZERO PUSH2 0x32C JUMPI PUSH2 0x32B PUSH2 0x2D8 JUMP JUMPDEST JUMPDEST SWAP3 POP SWAP3 SWAP1 POP JUMP JUMPDEST PUSH1 0x0 DUP2 SWAP1 POP SWAP2 SWAP1 POP JUMP JUMPDEST PUSH2 0x346 DUP2 PUSH2 0x333 JUMP JUMPDEST DUP2 EQ PUSH2 0x351 JUMPI PUSH1 0x0 DUP1 REVERT JUMPDEST POP JUMP JUMPDEST PUSH1 0x0 DUP2 CALLDATALOAD SWAP1 POP PUSH2 0x363 DUP2 PUSH2 0x33D JUMP JUMPDEST SWAP3 SWAP2 POP POP JUMP JUMPDEST PUSH1 0x0 DUP1 PUSH1 0x0 PUSH1 0x40 DUP5 DUP7 SUB SLT ISZERO PUSH2 0x382 JUMPI PUSH2 0x381 PUSH2 0x2C4 JUMP JUMPDEST JUMPDEST PUSH1 0x0 DUP5 ADD CALLDATALOAD PUSH8 0xFFFFFFFFFFFFFFFF DUP2 GT ISZERO PUSH2 0x3A0 JUMPI PUSH2 0x39F PUSH2 0x2C9 JUMP JUMPDEST JUMPDEST PUSH2 0x3AC DUP7 DUP3 DUP8 ADD PUSH2 0x2DD JUMP JUMPDEST SWAP4 POP SWAP4 POP POP PUSH1 0x20 PUSH2 0x3BF DUP7 DUP3 DUP8 ADD PUSH2 0x354 JUMP JUMPDEST SWAP2 POP POP SWAP3 POP SWAP3 POP SWAP3 JUMP JUMPDEST PUSH1 0x0 DUP1 PUSH1 0x20 DUP4 DUP6 SUB SLT ISZERO PUSH2 0x3E0 JUMPI PUSH2 0x3DF PUSH2 0x2C4 JUMP JUMPDEST JUMPDEST PUSH1 0x0 DUP4 ADD CALLDATALOAD PUSH8 0xFFFFFFFFFFFFFFFF DUP2 GT ISZERO PUSH2 0x3FE JUMPI PUSH2 0x3FD PUSH2 0x2C9 JUMP JUMPDEST JUMPDEST PUSH2 0x40A DUP6 DUP3 DUP7 ADD PUSH2 0x2DD JUMP JUMPDEST SWAP3 POP SWAP3 POP POP SWAP3 POP SWAP3 SWAP1 POP JUMP JUMPDEST PUSH2 0x41F DUP2 PUSH2 0x333 JUMP JUMPDEST DUP3 MSTORE POP POP JUMP JUMPDEST PUSH1 0x0 PUSH1 0x20 DUP3 ADD SWAP1 POP PUSH2 0x43A PUSH1 0x0 DUP4 ADD DUP5 PUSH2 0x416 JUMP JUMPDEST SWAP3 SWAP2 POP POP JUMP JUMPDEST PUSH1 0x0 DUP2 SWAP1 POP SWAP3 SWAP2 POP POP JUMP JUMPDEST DUP3 DUP2 DUP4 CALLDATACOPY PUSH1 0x0 DUP4 DUP4 ADD MSTORE POP POP POP JUMP JUMPDEST PUSH1 0x0 PUSH2 0x466 DUP4 DUP6 PUSH2 0x440 JUMP JUMPDEST SWAP4 POP PUSH2 0x473 DUP4 DUP6 DUP5 PUSH2 0x44B JUMP JUMPDEST DUP3 DUP5 ADD SWAP1 POP SWAP4 SWAP3 POP POP POP JUMP JUMPDEST PUSH1 0x0 PUSH2 0x48C DUP3 DUP5 DUP7 PUSH2 0x45A JUMP JUMPDEST SWAP2 POP DUP2 SWAP1 POP SWAP4 SWAP3 POP POP POP JUMP JUMPDEST PUSH32 0x4E487B7100000000000000000000000000000000000000000000000000000000 PUSH1 0x0 MSTORE PUSH1 0x11 PUSH1 0x4 MSTORE PUSH1 0x24 PUSH1 0x0 REVERT JUMPDEST PUSH1 0x0 PUSH2 0x4D2 DUP3 PUSH2 0x333 JUMP JUMPDEST SWAP2 POP PUSH2 0x4DD DUP4 PUSH2 0x333 JUMP JUMPDEST SWAP3 POP DUP3 DUP3 SUB SWAP1 POP DUP2 DUP2 GT ISZERO PUSH2 0x4F5 JUMPI PUSH2 0x4F4 PUSH2 0x498 JUMP JUMPDEST JUMPDEST SWAP3 SWAP2 POP POP JUMP JUMPDEST PUSH1 0x0 PUSH2 0x506 DUP3 PUSH2 0x333 JUMP JUMPDEST SWAP2 POP PUSH2 0x511 DUP4 PUSH2 0x333 JUMP JUMPDEST SWAP3 POP DUP3 DUP3 ADD SWAP1 POP DUP1 DUP3 GT ISZERO PUSH2 0x529 JUMPI PUSH2 0x528 PUSH2 0x498 JUMP JUMPDEST JUMPDEST SWAP3 SWAP2 POP POP JUMP INVALID LOG2 PUSH5 0x6970667358 0x22 SLT KECCAK256 DUP15 0x5F 0x5E PUSH32 0xD54D962B78A4A0311B7567F8EB8E3818944CA45784545977DEE90D1B64736F6C PUSH4 0x43000812 STOP CALLER "
				},
				"gasEstimates": {
					"creation": {
						"codeDepositCost": "276200",
						"executionCost": "318",
						"totalCost": "276518"
					},
					"external": {
						"chk_bal(string)": "infinite",
						"deposit(string)": "infinite",
						"withdraw(string,uint256)": "infinite"
					}
				},
				"methodIdentifiers": {
					"chk_bal(string)": "96705950",
					"deposit(string)": "a26e1186",
					"withdraw(string,uint256)": "30b39a62"
				}
			},
			"storageLayout": {
				"storage": [
					{
						"astId": 144,
						"contract": "contract/solidity_51~60.sol:Q53",
						"label": "balance",
						"offset": 0,
						"slot": "0",
						"type": "t_mapping(t_string_memory_ptr,t_mapping(t_address,t_uint256))"
					}
				],
				"types": {
					"t_address": {
						"encoding": "inplace",
						"label": "address",
						"numberOfBytes": "20"
					},
					"t_mapping(t_address,t_uint256)": {
						"encoding": "mapping",
						"key": "t_address",
						"label": "mapping(address => uint256)",
						"numberOfBytes": "32",
						"value": "t_uint256"
					},
					"t_mapping(t_string_memory_ptr,t_mapping(t_address,t_uint256))": {
						"encoding": "mapping",
						"key": "t_string_memory_ptr",
						"label": "mapping(string => mapping(address => uint256))",
						"numberOfBytes": "32",
						"value": "t_mapping(t_address,t_uint256)"
					},
					"t_string_memory_ptr": {
						"encoding": "bytes",
						"label": "string",
						"numberOfBytes": "32"
					},
					"t_uint256": {
						"encoding": "inplace",
						"label": "uint256",
						"numberOfBytes": "32"
					}
				}
			},
			"userdoc": {
				"kind": "user",
				"methods": {},
				"version": 1
			}
		}
	}
}