{
	"contract/solidity_1~10.sol": {
		"Q7": {
			"abi": [
				{
					"inputs": [],
					"name": "setzerotofive",
					"outputs": [
						{
							"internalType": "uint256",
							"name": "",
							"type": "uint256"
						}
					],
					"stateMutability": "nonpayable",
					"type": "function"
				}
			],
			"devdoc": {
				"kind": "dev",
				"methods": {},
				"version": 1
			},
			"evm": {
				"assembly": "    /* \"contract/solidity_1~10.sol\":3274:3559  contract Q7 {... */\n  mstore(0x40, 0x80)\n  callvalue\n  dup1\n  iszero\n  tag_1\n  jumpi\n  0x00\n  dup1\n  revert\ntag_1:\n  pop\n  dataSize(sub_0)\n  dup1\n  dataOffset(sub_0)\n  0x00\n  codecopy\n  0x00\n  return\nstop\n\nsub_0: assembly {\n        /* \"contract/solidity_1~10.sol\":3274:3559  contract Q7 {... */\n      mstore(0x40, 0x80)\n      callvalue\n      dup1\n      iszero\n      tag_1\n      jumpi\n      0x00\n      dup1\n      revert\n    tag_1:\n      pop\n      jumpi(tag_2, lt(calldatasize, 0x04))\n      shr(0xe0, calldataload(0x00))\n      dup1\n      0x9ad2d174\n      eq\n      tag_3\n      jumpi\n    tag_2:\n      0x00\n      dup1\n      revert\n        /* \"contract/solidity_1~10.sol\":3319:3554  function setzerotofive() public returns( uint ){... */\n    tag_3:\n      tag_4\n      tag_5\n      jump\t// in\n    tag_4:\n      mload(0x40)\n      tag_6\n      swap2\n      swap1\n      tag_7\n      jump\t// in\n    tag_6:\n      mload(0x40)\n      dup1\n      swap2\n      sub\n      swap1\n      return\n    tag_5:\n        /* \"contract/solidity_1~10.sol\":3360:3364  uint */\n      0x00\n        /* \"contract/solidity_1~10.sol\":3379:3392  uint rt_value */\n      dup1\n        /* \"contract/solidity_1~10.sol\":3395:3396  0 */\n      0x00\n        /* \"contract/solidity_1~10.sol\":3379:3396  uint rt_value = 0 */\n      swap1\n      pop\n        /* \"contract/solidity_1~10.sol\":3413:3419  uint i */\n      0x00\n        /* \"contract/solidity_1~10.sol\":3408:3516  for( uint i = 0 ; i <= 5 ; i ++  ){... */\n    tag_9:\n        /* \"contract/solidity_1~10.sol\":3431:3432  5 */\n      0x05\n        /* \"contract/solidity_1~10.sol\":3426:3427  i */\n      dup2\n        /* \"contract/solidity_1~10.sol\":3426:3432  i <= 5 */\n      gt\n        /* \"contract/solidity_1~10.sol\":3408:3516  for( uint i = 0 ; i <= 5 ; i ++  ){... */\n      tag_10\n      jumpi\n        /* \"contract/solidity_1~10.sol\":3457:3464  numbers */\n      0x00\n        /* \"contract/solidity_1~10.sol\":3471:3472  i */\n      dup2\n        /* \"contract/solidity_1~10.sol\":3457:3474  numbers.push( i ) */\n      swap1\n      dup1\n      0x01\n      dup2\n      sload\n      add\n      dup1\n      dup3\n      sstore\n      dup1\n      swap2\n      pop\n      pop\n      0x01\n      swap1\n      sub\n      swap1\n      0x00\n      mstore\n      keccak256(0x00, 0x20)\n      add\n      0x00\n      swap1\n      swap2\n      swap1\n      swap2\n      swap1\n      swap2\n      pop\n      sstore\n        /* \"contract/solidity_1~10.sol\":3502:3503  i */\n      dup1\n        /* \"contract/solidity_1~10.sol\":3490:3503  rt_value += i */\n      dup3\n      tag_13\n      swap2\n      swap1\n      tag_14\n      jump\t// in\n    tag_13:\n      swap2\n      pop\n        /* \"contract/solidity_1~10.sol\":3435:3439  i ++ */\n      dup1\n      dup1\n      tag_15\n      swap1\n      tag_16\n      jump\t// in\n    tag_15:\n      swap2\n      pop\n      pop\n        /* \"contract/solidity_1~10.sol\":3408:3516  for( uint i = 0 ; i <= 5 ; i ++  ){... */\n      jump(tag_9)\n    tag_10:\n      pop\n        /* \"contract/solidity_1~10.sol\":3535:3543  rt_value */\n      dup1\n        /* \"contract/solidity_1~10.sol\":3528:3543  return rt_value */\n      swap2\n      pop\n      pop\n        /* \"contract/solidity_1~10.sol\":3319:3554  function setzerotofive() public returns( uint ){... */\n      swap1\n      jump\t// out\n        /* \"#utility.yul\":7:84   */\n    tag_17:\n        /* \"#utility.yul\":44:51   */\n      0x00\n        /* \"#utility.yul\":73:78   */\n      dup2\n        /* \"#utility.yul\":62:78   */\n      swap1\n      pop\n        /* \"#utility.yul\":7:84   */\n      swap2\n      swap1\n      pop\n      jump\t// out\n        /* \"#utility.yul\":90:208   */\n    tag_18:\n        /* \"#utility.yul\":177:201   */\n      tag_23\n        /* \"#utility.yul\":195:200   */\n      dup2\n        /* \"#utility.yul\":177:201   */\n      tag_17\n      jump\t// in\n    tag_23:\n        /* \"#utility.yul\":172:175   */\n      dup3\n        /* \"#utility.yul\":165:202   */\n      mstore\n        /* \"#utility.yul\":90:208   */\n      pop\n      pop\n      jump\t// out\n        /* \"#utility.yul\":214:436   */\n    tag_7:\n        /* \"#utility.yul\":307:311   */\n      0x00\n        /* \"#utility.yul\":345:347   */\n      0x20\n        /* \"#utility.yul\":334:343   */\n      dup3\n        /* \"#utility.yul\":330:348   */\n      add\n        /* \"#utility.yul\":322:348   */\n      swap1\n      pop\n        /* \"#utility.yul\":358:429   */\n      tag_25\n        /* \"#utility.yul\":426:427   */\n      0x00\n        /* \"#utility.yul\":415:424   */\n      dup4\n        /* \"#utility.yul\":411:428   */\n      add\n        /* \"#utility.yul\":402:408   */\n      dup5\n        /* \"#utility.yul\":358:429   */\n      tag_18\n      jump\t// in\n    tag_25:\n        /* \"#utility.yul\":214:436   */\n      swap3\n      swap2\n      pop\n      pop\n      jump\t// out\n        /* \"#utility.yul\":442:622   */\n    tag_19:\n        /* \"#utility.yul\":490:567   */\n      0x4e487b7100000000000000000000000000000000000000000000000000000000\n        /* \"#utility.yul\":487:488   */\n      0x00\n        /* \"#utility.yul\":480:568   */\n      mstore\n        /* \"#utility.yul\":587:591   */\n      0x11\n        /* \"#utility.yul\":584:585   */\n      0x04\n        /* \"#utility.yul\":577:592   */\n      mstore\n        /* \"#utility.yul\":611:615   */\n      0x24\n        /* \"#utility.yul\":608:609   */\n      0x00\n        /* \"#utility.yul\":601:616   */\n      revert\n        /* \"#utility.yul\":628:819   */\n    tag_14:\n        /* \"#utility.yul\":668:671   */\n      0x00\n        /* \"#utility.yul\":687:707   */\n      tag_28\n        /* \"#utility.yul\":705:706   */\n      dup3\n        /* \"#utility.yul\":687:707   */\n      tag_17\n      jump\t// in\n    tag_28:\n        /* \"#utility.yul\":682:707   */\n      swap2\n      pop\n        /* \"#utility.yul\":721:741   */\n      tag_29\n        /* \"#utility.yul\":739:740   */\n      dup4\n        /* \"#utility.yul\":721:741   */\n      tag_17\n      jump\t// in\n    tag_29:\n        /* \"#utility.yul\":716:741   */\n      swap3\n      pop\n        /* \"#utility.yul\":764:765   */\n      dup3\n        /* \"#utility.yul\":761:762   */\n      dup3\n        /* \"#utility.yul\":757:766   */\n      add\n        /* \"#utility.yul\":750:766   */\n      swap1\n      pop\n        /* \"#utility.yul\":785:788   */\n      dup1\n        /* \"#utility.yul\":782:783   */\n      dup3\n        /* \"#utility.yul\":779:789   */\n      gt\n        /* \"#utility.yul\":776:812   */\n      iszero\n      tag_30\n      jumpi\n        /* \"#utility.yul\":792:810   */\n      tag_31\n      tag_19\n      jump\t// in\n    tag_31:\n        /* \"#utility.yul\":776:812   */\n    tag_30:\n        /* \"#utility.yul\":628:819   */\n      swap3\n      swap2\n      pop\n      pop\n      jump\t// out\n        /* \"#utility.yul\":825:1058   */\n    tag_16:\n        /* \"#utility.yul\":864:867   */\n      0x00\n        /* \"#utility.yul\":887:911   */\n      tag_33\n        /* \"#utility.yul\":905:910   */\n      dup3\n        /* \"#utility.yul\":887:911   */\n      tag_17\n      jump\t// in\n    tag_33:\n        /* \"#utility.yul\":878:911   */\n      swap2\n      pop\n        /* \"#utility.yul\":933:999   */\n      0xffffffffffffffffffffffffffffffffffffffffffffffffffffffffffffffff\n        /* \"#utility.yul\":926:931   */\n      dup3\n        /* \"#utility.yul\":923:1000   */\n      sub\n        /* \"#utility.yul\":920:1023   */\n      tag_34\n      jumpi\n        /* \"#utility.yul\":1003:1021   */\n      tag_35\n      tag_19\n      jump\t// in\n    tag_35:\n        /* \"#utility.yul\":920:1023   */\n    tag_34:\n        /* \"#utility.yul\":1050:1051   */\n      0x01\n        /* \"#utility.yul\":1043:1048   */\n      dup3\n        /* \"#utility.yul\":1039:1052   */\n      add\n        /* \"#utility.yul\":1032:1052   */\n      swap1\n      pop\n        /* \"#utility.yul\":825:1058   */\n      swap2\n      swap1\n      pop\n      jump\t// out\n\n    auxdata: 0xa264697066735822122067aa30e304e014758ba304cd3843c855895d09474ca9fdecdfc8545f59ac3b4d64736f6c63430008120033\n}\n",
				"bytecode": {
					"linkReferences": {},
					"object": "608060405234801561001057600080fd5b506101c7806100206000396000f3fe608060405234801561001057600080fd5b506004361061002b5760003560e01c80639ad2d17414610030575b600080fd5b61003861004e565b60405161004591906100cb565b60405180910390f35b6000806000905060005b600581116100aa57600081908060018154018082558091505060019003906000526020600020016000909190919091505580826100959190610115565b915080806100a290610149565b915050610058565b508091505090565b6000819050919050565b6100c5816100b2565b82525050565b60006020820190506100e060008301846100bc565b92915050565b7f4e487b7100000000000000000000000000000000000000000000000000000000600052601160045260246000fd5b6000610120826100b2565b915061012b836100b2565b9250828201905080821115610143576101426100e6565b5b92915050565b6000610154826100b2565b91507fffffffffffffffffffffffffffffffffffffffffffffffffffffffffffffffff8203610186576101856100e6565b5b60018201905091905056fea264697066735822122067aa30e304e014758ba304cd3843c855895d09474ca9fdecdfc8545f59ac3b4d64736f6c63430008120033",
					"opcodes": "PUSH1 0x80 PUSH1 0x40 MSTORE CALLVALUE DUP1 ISZERO PUSH2 0x10 JUMPI PUSH1 0x0 DUP1 REVERT JUMPDEST POP PUSH2 0x1C7 DUP1 PUSH2 0x20 PUSH1 0x0 CODECOPY PUSH1 0x0 RETURN INVALID PUSH1 0x80 PUSH1 0x40 MSTORE CALLVALUE DUP1 ISZERO PUSH2 0x10 JUMPI PUSH1 0x0 DUP1 REVERT JUMPDEST POP PUSH1 0x4 CALLDATASIZE LT PUSH2 0x2B JUMPI PUSH1 0x0 CALLDATALOAD PUSH1 0xE0 SHR DUP1 PUSH4 0x9AD2D174 EQ PUSH2 0x30 JUMPI JUMPDEST PUSH1 0x0 DUP1 REVERT JUMPDEST PUSH2 0x38 PUSH2 0x4E JUMP JUMPDEST PUSH1 0x40 MLOAD PUSH2 0x45 SWAP2 SWAP1 PUSH2 0xCB JUMP JUMPDEST PUSH1 0x40 MLOAD DUP1 SWAP2 SUB SWAP1 RETURN JUMPDEST PUSH1 0x0 DUP1 PUSH1 0x0 SWAP1 POP PUSH1 0x0 JUMPDEST PUSH1 0x5 DUP2 GT PUSH2 0xAA JUMPI PUSH1 0x0 DUP2 SWAP1 DUP1 PUSH1 0x1 DUP2 SLOAD ADD DUP1 DUP3 SSTORE DUP1 SWAP2 POP POP PUSH1 0x1 SWAP1 SUB SWAP1 PUSH1 0x0 MSTORE PUSH1 0x20 PUSH1 0x0 KECCAK256 ADD PUSH1 0x0 SWAP1 SWAP2 SWAP1 SWAP2 SWAP1 SWAP2 POP SSTORE DUP1 DUP3 PUSH2 0x95 SWAP2 SWAP1 PUSH2 0x115 JUMP JUMPDEST SWAP2 POP DUP1 DUP1 PUSH2 0xA2 SWAP1 PUSH2 0x149 JUMP JUMPDEST SWAP2 POP POP PUSH2 0x58 JUMP JUMPDEST POP DUP1 SWAP2 POP POP SWAP1 JUMP JUMPDEST PUSH1 0x0 DUP2 SWAP1 POP SWAP2 SWAP1 POP JUMP JUMPDEST PUSH2 0xC5 DUP2 PUSH2 0xB2 JUMP JUMPDEST DUP3 MSTORE POP POP JUMP JUMPDEST PUSH1 0x0 PUSH1 0x20 DUP3 ADD SWAP1 POP PUSH2 0xE0 PUSH1 0x0 DUP4 ADD DUP5 PUSH2 0xBC JUMP JUMPDEST SWAP3 SWAP2 POP POP JUMP JUMPDEST PUSH32 0x4E487B7100000000000000000000000000000000000000000000000000000000 PUSH1 0x0 MSTORE PUSH1 0x11 PUSH1 0x4 MSTORE PUSH1 0x24 PUSH1 0x0 REVERT JUMPDEST PUSH1 0x0 PUSH2 0x120 DUP3 PUSH2 0xB2 JUMP JUMPDEST SWAP2 POP PUSH2 0x12B DUP4 PUSH2 0xB2 JUMP JUMPDEST SWAP3 POP DUP3 DUP3 ADD SWAP1 POP DUP1 DUP3 GT ISZERO PUSH2 0x143 JUMPI PUSH2 0x142 PUSH2 0xE6 JUMP JUMPDEST JUMPDEST SWAP3 SWAP2 POP POP JUMP JUMPDEST PUSH1 0x0 PUSH2 0x154 DUP3 PUSH2 0xB2 JUMP JUMPDEST SWAP2 POP PUSH32 0xFFFFFFFFFFFFFFFFFFFFFFFFFFFFFFFFFFFFFFFFFFFFFFFFFFFFFFFFFFFFFFFF DUP3 SUB PUSH2 0x186 JUMPI PUSH2 0x185 PUSH2 0xE6 JUMP JUMPDEST JUMPDEST PUSH1 0x1 DUP3 ADD SWAP1 POP SWAP2 SWAP1 POP JUMP INVALID LOG2 PUSH5 0x6970667358 0x22 SLT KECCAK256 PUSH8 0xAA30E304E014758B LOG3 DIV 0xCD CODESIZE NUMBER 0xC8 SSTORE DUP10 0x5D MULMOD SELFBALANCE 0x4C 0xA9 REVERT 0xEC 0xDF 0xC8 SLOAD 0x5F MSIZE 0xAC EXTCODESIZE 0x4D PUSH5 0x736F6C6343 STOP ADDMOD SLT STOP CALLER "
				},
				"gasEstimates": {
					"creation": {
						"codeDepositCost": "91000",
						"executionCost": "141",
						"totalCost": "91141"
					},
					"external": {
						"setzerotofive()": "infinite"
					}
				},
				"methodIdentifiers": {
					"setzerotofive()": "9ad2d174"
				}
			},
			"storageLayout": {
				"storage": [
					{
						"astId": 252,
						"contract": "contract/solidity_1~10.sol:Q7",
						"label": "numbers",
						"offset": 0,
						"slot": "0",
						"type": "t_array(t_uint256)dyn_storage"
					}
				],
				"types": {
					"t_array(t_uint256)dyn_storage": {
						"base": "t_uint256",
						"encoding": "dynamic_array",
						"label": "uint256[]",
						"numberOfBytes": "32"
					},
					"t_uint256": {
						"encoding": "inplace",
						"label": "uint256",
						"numberOfBytes": "32"
					}
				}
			},
			"userdoc": {
				"kind": "user",
				"methods": {},
				"version": 1
			}
		}
	}
}