{
	"contract/solidity_1~10.sol": {
		"Q2": {
			"abi": [
				{
					"inputs": [
						{
							"internalType": "uint256",
							"name": "_a",
							"type": "uint256"
						},
						{
							"internalType": "uint256",
							"name": "_b",
							"type": "uint256"
						}
					],
					"name": "div",
					"outputs": [
						{
							"internalType": "uint256",
							"name": "",
							"type": "uint256"
						}
					],
					"stateMutability": "pure",
					"type": "function"
				},
				{
					"inputs": [
						{
							"internalType": "uint256",
							"name": "_a",
							"type": "uint256"
						},
						{
							"internalType": "uint256",
							"name": "_b",
							"type": "uint256"
						}
					],
					"name": "minus",
					"outputs": [
						{
							"internalType": "uint256",
							"name": "",
							"type": "uint256"
						}
					],
					"stateMutability": "pure",
					"type": "function"
				},
				{
					"inputs": [
						{
							"internalType": "uint256",
							"name": "_a",
							"type": "uint256"
						},
						{
							"internalType": "uint256",
							"name": "_b",
							"type": "uint256"
						}
					],
					"name": "mul",
					"outputs": [
						{
							"internalType": "uint256",
							"name": "",
							"type": "uint256"
						}
					],
					"stateMutability": "pure",
					"type": "function"
				},
				{
					"inputs": [
						{
							"internalType": "uint256",
							"name": "_a",
							"type": "uint256"
						},
						{
							"internalType": "uint256",
							"name": "_b",
							"type": "uint256"
						}
					],
					"name": "plus",
					"outputs": [
						{
							"internalType": "uint256",
							"name": "",
							"type": "uint256"
						}
					],
					"stateMutability": "pure",
					"type": "function"
				},
				{
					"inputs": [
						{
							"internalType": "uint256",
							"name": "_a",
							"type": "uint256"
						}
					],
					"name": "sqr",
					"outputs": [
						{
							"internalType": "uint256",
							"name": "",
							"type": "uint256"
						}
					],
					"stateMutability": "pure",
					"type": "function"
				}
			],
			"devdoc": {
				"kind": "dev",
				"methods": {},
				"version": 1
			},
			"evm": {
				"assembly": "    /* \"contract/solidity_1~10.sol\":889:1420  contract Q2 {... */\n  mstore(0x40, 0x80)\n  callvalue\n  dup1\n  iszero\n  tag_1\n  jumpi\n  0x00\n  dup1\n  revert\ntag_1:\n  pop\n  dataSize(sub_0)\n  dup1\n  dataOffset(sub_0)\n  0x00\n  codecopy\n  0x00\n  return\nstop\n\nsub_0: assembly {\n        /* \"contract/solidity_1~10.sol\":889:1420  contract Q2 {... */\n      mstore(0x40, 0x80)\n      callvalue\n      dup1\n      iszero\n      tag_1\n      jumpi\n      0x00\n      dup1\n      revert\n    tag_1:\n      pop\n      jumpi(tag_2, lt(calldatasize, 0x04))\n      shr(0xe0, calldataload(0x00))\n      dup1\n      0x66098d4f\n      eq\n      tag_3\n      jumpi\n      dup1\n      0xa1a6c035\n      eq\n      tag_4\n      jumpi\n      dup1\n      0xa391c15b\n      eq\n      tag_5\n      jumpi\n      dup1\n      0xc8a4ac9c\n      eq\n      tag_6\n      jumpi\n      dup1\n      0xf4f3bdc1\n      eq\n      tag_7\n      jumpi\n    tag_2:\n      0x00\n      dup1\n      revert\n        /* \"contract/solidity_1~10.sol\":910:1007  function plus( uint _a , uint _b ) public pure returns( uint ) {... */\n    tag_3:\n      tag_8\n      0x04\n      dup1\n      calldatasize\n      sub\n      dup2\n      add\n      swap1\n      tag_9\n      swap2\n      swap1\n      tag_10\n      jump\t// in\n    tag_9:\n      tag_11\n      jump\t// in\n    tag_8:\n      mload(0x40)\n      tag_12\n      swap2\n      swap1\n      tag_13\n      jump\t// in\n    tag_12:\n      mload(0x40)\n      dup1\n      swap2\n      sub\n      swap1\n      return\n        /* \"contract/solidity_1~10.sol\":1329:1415  function sqr( uint _a ) public pure returns( uint ) {... */\n    tag_4:\n      tag_14\n      0x04\n      dup1\n      calldatasize\n      sub\n      dup2\n      add\n      swap1\n      tag_15\n      swap2\n      swap1\n      tag_16\n      jump\t// in\n    tag_15:\n      tag_17\n      jump\t// in\n    tag_14:\n      mload(0x40)\n      tag_18\n      swap2\n      swap1\n      tag_13\n      jump\t// in\n    tag_18:\n      mload(0x40)\n      dup1\n      swap2\n      sub\n      swap1\n      return\n        /* \"contract/solidity_1~10.sol\":1225:1321  function div( uint _a , uint _b ) public pure returns( uint ) {... */\n    tag_5:\n      tag_19\n      0x04\n      dup1\n      calldatasize\n      sub\n      dup2\n      add\n      swap1\n      tag_20\n      swap2\n      swap1\n      tag_10\n      jump\t// in\n    tag_20:\n      tag_21\n      jump\t// in\n    tag_19:\n      mload(0x40)\n      tag_22\n      swap2\n      swap1\n      tag_13\n      jump\t// in\n    tag_22:\n      mload(0x40)\n      dup1\n      swap2\n      sub\n      swap1\n      return\n        /* \"contract/solidity_1~10.sol\":1121:1217  function mul( uint _a , uint _b ) public pure returns( uint ) {... */\n    tag_6:\n      tag_23\n      0x04\n      dup1\n      calldatasize\n      sub\n      dup2\n      add\n      swap1\n      tag_24\n      swap2\n      swap1\n      tag_10\n      jump\t// in\n    tag_24:\n      tag_25\n      jump\t// in\n    tag_23:\n      mload(0x40)\n      tag_26\n      swap2\n      swap1\n      tag_13\n      jump\t// in\n    tag_26:\n      mload(0x40)\n      dup1\n      swap2\n      sub\n      swap1\n      return\n        /* \"contract/solidity_1~10.sol\":1015:1113  function minus( uint _a , uint _b ) public pure returns( uint ) {... */\n    tag_7:\n      tag_27\n      0x04\n      dup1\n      calldatasize\n      sub\n      dup2\n      add\n      swap1\n      tag_28\n      swap2\n      swap1\n      tag_10\n      jump\t// in\n    tag_28:\n      tag_29\n      jump\t// in\n    tag_27:\n      mload(0x40)\n      tag_30\n      swap2\n      swap1\n      tag_13\n      jump\t// in\n    tag_30:\n      mload(0x40)\n      dup1\n      swap2\n      sub\n      swap1\n      return\n        /* \"contract/solidity_1~10.sol\":910:1007  function plus( uint _a , uint _b ) public pure returns( uint ) {... */\n    tag_11:\n        /* \"contract/solidity_1~10.sol\":966:970  uint */\n      0x00\n        /* \"contract/solidity_1~10.sol\":996:998  _b */\n      dup2\n        /* \"contract/solidity_1~10.sol\":991:993  _a */\n      dup4\n        /* \"contract/solidity_1~10.sol\":991:998  _a + _b */\n      tag_32\n      swap2\n      swap1\n      tag_33\n      jump\t// in\n    tag_32:\n        /* \"contract/solidity_1~10.sol\":984:998  return _a + _b */\n      swap1\n      pop\n        /* \"contract/solidity_1~10.sol\":910:1007  function plus( uint _a , uint _b ) public pure returns( uint ) {... */\n      swap3\n      swap2\n      pop\n      pop\n      jump\t// out\n        /* \"contract/solidity_1~10.sol\":1329:1415  function sqr( uint _a ) public pure returns( uint ) {... */\n    tag_17:\n        /* \"contract/solidity_1~10.sol\":1374:1378  uint */\n      0x00\n        /* \"contract/solidity_1~10.sol\":1405:1406  2 */\n      0x02\n        /* \"contract/solidity_1~10.sol\":1399:1401  _a */\n      dup3\n        /* \"contract/solidity_1~10.sol\":1399:1406  _a ** 2 */\n      tag_35\n      swap2\n      swap1\n      tag_36\n      jump\t// in\n    tag_35:\n        /* \"contract/solidity_1~10.sol\":1392:1406  return _a ** 2 */\n      swap1\n      pop\n        /* \"contract/solidity_1~10.sol\":1329:1415  function sqr( uint _a ) public pure returns( uint ) {... */\n      swap2\n      swap1\n      pop\n      jump\t// out\n        /* \"contract/solidity_1~10.sol\":1225:1321  function div( uint _a , uint _b ) public pure returns( uint ) {... */\n    tag_21:\n        /* \"contract/solidity_1~10.sol\":1280:1284  uint */\n      0x00\n        /* \"contract/solidity_1~10.sol\":1310:1312  _b */\n      dup2\n        /* \"contract/solidity_1~10.sol\":1305:1307  _a */\n      dup4\n        /* \"contract/solidity_1~10.sol\":1305:1312  _a / _b */\n      tag_38\n      swap2\n      swap1\n      tag_39\n      jump\t// in\n    tag_38:\n        /* \"contract/solidity_1~10.sol\":1298:1312  return _a / _b */\n      swap1\n      pop\n        /* \"contract/solidity_1~10.sol\":1225:1321  function div( uint _a , uint _b ) public pure returns( uint ) {... */\n      swap3\n      swap2\n      pop\n      pop\n      jump\t// out\n        /* \"contract/solidity_1~10.sol\":1121:1217  function mul( uint _a , uint _b ) public pure returns( uint ) {... */\n    tag_25:\n        /* \"contract/solidity_1~10.sol\":1176:1180  uint */\n      0x00\n        /* \"contract/solidity_1~10.sol\":1206:1208  _b */\n      dup2\n        /* \"contract/solidity_1~10.sol\":1201:1203  _a */\n      dup4\n        /* \"contract/solidity_1~10.sol\":1201:1208  _a * _b */\n      tag_41\n      swap2\n      swap1\n      tag_42\n      jump\t// in\n    tag_41:\n        /* \"contract/solidity_1~10.sol\":1194:1208  return _a * _b */\n      swap1\n      pop\n        /* \"contract/solidity_1~10.sol\":1121:1217  function mul( uint _a , uint _b ) public pure returns( uint ) {... */\n      swap3\n      swap2\n      pop\n      pop\n      jump\t// out\n        /* \"contract/solidity_1~10.sol\":1015:1113  function minus( uint _a , uint _b ) public pure returns( uint ) {... */\n    tag_29:\n        /* \"contract/solidity_1~10.sol\":1072:1076  uint */\n      0x00\n        /* \"contract/solidity_1~10.sol\":1102:1104  _b */\n      dup2\n        /* \"contract/solidity_1~10.sol\":1097:1099  _a */\n      dup4\n        /* \"contract/solidity_1~10.sol\":1097:1104  _a - _b */\n      tag_44\n      swap2\n      swap1\n      tag_45\n      jump\t// in\n    tag_44:\n        /* \"contract/solidity_1~10.sol\":1090:1104  return _a - _b */\n      swap1\n      pop\n        /* \"contract/solidity_1~10.sol\":1015:1113  function minus( uint _a , uint _b ) public pure returns( uint ) {... */\n      swap3\n      swap2\n      pop\n      pop\n      jump\t// out\n        /* \"#utility.yul\":88:205   */\n    tag_47:\n        /* \"#utility.yul\":197:198   */\n      0x00\n        /* \"#utility.yul\":194:195   */\n      dup1\n        /* \"#utility.yul\":187:199   */\n      revert\n        /* \"#utility.yul\":334:411   */\n    tag_49:\n        /* \"#utility.yul\":371:378   */\n      0x00\n        /* \"#utility.yul\":400:405   */\n      dup2\n        /* \"#utility.yul\":389:405   */\n      swap1\n      pop\n        /* \"#utility.yul\":334:411   */\n      swap2\n      swap1\n      pop\n      jump\t// out\n        /* \"#utility.yul\":417:539   */\n    tag_50:\n        /* \"#utility.yul\":490:514   */\n      tag_65\n        /* \"#utility.yul\":508:513   */\n      dup2\n        /* \"#utility.yul\":490:514   */\n      tag_49\n      jump\t// in\n    tag_65:\n        /* \"#utility.yul\":483:488   */\n      dup2\n        /* \"#utility.yul\":480:515   */\n      eq\n        /* \"#utility.yul\":470:533   */\n      tag_66\n      jumpi\n        /* \"#utility.yul\":529:530   */\n      0x00\n        /* \"#utility.yul\":526:527   */\n      dup1\n        /* \"#utility.yul\":519:531   */\n      revert\n        /* \"#utility.yul\":470:533   */\n    tag_66:\n        /* \"#utility.yul\":417:539   */\n      pop\n      jump\t// out\n        /* \"#utility.yul\":545:684   */\n    tag_51:\n        /* \"#utility.yul\":591:596   */\n      0x00\n        /* \"#utility.yul\":629:635   */\n      dup2\n        /* \"#utility.yul\":616:636   */\n      calldataload\n        /* \"#utility.yul\":607:636   */\n      swap1\n      pop\n        /* \"#utility.yul\":645:678   */\n      tag_68\n        /* \"#utility.yul\":672:677   */\n      dup2\n        /* \"#utility.yul\":645:678   */\n      tag_50\n      jump\t// in\n    tag_68:\n        /* \"#utility.yul\":545:684   */\n      swap3\n      swap2\n      pop\n      pop\n      jump\t// out\n        /* \"#utility.yul\":690:1164   */\n    tag_10:\n        /* \"#utility.yul\":758:764   */\n      0x00\n        /* \"#utility.yul\":766:772   */\n      dup1\n        /* \"#utility.yul\":815:817   */\n      0x40\n        /* \"#utility.yul\":803:812   */\n      dup4\n        /* \"#utility.yul\":794:801   */\n      dup6\n        /* \"#utility.yul\":790:813   */\n      sub\n        /* \"#utility.yul\":786:818   */\n      slt\n        /* \"#utility.yul\":783:902   */\n      iszero\n      tag_70\n      jumpi\n        /* \"#utility.yul\":821:900   */\n      tag_71\n      tag_47\n      jump\t// in\n    tag_71:\n        /* \"#utility.yul\":783:902   */\n    tag_70:\n        /* \"#utility.yul\":941:942   */\n      0x00\n        /* \"#utility.yul\":966:1019   */\n      tag_72\n        /* \"#utility.yul\":1011:1018   */\n      dup6\n        /* \"#utility.yul\":1002:1008   */\n      dup3\n        /* \"#utility.yul\":991:1000   */\n      dup7\n        /* \"#utility.yul\":987:1009   */\n      add\n        /* \"#utility.yul\":966:1019   */\n      tag_51\n      jump\t// in\n    tag_72:\n        /* \"#utility.yul\":956:1019   */\n      swap3\n      pop\n        /* \"#utility.yul\":912:1029   */\n      pop\n        /* \"#utility.yul\":1068:1070   */\n      0x20\n        /* \"#utility.yul\":1094:1147   */\n      tag_73\n        /* \"#utility.yul\":1139:1146   */\n      dup6\n        /* \"#utility.yul\":1130:1136   */\n      dup3\n        /* \"#utility.yul\":1119:1128   */\n      dup7\n        /* \"#utility.yul\":1115:1137   */\n      add\n        /* \"#utility.yul\":1094:1147   */\n      tag_51\n      jump\t// in\n    tag_73:\n        /* \"#utility.yul\":1084:1147   */\n      swap2\n      pop\n        /* \"#utility.yul\":1039:1157   */\n      pop\n        /* \"#utility.yul\":690:1164   */\n      swap3\n      pop\n      swap3\n      swap1\n      pop\n      jump\t// out\n        /* \"#utility.yul\":1170:1288   */\n    tag_52:\n        /* \"#utility.yul\":1257:1281   */\n      tag_75\n        /* \"#utility.yul\":1275:1280   */\n      dup2\n        /* \"#utility.yul\":1257:1281   */\n      tag_49\n      jump\t// in\n    tag_75:\n        /* \"#utility.yul\":1252:1255   */\n      dup3\n        /* \"#utility.yul\":1245:1282   */\n      mstore\n        /* \"#utility.yul\":1170:1288   */\n      pop\n      pop\n      jump\t// out\n        /* \"#utility.yul\":1294:1516   */\n    tag_13:\n        /* \"#utility.yul\":1387:1391   */\n      0x00\n        /* \"#utility.yul\":1425:1427   */\n      0x20\n        /* \"#utility.yul\":1414:1423   */\n      dup3\n        /* \"#utility.yul\":1410:1428   */\n      add\n        /* \"#utility.yul\":1402:1428   */\n      swap1\n      pop\n        /* \"#utility.yul\":1438:1509   */\n      tag_77\n        /* \"#utility.yul\":1506:1507   */\n      0x00\n        /* \"#utility.yul\":1495:1504   */\n      dup4\n        /* \"#utility.yul\":1491:1508   */\n      add\n        /* \"#utility.yul\":1482:1488   */\n      dup5\n        /* \"#utility.yul\":1438:1509   */\n      tag_52\n      jump\t// in\n    tag_77:\n        /* \"#utility.yul\":1294:1516   */\n      swap3\n      swap2\n      pop\n      pop\n      jump\t// out\n        /* \"#utility.yul\":1522:1851   */\n    tag_16:\n        /* \"#utility.yul\":1581:1587   */\n      0x00\n        /* \"#utility.yul\":1630:1632   */\n      0x20\n        /* \"#utility.yul\":1618:1627   */\n      dup3\n        /* \"#utility.yul\":1609:1616   */\n      dup5\n        /* \"#utility.yul\":1605:1628   */\n      sub\n        /* \"#utility.yul\":1601:1633   */\n      slt\n        /* \"#utility.yul\":1598:1717   */\n      iszero\n      tag_79\n      jumpi\n        /* \"#utility.yul\":1636:1715   */\n      tag_80\n      tag_47\n      jump\t// in\n    tag_80:\n        /* \"#utility.yul\":1598:1717   */\n    tag_79:\n        /* \"#utility.yul\":1756:1757   */\n      0x00\n        /* \"#utility.yul\":1781:1834   */\n      tag_81\n        /* \"#utility.yul\":1826:1833   */\n      dup5\n        /* \"#utility.yul\":1817:1823   */\n      dup3\n        /* \"#utility.yul\":1806:1815   */\n      dup6\n        /* \"#utility.yul\":1802:1824   */\n      add\n        /* \"#utility.yul\":1781:1834   */\n      tag_51\n      jump\t// in\n    tag_81:\n        /* \"#utility.yul\":1771:1834   */\n      swap2\n      pop\n        /* \"#utility.yul\":1727:1844   */\n      pop\n        /* \"#utility.yul\":1522:1851   */\n      swap3\n      swap2\n      pop\n      pop\n      jump\t// out\n        /* \"#utility.yul\":1857:2037   */\n    tag_53:\n        /* \"#utility.yul\":1905:1982   */\n      0x4e487b7100000000000000000000000000000000000000000000000000000000\n        /* \"#utility.yul\":1902:1903   */\n      0x00\n        /* \"#utility.yul\":1895:1983   */\n      mstore\n        /* \"#utility.yul\":2002:2006   */\n      0x11\n        /* \"#utility.yul\":1999:2000   */\n      0x04\n        /* \"#utility.yul\":1992:2007   */\n      mstore\n        /* \"#utility.yul\":2026:2030   */\n      0x24\n        /* \"#utility.yul\":2023:2024   */\n      0x00\n        /* \"#utility.yul\":2016:2031   */\n      revert\n        /* \"#utility.yul\":2043:2234   */\n    tag_33:\n        /* \"#utility.yul\":2083:2086   */\n      0x00\n        /* \"#utility.yul\":2102:2122   */\n      tag_84\n        /* \"#utility.yul\":2120:2121   */\n      dup3\n        /* \"#utility.yul\":2102:2122   */\n      tag_49\n      jump\t// in\n    tag_84:\n        /* \"#utility.yul\":2097:2122   */\n      swap2\n      pop\n        /* \"#utility.yul\":2136:2156   */\n      tag_85\n        /* \"#utility.yul\":2154:2155   */\n      dup4\n        /* \"#utility.yul\":2136:2156   */\n      tag_49\n      jump\t// in\n    tag_85:\n        /* \"#utility.yul\":2131:2156   */\n      swap3\n      pop\n        /* \"#utility.yul\":2179:2180   */\n      dup3\n        /* \"#utility.yul\":2176:2177   */\n      dup3\n        /* \"#utility.yul\":2172:2181   */\n      add\n        /* \"#utility.yul\":2165:2181   */\n      swap1\n      pop\n        /* \"#utility.yul\":2200:2203   */\n      dup1\n        /* \"#utility.yul\":2197:2198   */\n      dup3\n        /* \"#utility.yul\":2194:2204   */\n      gt\n        /* \"#utility.yul\":2191:2227   */\n      iszero\n      tag_86\n      jumpi\n        /* \"#utility.yul\":2207:2225   */\n      tag_87\n      tag_53\n      jump\t// in\n    tag_87:\n        /* \"#utility.yul\":2191:2227   */\n    tag_86:\n        /* \"#utility.yul\":2043:2234   */\n      swap3\n      swap2\n      pop\n      pop\n      jump\t// out\n        /* \"#utility.yul\":2240:2342   */\n    tag_54:\n        /* \"#utility.yul\":2282:2290   */\n      0x00\n        /* \"#utility.yul\":2329:2334   */\n      dup2\n        /* \"#utility.yul\":2326:2327   */\n      0x01\n        /* \"#utility.yul\":2322:2335   */\n      shr\n        /* \"#utility.yul\":2301:2335   */\n      swap1\n      pop\n        /* \"#utility.yul\":2240:2342   */\n      swap2\n      swap1\n      pop\n      jump\t// out\n        /* \"#utility.yul\":2348:3196   */\n    tag_55:\n        /* \"#utility.yul\":2409:2414   */\n      0x00\n        /* \"#utility.yul\":2416:2420   */\n      dup1\n        /* \"#utility.yul\":2440:2446   */\n      dup3\n        /* \"#utility.yul\":2431:2446   */\n      swap2\n      pop\n        /* \"#utility.yul\":2464:2469   */\n      dup4\n        /* \"#utility.yul\":2455:2469   */\n      swap1\n      pop\n        /* \"#utility.yul\":2478:3190   */\n    tag_90:\n        /* \"#utility.yul\":2499:2500   */\n      0x01\n        /* \"#utility.yul\":2489:2497   */\n      dup6\n        /* \"#utility.yul\":2486:2501   */\n      gt\n        /* \"#utility.yul\":2478:3190   */\n      iszero\n      tag_92\n      jumpi\n        /* \"#utility.yul\":2594:2598   */\n      dup1\n        /* \"#utility.yul\":2589:2592   */\n      dup7\n        /* \"#utility.yul\":2585:2599   */\n      div\n        /* \"#utility.yul\":2579:2583   */\n      dup2\n        /* \"#utility.yul\":2576:2600   */\n      gt\n        /* \"#utility.yul\":2573:2623   */\n      iszero\n      tag_93\n      jumpi\n        /* \"#utility.yul\":2603:2621   */\n      tag_94\n      tag_53\n      jump\t// in\n    tag_94:\n        /* \"#utility.yul\":2573:2623   */\n    tag_93:\n        /* \"#utility.yul\":2653:2654   */\n      0x01\n        /* \"#utility.yul\":2643:2651   */\n      dup6\n        /* \"#utility.yul\":2639:2655   */\n      and\n        /* \"#utility.yul\":2636:3087   */\n      iszero\n      tag_95\n      jumpi\n        /* \"#utility.yul\":3068:3072   */\n      dup1\n        /* \"#utility.yul\":3061:3066   */\n      dup3\n        /* \"#utility.yul\":3057:3073   */\n      mul\n        /* \"#utility.yul\":3048:3073   */\n      swap2\n      pop\n        /* \"#utility.yul\":2636:3087   */\n    tag_95:\n        /* \"#utility.yul\":3118:3122   */\n      dup1\n        /* \"#utility.yul\":3112:3116   */\n      dup2\n        /* \"#utility.yul\":3108:3123   */\n      mul\n        /* \"#utility.yul\":3100:3123   */\n      swap1\n      pop\n        /* \"#utility.yul\":3148:3180   */\n      tag_96\n        /* \"#utility.yul\":3171:3179   */\n      dup6\n        /* \"#utility.yul\":3148:3180   */\n      tag_54\n      jump\t// in\n    tag_96:\n        /* \"#utility.yul\":3136:3180   */\n      swap5\n      pop\n        /* \"#utility.yul\":2478:3190   */\n      jump(tag_90)\n    tag_92:\n        /* \"#utility.yul\":2348:3196   */\n      swap5\n      pop\n      swap5\n      swap3\n      pop\n      pop\n      pop\n      jump\t// out\n        /* \"#utility.yul\":3202:4275   */\n    tag_56:\n        /* \"#utility.yul\":3256:3261   */\n      0x00\n        /* \"#utility.yul\":3447:3455   */\n      dup3\n        /* \"#utility.yul\":3437:3477   */\n      tag_98\n      jumpi\n        /* \"#utility.yul\":3468:3469   */\n      0x01\n        /* \"#utility.yul\":3459:3469   */\n      swap1\n      pop\n        /* \"#utility.yul\":3470:3475   */\n      jump(tag_97)\n        /* \"#utility.yul\":3437:3477   */\n    tag_98:\n        /* \"#utility.yul\":3496:3500   */\n      dup2\n        /* \"#utility.yul\":3486:3522   */\n      tag_99\n      jumpi\n        /* \"#utility.yul\":3513:3514   */\n      0x00\n        /* \"#utility.yul\":3504:3514   */\n      swap1\n      pop\n        /* \"#utility.yul\":3515:3520   */\n      jump(tag_97)\n        /* \"#utility.yul\":3486:3522   */\n    tag_99:\n        /* \"#utility.yul\":3582:3586   */\n      dup2\n        /* \"#utility.yul\":3630:3631   */\n      0x01\n        /* \"#utility.yul\":3625:3652   */\n      dup2\n      eq\n      tag_101\n      jumpi\n        /* \"#utility.yul\":3666:3667   */\n      0x02\n        /* \"#utility.yul\":3661:3852   */\n      dup2\n      eq\n      tag_102\n      jumpi\n        /* \"#utility.yul\":3575:3852   */\n      jump(tag_100)\n        /* \"#utility.yul\":3625:3652   */\n    tag_101:\n        /* \"#utility.yul\":3643:3644   */\n      0x01\n        /* \"#utility.yul\":3634:3644   */\n      swap2\n      pop\n        /* \"#utility.yul\":3645:3650   */\n      pop\n      jump(tag_97)\n        /* \"#utility.yul\":3661:3852   */\n    tag_102:\n        /* \"#utility.yul\":3706:3709   */\n      0xff\n        /* \"#utility.yul\":3696:3704   */\n      dup5\n        /* \"#utility.yul\":3693:3710   */\n      gt\n        /* \"#utility.yul\":3690:3733   */\n      iszero\n      tag_103\n      jumpi\n        /* \"#utility.yul\":3713:3731   */\n      tag_104\n      tag_53\n      jump\t// in\n    tag_104:\n        /* \"#utility.yul\":3690:3733   */\n    tag_103:\n        /* \"#utility.yul\":3762:3770   */\n      dup4\n        /* \"#utility.yul\":3759:3760   */\n      0x02\n        /* \"#utility.yul\":3755:3771   */\n      exp\n        /* \"#utility.yul\":3746:3771   */\n      swap2\n      pop\n        /* \"#utility.yul\":3797:3800   */\n      dup5\n        /* \"#utility.yul\":3790:3795   */\n      dup3\n        /* \"#utility.yul\":3787:3801   */\n      gt\n        /* \"#utility.yul\":3784:3824   */\n      iszero\n      tag_105\n      jumpi\n        /* \"#utility.yul\":3804:3822   */\n      tag_106\n      tag_53\n      jump\t// in\n    tag_106:\n        /* \"#utility.yul\":3784:3824   */\n    tag_105:\n        /* \"#utility.yul\":3837:3842   */\n      pop\n      jump(tag_97)\n        /* \"#utility.yul\":3575:3852   */\n    tag_100:\n      pop\n        /* \"#utility.yul\":3961:3963   */\n      0x20\n        /* \"#utility.yul\":3951:3959   */\n      dup4\n        /* \"#utility.yul\":3948:3964   */\n      lt\n        /* \"#utility.yul\":3942:3945   */\n      0x0133\n        /* \"#utility.yul\":3936:3940   */\n      dup4\n        /* \"#utility.yul\":3933:3946   */\n      lt\n        /* \"#utility.yul\":3929:3965   */\n      and\n        /* \"#utility.yul\":3911:3913   */\n      0x4e\n        /* \"#utility.yul\":3901:3909   */\n      dup5\n        /* \"#utility.yul\":3898:3914   */\n      lt\n        /* \"#utility.yul\":3893:3895   */\n      0x0b\n        /* \"#utility.yul\":3887:3891   */\n      dup5\n        /* \"#utility.yul\":3884:3896   */\n      lt\n        /* \"#utility.yul\":3880:3915   */\n      and\n        /* \"#utility.yul\":3864:3975   */\n      or\n        /* \"#utility.yul\":3861:4107   */\n      iszero\n      tag_107\n      jumpi\n        /* \"#utility.yul\":4017:4025   */\n      dup3\n        /* \"#utility.yul\":4011:4015   */\n      dup3\n        /* \"#utility.yul\":4007:4026   */\n      exp\n        /* \"#utility.yul\":3998:4026   */\n      swap1\n      pop\n        /* \"#utility.yul\":4052:4055   */\n      dup4\n        /* \"#utility.yul\":4045:4050   */\n      dup2\n        /* \"#utility.yul\":4042:4056   */\n      gt\n        /* \"#utility.yul\":4039:4079   */\n      iszero\n      tag_108\n      jumpi\n        /* \"#utility.yul\":4059:4077   */\n      tag_109\n      tag_53\n      jump\t// in\n    tag_109:\n        /* \"#utility.yul\":4039:4079   */\n    tag_108:\n        /* \"#utility.yul\":4092:4097   */\n      jump(tag_97)\n        /* \"#utility.yul\":3861:4107   */\n    tag_107:\n        /* \"#utility.yul\":4132:4174   */\n      tag_110\n        /* \"#utility.yul\":4170:4173   */\n      dup5\n        /* \"#utility.yul\":4160:4168   */\n      dup5\n        /* \"#utility.yul\":4154:4158   */\n      dup5\n        /* \"#utility.yul\":4151:4152   */\n      0x01\n        /* \"#utility.yul\":4132:4174   */\n      tag_55\n      jump\t// in\n    tag_110:\n        /* \"#utility.yul\":4117:4174   */\n      swap3\n      pop\n      swap1\n      pop\n        /* \"#utility.yul\":4206:4210   */\n      dup2\n        /* \"#utility.yul\":4201:4204   */\n      dup5\n        /* \"#utility.yul\":4197:4211   */\n      div\n        /* \"#utility.yul\":4190:4195   */\n      dup2\n        /* \"#utility.yul\":4187:4212   */\n      gt\n        /* \"#utility.yul\":4184:4235   */\n      iszero\n      tag_111\n      jumpi\n        /* \"#utility.yul\":4215:4233   */\n      tag_112\n      tag_53\n      jump\t// in\n    tag_112:\n        /* \"#utility.yul\":4184:4235   */\n    tag_111:\n        /* \"#utility.yul\":4264:4268   */\n      dup2\n        /* \"#utility.yul\":4257:4262   */\n      dup2\n        /* \"#utility.yul\":4253:4269   */\n      mul\n        /* \"#utility.yul\":4244:4269   */\n      swap1\n      pop\n        /* \"#utility.yul\":3202:4275   */\n    tag_97:\n      swap4\n      swap3\n      pop\n      pop\n      pop\n      jump\t// out\n        /* \"#utility.yul\":4281:4367   */\n    tag_57:\n        /* \"#utility.yul\":4316:4323   */\n      0x00\n        /* \"#utility.yul\":4356:4360   */\n      0xff\n        /* \"#utility.yul\":4349:4354   */\n      dup3\n        /* \"#utility.yul\":4345:4361   */\n      and\n        /* \"#utility.yul\":4334:4361   */\n      swap1\n      pop\n        /* \"#utility.yul\":4281:4367   */\n      swap2\n      swap1\n      pop\n      jump\t// out\n        /* \"#utility.yul\":4373:4654   */\n    tag_36:\n        /* \"#utility.yul\":4431:4436   */\n      0x00\n        /* \"#utility.yul\":4455:4478   */\n      tag_115\n        /* \"#utility.yul\":4473:4477   */\n      dup3\n        /* \"#utility.yul\":4455:4478   */\n      tag_49\n      jump\t// in\n    tag_115:\n        /* \"#utility.yul\":4447:4478   */\n      swap2\n      pop\n        /* \"#utility.yul\":4499:4524   */\n      tag_116\n        /* \"#utility.yul\":4515:4523   */\n      dup4\n        /* \"#utility.yul\":4499:4524   */\n      tag_57\n      jump\t// in\n    tag_116:\n        /* \"#utility.yul\":4487:4524   */\n      swap3\n      pop\n        /* \"#utility.yul\":4543:4647   */\n      tag_117\n        /* \"#utility.yul\":4580:4646   */\n      0xffffffffffffffffffffffffffffffffffffffffffffffffffffffffffffffff\n        /* \"#utility.yul\":4570:4578   */\n      dup5\n        /* \"#utility.yul\":4564:4568   */\n      dup5\n        /* \"#utility.yul\":4543:4647   */\n      tag_56\n      jump\t// in\n    tag_117:\n        /* \"#utility.yul\":4534:4647   */\n      swap1\n      pop\n        /* \"#utility.yul\":4373:4654   */\n      swap3\n      swap2\n      pop\n      pop\n      jump\t// out\n        /* \"#utility.yul\":4660:4840   */\n    tag_58:\n        /* \"#utility.yul\":4708:4785   */\n      0x4e487b7100000000000000000000000000000000000000000000000000000000\n        /* \"#utility.yul\":4705:4706   */\n      0x00\n        /* \"#utility.yul\":4698:4786   */\n      mstore\n        /* \"#utility.yul\":4805:4809   */\n      0x12\n        /* \"#utility.yul\":4802:4803   */\n      0x04\n        /* \"#utility.yul\":4795:4810   */\n      mstore\n        /* \"#utility.yul\":4829:4833   */\n      0x24\n        /* \"#utility.yul\":4826:4827   */\n      0x00\n        /* \"#utility.yul\":4819:4834   */\n      revert\n        /* \"#utility.yul\":4846:5031   */\n    tag_39:\n        /* \"#utility.yul\":4886:4887   */\n      0x00\n        /* \"#utility.yul\":4903:4923   */\n      tag_120\n        /* \"#utility.yul\":4921:4922   */\n      dup3\n        /* \"#utility.yul\":4903:4923   */\n      tag_49\n      jump\t// in\n    tag_120:\n        /* \"#utility.yul\":4898:4923   */\n      swap2\n      pop\n        /* \"#utility.yul\":4937:4957   */\n      tag_121\n        /* \"#utility.yul\":4955:4956   */\n      dup4\n        /* \"#utility.yul\":4937:4957   */\n      tag_49\n      jump\t// in\n    tag_121:\n        /* \"#utility.yul\":4932:4957   */\n      swap3\n      pop\n        /* \"#utility.yul\":4976:4977   */\n      dup3\n        /* \"#utility.yul\":4966:5001   */\n      tag_122\n      jumpi\n        /* \"#utility.yul\":4981:4999   */\n      tag_123\n      tag_58\n      jump\t// in\n    tag_123:\n        /* \"#utility.yul\":4966:5001   */\n    tag_122:\n        /* \"#utility.yul\":5023:5024   */\n      dup3\n        /* \"#utility.yul\":5020:5021   */\n      dup3\n        /* \"#utility.yul\":5016:5025   */\n      div\n        /* \"#utility.yul\":5011:5025   */\n      swap1\n      pop\n        /* \"#utility.yul\":4846:5031   */\n      swap3\n      swap2\n      pop\n      pop\n      jump\t// out\n        /* \"#utility.yul\":5037:5447   */\n    tag_42:\n        /* \"#utility.yul\":5077:5084   */\n      0x00\n        /* \"#utility.yul\":5100:5120   */\n      tag_125\n        /* \"#utility.yul\":5118:5119   */\n      dup3\n        /* \"#utility.yul\":5100:5120   */\n      tag_49\n      jump\t// in\n    tag_125:\n        /* \"#utility.yul\":5095:5120   */\n      swap2\n      pop\n        /* \"#utility.yul\":5134:5154   */\n      tag_126\n        /* \"#utility.yul\":5152:5153   */\n      dup4\n        /* \"#utility.yul\":5134:5154   */\n      tag_49\n      jump\t// in\n    tag_126:\n        /* \"#utility.yul\":5129:5154   */\n      swap3\n      pop\n        /* \"#utility.yul\":5189:5190   */\n      dup3\n        /* \"#utility.yul\":5186:5187   */\n      dup3\n        /* \"#utility.yul\":5182:5191   */\n      mul\n        /* \"#utility.yul\":5211:5241   */\n      tag_127\n        /* \"#utility.yul\":5229:5240   */\n      dup2\n        /* \"#utility.yul\":5211:5241   */\n      tag_49\n      jump\t// in\n    tag_127:\n        /* \"#utility.yul\":5200:5241   */\n      swap2\n      pop\n        /* \"#utility.yul\":5390:5391   */\n      dup3\n        /* \"#utility.yul\":5381:5388   */\n      dup3\n        /* \"#utility.yul\":5377:5392   */\n      div\n        /* \"#utility.yul\":5374:5375   */\n      dup5\n        /* \"#utility.yul\":5371:5393   */\n      eq\n        /* \"#utility.yul\":5351:5352   */\n      dup4\n        /* \"#utility.yul\":5344:5353   */\n      iszero\n        /* \"#utility.yul\":5324:5407   */\n      or\n        /* \"#utility.yul\":5301:5440   */\n      tag_128\n      jumpi\n        /* \"#utility.yul\":5420:5438   */\n      tag_129\n      tag_53\n      jump\t// in\n    tag_129:\n        /* \"#utility.yul\":5301:5440   */\n    tag_128:\n        /* \"#utility.yul\":5085:5447   */\n      pop\n        /* \"#utility.yul\":5037:5447   */\n      swap3\n      swap2\n      pop\n      pop\n      jump\t// out\n        /* \"#utility.yul\":5453:5647   */\n    tag_45:\n        /* \"#utility.yul\":5493:5497   */\n      0x00\n        /* \"#utility.yul\":5513:5533   */\n      tag_131\n        /* \"#utility.yul\":5531:5532   */\n      dup3\n        /* \"#utility.yul\":5513:5533   */\n      tag_49\n      jump\t// in\n    tag_131:\n        /* \"#utility.yul\":5508:5533   */\n      swap2\n      pop\n        /* \"#utility.yul\":5547:5567   */\n      tag_132\n        /* \"#utility.yul\":5565:5566   */\n      dup4\n        /* \"#utility.yul\":5547:5567   */\n      tag_49\n      jump\t// in\n    tag_132:\n        /* \"#utility.yul\":5542:5567   */\n      swap3\n      pop\n        /* \"#utility.yul\":5591:5592   */\n      dup3\n        /* \"#utility.yul\":5588:5589   */\n      dup3\n        /* \"#utility.yul\":5584:5593   */\n      sub\n        /* \"#utility.yul\":5576:5593   */\n      swap1\n      pop\n        /* \"#utility.yul\":5615:5616   */\n      dup2\n        /* \"#utility.yul\":5609:5613   */\n      dup2\n        /* \"#utility.yul\":5606:5617   */\n      gt\n        /* \"#utility.yul\":5603:5640   */\n      iszero\n      tag_133\n      jumpi\n        /* \"#utility.yul\":5620:5638   */\n      tag_134\n      tag_53\n      jump\t// in\n    tag_134:\n        /* \"#utility.yul\":5603:5640   */\n    tag_133:\n        /* \"#utility.yul\":5453:5647   */\n      swap3\n      swap2\n      pop\n      pop\n      jump\t// out\n\n    auxdata: 0xa26469706673582212202ade1012fee18ca770c008f51457c0cd03ffc0431580f596293e093fd6fca74664736f6c63430008120033\n}\n",
				"bytecode": {
					"linkReferences": {},
					"object": "608060405234801561001057600080fd5b50610586806100206000396000f3fe608060405234801561001057600080fd5b50600436106100575760003560e01c806366098d4f1461005c578063a1a6c0351461008c578063a391c15b146100bc578063c8a4ac9c146100ec578063f4f3bdc11461011c575b600080fd5b610076600480360381019061007191906101f5565b61014c565b6040516100839190610244565b60405180910390f35b6100a660048036038101906100a1919061025f565b610162565b6040516100b39190610244565b60405180910390f35b6100d660048036038101906100d191906101f5565b610178565b6040516100e39190610244565b60405180910390f35b610106600480360381019061010191906101f5565b61018e565b6040516101139190610244565b60405180910390f35b610136600480360381019061013191906101f5565b6101a4565b6040516101439190610244565b60405180910390f35b6000818361015a91906102bb565b905092915050565b6000600282610171919061042f565b9050919050565b6000818361018691906104a9565b905092915050565b6000818361019c91906104da565b905092915050565b600081836101b2919061051c565b905092915050565b600080fd5b6000819050919050565b6101d2816101bf565b81146101dd57600080fd5b50565b6000813590506101ef816101c9565b92915050565b6000806040838503121561020c5761020b6101ba565b5b600061021a858286016101e0565b925050602061022b858286016101e0565b9150509250929050565b61023e816101bf565b82525050565b60006020820190506102596000830184610235565b92915050565b600060208284031215610275576102746101ba565b5b6000610283848285016101e0565b91505092915050565b7f4e487b7100000000000000000000000000000000000000000000000000000000600052601160045260246000fd5b60006102c6826101bf565b91506102d1836101bf565b92508282019050808211156102e9576102e861028c565b5b92915050565b60008160011c9050919050565b6000808291508390505b6001851115610346578086048111156103225761032161028c565b5b60018516156103315780820291505b808102905061033f856102ef565b9450610306565b94509492505050565b60008261035f576001905061041b565b8161036d576000905061041b565b8160018114610383576002811461038d576103bc565b600191505061041b565b60ff84111561039f5761039e61028c565b5b8360020a9150848211156103b6576103b561028c565b5b5061041b565b5060208310610133831016604e8410600b84101617156103f15782820a9050838111156103ec576103eb61028c565b5b61041b565b6103fe84848460016102fc565b925090508184048111156104155761041461028c565b5b81810290505b9392505050565b600060ff82169050919050565b600061043a826101bf565b915061044583610422565b92506104727fffffffffffffffffffffffffffffffffffffffffffffffffffffffffffffffff848461034f565b905092915050565b7f4e487b7100000000000000000000000000000000000000000000000000000000600052601260045260246000fd5b60006104b4826101bf565b91506104bf836101bf565b9250826104cf576104ce61047a565b5b828204905092915050565b60006104e5826101bf565b91506104f0836101bf565b92508282026104fe816101bf565b915082820484148315176105155761051461028c565b5b5092915050565b6000610527826101bf565b9150610532836101bf565b925082820390508181111561054a5761054961028c565b5b9291505056fea26469706673582212202ade1012fee18ca770c008f51457c0cd03ffc0431580f596293e093fd6fca74664736f6c63430008120033",
					"opcodes": "PUSH1 0x80 PUSH1 0x40 MSTORE CALLVALUE DUP1 ISZERO PUSH2 0x10 JUMPI PUSH1 0x0 DUP1 REVERT JUMPDEST POP PUSH2 0x586 DUP1 PUSH2 0x20 PUSH1 0x0 CODECOPY PUSH1 0x0 RETURN INVALID PUSH1 0x80 PUSH1 0x40 MSTORE CALLVALUE DUP1 ISZERO PUSH2 0x10 JUMPI PUSH1 0x0 DUP1 REVERT JUMPDEST POP PUSH1 0x4 CALLDATASIZE LT PUSH2 0x57 JUMPI PUSH1 0x0 CALLDATALOAD PUSH1 0xE0 SHR DUP1 PUSH4 0x66098D4F EQ PUSH2 0x5C JUMPI DUP1 PUSH4 0xA1A6C035 EQ PUSH2 0x8C JUMPI DUP1 PUSH4 0xA391C15B EQ PUSH2 0xBC JUMPI DUP1 PUSH4 0xC8A4AC9C EQ PUSH2 0xEC JUMPI DUP1 PUSH4 0xF4F3BDC1 EQ PUSH2 0x11C JUMPI JUMPDEST PUSH1 0x0 DUP1 REVERT JUMPDEST PUSH2 0x76 PUSH1 0x4 DUP1 CALLDATASIZE SUB DUP2 ADD SWAP1 PUSH2 0x71 SWAP2 SWAP1 PUSH2 0x1F5 JUMP JUMPDEST PUSH2 0x14C JUMP JUMPDEST PUSH1 0x40 MLOAD PUSH2 0x83 SWAP2 SWAP1 PUSH2 0x244 JUMP JUMPDEST PUSH1 0x40 MLOAD DUP1 SWAP2 SUB SWAP1 RETURN JUMPDEST PUSH2 0xA6 PUSH1 0x4 DUP1 CALLDATASIZE SUB DUP2 ADD SWAP1 PUSH2 0xA1 SWAP2 SWAP1 PUSH2 0x25F JUMP JUMPDEST PUSH2 0x162 JUMP JUMPDEST PUSH1 0x40 MLOAD PUSH2 0xB3 SWAP2 SWAP1 PUSH2 0x244 JUMP JUMPDEST PUSH1 0x40 MLOAD DUP1 SWAP2 SUB SWAP1 RETURN JUMPDEST PUSH2 0xD6 PUSH1 0x4 DUP1 CALLDATASIZE SUB DUP2 ADD SWAP1 PUSH2 0xD1 SWAP2 SWAP1 PUSH2 0x1F5 JUMP JUMPDEST PUSH2 0x178 JUMP JUMPDEST PUSH1 0x40 MLOAD PUSH2 0xE3 SWAP2 SWAP1 PUSH2 0x244 JUMP JUMPDEST PUSH1 0x40 MLOAD DUP1 SWAP2 SUB SWAP1 RETURN JUMPDEST PUSH2 0x106 PUSH1 0x4 DUP1 CALLDATASIZE SUB DUP2 ADD SWAP1 PUSH2 0x101 SWAP2 SWAP1 PUSH2 0x1F5 JUMP JUMPDEST PUSH2 0x18E JUMP JUMPDEST PUSH1 0x40 MLOAD PUSH2 0x113 SWAP2 SWAP1 PUSH2 0x244 JUMP JUMPDEST PUSH1 0x40 MLOAD DUP1 SWAP2 SUB SWAP1 RETURN JUMPDEST PUSH2 0x136 PUSH1 0x4 DUP1 CALLDATASIZE SUB DUP2 ADD SWAP1 PUSH2 0x131 SWAP2 SWAP1 PUSH2 0x1F5 JUMP JUMPDEST PUSH2 0x1A4 JUMP JUMPDEST PUSH1 0x40 MLOAD PUSH2 0x143 SWAP2 SWAP1 PUSH2 0x244 JUMP JUMPDEST PUSH1 0x40 MLOAD DUP1 SWAP2 SUB SWAP1 RETURN JUMPDEST PUSH1 0x0 DUP2 DUP4 PUSH2 0x15A SWAP2 SWAP1 PUSH2 0x2BB JUMP JUMPDEST SWAP1 POP SWAP3 SWAP2 POP POP JUMP JUMPDEST PUSH1 0x0 PUSH1 0x2 DUP3 PUSH2 0x171 SWAP2 SWAP1 PUSH2 0x42F JUMP JUMPDEST SWAP1 POP SWAP2 SWAP1 POP JUMP JUMPDEST PUSH1 0x0 DUP2 DUP4 PUSH2 0x186 SWAP2 SWAP1 PUSH2 0x4A9 JUMP JUMPDEST SWAP1 POP SWAP3 SWAP2 POP POP JUMP JUMPDEST PUSH1 0x0 DUP2 DUP4 PUSH2 0x19C SWAP2 SWAP1 PUSH2 0x4DA JUMP JUMPDEST SWAP1 POP SWAP3 SWAP2 POP POP JUMP JUMPDEST PUSH1 0x0 DUP2 DUP4 PUSH2 0x1B2 SWAP2 SWAP1 PUSH2 0x51C JUMP JUMPDEST SWAP1 POP SWAP3 SWAP2 POP POP JUMP JUMPDEST PUSH1 0x0 DUP1 REVERT JUMPDEST PUSH1 0x0 DUP2 SWAP1 POP SWAP2 SWAP1 POP JUMP JUMPDEST PUSH2 0x1D2 DUP2 PUSH2 0x1BF JUMP JUMPDEST DUP2 EQ PUSH2 0x1DD JUMPI PUSH1 0x0 DUP1 REVERT JUMPDEST POP JUMP JUMPDEST PUSH1 0x0 DUP2 CALLDATALOAD SWAP1 POP PUSH2 0x1EF DUP2 PUSH2 0x1C9 JUMP JUMPDEST SWAP3 SWAP2 POP POP JUMP JUMPDEST PUSH1 0x0 DUP1 PUSH1 0x40 DUP4 DUP6 SUB SLT ISZERO PUSH2 0x20C JUMPI PUSH2 0x20B PUSH2 0x1BA JUMP JUMPDEST JUMPDEST PUSH1 0x0 PUSH2 0x21A DUP6 DUP3 DUP7 ADD PUSH2 0x1E0 JUMP JUMPDEST SWAP3 POP POP PUSH1 0x20 PUSH2 0x22B DUP6 DUP3 DUP7 ADD PUSH2 0x1E0 JUMP JUMPDEST SWAP2 POP POP SWAP3 POP SWAP3 SWAP1 POP JUMP JUMPDEST PUSH2 0x23E DUP2 PUSH2 0x1BF JUMP JUMPDEST DUP3 MSTORE POP POP JUMP JUMPDEST PUSH1 0x0 PUSH1 0x20 DUP3 ADD SWAP1 POP PUSH2 0x259 PUSH1 0x0 DUP4 ADD DUP5 PUSH2 0x235 JUMP JUMPDEST SWAP3 SWAP2 POP POP JUMP JUMPDEST PUSH1 0x0 PUSH1 0x20 DUP3 DUP5 SUB SLT ISZERO PUSH2 0x275 JUMPI PUSH2 0x274 PUSH2 0x1BA JUMP JUMPDEST JUMPDEST PUSH1 0x0 PUSH2 0x283 DUP5 DUP3 DUP6 ADD PUSH2 0x1E0 JUMP JUMPDEST SWAP2 POP POP SWAP3 SWAP2 POP POP JUMP JUMPDEST PUSH32 0x4E487B7100000000000000000000000000000000000000000000000000000000 PUSH1 0x0 MSTORE PUSH1 0x11 PUSH1 0x4 MSTORE PUSH1 0x24 PUSH1 0x0 REVERT JUMPDEST PUSH1 0x0 PUSH2 0x2C6 DUP3 PUSH2 0x1BF JUMP JUMPDEST SWAP2 POP PUSH2 0x2D1 DUP4 PUSH2 0x1BF JUMP JUMPDEST SWAP3 POP DUP3 DUP3 ADD SWAP1 POP DUP1 DUP3 GT ISZERO PUSH2 0x2E9 JUMPI PUSH2 0x2E8 PUSH2 0x28C JUMP JUMPDEST JUMPDEST SWAP3 SWAP2 POP POP JUMP JUMPDEST PUSH1 0x0 DUP2 PUSH1 0x1 SHR SWAP1 POP SWAP2 SWAP1 POP JUMP JUMPDEST PUSH1 0x0 DUP1 DUP3 SWAP2 POP DUP4 SWAP1 POP JUMPDEST PUSH1 0x1 DUP6 GT ISZERO PUSH2 0x346 JUMPI DUP1 DUP7 DIV DUP2 GT ISZERO PUSH2 0x322 JUMPI PUSH2 0x321 PUSH2 0x28C JUMP JUMPDEST JUMPDEST PUSH1 0x1 DUP6 AND ISZERO PUSH2 0x331 JUMPI DUP1 DUP3 MUL SWAP2 POP JUMPDEST DUP1 DUP2 MUL SWAP1 POP PUSH2 0x33F DUP6 PUSH2 0x2EF JUMP JUMPDEST SWAP5 POP PUSH2 0x306 JUMP JUMPDEST SWAP5 POP SWAP5 SWAP3 POP POP POP JUMP JUMPDEST PUSH1 0x0 DUP3 PUSH2 0x35F JUMPI PUSH1 0x1 SWAP1 POP PUSH2 0x41B JUMP JUMPDEST DUP2 PUSH2 0x36D JUMPI PUSH1 0x0 SWAP1 POP PUSH2 0x41B JUMP JUMPDEST DUP2 PUSH1 0x1 DUP2 EQ PUSH2 0x383 JUMPI PUSH1 0x2 DUP2 EQ PUSH2 0x38D JUMPI PUSH2 0x3BC JUMP JUMPDEST PUSH1 0x1 SWAP2 POP POP PUSH2 0x41B JUMP JUMPDEST PUSH1 0xFF DUP5 GT ISZERO PUSH2 0x39F JUMPI PUSH2 0x39E PUSH2 0x28C JUMP JUMPDEST JUMPDEST DUP4 PUSH1 0x2 EXP SWAP2 POP DUP5 DUP3 GT ISZERO PUSH2 0x3B6 JUMPI PUSH2 0x3B5 PUSH2 0x28C JUMP JUMPDEST JUMPDEST POP PUSH2 0x41B JUMP JUMPDEST POP PUSH1 0x20 DUP4 LT PUSH2 0x133 DUP4 LT AND PUSH1 0x4E DUP5 LT PUSH1 0xB DUP5 LT AND OR ISZERO PUSH2 0x3F1 JUMPI DUP3 DUP3 EXP SWAP1 POP DUP4 DUP2 GT ISZERO PUSH2 0x3EC JUMPI PUSH2 0x3EB PUSH2 0x28C JUMP JUMPDEST JUMPDEST PUSH2 0x41B JUMP JUMPDEST PUSH2 0x3FE DUP5 DUP5 DUP5 PUSH1 0x1 PUSH2 0x2FC JUMP JUMPDEST SWAP3 POP SWAP1 POP DUP2 DUP5 DIV DUP2 GT ISZERO PUSH2 0x415 JUMPI PUSH2 0x414 PUSH2 0x28C JUMP JUMPDEST JUMPDEST DUP2 DUP2 MUL SWAP1 POP JUMPDEST SWAP4 SWAP3 POP POP POP JUMP JUMPDEST PUSH1 0x0 PUSH1 0xFF DUP3 AND SWAP1 POP SWAP2 SWAP1 POP JUMP JUMPDEST PUSH1 0x0 PUSH2 0x43A DUP3 PUSH2 0x1BF JUMP JUMPDEST SWAP2 POP PUSH2 0x445 DUP4 PUSH2 0x422 JUMP JUMPDEST SWAP3 POP PUSH2 0x472 PUSH32 0xFFFFFFFFFFFFFFFFFFFFFFFFFFFFFFFFFFFFFFFFFFFFFFFFFFFFFFFFFFFFFFFF DUP5 DUP5 PUSH2 0x34F JUMP JUMPDEST SWAP1 POP SWAP3 SWAP2 POP POP JUMP JUMPDEST PUSH32 0x4E487B7100000000000000000000000000000000000000000000000000000000 PUSH1 0x0 MSTORE PUSH1 0x12 PUSH1 0x4 MSTORE PUSH1 0x24 PUSH1 0x0 REVERT JUMPDEST PUSH1 0x0 PUSH2 0x4B4 DUP3 PUSH2 0x1BF JUMP JUMPDEST SWAP2 POP PUSH2 0x4BF DUP4 PUSH2 0x1BF JUMP JUMPDEST SWAP3 POP DUP3 PUSH2 0x4CF JUMPI PUSH2 0x4CE PUSH2 0x47A JUMP JUMPDEST JUMPDEST DUP3 DUP3 DIV SWAP1 POP SWAP3 SWAP2 POP POP JUMP JUMPDEST PUSH1 0x0 PUSH2 0x4E5 DUP3 PUSH2 0x1BF JUMP JUMPDEST SWAP2 POP PUSH2 0x4F0 DUP4 PUSH2 0x1BF JUMP JUMPDEST SWAP3 POP DUP3 DUP3 MUL PUSH2 0x4FE DUP2 PUSH2 0x1BF JUMP JUMPDEST SWAP2 POP DUP3 DUP3 DIV DUP5 EQ DUP4 ISZERO OR PUSH2 0x515 JUMPI PUSH2 0x514 PUSH2 0x28C JUMP JUMPDEST JUMPDEST POP SWAP3 SWAP2 POP POP JUMP JUMPDEST PUSH1 0x0 PUSH2 0x527 DUP3 PUSH2 0x1BF JUMP JUMPDEST SWAP2 POP PUSH2 0x532 DUP4 PUSH2 0x1BF JUMP JUMPDEST SWAP3 POP DUP3 DUP3 SUB SWAP1 POP DUP2 DUP2 GT ISZERO PUSH2 0x54A JUMPI PUSH2 0x549 PUSH2 0x28C JUMP JUMPDEST JUMPDEST SWAP3 SWAP2 POP POP JUMP INVALID LOG2 PUSH5 0x6970667358 0x22 SLT KECCAK256 0x2A 0xDE LT SLT INVALID 0xE1 DUP13 0xA7 PUSH17 0xC008F51457C0CD03FFC0431580F596293E MULMOD EXTCODEHASH 0xD6 0xFC 0xA7 CHAINID PUSH5 0x736F6C6343 STOP ADDMOD SLT STOP CALLER "
				},
				"gasEstimates": {
					"creation": {
						"codeDepositCost": "282800",
						"executionCost": "324",
						"totalCost": "283124"
					},
					"external": {
						"div(uint256,uint256)": "infinite",
						"minus(uint256,uint256)": "infinite",
						"mul(uint256,uint256)": "infinite",
						"plus(uint256,uint256)": "infinite",
						"sqr(uint256)": "infinite"
					}
				},
				"methodIdentifiers": {
					"div(uint256,uint256)": "a391c15b",
					"minus(uint256,uint256)": "f4f3bdc1",
					"mul(uint256,uint256)": "c8a4ac9c",
					"plus(uint256,uint256)": "66098d4f",
					"sqr(uint256)": "a1a6c035"
				}
			},
			"storageLayout": {
				"storage": [],
				"types": null
			},
			"userdoc": {
				"kind": "user",
				"methods": {},
				"version": 1
			}
		}
	}
}