{
	"contract/solidity_31~40.sol": {
		"Q36": {
			"abi": [
				{
					"inputs": [],
					"name": "a",
					"outputs": [
						{
							"internalType": "uint256",
							"name": "",
							"type": "uint256"
						}
					],
					"stateMutability": "view",
					"type": "function"
				},
				{
					"inputs": [],
					"name": "a_minus",
					"outputs": [],
					"stateMutability": "nonpayable",
					"type": "function"
				},
				{
					"inputs": [],
					"name": "a_plus",
					"outputs": [],
					"stateMutability": "nonpayable",
					"type": "function"
				}
			],
			"devdoc": {
				"kind": "dev",
				"methods": {},
				"version": 1
			},
			"evm": {
				"assembly": "    /* \"contract/solidity_31~40.sol\":3163:3606  contract Q36 {... */\n  mstore(0x40, 0x80)\n    /* \"contract/solidity_31~40.sol\":3241:3251  status.low */\n  0x02\n    /* \"contract/solidity_31~40.sol\":3228:3251  status now = status.low */\n  0x00\n  dup1\n  0x0100\n  exp\n  dup2\n  sload\n  dup2\n  0xff\n  mul\n  not\n  and\n  swap1\n  dup4\n  0x02\n  dup2\n  gt\n  iszero\n  tag_1\n  jumpi\n  tag_2\n  tag_3\n  jump\t// in\ntag_2:\ntag_1:\n  mul\n  or\n  swap1\n  sstore\n  pop\n    /* \"contract/solidity_31~40.sol\":3275:3276  0 */\n  0x00\n    /* \"contract/solidity_31~40.sol\":3259:3276  uint public a = 0 */\n  0x01\n  sstore\n    /* \"contract/solidity_31~40.sol\":3163:3606  contract Q36 {... */\n  callvalue\n  dup1\n  iszero\n  tag_4\n  jumpi\n  0x00\n  dup1\n  revert\ntag_4:\n  pop\n  jump(tag_5)\n    /* \"#utility.yul\":7:187   */\ntag_3:\n    /* \"#utility.yul\":55:132   */\n  0x4e487b7100000000000000000000000000000000000000000000000000000000\n    /* \"#utility.yul\":52:53   */\n  0x00\n    /* \"#utility.yul\":45:133   */\n  mstore\n    /* \"#utility.yul\":152:156   */\n  0x21\n    /* \"#utility.yul\":149:150   */\n  0x04\n    /* \"#utility.yul\":142:157   */\n  mstore\n    /* \"#utility.yul\":176:180   */\n  0x24\n    /* \"#utility.yul\":173:174   */\n  0x00\n    /* \"#utility.yul\":166:181   */\n  revert\n    /* \"contract/solidity_31~40.sol\":3163:3606  contract Q36 {... */\ntag_5:\n  dataSize(sub_0)\n  dup1\n  dataOffset(sub_0)\n  0x00\n  codecopy\n  0x00\n  return\nstop\n\nsub_0: assembly {\n        /* \"contract/solidity_31~40.sol\":3163:3606  contract Q36 {... */\n      mstore(0x40, 0x80)\n      callvalue\n      dup1\n      iszero\n      tag_1\n      jumpi\n      0x00\n      dup1\n      revert\n    tag_1:\n      pop\n      jumpi(tag_2, lt(calldatasize, 0x04))\n      shr(0xe0, calldataload(0x00))\n      dup1\n      0x0dbe671f\n      eq\n      tag_3\n      jumpi\n      dup1\n      0x2d9a120f\n      eq\n      tag_4\n      jumpi\n      dup1\n      0xa428b02e\n      eq\n      tag_5\n      jumpi\n    tag_2:\n      0x00\n      dup1\n      revert\n        /* \"contract/solidity_31~40.sol\":3259:3276  uint public a = 0 */\n    tag_3:\n      tag_6\n      tag_7\n      jump\t// in\n    tag_6:\n      mload(0x40)\n      tag_8\n      swap2\n      swap1\n      tag_9\n      jump\t// in\n    tag_8:\n      mload(0x40)\n      dup1\n      swap2\n      sub\n      swap1\n      return\n        /* \"contract/solidity_31~40.sol\":3358:3423  function a_minus() public a_update() {... */\n    tag_4:\n      tag_10\n      tag_11\n      jump\t// in\n    tag_10:\n      stop\n        /* \"contract/solidity_31~40.sol\":3286:3350  function a_plus() public a_update() {... */\n    tag_5:\n      tag_12\n      tag_13\n      jump\t// in\n    tag_12:\n      stop\n        /* \"contract/solidity_31~40.sol\":3259:3276  uint public a = 0 */\n    tag_7:\n      sload(0x01)\n      dup2\n      jump\t// out\n        /* \"contract/solidity_31~40.sol\":3358:3423  function a_minus() public a_update() {... */\n    tag_11:\n        /* \"contract/solidity_31~40.sol\":3408:3409  a */\n      0x01\n      0x00\n        /* \"contract/solidity_31~40.sol\":3408:3412  a -- */\n      dup2\n      sload\n      dup1\n      swap3\n      swap2\n      swap1\n      tag_16\n      swap1\n      tag_17\n      jump\t// in\n    tag_16:\n      swap2\n      swap1\n      pop\n      sstore\n      pop\n        /* \"contract/solidity_31~40.sol\":3486:3487  7 */\n      0x07\n        /* \"contract/solidity_31~40.sol\":3481:3482  a */\n      sload(0x01)\n        /* \"contract/solidity_31~40.sol\":3481:3487  a >= 7 */\n      lt\n        /* \"contract/solidity_31~40.sol\":3477:3590  if( a >= 7 ) now = status.high ;... */\n      tag_18\n      jumpi\n        /* \"contract/solidity_31~40.sol\":3496:3507  status.high */\n      0x00\n        /* \"contract/solidity_31~40.sol\":3490:3493  now */\n      dup1\n      0x00\n        /* \"contract/solidity_31~40.sol\":3490:3507  now = status.high */\n      0x0100\n      exp\n      dup2\n      sload\n      dup2\n      0xff\n      mul\n      not\n      and\n      swap1\n      dup4\n      0x02\n      dup2\n      gt\n      iszero\n      tag_19\n      jumpi\n      tag_20\n      tag_21\n      jump\t// in\n    tag_20:\n    tag_19:\n      mul\n      or\n      swap1\n      sstore\n      pop\n        /* \"contract/solidity_31~40.sol\":3477:3590  if( a >= 7 ) now = status.high ;... */\n      jump(tag_22)\n    tag_18:\n        /* \"contract/solidity_31~40.sol\":3533:3534  4 */\n      0x04\n        /* \"contract/solidity_31~40.sol\":3528:3529  a */\n      sload(0x01)\n        /* \"contract/solidity_31~40.sol\":3528:3534  a >= 4 */\n      lt\n        /* \"contract/solidity_31~40.sol\":3524:3590  if( a >= 4 ) now = status.neutral ;... */\n      tag_23\n      jumpi\n        /* \"contract/solidity_31~40.sol\":3543:3557  status.neutral */\n      0x01\n        /* \"contract/solidity_31~40.sol\":3537:3540  now */\n      0x00\n      dup1\n        /* \"contract/solidity_31~40.sol\":3537:3557  now = status.neutral */\n      0x0100\n      exp\n      dup2\n      sload\n      dup2\n      0xff\n      mul\n      not\n      and\n      swap1\n      dup4\n      0x02\n      dup2\n      gt\n      iszero\n      tag_24\n      jumpi\n      tag_25\n      tag_21\n      jump\t// in\n    tag_25:\n    tag_24:\n      mul\n      or\n      swap1\n      sstore\n      pop\n        /* \"contract/solidity_31~40.sol\":3524:3590  if( a >= 4 ) now = status.neutral ;... */\n      jump(tag_26)\n    tag_23:\n        /* \"contract/solidity_31~40.sol\":3580:3590  status.low */\n      0x02\n        /* \"contract/solidity_31~40.sol\":3574:3577  now */\n      0x00\n      dup1\n        /* \"contract/solidity_31~40.sol\":3574:3590  now = status.low */\n      0x0100\n      exp\n      dup2\n      sload\n      dup2\n      0xff\n      mul\n      not\n      and\n      swap1\n      dup4\n      0x02\n      dup2\n      gt\n      iszero\n      tag_27\n      jumpi\n      tag_28\n      tag_21\n      jump\t// in\n    tag_28:\n    tag_27:\n      mul\n      or\n      swap1\n      sstore\n      pop\n        /* \"contract/solidity_31~40.sol\":3524:3590  if( a >= 4 ) now = status.neutral ;... */\n    tag_26:\n        /* \"contract/solidity_31~40.sol\":3477:3590  if( a >= 7 ) now = status.high ;... */\n    tag_22:\n        /* \"contract/solidity_31~40.sol\":3358:3423  function a_minus() public a_update() {... */\n      jump\t// out\n        /* \"contract/solidity_31~40.sol\":3286:3350  function a_plus() public a_update() {... */\n    tag_13:\n        /* \"contract/solidity_31~40.sol\":3335:3336  a */\n      0x01\n      0x00\n        /* \"contract/solidity_31~40.sol\":3335:3339  a ++ */\n      dup2\n      sload\n      dup1\n      swap3\n      swap2\n      swap1\n      tag_31\n      swap1\n      tag_32\n      jump\t// in\n    tag_31:\n      swap2\n      swap1\n      pop\n      sstore\n      pop\n        /* \"contract/solidity_31~40.sol\":3486:3487  7 */\n      0x07\n        /* \"contract/solidity_31~40.sol\":3481:3482  a */\n      sload(0x01)\n        /* \"contract/solidity_31~40.sol\":3481:3487  a >= 7 */\n      lt\n        /* \"contract/solidity_31~40.sol\":3477:3590  if( a >= 7 ) now = status.high ;... */\n      tag_33\n      jumpi\n        /* \"contract/solidity_31~40.sol\":3496:3507  status.high */\n      0x00\n        /* \"contract/solidity_31~40.sol\":3490:3493  now */\n      dup1\n      0x00\n        /* \"contract/solidity_31~40.sol\":3490:3507  now = status.high */\n      0x0100\n      exp\n      dup2\n      sload\n      dup2\n      0xff\n      mul\n      not\n      and\n      swap1\n      dup4\n      0x02\n      dup2\n      gt\n      iszero\n      tag_34\n      jumpi\n      tag_35\n      tag_21\n      jump\t// in\n    tag_35:\n    tag_34:\n      mul\n      or\n      swap1\n      sstore\n      pop\n        /* \"contract/solidity_31~40.sol\":3477:3590  if( a >= 7 ) now = status.high ;... */\n      jump(tag_36)\n    tag_33:\n        /* \"contract/solidity_31~40.sol\":3533:3534  4 */\n      0x04\n        /* \"contract/solidity_31~40.sol\":3528:3529  a */\n      sload(0x01)\n        /* \"contract/solidity_31~40.sol\":3528:3534  a >= 4 */\n      lt\n        /* \"contract/solidity_31~40.sol\":3524:3590  if( a >= 4 ) now = status.neutral ;... */\n      tag_37\n      jumpi\n        /* \"contract/solidity_31~40.sol\":3543:3557  status.neutral */\n      0x01\n        /* \"contract/solidity_31~40.sol\":3537:3540  now */\n      0x00\n      dup1\n        /* \"contract/solidity_31~40.sol\":3537:3557  now = status.neutral */\n      0x0100\n      exp\n      dup2\n      sload\n      dup2\n      0xff\n      mul\n      not\n      and\n      swap1\n      dup4\n      0x02\n      dup2\n      gt\n      iszero\n      tag_38\n      jumpi\n      tag_39\n      tag_21\n      jump\t// in\n    tag_39:\n    tag_38:\n      mul\n      or\n      swap1\n      sstore\n      pop\n        /* \"contract/solidity_31~40.sol\":3524:3590  if( a >= 4 ) now = status.neutral ;... */\n      jump(tag_40)\n    tag_37:\n        /* \"contract/solidity_31~40.sol\":3580:3590  status.low */\n      0x02\n        /* \"contract/solidity_31~40.sol\":3574:3577  now */\n      0x00\n      dup1\n        /* \"contract/solidity_31~40.sol\":3574:3590  now = status.low */\n      0x0100\n      exp\n      dup2\n      sload\n      dup2\n      0xff\n      mul\n      not\n      and\n      swap1\n      dup4\n      0x02\n      dup2\n      gt\n      iszero\n      tag_41\n      jumpi\n      tag_42\n      tag_21\n      jump\t// in\n    tag_42:\n    tag_41:\n      mul\n      or\n      swap1\n      sstore\n      pop\n        /* \"contract/solidity_31~40.sol\":3524:3590  if( a >= 4 ) now = status.neutral ;... */\n    tag_40:\n        /* \"contract/solidity_31~40.sol\":3477:3590  if( a >= 7 ) now = status.high ;... */\n    tag_36:\n        /* \"contract/solidity_31~40.sol\":3286:3350  function a_plus() public a_update() {... */\n      jump\t// out\n        /* \"#utility.yul\":7:84   */\n    tag_43:\n        /* \"#utility.yul\":44:51   */\n      0x00\n        /* \"#utility.yul\":73:78   */\n      dup2\n        /* \"#utility.yul\":62:78   */\n      swap1\n      pop\n        /* \"#utility.yul\":7:84   */\n      swap2\n      swap1\n      pop\n      jump\t// out\n        /* \"#utility.yul\":90:208   */\n    tag_44:\n        /* \"#utility.yul\":177:201   */\n      tag_49\n        /* \"#utility.yul\":195:200   */\n      dup2\n        /* \"#utility.yul\":177:201   */\n      tag_43\n      jump\t// in\n    tag_49:\n        /* \"#utility.yul\":172:175   */\n      dup3\n        /* \"#utility.yul\":165:202   */\n      mstore\n        /* \"#utility.yul\":90:208   */\n      pop\n      pop\n      jump\t// out\n        /* \"#utility.yul\":214:436   */\n    tag_9:\n        /* \"#utility.yul\":307:311   */\n      0x00\n        /* \"#utility.yul\":345:347   */\n      0x20\n        /* \"#utility.yul\":334:343   */\n      dup3\n        /* \"#utility.yul\":330:348   */\n      add\n        /* \"#utility.yul\":322:348   */\n      swap1\n      pop\n        /* \"#utility.yul\":358:429   */\n      tag_51\n        /* \"#utility.yul\":426:427   */\n      0x00\n        /* \"#utility.yul\":415:424   */\n      dup4\n        /* \"#utility.yul\":411:428   */\n      add\n        /* \"#utility.yul\":402:408   */\n      dup5\n        /* \"#utility.yul\":358:429   */\n      tag_44\n      jump\t// in\n    tag_51:\n        /* \"#utility.yul\":214:436   */\n      swap3\n      swap2\n      pop\n      pop\n      jump\t// out\n        /* \"#utility.yul\":442:622   */\n    tag_45:\n        /* \"#utility.yul\":490:567   */\n      0x4e487b7100000000000000000000000000000000000000000000000000000000\n        /* \"#utility.yul\":487:488   */\n      0x00\n        /* \"#utility.yul\":480:568   */\n      mstore\n        /* \"#utility.yul\":587:591   */\n      0x11\n        /* \"#utility.yul\":584:585   */\n      0x04\n        /* \"#utility.yul\":577:592   */\n      mstore\n        /* \"#utility.yul\":611:615   */\n      0x24\n        /* \"#utility.yul\":608:609   */\n      0x00\n        /* \"#utility.yul\":601:616   */\n      revert\n        /* \"#utility.yul\":628:799   */\n    tag_17:\n        /* \"#utility.yul\":667:670   */\n      0x00\n        /* \"#utility.yul\":690:714   */\n      tag_54\n        /* \"#utility.yul\":708:713   */\n      dup3\n        /* \"#utility.yul\":690:714   */\n      tag_43\n      jump\t// in\n    tag_54:\n        /* \"#utility.yul\":681:714   */\n      swap2\n      pop\n        /* \"#utility.yul\":736:740   */\n      0x00\n        /* \"#utility.yul\":729:734   */\n      dup3\n        /* \"#utility.yul\":726:741   */\n      sub\n        /* \"#utility.yul\":723:764   */\n      tag_55\n      jumpi\n        /* \"#utility.yul\":744:762   */\n      tag_56\n      tag_45\n      jump\t// in\n    tag_56:\n        /* \"#utility.yul\":723:764   */\n    tag_55:\n        /* \"#utility.yul\":791:792   */\n      0x01\n        /* \"#utility.yul\":784:789   */\n      dup3\n        /* \"#utility.yul\":780:793   */\n      sub\n        /* \"#utility.yul\":773:793   */\n      swap1\n      pop\n        /* \"#utility.yul\":628:799   */\n      swap2\n      swap1\n      pop\n      jump\t// out\n        /* \"#utility.yul\":805:985   */\n    tag_21:\n        /* \"#utility.yul\":853:930   */\n      0x4e487b7100000000000000000000000000000000000000000000000000000000\n        /* \"#utility.yul\":850:851   */\n      0x00\n        /* \"#utility.yul\":843:931   */\n      mstore\n        /* \"#utility.yul\":950:954   */\n      0x21\n        /* \"#utility.yul\":947:948   */\n      0x04\n        /* \"#utility.yul\":940:955   */\n      mstore\n        /* \"#utility.yul\":974:978   */\n      0x24\n        /* \"#utility.yul\":971:972   */\n      0x00\n        /* \"#utility.yul\":964:979   */\n      revert\n        /* \"#utility.yul\":991:1224   */\n    tag_32:\n        /* \"#utility.yul\":1030:1033   */\n      0x00\n        /* \"#utility.yul\":1053:1077   */\n      tag_59\n        /* \"#utility.yul\":1071:1076   */\n      dup3\n        /* \"#utility.yul\":1053:1077   */\n      tag_43\n      jump\t// in\n    tag_59:\n        /* \"#utility.yul\":1044:1077   */\n      swap2\n      pop\n        /* \"#utility.yul\":1099:1165   */\n      0xffffffffffffffffffffffffffffffffffffffffffffffffffffffffffffffff\n        /* \"#utility.yul\":1092:1097   */\n      dup3\n        /* \"#utility.yul\":1089:1166   */\n      sub\n        /* \"#utility.yul\":1086:1189   */\n      tag_60\n      jumpi\n        /* \"#utility.yul\":1169:1187   */\n      tag_61\n      tag_45\n      jump\t// in\n    tag_61:\n        /* \"#utility.yul\":1086:1189   */\n    tag_60:\n        /* \"#utility.yul\":1216:1217   */\n      0x01\n        /* \"#utility.yul\":1209:1214   */\n      dup3\n        /* \"#utility.yul\":1205:1218   */\n      add\n        /* \"#utility.yul\":1198:1218   */\n      swap1\n      pop\n        /* \"#utility.yul\":991:1224   */\n      swap2\n      swap1\n      pop\n      jump\t// out\n\n    auxdata: 0xa26469706673582212208a6cd6495bb61d443f411c2e376e6624b24da9e72b1652229cd9796a83c4bb7264736f6c63430008120033\n}\n",
				"bytecode": {
					"linkReferences": {},
					"object": "608060405260026000806101000a81548160ff0219169083600281111561002957610028610045565b5b0217905550600060015534801561003f57600080fd5b50610074565b7f4e487b7100000000000000000000000000000000000000000000000000000000600052602160045260246000fd5b610327806100836000396000f3fe608060405234801561001057600080fd5b50600436106100415760003560e01c80630dbe671f146100465780632d9a120f14610064578063a428b02e1461006e575b600080fd5b61004e610078565b60405161005b9190610207565b60405180910390f35b61006c61007e565b005b610076610136565b005b60015481565b6001600081548092919061009190610251565b91905055506007600154106100cf5760008060006101000a81548160ff021916908360028111156100c5576100c461027a565b5b0217905550610134565b6004600154106101085760016000806101000a81548160ff021916908360028111156100fe576100fd61027a565b5b0217905550610133565b60026000806101000a81548160ff0219169083600281111561012d5761012c61027a565b5b02179055505b5b565b60016000815480929190610149906102a9565b91905055506007600154106101875760008060006101000a81548160ff0219169083600281111561017d5761017c61027a565b5b02179055506101ec565b6004600154106101c05760016000806101000a81548160ff021916908360028111156101b6576101b561027a565b5b02179055506101eb565b60026000806101000a81548160ff021916908360028111156101e5576101e461027a565b5b02179055505b5b565b6000819050919050565b610201816101ee565b82525050565b600060208201905061021c60008301846101f8565b92915050565b7f4e487b7100000000000000000000000000000000000000000000000000000000600052601160045260246000fd5b600061025c826101ee565b91506000820361026f5761026e610222565b5b600182039050919050565b7f4e487b7100000000000000000000000000000000000000000000000000000000600052602160045260246000fd5b60006102b4826101ee565b91507fffffffffffffffffffffffffffffffffffffffffffffffffffffffffffffffff82036102e6576102e5610222565b5b60018201905091905056fea26469706673582212208a6cd6495bb61d443f411c2e376e6624b24da9e72b1652229cd9796a83c4bb7264736f6c63430008120033",
					"opcodes": "PUSH1 0x80 PUSH1 0x40 MSTORE PUSH1 0x2 PUSH1 0x0 DUP1 PUSH2 0x100 EXP DUP2 SLOAD DUP2 PUSH1 0xFF MUL NOT AND SWAP1 DUP4 PUSH1 0x2 DUP2 GT ISZERO PUSH2 0x29 JUMPI PUSH2 0x28 PUSH2 0x45 JUMP JUMPDEST JUMPDEST MUL OR SWAP1 SSTORE POP PUSH1 0x0 PUSH1 0x1 SSTORE CALLVALUE DUP1 ISZERO PUSH2 0x3F JUMPI PUSH1 0x0 DUP1 REVERT JUMPDEST POP PUSH2 0x74 JUMP JUMPDEST PUSH32 0x4E487B7100000000000000000000000000000000000000000000000000000000 PUSH1 0x0 MSTORE PUSH1 0x21 PUSH1 0x4 MSTORE PUSH1 0x24 PUSH1 0x0 REVERT JUMPDEST PUSH2 0x327 DUP1 PUSH2 0x83 PUSH1 0x0 CODECOPY PUSH1 0x0 RETURN INVALID PUSH1 0x80 PUSH1 0x40 MSTORE CALLVALUE DUP1 ISZERO PUSH2 0x10 JUMPI PUSH1 0x0 DUP1 REVERT JUMPDEST POP PUSH1 0x4 CALLDATASIZE LT PUSH2 0x41 JUMPI PUSH1 0x0 CALLDATALOAD PUSH1 0xE0 SHR DUP1 PUSH4 0xDBE671F EQ PUSH2 0x46 JUMPI DUP1 PUSH4 0x2D9A120F EQ PUSH2 0x64 JUMPI DUP1 PUSH4 0xA428B02E EQ PUSH2 0x6E JUMPI JUMPDEST PUSH1 0x0 DUP1 REVERT JUMPDEST PUSH2 0x4E PUSH2 0x78 JUMP JUMPDEST PUSH1 0x40 MLOAD PUSH2 0x5B SWAP2 SWAP1 PUSH2 0x207 JUMP JUMPDEST PUSH1 0x40 MLOAD DUP1 SWAP2 SUB SWAP1 RETURN JUMPDEST PUSH2 0x6C PUSH2 0x7E JUMP JUMPDEST STOP JUMPDEST PUSH2 0x76 PUSH2 0x136 JUMP JUMPDEST STOP JUMPDEST PUSH1 0x1 SLOAD DUP2 JUMP JUMPDEST PUSH1 0x1 PUSH1 0x0 DUP2 SLOAD DUP1 SWAP3 SWAP2 SWAP1 PUSH2 0x91 SWAP1 PUSH2 0x251 JUMP JUMPDEST SWAP2 SWAP1 POP SSTORE POP PUSH1 0x7 PUSH1 0x1 SLOAD LT PUSH2 0xCF JUMPI PUSH1 0x0 DUP1 PUSH1 0x0 PUSH2 0x100 EXP DUP2 SLOAD DUP2 PUSH1 0xFF MUL NOT AND SWAP1 DUP4 PUSH1 0x2 DUP2 GT ISZERO PUSH2 0xC5 JUMPI PUSH2 0xC4 PUSH2 0x27A JUMP JUMPDEST JUMPDEST MUL OR SWAP1 SSTORE POP PUSH2 0x134 JUMP JUMPDEST PUSH1 0x4 PUSH1 0x1 SLOAD LT PUSH2 0x108 JUMPI PUSH1 0x1 PUSH1 0x0 DUP1 PUSH2 0x100 EXP DUP2 SLOAD DUP2 PUSH1 0xFF MUL NOT AND SWAP1 DUP4 PUSH1 0x2 DUP2 GT ISZERO PUSH2 0xFE JUMPI PUSH2 0xFD PUSH2 0x27A JUMP JUMPDEST JUMPDEST MUL OR SWAP1 SSTORE POP PUSH2 0x133 JUMP JUMPDEST PUSH1 0x2 PUSH1 0x0 DUP1 PUSH2 0x100 EXP DUP2 SLOAD DUP2 PUSH1 0xFF MUL NOT AND SWAP1 DUP4 PUSH1 0x2 DUP2 GT ISZERO PUSH2 0x12D JUMPI PUSH2 0x12C PUSH2 0x27A JUMP JUMPDEST JUMPDEST MUL OR SWAP1 SSTORE POP JUMPDEST JUMPDEST JUMP JUMPDEST PUSH1 0x1 PUSH1 0x0 DUP2 SLOAD DUP1 SWAP3 SWAP2 SWAP1 PUSH2 0x149 SWAP1 PUSH2 0x2A9 JUMP JUMPDEST SWAP2 SWAP1 POP SSTORE POP PUSH1 0x7 PUSH1 0x1 SLOAD LT PUSH2 0x187 JUMPI PUSH1 0x0 DUP1 PUSH1 0x0 PUSH2 0x100 EXP DUP2 SLOAD DUP2 PUSH1 0xFF MUL NOT AND SWAP1 DUP4 PUSH1 0x2 DUP2 GT ISZERO PUSH2 0x17D JUMPI PUSH2 0x17C PUSH2 0x27A JUMP JUMPDEST JUMPDEST MUL OR SWAP1 SSTORE POP PUSH2 0x1EC JUMP JUMPDEST PUSH1 0x4 PUSH1 0x1 SLOAD LT PUSH2 0x1C0 JUMPI PUSH1 0x1 PUSH1 0x0 DUP1 PUSH2 0x100 EXP DUP2 SLOAD DUP2 PUSH1 0xFF MUL NOT AND SWAP1 DUP4 PUSH1 0x2 DUP2 GT ISZERO PUSH2 0x1B6 JUMPI PUSH2 0x1B5 PUSH2 0x27A JUMP JUMPDEST JUMPDEST MUL OR SWAP1 SSTORE POP PUSH2 0x1EB JUMP JUMPDEST PUSH1 0x2 PUSH1 0x0 DUP1 PUSH2 0x100 EXP DUP2 SLOAD DUP2 PUSH1 0xFF MUL NOT AND SWAP1 DUP4 PUSH1 0x2 DUP2 GT ISZERO PUSH2 0x1E5 JUMPI PUSH2 0x1E4 PUSH2 0x27A JUMP JUMPDEST JUMPDEST MUL OR SWAP1 SSTORE POP JUMPDEST JUMPDEST JUMP JUMPDEST PUSH1 0x0 DUP2 SWAP1 POP SWAP2 SWAP1 POP JUMP JUMPDEST PUSH2 0x201 DUP2 PUSH2 0x1EE JUMP JUMPDEST DUP3 MSTORE POP POP JUMP JUMPDEST PUSH1 0x0 PUSH1 0x20 DUP3 ADD SWAP1 POP PUSH2 0x21C PUSH1 0x0 DUP4 ADD DUP5 PUSH2 0x1F8 JUMP JUMPDEST SWAP3 SWAP2 POP POP JUMP JUMPDEST PUSH32 0x4E487B7100000000000000000000000000000000000000000000000000000000 PUSH1 0x0 MSTORE PUSH1 0x11 PUSH1 0x4 MSTORE PUSH1 0x24 PUSH1 0x0 REVERT JUMPDEST PUSH1 0x0 PUSH2 0x25C DUP3 PUSH2 0x1EE JUMP JUMPDEST SWAP2 POP PUSH1 0x0 DUP3 SUB PUSH2 0x26F JUMPI PUSH2 0x26E PUSH2 0x222 JUMP JUMPDEST JUMPDEST PUSH1 0x1 DUP3 SUB SWAP1 POP SWAP2 SWAP1 POP JUMP JUMPDEST PUSH32 0x4E487B7100000000000000000000000000000000000000000000000000000000 PUSH1 0x0 MSTORE PUSH1 0x21 PUSH1 0x4 MSTORE PUSH1 0x24 PUSH1 0x0 REVERT JUMPDEST PUSH1 0x0 PUSH2 0x2B4 DUP3 PUSH2 0x1EE JUMP JUMPDEST SWAP2 POP PUSH32 0xFFFFFFFFFFFFFFFFFFFFFFFFFFFFFFFFFFFFFFFFFFFFFFFFFFFFFFFFFFFFFFFF DUP3 SUB PUSH2 0x2E6 JUMPI PUSH2 0x2E5 PUSH2 0x222 JUMP JUMPDEST JUMPDEST PUSH1 0x1 DUP3 ADD SWAP1 POP SWAP2 SWAP1 POP JUMP INVALID LOG2 PUSH5 0x6970667358 0x22 SLT KECCAK256 DUP11 PUSH13 0xD6495BB61D443F411C2E376E66 0x24 0xB2 0x4D 0xA9 0xE7 0x2B AND MSTORE 0x22 SWAP13 0xD9 PUSH26 0x6A83C4BB7264736F6C6343000812003300000000000000000000 "
				},
				"gasEstimates": {
					"creation": {
						"codeDepositCost": "161400",
						"executionCost": "29513",
						"totalCost": "190913"
					},
					"external": {
						"a()": "2407",
						"a_minus()": "53046",
						"a_plus()": "53068"
					}
				},
				"methodIdentifiers": {
					"a()": "0dbe671f",
					"a_minus()": "2d9a120f",
					"a_plus()": "a428b02e"
				}
			},
			"storageLayout": {
				"storage": [
					{
						"astId": 237,
						"contract": "contract/solidity_31~40.sol:Q36",
						"label": "now",
						"offset": 0,
						"slot": "0",
						"type": "t_enum(status)232"
					},
					{
						"astId": 240,
						"contract": "contract/solidity_31~40.sol:Q36",
						"label": "a",
						"offset": 0,
						"slot": "1",
						"type": "t_uint256"
					}
				],
				"types": {
					"t_enum(status)232": {
						"encoding": "inplace",
						"label": "enum Q36.status",
						"numberOfBytes": "1"
					},
					"t_uint256": {
						"encoding": "inplace",
						"label": "uint256",
						"numberOfBytes": "32"
					}
				}
			},
			"userdoc": {
				"kind": "user",
				"methods": {},
				"version": 1
			}
		}
	}
}