{
	"contract/solidity_31~40.sol": {
		"Q33": {
			"abi": [
				{
					"inputs": [
						{
							"internalType": "string",
							"name": "_name",
							"type": "string"
						}
					],
					"name": "getU",
					"outputs": [
						{
							"components": [
								{
									"internalType": "string",
									"name": "name",
									"type": "string"
								},
								{
									"internalType": "uint256",
									"name": "number",
									"type": "uint256"
								},
								{
									"internalType": "address",
									"name": "add",
									"type": "address"
								},
								{
									"internalType": "uint256",
									"name": "birthday",
									"type": "uint256"
								}
							],
							"internalType": "struct Q33.u_type",
							"name": "",
							"type": "tuple"
						}
					],
					"stateMutability": "view",
					"type": "function"
				},
				{
					"inputs": [
						{
							"internalType": "string",
							"name": "_name",
							"type": "string"
						},
						{
							"internalType": "uint256",
							"name": "_number",
							"type": "uint256"
						},
						{
							"internalType": "address",
							"name": "_add",
							"type": "address"
						},
						{
							"internalType": "uint256",
							"name": "_birthday",
							"type": "uint256"
						}
					],
					"name": "setU",
					"outputs": [],
					"stateMutability": "nonpayable",
					"type": "function"
				}
			],
			"devdoc": {
				"kind": "dev",
				"methods": {},
				"version": 1
			},
			"evm": {
				"assembly": "    /* \"contract/solidity_31~40.sol\":1290:1795  contract Q33 {... */\n  mstore(0x40, 0x80)\n  callvalue\n  dup1\n  iszero\n  tag_1\n  jumpi\n  0x00\n  dup1\n  revert\ntag_1:\n  pop\n  dataSize(sub_0)\n  dup1\n  dataOffset(sub_0)\n  0x00\n  codecopy\n  0x00\n  return\nstop\n\nsub_0: assembly {\n        /* \"contract/solidity_31~40.sol\":1290:1795  contract Q33 {... */\n      mstore(0x40, 0x80)\n      callvalue\n      dup1\n      iszero\n      tag_1\n      jumpi\n      0x00\n      dup1\n      revert\n    tag_1:\n      pop\n      jumpi(tag_2, lt(calldatasize, 0x04))\n      shr(0xe0, calldataload(0x00))\n      dup1\n      0xe7bc4bfb\n      eq\n      tag_3\n      jumpi\n      dup1\n      0xec2d1cd7\n      eq\n      tag_4\n      jumpi\n    tag_2:\n      0x00\n      dup1\n      revert\n        /* \"contract/solidity_31~40.sol\":1670:1790  function getU( string memory _name ) public view returns( u_type memory ){... */\n    tag_3:\n      tag_5\n      0x04\n      dup1\n      calldatasize\n      sub\n      dup2\n      add\n      swap1\n      tag_6\n      swap2\n      swap1\n      tag_7\n      jump\t// in\n    tag_6:\n      tag_8\n      jump\t// in\n    tag_5:\n      mload(0x40)\n      tag_9\n      swap2\n      swap1\n      tag_10\n      jump\t// in\n    tag_9:\n      mload(0x40)\n      dup1\n      swap2\n      sub\n      swap1\n      return\n        /* \"contract/solidity_31~40.sol\":1484:1662  function setU( string memory _name , uint _number , address _add , uint _birthday ) public {... */\n    tag_4:\n      tag_11\n      0x04\n      dup1\n      calldatasize\n      sub\n      dup2\n      add\n      swap1\n      tag_12\n      swap2\n      swap1\n      tag_13\n      jump\t// in\n    tag_12:\n      tag_14\n      jump\t// in\n    tag_11:\n      stop\n        /* \"contract/solidity_31~40.sol\":1670:1790  function getU( string memory _name ) public view returns( u_type memory ){... */\n    tag_8:\n        /* \"contract/solidity_31~40.sol\":1728:1741  u_type memory */\n      tag_15\n      tag_16\n      jump\t// in\n    tag_15:\n        /* \"contract/solidity_31~40.sol\":1763:1770  user_db */\n      0x00\n        /* \"contract/solidity_31~40.sol\":1772:1777  _name */\n      dup3\n        /* \"contract/solidity_31~40.sol\":1763:1779  user_db[ _name ] */\n      mload(0x40)\n      tag_18\n      swap2\n      swap1\n      tag_19\n      jump\t// in\n    tag_18:\n      swap1\n      dup2\n      mstore\n      0x20\n      add\n      mload(0x40)\n      dup1\n      swap2\n      sub\n      swap1\n      keccak256\n        /* \"contract/solidity_31~40.sol\":1756:1779  return user_db[ _name ] */\n      mload(0x40)\n      dup1\n      0x80\n      add\n      0x40\n      mstore\n      swap1\n      dup2\n      0x00\n      dup3\n      add\n      dup1\n      sload\n      tag_20\n      swap1\n      tag_21\n      jump\t// in\n    tag_20:\n      dup1\n      0x1f\n      add\n      0x20\n      dup1\n      swap2\n      div\n      mul\n      0x20\n      add\n      mload(0x40)\n      swap1\n      dup2\n      add\n      0x40\n      mstore\n      dup1\n      swap3\n      swap2\n      swap1\n      dup2\n      dup2\n      mstore\n      0x20\n      add\n      dup3\n      dup1\n      sload\n      tag_22\n      swap1\n      tag_21\n      jump\t// in\n    tag_22:\n      dup1\n      iszero\n      tag_23\n      jumpi\n      dup1\n      0x1f\n      lt\n      tag_24\n      jumpi\n      0x0100\n      dup1\n      dup4\n      sload\n      div\n      mul\n      dup4\n      mstore\n      swap2\n      0x20\n      add\n      swap2\n      jump(tag_23)\n    tag_24:\n      dup3\n      add\n      swap2\n      swap1\n      0x00\n      mstore\n      keccak256(0x00, 0x20)\n      swap1\n    tag_25:\n      dup2\n      sload\n      dup2\n      mstore\n      swap1\n      0x01\n      add\n      swap1\n      0x20\n      add\n      dup1\n      dup4\n      gt\n      tag_25\n      jumpi\n      dup3\n      swap1\n      sub\n      0x1f\n      and\n      dup3\n      add\n      swap2\n    tag_23:\n      pop\n      pop\n      pop\n      pop\n      pop\n      dup2\n      mstore\n      0x20\n      add\n      0x01\n      dup3\n      add\n      sload\n      dup2\n      mstore\n      0x20\n      add\n      0x02\n      dup3\n      add\n      0x00\n      swap1\n      sload\n      swap1\n      0x0100\n      exp\n      swap1\n      div\n      0xffffffffffffffffffffffffffffffffffffffff\n      and\n      0xffffffffffffffffffffffffffffffffffffffff\n      and\n      0xffffffffffffffffffffffffffffffffffffffff\n      and\n      dup2\n      mstore\n      0x20\n      add\n      0x03\n      dup3\n      add\n      sload\n      dup2\n      mstore\n      pop\n      pop\n      swap1\n      pop\n        /* \"contract/solidity_31~40.sol\":1670:1790  function getU( string memory _name ) public view returns( u_type memory ){... */\n      swap2\n      swap1\n      pop\n      jump\t// out\n        /* \"contract/solidity_31~40.sol\":1484:1662  function setU( string memory _name , uint _number , address _add , uint _birthday ) public {... */\n    tag_14:\n        /* \"contract/solidity_31~40.sol\":1607:1651  u_type( _name , _number , _add , _birthday ) */\n      mload(0x40)\n      dup1\n      0x80\n      add\n      0x40\n      mstore\n      dup1\n        /* \"contract/solidity_31~40.sol\":1615:1620  _name */\n      dup6\n        /* \"contract/solidity_31~40.sol\":1607:1651  u_type( _name , _number , _add , _birthday ) */\n      dup2\n      mstore\n      0x20\n      add\n        /* \"contract/solidity_31~40.sol\":1623:1630  _number */\n      dup5\n        /* \"contract/solidity_31~40.sol\":1607:1651  u_type( _name , _number , _add , _birthday ) */\n      dup2\n      mstore\n      0x20\n      add\n        /* \"contract/solidity_31~40.sol\":1633:1637  _add */\n      dup4\n        /* \"contract/solidity_31~40.sol\":1607:1651  u_type( _name , _number , _add , _birthday ) */\n      0xffffffffffffffffffffffffffffffffffffffff\n      and\n      dup2\n      mstore\n      0x20\n      add\n        /* \"contract/solidity_31~40.sol\":1640:1649  _birthday */\n      dup3\n        /* \"contract/solidity_31~40.sol\":1607:1651  u_type( _name , _number , _add , _birthday ) */\n      dup2\n      mstore\n      pop\n        /* \"contract/solidity_31~40.sol\":1588:1595  user_db */\n      0x00\n        /* \"contract/solidity_31~40.sol\":1597:1602  _name */\n      dup6\n        /* \"contract/solidity_31~40.sol\":1588:1604  user_db[ _name ] */\n      mload(0x40)\n      tag_27\n      swap2\n      swap1\n      tag_19\n      jump\t// in\n    tag_27:\n      swap1\n      dup2\n      mstore\n      0x20\n      add\n      mload(0x40)\n      dup1\n      swap2\n      sub\n      swap1\n      keccak256\n        /* \"contract/solidity_31~40.sol\":1588:1651  user_db[ _name ] = u_type( _name , _number , _add , _birthday ) */\n      0x00\n      dup3\n      add\n      mload\n      dup2\n      0x00\n      add\n      swap1\n      dup2\n      tag_28\n      swap2\n      swap1\n      tag_29\n      jump\t// in\n    tag_28:\n      pop\n      0x20\n      dup3\n      add\n      mload\n      dup2\n      0x01\n      add\n      sstore\n      0x40\n      dup3\n      add\n      mload\n      dup2\n      0x02\n      add\n      exp(0x0100, 0x00)\n      dup2\n      sload\n      dup2\n      0xffffffffffffffffffffffffffffffffffffffff\n      mul\n      not\n      and\n      swap1\n      dup4\n      0xffffffffffffffffffffffffffffffffffffffff\n      and\n      mul\n      or\n      swap1\n      sstore\n      pop\n      0x60\n      dup3\n      add\n      mload\n      dup2\n      0x03\n      add\n      sstore\n      swap1\n      pop\n      pop\n        /* \"contract/solidity_31~40.sol\":1484:1662  function setU( string memory _name , uint _number , address _add , uint _birthday ) public {... */\n      pop\n      pop\n      pop\n      pop\n      jump\t// out\n    tag_16:\n      mload(0x40)\n      dup1\n      0x80\n      add\n      0x40\n      mstore\n      dup1\n      0x60\n      dup2\n      mstore\n      0x20\n      add\n      0x00\n      dup2\n      mstore\n      0x20\n      add\n      and(0xffffffffffffffffffffffffffffffffffffffff, 0x00)\n      dup2\n      mstore\n      0x20\n      add\n      0x00\n      dup2\n      mstore\n      pop\n      swap1\n      jump\t// out\n        /* \"#utility.yul\":7:82   */\n    tag_30:\n        /* \"#utility.yul\":40:46   */\n      0x00\n        /* \"#utility.yul\":73:75   */\n      0x40\n        /* \"#utility.yul\":67:76   */\n      mload\n        /* \"#utility.yul\":57:76   */\n      swap1\n      pop\n        /* \"#utility.yul\":7:82   */\n      swap1\n      jump\t// out\n        /* \"#utility.yul\":88:205   */\n    tag_31:\n        /* \"#utility.yul\":197:198   */\n      0x00\n        /* \"#utility.yul\":194:195   */\n      dup1\n        /* \"#utility.yul\":187:199   */\n      revert\n        /* \"#utility.yul\":211:328   */\n    tag_32:\n        /* \"#utility.yul\":320:321   */\n      0x00\n        /* \"#utility.yul\":317:318   */\n      dup1\n        /* \"#utility.yul\":310:322   */\n      revert\n        /* \"#utility.yul\":334:451   */\n    tag_33:\n        /* \"#utility.yul\":443:444   */\n      0x00\n        /* \"#utility.yul\":440:441   */\n      dup1\n        /* \"#utility.yul\":433:445   */\n      revert\n        /* \"#utility.yul\":457:574   */\n    tag_34:\n        /* \"#utility.yul\":566:567   */\n      0x00\n        /* \"#utility.yul\":563:564   */\n      dup1\n        /* \"#utility.yul\":556:568   */\n      revert\n        /* \"#utility.yul\":580:682   */\n    tag_35:\n        /* \"#utility.yul\":621:627   */\n      0x00\n        /* \"#utility.yul\":672:674   */\n      0x1f\n        /* \"#utility.yul\":668:675   */\n      not\n        /* \"#utility.yul\":663:665   */\n      0x1f\n        /* \"#utility.yul\":656:661   */\n      dup4\n        /* \"#utility.yul\":652:666   */\n      add\n        /* \"#utility.yul\":648:676   */\n      and\n        /* \"#utility.yul\":638:676   */\n      swap1\n      pop\n        /* \"#utility.yul\":580:682   */\n      swap2\n      swap1\n      pop\n      jump\t// out\n        /* \"#utility.yul\":688:868   */\n    tag_36:\n        /* \"#utility.yul\":736:813   */\n      0x4e487b7100000000000000000000000000000000000000000000000000000000\n        /* \"#utility.yul\":733:734   */\n      0x00\n        /* \"#utility.yul\":726:814   */\n      mstore\n        /* \"#utility.yul\":833:837   */\n      0x41\n        /* \"#utility.yul\":830:831   */\n      0x04\n        /* \"#utility.yul\":823:838   */\n      mstore\n        /* \"#utility.yul\":857:861   */\n      0x24\n        /* \"#utility.yul\":854:855   */\n      0x00\n        /* \"#utility.yul\":847:862   */\n      revert\n        /* \"#utility.yul\":874:1155   */\n    tag_37:\n        /* \"#utility.yul\":957:984   */\n      tag_84\n        /* \"#utility.yul\":979:983   */\n      dup3\n        /* \"#utility.yul\":957:984   */\n      tag_35\n      jump\t// in\n    tag_84:\n        /* \"#utility.yul\":949:955   */\n      dup2\n        /* \"#utility.yul\":945:985   */\n      add\n        /* \"#utility.yul\":1087:1093   */\n      dup2\n        /* \"#utility.yul\":1075:1085   */\n      dup2\n        /* \"#utility.yul\":1072:1094   */\n      lt\n        /* \"#utility.yul\":1051:1069   */\n      0xffffffffffffffff\n        /* \"#utility.yul\":1039:1049   */\n      dup3\n        /* \"#utility.yul\":1036:1070   */\n      gt\n        /* \"#utility.yul\":1033:1095   */\n      or\n        /* \"#utility.yul\":1030:1118   */\n      iszero\n      tag_85\n      jumpi\n        /* \"#utility.yul\":1098:1116   */\n      tag_86\n      tag_36\n      jump\t// in\n    tag_86:\n        /* \"#utility.yul\":1030:1118   */\n    tag_85:\n        /* \"#utility.yul\":1138:1148   */\n      dup1\n        /* \"#utility.yul\":1134:1136   */\n      0x40\n        /* \"#utility.yul\":1127:1149   */\n      mstore\n        /* \"#utility.yul\":917:1155   */\n      pop\n        /* \"#utility.yul\":874:1155   */\n      pop\n      pop\n      jump\t// out\n        /* \"#utility.yul\":1161:1290   */\n    tag_38:\n        /* \"#utility.yul\":1195:1201   */\n      0x00\n        /* \"#utility.yul\":1222:1242   */\n      tag_88\n      tag_30\n      jump\t// in\n    tag_88:\n        /* \"#utility.yul\":1212:1242   */\n      swap1\n      pop\n        /* \"#utility.yul\":1251:1284   */\n      tag_89\n        /* \"#utility.yul\":1279:1283   */\n      dup3\n        /* \"#utility.yul\":1271:1277   */\n      dup3\n        /* \"#utility.yul\":1251:1284   */\n      tag_37\n      jump\t// in\n    tag_89:\n        /* \"#utility.yul\":1161:1290   */\n      swap2\n      swap1\n      pop\n      jump\t// out\n        /* \"#utility.yul\":1296:1604   */\n    tag_39:\n        /* \"#utility.yul\":1358:1362   */\n      0x00\n        /* \"#utility.yul\":1448:1466   */\n      0xffffffffffffffff\n        /* \"#utility.yul\":1440:1446   */\n      dup3\n        /* \"#utility.yul\":1437:1467   */\n      gt\n        /* \"#utility.yul\":1434:1490   */\n      iszero\n      tag_91\n      jumpi\n        /* \"#utility.yul\":1470:1488   */\n      tag_92\n      tag_36\n      jump\t// in\n    tag_92:\n        /* \"#utility.yul\":1434:1490   */\n    tag_91:\n        /* \"#utility.yul\":1508:1537   */\n      tag_93\n        /* \"#utility.yul\":1530:1536   */\n      dup3\n        /* \"#utility.yul\":1508:1537   */\n      tag_35\n      jump\t// in\n    tag_93:\n        /* \"#utility.yul\":1500:1537   */\n      swap1\n      pop\n        /* \"#utility.yul\":1592:1596   */\n      0x20\n        /* \"#utility.yul\":1586:1590   */\n      dup2\n        /* \"#utility.yul\":1582:1597   */\n      add\n        /* \"#utility.yul\":1574:1597   */\n      swap1\n      pop\n        /* \"#utility.yul\":1296:1604   */\n      swap2\n      swap1\n      pop\n      jump\t// out\n        /* \"#utility.yul\":1610:1756   */\n    tag_40:\n        /* \"#utility.yul\":1707:1713   */\n      dup3\n        /* \"#utility.yul\":1702:1705   */\n      dup2\n        /* \"#utility.yul\":1697:1700   */\n      dup4\n        /* \"#utility.yul\":1684:1714   */\n      calldatacopy\n        /* \"#utility.yul\":1748:1749   */\n      0x00\n        /* \"#utility.yul\":1739:1745   */\n      dup4\n        /* \"#utility.yul\":1734:1737   */\n      dup4\n        /* \"#utility.yul\":1730:1746   */\n      add\n        /* \"#utility.yul\":1723:1750   */\n      mstore\n        /* \"#utility.yul\":1610:1756   */\n      pop\n      pop\n      pop\n      jump\t// out\n        /* \"#utility.yul\":1762:2187   */\n    tag_41:\n        /* \"#utility.yul\":1840:1845   */\n      0x00\n        /* \"#utility.yul\":1865:1931   */\n      tag_96\n        /* \"#utility.yul\":1881:1930   */\n      tag_97\n        /* \"#utility.yul\":1923:1929   */\n      dup5\n        /* \"#utility.yul\":1881:1930   */\n      tag_39\n      jump\t// in\n    tag_97:\n        /* \"#utility.yul\":1865:1931   */\n      tag_38\n      jump\t// in\n    tag_96:\n        /* \"#utility.yul\":1856:1931   */\n      swap1\n      pop\n        /* \"#utility.yul\":1954:1960   */\n      dup3\n        /* \"#utility.yul\":1947:1952   */\n      dup2\n        /* \"#utility.yul\":1940:1961   */\n      mstore\n        /* \"#utility.yul\":1992:1996   */\n      0x20\n        /* \"#utility.yul\":1985:1990   */\n      dup2\n        /* \"#utility.yul\":1981:1997   */\n      add\n        /* \"#utility.yul\":2030:2033   */\n      dup5\n        /* \"#utility.yul\":2021:2027   */\n      dup5\n        /* \"#utility.yul\":2016:2019   */\n      dup5\n        /* \"#utility.yul\":2012:2028   */\n      add\n        /* \"#utility.yul\":2009:2034   */\n      gt\n        /* \"#utility.yul\":2006:2118   */\n      iszero\n      tag_98\n      jumpi\n        /* \"#utility.yul\":2037:2116   */\n      tag_99\n      tag_34\n      jump\t// in\n    tag_99:\n        /* \"#utility.yul\":2006:2118   */\n    tag_98:\n        /* \"#utility.yul\":2127:2181   */\n      tag_100\n        /* \"#utility.yul\":2174:2180   */\n      dup5\n        /* \"#utility.yul\":2169:2172   */\n      dup3\n        /* \"#utility.yul\":2164:2167   */\n      dup6\n        /* \"#utility.yul\":2127:2181   */\n      tag_40\n      jump\t// in\n    tag_100:\n        /* \"#utility.yul\":1846:2187   */\n      pop\n        /* \"#utility.yul\":1762:2187   */\n      swap4\n      swap3\n      pop\n      pop\n      pop\n      jump\t// out\n        /* \"#utility.yul\":2207:2547   */\n    tag_42:\n        /* \"#utility.yul\":2263:2268   */\n      0x00\n        /* \"#utility.yul\":2312:2315   */\n      dup3\n        /* \"#utility.yul\":2305:2309   */\n      0x1f\n        /* \"#utility.yul\":2297:2303   */\n      dup4\n        /* \"#utility.yul\":2293:2310   */\n      add\n        /* \"#utility.yul\":2289:2316   */\n      slt\n        /* \"#utility.yul\":2279:2401   */\n      tag_102\n      jumpi\n        /* \"#utility.yul\":2320:2399   */\n      tag_103\n      tag_33\n      jump\t// in\n    tag_103:\n        /* \"#utility.yul\":2279:2401   */\n    tag_102:\n        /* \"#utility.yul\":2437:2443   */\n      dup2\n        /* \"#utility.yul\":2424:2444   */\n      calldataload\n        /* \"#utility.yul\":2462:2541   */\n      tag_104\n        /* \"#utility.yul\":2537:2540   */\n      dup5\n        /* \"#utility.yul\":2529:2535   */\n      dup3\n        /* \"#utility.yul\":2522:2526   */\n      0x20\n        /* \"#utility.yul\":2514:2520   */\n      dup7\n        /* \"#utility.yul\":2510:2527   */\n      add\n        /* \"#utility.yul\":2462:2541   */\n      tag_41\n      jump\t// in\n    tag_104:\n        /* \"#utility.yul\":2453:2541   */\n      swap2\n      pop\n        /* \"#utility.yul\":2269:2547   */\n      pop\n        /* \"#utility.yul\":2207:2547   */\n      swap3\n      swap2\n      pop\n      pop\n      jump\t// out\n        /* \"#utility.yul\":2553:3062   */\n    tag_7:\n        /* \"#utility.yul\":2622:2628   */\n      0x00\n        /* \"#utility.yul\":2671:2673   */\n      0x20\n        /* \"#utility.yul\":2659:2668   */\n      dup3\n        /* \"#utility.yul\":2650:2657   */\n      dup5\n        /* \"#utility.yul\":2646:2669   */\n      sub\n        /* \"#utility.yul\":2642:2674   */\n      slt\n        /* \"#utility.yul\":2639:2758   */\n      iszero\n      tag_106\n      jumpi\n        /* \"#utility.yul\":2677:2756   */\n      tag_107\n      tag_31\n      jump\t// in\n    tag_107:\n        /* \"#utility.yul\":2639:2758   */\n    tag_106:\n        /* \"#utility.yul\":2825:2826   */\n      0x00\n        /* \"#utility.yul\":2814:2823   */\n      dup3\n        /* \"#utility.yul\":2810:2827   */\n      add\n        /* \"#utility.yul\":2797:2828   */\n      calldataload\n        /* \"#utility.yul\":2855:2873   */\n      0xffffffffffffffff\n        /* \"#utility.yul\":2847:2853   */\n      dup2\n        /* \"#utility.yul\":2844:2874   */\n      gt\n        /* \"#utility.yul\":2841:2958   */\n      iszero\n      tag_108\n      jumpi\n        /* \"#utility.yul\":2877:2956   */\n      tag_109\n      tag_32\n      jump\t// in\n    tag_109:\n        /* \"#utility.yul\":2841:2958   */\n    tag_108:\n        /* \"#utility.yul\":2982:3045   */\n      tag_110\n        /* \"#utility.yul\":3037:3044   */\n      dup5\n        /* \"#utility.yul\":3028:3034   */\n      dup3\n        /* \"#utility.yul\":3017:3026   */\n      dup6\n        /* \"#utility.yul\":3013:3035   */\n      add\n        /* \"#utility.yul\":2982:3045   */\n      tag_42\n      jump\t// in\n    tag_110:\n        /* \"#utility.yul\":2972:3045   */\n      swap2\n      pop\n        /* \"#utility.yul\":2768:3055   */\n      pop\n        /* \"#utility.yul\":2553:3062   */\n      swap3\n      swap2\n      pop\n      pop\n      jump\t// out\n        /* \"#utility.yul\":3068:3167   */\n    tag_43:\n        /* \"#utility.yul\":3120:3126   */\n      0x00\n        /* \"#utility.yul\":3154:3159   */\n      dup2\n        /* \"#utility.yul\":3148:3160   */\n      mload\n        /* \"#utility.yul\":3138:3160   */\n      swap1\n      pop\n        /* \"#utility.yul\":3068:3167   */\n      swap2\n      swap1\n      pop\n      jump\t// out\n        /* \"#utility.yul\":3173:3332   */\n    tag_44:\n        /* \"#utility.yul\":3247:3258   */\n      0x00\n        /* \"#utility.yul\":3281:3287   */\n      dup3\n        /* \"#utility.yul\":3276:3279   */\n      dup3\n        /* \"#utility.yul\":3269:3288   */\n      mstore\n        /* \"#utility.yul\":3321:3325   */\n      0x20\n        /* \"#utility.yul\":3316:3319   */\n      dup3\n        /* \"#utility.yul\":3312:3326   */\n      add\n        /* \"#utility.yul\":3297:3326   */\n      swap1\n      pop\n        /* \"#utility.yul\":3173:3332   */\n      swap3\n      swap2\n      pop\n      pop\n      jump\t// out\n        /* \"#utility.yul\":3338:3584   */\n    tag_45:\n        /* \"#utility.yul\":3419:3420   */\n      0x00\n        /* \"#utility.yul\":3429:3542   */\n    tag_114:\n        /* \"#utility.yul\":3443:3449   */\n      dup4\n        /* \"#utility.yul\":3440:3441   */\n      dup2\n        /* \"#utility.yul\":3437:3450   */\n      lt\n        /* \"#utility.yul\":3429:3542   */\n      iszero\n      tag_116\n      jumpi\n        /* \"#utility.yul\":3528:3529   */\n      dup1\n        /* \"#utility.yul\":3523:3526   */\n      dup3\n        /* \"#utility.yul\":3519:3530   */\n      add\n        /* \"#utility.yul\":3513:3531   */\n      mload\n        /* \"#utility.yul\":3509:3510   */\n      dup2\n        /* \"#utility.yul\":3504:3507   */\n      dup5\n        /* \"#utility.yul\":3500:3511   */\n      add\n        /* \"#utility.yul\":3493:3532   */\n      mstore\n        /* \"#utility.yul\":3465:3467   */\n      0x20\n        /* \"#utility.yul\":3462:3463   */\n      dup2\n        /* \"#utility.yul\":3458:3468   */\n      add\n        /* \"#utility.yul\":3453:3468   */\n      swap1\n      pop\n        /* \"#utility.yul\":3429:3542   */\n      jump(tag_114)\n    tag_116:\n        /* \"#utility.yul\":3576:3577   */\n      0x00\n        /* \"#utility.yul\":3567:3573   */\n      dup5\n        /* \"#utility.yul\":3562:3565   */\n      dup5\n        /* \"#utility.yul\":3558:3574   */\n      add\n        /* \"#utility.yul\":3551:3578   */\n      mstore\n        /* \"#utility.yul\":3400:3584   */\n      pop\n        /* \"#utility.yul\":3338:3584   */\n      pop\n      pop\n      pop\n      jump\t// out\n        /* \"#utility.yul\":3590:3947   */\n    tag_46:\n        /* \"#utility.yul\":3668:3671   */\n      0x00\n        /* \"#utility.yul\":3696:3735   */\n      tag_118\n        /* \"#utility.yul\":3729:3734   */\n      dup3\n        /* \"#utility.yul\":3696:3735   */\n      tag_43\n      jump\t// in\n    tag_118:\n        /* \"#utility.yul\":3751:3812   */\n      tag_119\n        /* \"#utility.yul\":3805:3811   */\n      dup2\n        /* \"#utility.yul\":3800:3803   */\n      dup6\n        /* \"#utility.yul\":3751:3812   */\n      tag_44\n      jump\t// in\n    tag_119:\n        /* \"#utility.yul\":3744:3812   */\n      swap4\n      pop\n        /* \"#utility.yul\":3821:3886   */\n      tag_120\n        /* \"#utility.yul\":3879:3885   */\n      dup2\n        /* \"#utility.yul\":3874:3877   */\n      dup6\n        /* \"#utility.yul\":3867:3871   */\n      0x20\n        /* \"#utility.yul\":3860:3865   */\n      dup7\n        /* \"#utility.yul\":3856:3872   */\n      add\n        /* \"#utility.yul\":3821:3886   */\n      tag_45\n      jump\t// in\n    tag_120:\n        /* \"#utility.yul\":3911:3940   */\n      tag_121\n        /* \"#utility.yul\":3933:3939   */\n      dup2\n        /* \"#utility.yul\":3911:3940   */\n      tag_35\n      jump\t// in\n    tag_121:\n        /* \"#utility.yul\":3906:3909   */\n      dup5\n        /* \"#utility.yul\":3902:3941   */\n      add\n        /* \"#utility.yul\":3895:3941   */\n      swap2\n      pop\n        /* \"#utility.yul\":3672:3947   */\n      pop\n        /* \"#utility.yul\":3590:3947   */\n      swap3\n      swap2\n      pop\n      pop\n      jump\t// out\n        /* \"#utility.yul\":3953:4030   */\n    tag_47:\n        /* \"#utility.yul\":3990:3997   */\n      0x00\n        /* \"#utility.yul\":4019:4024   */\n      dup2\n        /* \"#utility.yul\":4008:4024   */\n      swap1\n      pop\n        /* \"#utility.yul\":3953:4030   */\n      swap2\n      swap1\n      pop\n      jump\t// out\n        /* \"#utility.yul\":4036:4144   */\n    tag_48:\n        /* \"#utility.yul\":4113:4137   */\n      tag_124\n        /* \"#utility.yul\":4131:4136   */\n      dup2\n        /* \"#utility.yul\":4113:4137   */\n      tag_47\n      jump\t// in\n    tag_124:\n        /* \"#utility.yul\":4108:4111   */\n      dup3\n        /* \"#utility.yul\":4101:4138   */\n      mstore\n        /* \"#utility.yul\":4036:4144   */\n      pop\n      pop\n      jump\t// out\n        /* \"#utility.yul\":4150:4276   */\n    tag_49:\n        /* \"#utility.yul\":4187:4194   */\n      0x00\n        /* \"#utility.yul\":4227:4269   */\n      0xffffffffffffffffffffffffffffffffffffffff\n        /* \"#utility.yul\":4220:4225   */\n      dup3\n        /* \"#utility.yul\":4216:4270   */\n      and\n        /* \"#utility.yul\":4205:4270   */\n      swap1\n      pop\n        /* \"#utility.yul\":4150:4276   */\n      swap2\n      swap1\n      pop\n      jump\t// out\n        /* \"#utility.yul\":4282:4378   */\n    tag_50:\n        /* \"#utility.yul\":4319:4326   */\n      0x00\n        /* \"#utility.yul\":4348:4372   */\n      tag_127\n        /* \"#utility.yul\":4366:4371   */\n      dup3\n        /* \"#utility.yul\":4348:4372   */\n      tag_49\n      jump\t// in\n    tag_127:\n        /* \"#utility.yul\":4337:4372   */\n      swap1\n      pop\n        /* \"#utility.yul\":4282:4378   */\n      swap2\n      swap1\n      pop\n      jump\t// out\n        /* \"#utility.yul\":4384:4492   */\n    tag_51:\n        /* \"#utility.yul\":4461:4485   */\n      tag_129\n        /* \"#utility.yul\":4479:4484   */\n      dup2\n        /* \"#utility.yul\":4461:4485   */\n      tag_50\n      jump\t// in\n    tag_129:\n        /* \"#utility.yul\":4456:4459   */\n      dup3\n        /* \"#utility.yul\":4449:4486   */\n      mstore\n        /* \"#utility.yul\":4384:4492   */\n      pop\n      pop\n      jump\t// out\n        /* \"#utility.yul\":4544:5497   */\n    tag_52:\n        /* \"#utility.yul\":4657:4660   */\n      0x00\n        /* \"#utility.yul\":4693:4697   */\n      0x80\n        /* \"#utility.yul\":4688:4691   */\n      dup4\n        /* \"#utility.yul\":4684:4698   */\n      add\n        /* \"#utility.yul\":4780:4784   */\n      0x00\n        /* \"#utility.yul\":4773:4778   */\n      dup4\n        /* \"#utility.yul\":4769:4785   */\n      add\n        /* \"#utility.yul\":4763:4786   */\n      mload\n        /* \"#utility.yul\":4833:4836   */\n      dup5\n        /* \"#utility.yul\":4827:4831   */\n      dup3\n        /* \"#utility.yul\":4823:4837   */\n      sub\n        /* \"#utility.yul\":4816:4820   */\n      0x00\n        /* \"#utility.yul\":4811:4814   */\n      dup7\n        /* \"#utility.yul\":4807:4821   */\n      add\n        /* \"#utility.yul\":4800:4838   */\n      mstore\n        /* \"#utility.yul\":4859:4932   */\n      tag_131\n        /* \"#utility.yul\":4927:4931   */\n      dup3\n        /* \"#utility.yul\":4913:4925   */\n      dup3\n        /* \"#utility.yul\":4859:4932   */\n      tag_46\n      jump\t// in\n    tag_131:\n        /* \"#utility.yul\":4851:4932   */\n      swap2\n      pop\n        /* \"#utility.yul\":4708:4943   */\n      pop\n        /* \"#utility.yul\":5027:5031   */\n      0x20\n        /* \"#utility.yul\":5020:5025   */\n      dup4\n        /* \"#utility.yul\":5016:5032   */\n      add\n        /* \"#utility.yul\":5010:5033   */\n      mload\n        /* \"#utility.yul\":5046:5109   */\n      tag_132\n        /* \"#utility.yul\":5103:5107   */\n      0x20\n        /* \"#utility.yul\":5098:5101   */\n      dup7\n        /* \"#utility.yul\":5094:5108   */\n      add\n        /* \"#utility.yul\":5080:5092   */\n      dup3\n        /* \"#utility.yul\":5046:5109   */\n      tag_48\n      jump\t// in\n    tag_132:\n        /* \"#utility.yul\":4953:5119   */\n      pop\n        /* \"#utility.yul\":5200:5204   */\n      0x40\n        /* \"#utility.yul\":5193:5198   */\n      dup4\n        /* \"#utility.yul\":5189:5205   */\n      add\n        /* \"#utility.yul\":5183:5206   */\n      mload\n        /* \"#utility.yul\":5219:5282   */\n      tag_133\n        /* \"#utility.yul\":5276:5280   */\n      0x40\n        /* \"#utility.yul\":5271:5274   */\n      dup7\n        /* \"#utility.yul\":5267:5281   */\n      add\n        /* \"#utility.yul\":5253:5265   */\n      dup3\n        /* \"#utility.yul\":5219:5282   */\n      tag_51\n      jump\t// in\n    tag_133:\n        /* \"#utility.yul\":5129:5292   */\n      pop\n        /* \"#utility.yul\":5378:5382   */\n      0x60\n        /* \"#utility.yul\":5371:5376   */\n      dup4\n        /* \"#utility.yul\":5367:5383   */\n      add\n        /* \"#utility.yul\":5361:5384   */\n      mload\n        /* \"#utility.yul\":5397:5460   */\n      tag_134\n        /* \"#utility.yul\":5454:5458   */\n      0x60\n        /* \"#utility.yul\":5449:5452   */\n      dup7\n        /* \"#utility.yul\":5445:5459   */\n      add\n        /* \"#utility.yul\":5431:5443   */\n      dup3\n        /* \"#utility.yul\":5397:5460   */\n      tag_48\n      jump\t// in\n    tag_134:\n        /* \"#utility.yul\":5302:5470   */\n      pop\n        /* \"#utility.yul\":5487:5491   */\n      dup1\n        /* \"#utility.yul\":5480:5491   */\n      swap2\n      pop\n        /* \"#utility.yul\":4662:5497   */\n      pop\n        /* \"#utility.yul\":4544:5497   */\n      swap3\n      swap2\n      pop\n      pop\n      jump\t// out\n        /* \"#utility.yul\":5503:5864   */\n    tag_10:\n        /* \"#utility.yul\":5640:5644   */\n      0x00\n        /* \"#utility.yul\":5678:5680   */\n      0x20\n        /* \"#utility.yul\":5667:5676   */\n      dup3\n        /* \"#utility.yul\":5663:5681   */\n      add\n        /* \"#utility.yul\":5655:5681   */\n      swap1\n      pop\n        /* \"#utility.yul\":5727:5736   */\n      dup2\n        /* \"#utility.yul\":5721:5725   */\n      dup2\n        /* \"#utility.yul\":5717:5737   */\n      sub\n        /* \"#utility.yul\":5713:5714   */\n      0x00\n        /* \"#utility.yul\":5702:5711   */\n      dup4\n        /* \"#utility.yul\":5698:5715   */\n      add\n        /* \"#utility.yul\":5691:5738   */\n      mstore\n        /* \"#utility.yul\":5755:5857   */\n      tag_136\n        /* \"#utility.yul\":5852:5856   */\n      dup2\n        /* \"#utility.yul\":5843:5849   */\n      dup5\n        /* \"#utility.yul\":5755:5857   */\n      tag_52\n      jump\t// in\n    tag_136:\n        /* \"#utility.yul\":5747:5857   */\n      swap1\n      pop\n        /* \"#utility.yul\":5503:5864   */\n      swap3\n      swap2\n      pop\n      pop\n      jump\t// out\n        /* \"#utility.yul\":5870:5992   */\n    tag_53:\n        /* \"#utility.yul\":5943:5967   */\n      tag_138\n        /* \"#utility.yul\":5961:5966   */\n      dup2\n        /* \"#utility.yul\":5943:5967   */\n      tag_47\n      jump\t// in\n    tag_138:\n        /* \"#utility.yul\":5936:5941   */\n      dup2\n        /* \"#utility.yul\":5933:5968   */\n      eq\n        /* \"#utility.yul\":5923:5986   */\n      tag_139\n      jumpi\n        /* \"#utility.yul\":5982:5983   */\n      0x00\n        /* \"#utility.yul\":5979:5980   */\n      dup1\n        /* \"#utility.yul\":5972:5984   */\n      revert\n        /* \"#utility.yul\":5923:5986   */\n    tag_139:\n        /* \"#utility.yul\":5870:5992   */\n      pop\n      jump\t// out\n        /* \"#utility.yul\":5998:6137   */\n    tag_54:\n        /* \"#utility.yul\":6044:6049   */\n      0x00\n        /* \"#utility.yul\":6082:6088   */\n      dup2\n        /* \"#utility.yul\":6069:6089   */\n      calldataload\n        /* \"#utility.yul\":6060:6089   */\n      swap1\n      pop\n        /* \"#utility.yul\":6098:6131   */\n      tag_141\n        /* \"#utility.yul\":6125:6130   */\n      dup2\n        /* \"#utility.yul\":6098:6131   */\n      tag_53\n      jump\t// in\n    tag_141:\n        /* \"#utility.yul\":5998:6137   */\n      swap3\n      swap2\n      pop\n      pop\n      jump\t// out\n        /* \"#utility.yul\":6143:6265   */\n    tag_55:\n        /* \"#utility.yul\":6216:6240   */\n      tag_143\n        /* \"#utility.yul\":6234:6239   */\n      dup2\n        /* \"#utility.yul\":6216:6240   */\n      tag_50\n      jump\t// in\n    tag_143:\n        /* \"#utility.yul\":6209:6214   */\n      dup2\n        /* \"#utility.yul\":6206:6241   */\n      eq\n        /* \"#utility.yul\":6196:6259   */\n      tag_144\n      jumpi\n        /* \"#utility.yul\":6255:6256   */\n      0x00\n        /* \"#utility.yul\":6252:6253   */\n      dup1\n        /* \"#utility.yul\":6245:6257   */\n      revert\n        /* \"#utility.yul\":6196:6259   */\n    tag_144:\n        /* \"#utility.yul\":6143:6265   */\n      pop\n      jump\t// out\n        /* \"#utility.yul\":6271:6410   */\n    tag_56:\n        /* \"#utility.yul\":6317:6322   */\n      0x00\n        /* \"#utility.yul\":6355:6361   */\n      dup2\n        /* \"#utility.yul\":6342:6362   */\n      calldataload\n        /* \"#utility.yul\":6333:6362   */\n      swap1\n      pop\n        /* \"#utility.yul\":6371:6404   */\n      tag_146\n        /* \"#utility.yul\":6398:6403   */\n      dup2\n        /* \"#utility.yul\":6371:6404   */\n      tag_55\n      jump\t// in\n    tag_146:\n        /* \"#utility.yul\":6271:6410   */\n      swap3\n      swap2\n      pop\n      pop\n      jump\t// out\n        /* \"#utility.yul\":6416:7361   */\n    tag_13:\n        /* \"#utility.yul\":6512:6518   */\n      0x00\n        /* \"#utility.yul\":6520:6526   */\n      dup1\n        /* \"#utility.yul\":6528:6534   */\n      0x00\n        /* \"#utility.yul\":6536:6542   */\n      dup1\n        /* \"#utility.yul\":6585:6588   */\n      0x80\n        /* \"#utility.yul\":6573:6582   */\n      dup6\n        /* \"#utility.yul\":6564:6571   */\n      dup8\n        /* \"#utility.yul\":6560:6583   */\n      sub\n        /* \"#utility.yul\":6556:6589   */\n      slt\n        /* \"#utility.yul\":6553:6673   */\n      iszero\n      tag_148\n      jumpi\n        /* \"#utility.yul\":6592:6671   */\n      tag_149\n      tag_31\n      jump\t// in\n    tag_149:\n        /* \"#utility.yul\":6553:6673   */\n    tag_148:\n        /* \"#utility.yul\":6740:6741   */\n      0x00\n        /* \"#utility.yul\":6729:6738   */\n      dup6\n        /* \"#utility.yul\":6725:6742   */\n      add\n        /* \"#utility.yul\":6712:6743   */\n      calldataload\n        /* \"#utility.yul\":6770:6788   */\n      0xffffffffffffffff\n        /* \"#utility.yul\":6762:6768   */\n      dup2\n        /* \"#utility.yul\":6759:6789   */\n      gt\n        /* \"#utility.yul\":6756:6873   */\n      iszero\n      tag_150\n      jumpi\n        /* \"#utility.yul\":6792:6871   */\n      tag_151\n      tag_32\n      jump\t// in\n    tag_151:\n        /* \"#utility.yul\":6756:6873   */\n    tag_150:\n        /* \"#utility.yul\":6897:6960   */\n      tag_152\n        /* \"#utility.yul\":6952:6959   */\n      dup8\n        /* \"#utility.yul\":6943:6949   */\n      dup3\n        /* \"#utility.yul\":6932:6941   */\n      dup9\n        /* \"#utility.yul\":6928:6950   */\n      add\n        /* \"#utility.yul\":6897:6960   */\n      tag_42\n      jump\t// in\n    tag_152:\n        /* \"#utility.yul\":6887:6960   */\n      swap5\n      pop\n        /* \"#utility.yul\":6683:6970   */\n      pop\n        /* \"#utility.yul\":7009:7011   */\n      0x20\n        /* \"#utility.yul\":7035:7088   */\n      tag_153\n        /* \"#utility.yul\":7080:7087   */\n      dup8\n        /* \"#utility.yul\":7071:7077   */\n      dup3\n        /* \"#utility.yul\":7060:7069   */\n      dup9\n        /* \"#utility.yul\":7056:7078   */\n      add\n        /* \"#utility.yul\":7035:7088   */\n      tag_54\n      jump\t// in\n    tag_153:\n        /* \"#utility.yul\":7025:7088   */\n      swap4\n      pop\n        /* \"#utility.yul\":6980:7098   */\n      pop\n        /* \"#utility.yul\":7137:7139   */\n      0x40\n        /* \"#utility.yul\":7163:7216   */\n      tag_154\n        /* \"#utility.yul\":7208:7215   */\n      dup8\n        /* \"#utility.yul\":7199:7205   */\n      dup3\n        /* \"#utility.yul\":7188:7197   */\n      dup9\n        /* \"#utility.yul\":7184:7206   */\n      add\n        /* \"#utility.yul\":7163:7216   */\n      tag_56\n      jump\t// in\n    tag_154:\n        /* \"#utility.yul\":7153:7216   */\n      swap3\n      pop\n        /* \"#utility.yul\":7108:7226   */\n      pop\n        /* \"#utility.yul\":7265:7267   */\n      0x60\n        /* \"#utility.yul\":7291:7344   */\n      tag_155\n        /* \"#utility.yul\":7336:7343   */\n      dup8\n        /* \"#utility.yul\":7327:7333   */\n      dup3\n        /* \"#utility.yul\":7316:7325   */\n      dup9\n        /* \"#utility.yul\":7312:7334   */\n      add\n        /* \"#utility.yul\":7291:7344   */\n      tag_54\n      jump\t// in\n    tag_155:\n        /* \"#utility.yul\":7281:7344   */\n      swap2\n      pop\n        /* \"#utility.yul\":7236:7354   */\n      pop\n        /* \"#utility.yul\":6416:7361   */\n      swap3\n      swap6\n      swap2\n      swap5\n      pop\n      swap3\n      pop\n      jump\t// out\n        /* \"#utility.yul\":7367:7515   */\n    tag_57:\n        /* \"#utility.yul\":7469:7480   */\n      0x00\n        /* \"#utility.yul\":7506:7509   */\n      dup2\n        /* \"#utility.yul\":7491:7509   */\n      swap1\n      pop\n        /* \"#utility.yul\":7367:7515   */\n      swap3\n      swap2\n      pop\n      pop\n      jump\t// out\n        /* \"#utility.yul\":7521:7911   */\n    tag_58:\n        /* \"#utility.yul\":7627:7630   */\n      0x00\n        /* \"#utility.yul\":7655:7694   */\n      tag_158\n        /* \"#utility.yul\":7688:7693   */\n      dup3\n        /* \"#utility.yul\":7655:7694   */\n      tag_43\n      jump\t// in\n    tag_158:\n        /* \"#utility.yul\":7710:7799   */\n      tag_159\n        /* \"#utility.yul\":7792:7798   */\n      dup2\n        /* \"#utility.yul\":7787:7790   */\n      dup6\n        /* \"#utility.yul\":7710:7799   */\n      tag_57\n      jump\t// in\n    tag_159:\n        /* \"#utility.yul\":7703:7799   */\n      swap4\n      pop\n        /* \"#utility.yul\":7808:7873   */\n      tag_160\n        /* \"#utility.yul\":7866:7872   */\n      dup2\n        /* \"#utility.yul\":7861:7864   */\n      dup6\n        /* \"#utility.yul\":7854:7858   */\n      0x20\n        /* \"#utility.yul\":7847:7852   */\n      dup7\n        /* \"#utility.yul\":7843:7859   */\n      add\n        /* \"#utility.yul\":7808:7873   */\n      tag_45\n      jump\t// in\n    tag_160:\n        /* \"#utility.yul\":7898:7904   */\n      dup1\n        /* \"#utility.yul\":7893:7896   */\n      dup5\n        /* \"#utility.yul\":7889:7905   */\n      add\n        /* \"#utility.yul\":7882:7905   */\n      swap2\n      pop\n        /* \"#utility.yul\":7631:7911   */\n      pop\n        /* \"#utility.yul\":7521:7911   */\n      swap3\n      swap2\n      pop\n      pop\n      jump\t// out\n        /* \"#utility.yul\":7917:8192   */\n    tag_19:\n        /* \"#utility.yul\":8049:8052   */\n      0x00\n        /* \"#utility.yul\":8071:8166   */\n      tag_162\n        /* \"#utility.yul\":8162:8165   */\n      dup3\n        /* \"#utility.yul\":8153:8159   */\n      dup5\n        /* \"#utility.yul\":8071:8166   */\n      tag_58\n      jump\t// in\n    tag_162:\n        /* \"#utility.yul\":8064:8166   */\n      swap2\n      pop\n        /* \"#utility.yul\":8183:8186   */\n      dup2\n        /* \"#utility.yul\":8176:8186   */\n      swap1\n      pop\n        /* \"#utility.yul\":7917:8192   */\n      swap3\n      swap2\n      pop\n      pop\n      jump\t// out\n        /* \"#utility.yul\":8198:8378   */\n    tag_59:\n        /* \"#utility.yul\":8246:8323   */\n      0x4e487b7100000000000000000000000000000000000000000000000000000000\n        /* \"#utility.yul\":8243:8244   */\n      0x00\n        /* \"#utility.yul\":8236:8324   */\n      mstore\n        /* \"#utility.yul\":8343:8347   */\n      0x22\n        /* \"#utility.yul\":8340:8341   */\n      0x04\n        /* \"#utility.yul\":8333:8348   */\n      mstore\n        /* \"#utility.yul\":8367:8371   */\n      0x24\n        /* \"#utility.yul\":8364:8365   */\n      0x00\n        /* \"#utility.yul\":8357:8372   */\n      revert\n        /* \"#utility.yul\":8384:8704   */\n    tag_21:\n        /* \"#utility.yul\":8428:8434   */\n      0x00\n        /* \"#utility.yul\":8465:8466   */\n      0x02\n        /* \"#utility.yul\":8459:8463   */\n      dup3\n        /* \"#utility.yul\":8455:8467   */\n      div\n        /* \"#utility.yul\":8445:8467   */\n      swap1\n      pop\n        /* \"#utility.yul\":8512:8513   */\n      0x01\n        /* \"#utility.yul\":8506:8510   */\n      dup3\n        /* \"#utility.yul\":8502:8514   */\n      and\n        /* \"#utility.yul\":8533:8551   */\n      dup1\n        /* \"#utility.yul\":8523:8604   */\n      tag_165\n      jumpi\n        /* \"#utility.yul\":8589:8593   */\n      0x7f\n        /* \"#utility.yul\":8581:8587   */\n      dup3\n        /* \"#utility.yul\":8577:8594   */\n      and\n        /* \"#utility.yul\":8567:8594   */\n      swap2\n      pop\n        /* \"#utility.yul\":8523:8604   */\n    tag_165:\n        /* \"#utility.yul\":8651:8653   */\n      0x20\n        /* \"#utility.yul\":8643:8649   */\n      dup3\n        /* \"#utility.yul\":8640:8654   */\n      lt\n        /* \"#utility.yul\":8620:8638   */\n      dup2\n        /* \"#utility.yul\":8617:8655   */\n      sub\n        /* \"#utility.yul\":8614:8698   */\n      tag_166\n      jumpi\n        /* \"#utility.yul\":8670:8688   */\n      tag_167\n      tag_59\n      jump\t// in\n    tag_167:\n        /* \"#utility.yul\":8614:8698   */\n    tag_166:\n        /* \"#utility.yul\":8435:8704   */\n      pop\n        /* \"#utility.yul\":8384:8704   */\n      swap2\n      swap1\n      pop\n      jump\t// out\n        /* \"#utility.yul\":8710:8851   */\n    tag_60:\n        /* \"#utility.yul\":8759:8763   */\n      0x00\n        /* \"#utility.yul\":8782:8785   */\n      dup2\n        /* \"#utility.yul\":8774:8785   */\n      swap1\n      pop\n        /* \"#utility.yul\":8805:8808   */\n      dup2\n        /* \"#utility.yul\":8802:8803   */\n      0x00\n        /* \"#utility.yul\":8795:8809   */\n      mstore\n        /* \"#utility.yul\":8839:8843   */\n      0x20\n        /* \"#utility.yul\":8836:8837   */\n      0x00\n        /* \"#utility.yul\":8826:8844   */\n      keccak256\n        /* \"#utility.yul\":8818:8844   */\n      swap1\n      pop\n        /* \"#utility.yul\":8710:8851   */\n      swap2\n      swap1\n      pop\n      jump\t// out\n        /* \"#utility.yul\":8857:8950   */\n    tag_61:\n        /* \"#utility.yul\":8894:8900   */\n      0x00\n        /* \"#utility.yul\":8941:8943   */\n      0x20\n        /* \"#utility.yul\":8936:8938   */\n      0x1f\n        /* \"#utility.yul\":8929:8934   */\n      dup4\n        /* \"#utility.yul\":8925:8939   */\n      add\n        /* \"#utility.yul\":8921:8944   */\n      div\n        /* \"#utility.yul\":8911:8944   */\n      swap1\n      pop\n        /* \"#utility.yul\":8857:8950   */\n      swap2\n      swap1\n      pop\n      jump\t// out\n        /* \"#utility.yul\":8956:9063   */\n    tag_62:\n        /* \"#utility.yul\":9000:9008   */\n      0x00\n        /* \"#utility.yul\":9050:9055   */\n      dup3\n        /* \"#utility.yul\":9044:9048   */\n      dup3\n        /* \"#utility.yul\":9040:9056   */\n      shl\n        /* \"#utility.yul\":9019:9056   */\n      swap1\n      pop\n        /* \"#utility.yul\":8956:9063   */\n      swap3\n      swap2\n      pop\n      pop\n      jump\t// out\n        /* \"#utility.yul\":9069:9462   */\n    tag_63:\n        /* \"#utility.yul\":9138:9144   */\n      0x00\n        /* \"#utility.yul\":9188:9189   */\n      0x08\n        /* \"#utility.yul\":9176:9186   */\n      dup4\n        /* \"#utility.yul\":9172:9190   */\n      mul\n        /* \"#utility.yul\":9211:9308   */\n      tag_172\n        /* \"#utility.yul\":9241:9307   */\n      0xffffffffffffffffffffffffffffffffffffffffffffffffffffffffffffffff\n        /* \"#utility.yul\":9230:9239   */\n      dup3\n        /* \"#utility.yul\":9211:9308   */\n      tag_62\n      jump\t// in\n    tag_172:\n        /* \"#utility.yul\":9329:9368   */\n      tag_173\n        /* \"#utility.yul\":9359:9367   */\n      dup7\n        /* \"#utility.yul\":9348:9357   */\n      dup4\n        /* \"#utility.yul\":9329:9368   */\n      tag_62\n      jump\t// in\n    tag_173:\n        /* \"#utility.yul\":9317:9368   */\n      swap6\n      pop\n        /* \"#utility.yul\":9401:9405   */\n      dup1\n        /* \"#utility.yul\":9397:9406   */\n      not\n        /* \"#utility.yul\":9390:9395   */\n      dup5\n        /* \"#utility.yul\":9386:9407   */\n      and\n        /* \"#utility.yul\":9377:9407   */\n      swap4\n      pop\n        /* \"#utility.yul\":9450:9454   */\n      dup1\n        /* \"#utility.yul\":9440:9448   */\n      dup7\n        /* \"#utility.yul\":9436:9455   */\n      and\n        /* \"#utility.yul\":9429:9434   */\n      dup5\n        /* \"#utility.yul\":9426:9456   */\n      or\n        /* \"#utility.yul\":9416:9456   */\n      swap3\n      pop\n        /* \"#utility.yul\":9145:9462   */\n      pop\n      pop\n        /* \"#utility.yul\":9069:9462   */\n      swap4\n      swap3\n      pop\n      pop\n      pop\n      jump\t// out\n        /* \"#utility.yul\":9468:9528   */\n    tag_64:\n        /* \"#utility.yul\":9496:9499   */\n      0x00\n        /* \"#utility.yul\":9517:9522   */\n      dup2\n        /* \"#utility.yul\":9510:9522   */\n      swap1\n      pop\n        /* \"#utility.yul\":9468:9528   */\n      swap2\n      swap1\n      pop\n      jump\t// out\n        /* \"#utility.yul\":9534:9676   */\n    tag_65:\n        /* \"#utility.yul\":9584:9593   */\n      0x00\n        /* \"#utility.yul\":9617:9670   */\n      tag_176\n        /* \"#utility.yul\":9635:9669   */\n      tag_177\n        /* \"#utility.yul\":9644:9668   */\n      tag_178\n        /* \"#utility.yul\":9662:9667   */\n      dup5\n        /* \"#utility.yul\":9644:9668   */\n      tag_47\n      jump\t// in\n    tag_178:\n        /* \"#utility.yul\":9635:9669   */\n      tag_64\n      jump\t// in\n    tag_177:\n        /* \"#utility.yul\":9617:9670   */\n      tag_47\n      jump\t// in\n    tag_176:\n        /* \"#utility.yul\":9604:9670   */\n      swap1\n      pop\n        /* \"#utility.yul\":9534:9676   */\n      swap2\n      swap1\n      pop\n      jump\t// out\n        /* \"#utility.yul\":9682:9757   */\n    tag_66:\n        /* \"#utility.yul\":9725:9728   */\n      0x00\n        /* \"#utility.yul\":9746:9751   */\n      dup2\n        /* \"#utility.yul\":9739:9751   */\n      swap1\n      pop\n        /* \"#utility.yul\":9682:9757   */\n      swap2\n      swap1\n      pop\n      jump\t// out\n        /* \"#utility.yul\":9763:10032   */\n    tag_67:\n        /* \"#utility.yul\":9873:9912   */\n      tag_181\n        /* \"#utility.yul\":9904:9911   */\n      dup4\n        /* \"#utility.yul\":9873:9912   */\n      tag_65\n      jump\t// in\n    tag_181:\n        /* \"#utility.yul\":9934:10025   */\n      tag_182\n        /* \"#utility.yul\":9983:10024   */\n      tag_183\n        /* \"#utility.yul\":10007:10023   */\n      dup3\n        /* \"#utility.yul\":9983:10024   */\n      tag_66\n      jump\t// in\n    tag_183:\n        /* \"#utility.yul\":9975:9981   */\n      dup5\n        /* \"#utility.yul\":9968:9972   */\n      dup5\n        /* \"#utility.yul\":9962:9973   */\n      sload\n        /* \"#utility.yul\":9934:10025   */\n      tag_63\n      jump\t// in\n    tag_182:\n        /* \"#utility.yul\":9928:9932   */\n      dup3\n        /* \"#utility.yul\":9921:10026   */\n      sstore\n        /* \"#utility.yul\":9839:10032   */\n      pop\n        /* \"#utility.yul\":9763:10032   */\n      pop\n      pop\n      pop\n      jump\t// out\n        /* \"#utility.yul\":10038:10111   */\n    tag_68:\n        /* \"#utility.yul\":10083:10086   */\n      0x00\n        /* \"#utility.yul\":10038:10111   */\n      swap1\n      jump\t// out\n        /* \"#utility.yul\":10117:10306   */\n    tag_69:\n        /* \"#utility.yul\":10194:10226   */\n      tag_186\n      tag_68\n      jump\t// in\n    tag_186:\n        /* \"#utility.yul\":10235:10300   */\n      tag_187\n        /* \"#utility.yul\":10293:10299   */\n      dup2\n        /* \"#utility.yul\":10285:10291   */\n      dup5\n        /* \"#utility.yul\":10279:10283   */\n      dup5\n        /* \"#utility.yul\":10235:10300   */\n      tag_67\n      jump\t// in\n    tag_187:\n        /* \"#utility.yul\":10170:10306   */\n      pop\n        /* \"#utility.yul\":10117:10306   */\n      pop\n      pop\n      jump\t// out\n        /* \"#utility.yul\":10312:10498   */\n    tag_70:\n        /* \"#utility.yul\":10372:10492   */\n    tag_189:\n        /* \"#utility.yul\":10389:10392   */\n      dup2\n        /* \"#utility.yul\":10382:10387   */\n      dup2\n        /* \"#utility.yul\":10379:10393   */\n      lt\n        /* \"#utility.yul\":10372:10492   */\n      iszero\n      tag_191\n      jumpi\n        /* \"#utility.yul\":10443:10482   */\n      tag_192\n        /* \"#utility.yul\":10480:10481   */\n      0x00\n        /* \"#utility.yul\":10473:10478   */\n      dup3\n        /* \"#utility.yul\":10443:10482   */\n      tag_69\n      jump\t// in\n    tag_192:\n        /* \"#utility.yul\":10416:10417   */\n      0x01\n        /* \"#utility.yul\":10409:10414   */\n      dup2\n        /* \"#utility.yul\":10405:10418   */\n      add\n        /* \"#utility.yul\":10396:10418   */\n      swap1\n      pop\n        /* \"#utility.yul\":10372:10492   */\n      jump(tag_189)\n    tag_191:\n        /* \"#utility.yul\":10312:10498   */\n      pop\n      pop\n      jump\t// out\n        /* \"#utility.yul\":10504:11047   */\n    tag_71:\n        /* \"#utility.yul\":10605:10607   */\n      0x1f\n        /* \"#utility.yul\":10600:10603   */\n      dup3\n        /* \"#utility.yul\":10597:10608   */\n      gt\n        /* \"#utility.yul\":10594:11040   */\n      iszero\n      tag_194\n      jumpi\n        /* \"#utility.yul\":10639:10677   */\n      tag_195\n        /* \"#utility.yul\":10671:10676   */\n      dup2\n        /* \"#utility.yul\":10639:10677   */\n      tag_60\n      jump\t// in\n    tag_195:\n        /* \"#utility.yul\":10723:10752   */\n      tag_196\n        /* \"#utility.yul\":10741:10751   */\n      dup5\n        /* \"#utility.yul\":10723:10752   */\n      tag_61\n      jump\t// in\n    tag_196:\n        /* \"#utility.yul\":10713:10721   */\n      dup2\n        /* \"#utility.yul\":10709:10753   */\n      add\n        /* \"#utility.yul\":10906:10908   */\n      0x20\n        /* \"#utility.yul\":10894:10904   */\n      dup6\n        /* \"#utility.yul\":10891:10909   */\n      lt\n        /* \"#utility.yul\":10888:10937   */\n      iszero\n      tag_197\n      jumpi\n        /* \"#utility.yul\":10927:10935   */\n      dup2\n        /* \"#utility.yul\":10912:10935   */\n      swap1\n      pop\n        /* \"#utility.yul\":10888:10937   */\n    tag_197:\n        /* \"#utility.yul\":10950:11030   */\n      tag_198\n        /* \"#utility.yul\":11006:11028   */\n      tag_199\n        /* \"#utility.yul\":11024:11027   */\n      dup6\n        /* \"#utility.yul\":11006:11028   */\n      tag_61\n      jump\t// in\n    tag_199:\n        /* \"#utility.yul\":10996:11004   */\n      dup4\n        /* \"#utility.yul\":10992:11029   */\n      add\n        /* \"#utility.yul\":10979:10990   */\n      dup3\n        /* \"#utility.yul\":10950:11030   */\n      tag_70\n      jump\t// in\n    tag_198:\n        /* \"#utility.yul\":10609:11040   */\n      pop\n      pop\n        /* \"#utility.yul\":10594:11040   */\n    tag_194:\n        /* \"#utility.yul\":10504:11047   */\n      pop\n      pop\n      pop\n      jump\t// out\n        /* \"#utility.yul\":11053:11170   */\n    tag_72:\n        /* \"#utility.yul\":11107:11115   */\n      0x00\n        /* \"#utility.yul\":11157:11162   */\n      dup3\n        /* \"#utility.yul\":11151:11155   */\n      dup3\n        /* \"#utility.yul\":11147:11163   */\n      shr\n        /* \"#utility.yul\":11126:11163   */\n      swap1\n      pop\n        /* \"#utility.yul\":11053:11170   */\n      swap3\n      swap2\n      pop\n      pop\n      jump\t// out\n        /* \"#utility.yul\":11176:11345   */\n    tag_73:\n        /* \"#utility.yul\":11220:11226   */\n      0x00\n        /* \"#utility.yul\":11253:11304   */\n      tag_202\n        /* \"#utility.yul\":11301:11302   */\n      0x00\n        /* \"#utility.yul\":11297:11303   */\n      not\n        /* \"#utility.yul\":11289:11294   */\n      dup5\n        /* \"#utility.yul\":11286:11287   */\n      0x08\n        /* \"#utility.yul\":11282:11295   */\n      mul\n        /* \"#utility.yul\":11253:11304   */\n      tag_72\n      jump\t// in\n    tag_202:\n        /* \"#utility.yul\":11249:11305   */\n      not\n        /* \"#utility.yul\":11334:11338   */\n      dup1\n        /* \"#utility.yul\":11328:11332   */\n      dup4\n        /* \"#utility.yul\":11324:11339   */\n      and\n        /* \"#utility.yul\":11314:11339   */\n      swap2\n      pop\n        /* \"#utility.yul\":11227:11345   */\n      pop\n        /* \"#utility.yul\":11176:11345   */\n      swap3\n      swap2\n      pop\n      pop\n      jump\t// out\n        /* \"#utility.yul\":11350:11645   */\n    tag_74:\n        /* \"#utility.yul\":11426:11430   */\n      0x00\n        /* \"#utility.yul\":11572:11601   */\n      tag_204\n        /* \"#utility.yul\":11597:11600   */\n      dup4\n        /* \"#utility.yul\":11591:11595   */\n      dup4\n        /* \"#utility.yul\":11572:11601   */\n      tag_73\n      jump\t// in\n    tag_204:\n        /* \"#utility.yul\":11564:11601   */\n      swap2\n      pop\n        /* \"#utility.yul\":11634:11637   */\n      dup3\n        /* \"#utility.yul\":11631:11632   */\n      0x02\n        /* \"#utility.yul\":11627:11638   */\n      mul\n        /* \"#utility.yul\":11621:11625   */\n      dup3\n        /* \"#utility.yul\":11618:11639   */\n      or\n        /* \"#utility.yul\":11610:11639   */\n      swap1\n      pop\n        /* \"#utility.yul\":11350:11645   */\n      swap3\n      swap2\n      pop\n      pop\n      jump\t// out\n        /* \"#utility.yul\":11650:13045   */\n    tag_29:\n        /* \"#utility.yul\":11767:11804   */\n      tag_206\n        /* \"#utility.yul\":11800:11803   */\n      dup3\n        /* \"#utility.yul\":11767:11804   */\n      tag_43\n      jump\t// in\n    tag_206:\n        /* \"#utility.yul\":11869:11887   */\n      0xffffffffffffffff\n        /* \"#utility.yul\":11861:11867   */\n      dup2\n        /* \"#utility.yul\":11858:11888   */\n      gt\n        /* \"#utility.yul\":11855:11911   */\n      iszero\n      tag_207\n      jumpi\n        /* \"#utility.yul\":11891:11909   */\n      tag_208\n      tag_36\n      jump\t// in\n    tag_208:\n        /* \"#utility.yul\":11855:11911   */\n    tag_207:\n        /* \"#utility.yul\":11935:11973   */\n      tag_209\n        /* \"#utility.yul\":11967:11971   */\n      dup3\n        /* \"#utility.yul\":11961:11972   */\n      sload\n        /* \"#utility.yul\":11935:11973   */\n      tag_21\n      jump\t// in\n    tag_209:\n        /* \"#utility.yul\":12020:12087   */\n      tag_210\n        /* \"#utility.yul\":12080:12086   */\n      dup3\n        /* \"#utility.yul\":12072:12078   */\n      dup3\n        /* \"#utility.yul\":12066:12070   */\n      dup6\n        /* \"#utility.yul\":12020:12087   */\n      tag_71\n      jump\t// in\n    tag_210:\n        /* \"#utility.yul\":12114:12115   */\n      0x00\n        /* \"#utility.yul\":12138:12142   */\n      0x20\n        /* \"#utility.yul\":12125:12142   */\n      swap1\n      pop\n        /* \"#utility.yul\":12170:12172   */\n      0x1f\n        /* \"#utility.yul\":12162:12168   */\n      dup4\n        /* \"#utility.yul\":12159:12173   */\n      gt\n        /* \"#utility.yul\":12187:12188   */\n      0x01\n        /* \"#utility.yul\":12182:12800   */\n      dup2\n      eq\n      tag_212\n      jumpi\n        /* \"#utility.yul\":12844:12845   */\n      0x00\n        /* \"#utility.yul\":12861:12867   */\n      dup5\n        /* \"#utility.yul\":12858:12935   */\n      iszero\n      tag_213\n      jumpi\n        /* \"#utility.yul\":12910:12919   */\n      dup3\n        /* \"#utility.yul\":12905:12908   */\n      dup8\n        /* \"#utility.yul\":12901:12920   */\n      add\n        /* \"#utility.yul\":12895:12921   */\n      mload\n        /* \"#utility.yul\":12886:12921   */\n      swap1\n      pop\n        /* \"#utility.yul\":12858:12935   */\n    tag_213:\n        /* \"#utility.yul\":12961:13028   */\n      tag_214\n        /* \"#utility.yul\":13021:13027   */\n      dup6\n        /* \"#utility.yul\":13014:13019   */\n      dup3\n        /* \"#utility.yul\":12961:13028   */\n      tag_74\n      jump\t// in\n    tag_214:\n        /* \"#utility.yul\":12955:12959   */\n      dup7\n        /* \"#utility.yul\":12948:13029   */\n      sstore\n        /* \"#utility.yul\":12817:13039   */\n      pop\n        /* \"#utility.yul\":12152:13039   */\n      jump(tag_211)\n        /* \"#utility.yul\":12182:12800   */\n    tag_212:\n        /* \"#utility.yul\":12234:12238   */\n      0x1f\n        /* \"#utility.yul\":12230:12239   */\n      not\n        /* \"#utility.yul\":12222:12228   */\n      dup5\n        /* \"#utility.yul\":12218:12240   */\n      and\n        /* \"#utility.yul\":12268:12305   */\n      tag_215\n        /* \"#utility.yul\":12300:12304   */\n      dup7\n        /* \"#utility.yul\":12268:12305   */\n      tag_60\n      jump\t// in\n    tag_215:\n        /* \"#utility.yul\":12327:12328   */\n      0x00\n        /* \"#utility.yul\":12341:12549   */\n    tag_216:\n        /* \"#utility.yul\":12355:12362   */\n      dup3\n        /* \"#utility.yul\":12352:12353   */\n      dup2\n        /* \"#utility.yul\":12349:12363   */\n      lt\n        /* \"#utility.yul\":12341:12549   */\n      iszero\n      tag_218\n      jumpi\n        /* \"#utility.yul\":12434:12443   */\n      dup5\n        /* \"#utility.yul\":12429:12432   */\n      dup10\n        /* \"#utility.yul\":12425:12444   */\n      add\n        /* \"#utility.yul\":12419:12445   */\n      mload\n        /* \"#utility.yul\":12411:12417   */\n      dup3\n        /* \"#utility.yul\":12404:12446   */\n      sstore\n        /* \"#utility.yul\":12485:12486   */\n      0x01\n        /* \"#utility.yul\":12477:12483   */\n      dup3\n        /* \"#utility.yul\":12473:12487   */\n      add\n        /* \"#utility.yul\":12463:12487   */\n      swap2\n      pop\n        /* \"#utility.yul\":12532:12534   */\n      0x20\n        /* \"#utility.yul\":12521:12530   */\n      dup6\n        /* \"#utility.yul\":12517:12535   */\n      add\n        /* \"#utility.yul\":12504:12535   */\n      swap5\n      pop\n        /* \"#utility.yul\":12378:12382   */\n      0x20\n        /* \"#utility.yul\":12375:12376   */\n      dup2\n        /* \"#utility.yul\":12371:12383   */\n      add\n        /* \"#utility.yul\":12366:12383   */\n      swap1\n      pop\n        /* \"#utility.yul\":12341:12549   */\n      jump(tag_216)\n    tag_218:\n        /* \"#utility.yul\":12577:12583   */\n      dup7\n        /* \"#utility.yul\":12568:12575   */\n      dup4\n        /* \"#utility.yul\":12565:12584   */\n      lt\n        /* \"#utility.yul\":12562:12741   */\n      iszero\n      tag_219\n      jumpi\n        /* \"#utility.yul\":12635:12644   */\n      dup5\n        /* \"#utility.yul\":12630:12633   */\n      dup10\n        /* \"#utility.yul\":12626:12645   */\n      add\n        /* \"#utility.yul\":12620:12646   */\n      mload\n        /* \"#utility.yul\":12678:12726   */\n      tag_220\n        /* \"#utility.yul\":12720:12724   */\n      0x1f\n        /* \"#utility.yul\":12712:12718   */\n      dup10\n        /* \"#utility.yul\":12708:12725   */\n      and\n        /* \"#utility.yul\":12697:12706   */\n      dup3\n        /* \"#utility.yul\":12678:12726   */\n      tag_73\n      jump\t// in\n    tag_220:\n        /* \"#utility.yul\":12670:12676   */\n      dup4\n        /* \"#utility.yul\":12663:12727   */\n      sstore\n        /* \"#utility.yul\":12585:12741   */\n      pop\n        /* \"#utility.yul\":12562:12741   */\n    tag_219:\n        /* \"#utility.yul\":12787:12788   */\n      0x01\n        /* \"#utility.yul\":12783:12784   */\n      0x02\n        /* \"#utility.yul\":12775:12781   */\n      dup9\n        /* \"#utility.yul\":12771:12785   */\n      mul\n        /* \"#utility.yul\":12767:12789   */\n      add\n        /* \"#utility.yul\":12761:12765   */\n      dup9\n        /* \"#utility.yul\":12754:12790   */\n      sstore\n        /* \"#utility.yul\":12189:12800   */\n      pop\n      pop\n      pop\n        /* \"#utility.yul\":12152:13039   */\n    tag_211:\n      pop\n        /* \"#utility.yul\":11742:13045   */\n      pop\n      pop\n      pop\n        /* \"#utility.yul\":11650:13045   */\n      pop\n      pop\n      jump\t// out\n\n    auxdata: 0xa2646970667358221220e9ebd02a1b15d31019ce0a26f9e69eeba560383ffc1113a076deecb2e66fe93664736f6c63430008120033\n}\n",
				"bytecode": {
					"linkReferences": {},
					"object": "608060405234801561001057600080fd5b50610a0b806100206000396000f3fe608060405234801561001057600080fd5b50600436106100365760003560e01c8063e7bc4bfb1461003b578063ec2d1cd71461006b575b600080fd5b61005560048036038101906100509190610422565b610087565b60405161006291906105a7565b60405180910390f35b61008560048036038101906100809190610621565b6101bb565b005b61008f61028a565b60008260405161009f91906106e0565b90815260200160405180910390206040518060800160405290816000820180546100c890610726565b80601f01602080910402602001604051908101604052809291908181526020018280546100f490610726565b80156101415780601f1061011657610100808354040283529160200191610141565b820191906000526020600020905b81548152906001019060200180831161012457829003601f168201915b50505050508152602001600182015481526020016002820160009054906101000a900473ffffffffffffffffffffffffffffffffffffffff1673ffffffffffffffffffffffffffffffffffffffff1673ffffffffffffffffffffffffffffffffffffffff1681526020016003820154815250509050919050565b60405180608001604052808581526020018481526020018373ffffffffffffffffffffffffffffffffffffffff1681526020018281525060008560405161020291906106e0565b908152602001604051809103902060008201518160000190816102259190610903565b506020820151816001015560408201518160020160006101000a81548173ffffffffffffffffffffffffffffffffffffffff021916908373ffffffffffffffffffffffffffffffffffffffff1602179055506060820151816003015590505050505050565b60405180608001604052806060815260200160008152602001600073ffffffffffffffffffffffffffffffffffffffff168152602001600081525090565b6000604051905090565b600080fd5b600080fd5b600080fd5b600080fd5b6000601f19601f8301169050919050565b7f4e487b7100000000000000000000000000000000000000000000000000000000600052604160045260246000fd5b61032f826102e6565b810181811067ffffffffffffffff8211171561034e5761034d6102f7565b5b80604052505050565b60006103616102c8565b905061036d8282610326565b919050565b600067ffffffffffffffff82111561038d5761038c6102f7565b5b610396826102e6565b9050602081019050919050565b82818337600083830152505050565b60006103c56103c084610372565b610357565b9050828152602081018484840111156103e1576103e06102e1565b5b6103ec8482856103a3565b509392505050565b600082601f830112610409576104086102dc565b5b81356104198482602086016103b2565b91505092915050565b600060208284031215610438576104376102d2565b5b600082013567ffffffffffffffff811115610456576104556102d7565b5b610462848285016103f4565b91505092915050565b600081519050919050565b600082825260208201905092915050565b60005b838110156104a557808201518184015260208101905061048a565b60008484015250505050565b60006104bc8261046b565b6104c68185610476565b93506104d6818560208601610487565b6104df816102e6565b840191505092915050565b6000819050919050565b6104fd816104ea565b82525050565b600073ffffffffffffffffffffffffffffffffffffffff82169050919050565b600061052e82610503565b9050919050565b61053e81610523565b82525050565b6000608083016000830151848203600086015261056182826104b1565b915050602083015161057660208601826104f4565b5060408301516105896040860182610535565b50606083015161059c60608601826104f4565b508091505092915050565b600060208201905081810360008301526105c18184610544565b905092915050565b6105d2816104ea565b81146105dd57600080fd5b50565b6000813590506105ef816105c9565b92915050565b6105fe81610523565b811461060957600080fd5b50565b60008135905061061b816105f5565b92915050565b6000806000806080858703121561063b5761063a6102d2565b5b600085013567ffffffffffffffff811115610659576106586102d7565b5b610665878288016103f4565b9450506020610676878288016105e0565b93505060406106878782880161060c565b9250506060610698878288016105e0565b91505092959194509250565b600081905092915050565b60006106ba8261046b565b6106c481856106a4565b93506106d4818560208601610487565b80840191505092915050565b60006106ec82846106af565b915081905092915050565b7f4e487b7100000000000000000000000000000000000000000000000000000000600052602260045260246000fd5b6000600282049050600182168061073e57607f821691505b602082108103610751576107506106f7565b5b50919050565b60008190508160005260206000209050919050565b60006020601f8301049050919050565b600082821b905092915050565b6000600883026107b97fffffffffffffffffffffffffffffffffffffffffffffffffffffffffffffffff8261077c565b6107c3868361077c565b95508019841693508086168417925050509392505050565b6000819050919050565b60006108006107fb6107f6846104ea565b6107db565b6104ea565b9050919050565b6000819050919050565b61081a836107e5565b61082e61082682610807565b848454610789565b825550505050565b600090565b610843610836565b61084e818484610811565b505050565b5b818110156108725761086760008261083b565b600181019050610854565b5050565b601f8211156108b75761088881610757565b6108918461076c565b810160208510156108a0578190505b6108b46108ac8561076c565b830182610853565b50505b505050565b600082821c905092915050565b60006108da600019846008026108bc565b1980831691505092915050565b60006108f383836108c9565b9150826002028217905092915050565b61090c8261046b565b67ffffffffffffffff811115610925576109246102f7565b5b61092f8254610726565b61093a828285610876565b600060209050601f83116001811461096d576000841561095b578287015190505b61096585826108e7565b8655506109cd565b601f19841661097b86610757565b60005b828110156109a35784890151825560018201915060208501945060208101905061097e565b868310156109c057848901516109bc601f8916826108c9565b8355505b6001600288020188555050505b50505050505056fea2646970667358221220e9ebd02a1b15d31019ce0a26f9e69eeba560383ffc1113a076deecb2e66fe93664736f6c63430008120033",
					"opcodes": "PUSH1 0x80 PUSH1 0x40 MSTORE CALLVALUE DUP1 ISZERO PUSH2 0x10 JUMPI PUSH1 0x0 DUP1 REVERT JUMPDEST POP PUSH2 0xA0B DUP1 PUSH2 0x20 PUSH1 0x0 CODECOPY PUSH1 0x0 RETURN INVALID PUSH1 0x80 PUSH1 0x40 MSTORE CALLVALUE DUP1 ISZERO PUSH2 0x10 JUMPI PUSH1 0x0 DUP1 REVERT JUMPDEST POP PUSH1 0x4 CALLDATASIZE LT PUSH2 0x36 JUMPI PUSH1 0x0 CALLDATALOAD PUSH1 0xE0 SHR DUP1 PUSH4 0xE7BC4BFB EQ PUSH2 0x3B JUMPI DUP1 PUSH4 0xEC2D1CD7 EQ PUSH2 0x6B JUMPI JUMPDEST PUSH1 0x0 DUP1 REVERT JUMPDEST PUSH2 0x55 PUSH1 0x4 DUP1 CALLDATASIZE SUB DUP2 ADD SWAP1 PUSH2 0x50 SWAP2 SWAP1 PUSH2 0x422 JUMP JUMPDEST PUSH2 0x87 JUMP JUMPDEST PUSH1 0x40 MLOAD PUSH2 0x62 SWAP2 SWAP1 PUSH2 0x5A7 JUMP JUMPDEST PUSH1 0x40 MLOAD DUP1 SWAP2 SUB SWAP1 RETURN JUMPDEST PUSH2 0x85 PUSH1 0x4 DUP1 CALLDATASIZE SUB DUP2 ADD SWAP1 PUSH2 0x80 SWAP2 SWAP1 PUSH2 0x621 JUMP JUMPDEST PUSH2 0x1BB JUMP JUMPDEST STOP JUMPDEST PUSH2 0x8F PUSH2 0x28A JUMP JUMPDEST PUSH1 0x0 DUP3 PUSH1 0x40 MLOAD PUSH2 0x9F SWAP2 SWAP1 PUSH2 0x6E0 JUMP JUMPDEST SWAP1 DUP2 MSTORE PUSH1 0x20 ADD PUSH1 0x40 MLOAD DUP1 SWAP2 SUB SWAP1 KECCAK256 PUSH1 0x40 MLOAD DUP1 PUSH1 0x80 ADD PUSH1 0x40 MSTORE SWAP1 DUP2 PUSH1 0x0 DUP3 ADD DUP1 SLOAD PUSH2 0xC8 SWAP1 PUSH2 0x726 JUMP JUMPDEST DUP1 PUSH1 0x1F ADD PUSH1 0x20 DUP1 SWAP2 DIV MUL PUSH1 0x20 ADD PUSH1 0x40 MLOAD SWAP1 DUP2 ADD PUSH1 0x40 MSTORE DUP1 SWAP3 SWAP2 SWAP1 DUP2 DUP2 MSTORE PUSH1 0x20 ADD DUP3 DUP1 SLOAD PUSH2 0xF4 SWAP1 PUSH2 0x726 JUMP JUMPDEST DUP1 ISZERO PUSH2 0x141 JUMPI DUP1 PUSH1 0x1F LT PUSH2 0x116 JUMPI PUSH2 0x100 DUP1 DUP4 SLOAD DIV MUL DUP4 MSTORE SWAP2 PUSH1 0x20 ADD SWAP2 PUSH2 0x141 JUMP JUMPDEST DUP3 ADD SWAP2 SWAP1 PUSH1 0x0 MSTORE PUSH1 0x20 PUSH1 0x0 KECCAK256 SWAP1 JUMPDEST DUP2 SLOAD DUP2 MSTORE SWAP1 PUSH1 0x1 ADD SWAP1 PUSH1 0x20 ADD DUP1 DUP4 GT PUSH2 0x124 JUMPI DUP3 SWAP1 SUB PUSH1 0x1F AND DUP3 ADD SWAP2 JUMPDEST POP POP POP POP POP DUP2 MSTORE PUSH1 0x20 ADD PUSH1 0x1 DUP3 ADD SLOAD DUP2 MSTORE PUSH1 0x20 ADD PUSH1 0x2 DUP3 ADD PUSH1 0x0 SWAP1 SLOAD SWAP1 PUSH2 0x100 EXP SWAP1 DIV PUSH20 0xFFFFFFFFFFFFFFFFFFFFFFFFFFFFFFFFFFFFFFFF AND PUSH20 0xFFFFFFFFFFFFFFFFFFFFFFFFFFFFFFFFFFFFFFFF AND PUSH20 0xFFFFFFFFFFFFFFFFFFFFFFFFFFFFFFFFFFFFFFFF AND DUP2 MSTORE PUSH1 0x20 ADD PUSH1 0x3 DUP3 ADD SLOAD DUP2 MSTORE POP POP SWAP1 POP SWAP2 SWAP1 POP JUMP JUMPDEST PUSH1 0x40 MLOAD DUP1 PUSH1 0x80 ADD PUSH1 0x40 MSTORE DUP1 DUP6 DUP2 MSTORE PUSH1 0x20 ADD DUP5 DUP2 MSTORE PUSH1 0x20 ADD DUP4 PUSH20 0xFFFFFFFFFFFFFFFFFFFFFFFFFFFFFFFFFFFFFFFF AND DUP2 MSTORE PUSH1 0x20 ADD DUP3 DUP2 MSTORE POP PUSH1 0x0 DUP6 PUSH1 0x40 MLOAD PUSH2 0x202 SWAP2 SWAP1 PUSH2 0x6E0 JUMP JUMPDEST SWAP1 DUP2 MSTORE PUSH1 0x20 ADD PUSH1 0x40 MLOAD DUP1 SWAP2 SUB SWAP1 KECCAK256 PUSH1 0x0 DUP3 ADD MLOAD DUP2 PUSH1 0x0 ADD SWAP1 DUP2 PUSH2 0x225 SWAP2 SWAP1 PUSH2 0x903 JUMP JUMPDEST POP PUSH1 0x20 DUP3 ADD MLOAD DUP2 PUSH1 0x1 ADD SSTORE PUSH1 0x40 DUP3 ADD MLOAD DUP2 PUSH1 0x2 ADD PUSH1 0x0 PUSH2 0x100 EXP DUP2 SLOAD DUP2 PUSH20 0xFFFFFFFFFFFFFFFFFFFFFFFFFFFFFFFFFFFFFFFF MUL NOT AND SWAP1 DUP4 PUSH20 0xFFFFFFFFFFFFFFFFFFFFFFFFFFFFFFFFFFFFFFFF AND MUL OR SWAP1 SSTORE POP PUSH1 0x60 DUP3 ADD MLOAD DUP2 PUSH1 0x3 ADD SSTORE SWAP1 POP POP POP POP POP POP JUMP JUMPDEST PUSH1 0x40 MLOAD DUP1 PUSH1 0x80 ADD PUSH1 0x40 MSTORE DUP1 PUSH1 0x60 DUP2 MSTORE PUSH1 0x20 ADD PUSH1 0x0 DUP2 MSTORE PUSH1 0x20 ADD PUSH1 0x0 PUSH20 0xFFFFFFFFFFFFFFFFFFFFFFFFFFFFFFFFFFFFFFFF AND DUP2 MSTORE PUSH1 0x20 ADD PUSH1 0x0 DUP2 MSTORE POP SWAP1 JUMP JUMPDEST PUSH1 0x0 PUSH1 0x40 MLOAD SWAP1 POP SWAP1 JUMP JUMPDEST PUSH1 0x0 DUP1 REVERT JUMPDEST PUSH1 0x0 DUP1 REVERT JUMPDEST PUSH1 0x0 DUP1 REVERT JUMPDEST PUSH1 0x0 DUP1 REVERT JUMPDEST PUSH1 0x0 PUSH1 0x1F NOT PUSH1 0x1F DUP4 ADD AND SWAP1 POP SWAP2 SWAP1 POP JUMP JUMPDEST PUSH32 0x4E487B7100000000000000000000000000000000000000000000000000000000 PUSH1 0x0 MSTORE PUSH1 0x41 PUSH1 0x4 MSTORE PUSH1 0x24 PUSH1 0x0 REVERT JUMPDEST PUSH2 0x32F DUP3 PUSH2 0x2E6 JUMP JUMPDEST DUP2 ADD DUP2 DUP2 LT PUSH8 0xFFFFFFFFFFFFFFFF DUP3 GT OR ISZERO PUSH2 0x34E JUMPI PUSH2 0x34D PUSH2 0x2F7 JUMP JUMPDEST JUMPDEST DUP1 PUSH1 0x40 MSTORE POP POP POP JUMP JUMPDEST PUSH1 0x0 PUSH2 0x361 PUSH2 0x2C8 JUMP JUMPDEST SWAP1 POP PUSH2 0x36D DUP3 DUP3 PUSH2 0x326 JUMP JUMPDEST SWAP2 SWAP1 POP JUMP JUMPDEST PUSH1 0x0 PUSH8 0xFFFFFFFFFFFFFFFF DUP3 GT ISZERO PUSH2 0x38D JUMPI PUSH2 0x38C PUSH2 0x2F7 JUMP JUMPDEST JUMPDEST PUSH2 0x396 DUP3 PUSH2 0x2E6 JUMP JUMPDEST SWAP1 POP PUSH1 0x20 DUP2 ADD SWAP1 POP SWAP2 SWAP1 POP JUMP JUMPDEST DUP3 DUP2 DUP4 CALLDATACOPY PUSH1 0x0 DUP4 DUP4 ADD MSTORE POP POP POP JUMP JUMPDEST PUSH1 0x0 PUSH2 0x3C5 PUSH2 0x3C0 DUP5 PUSH2 0x372 JUMP JUMPDEST PUSH2 0x357 JUMP JUMPDEST SWAP1 POP DUP3 DUP2 MSTORE PUSH1 0x20 DUP2 ADD DUP5 DUP5 DUP5 ADD GT ISZERO PUSH2 0x3E1 JUMPI PUSH2 0x3E0 PUSH2 0x2E1 JUMP JUMPDEST JUMPDEST PUSH2 0x3EC DUP5 DUP3 DUP6 PUSH2 0x3A3 JUMP JUMPDEST POP SWAP4 SWAP3 POP POP POP JUMP JUMPDEST PUSH1 0x0 DUP3 PUSH1 0x1F DUP4 ADD SLT PUSH2 0x409 JUMPI PUSH2 0x408 PUSH2 0x2DC JUMP JUMPDEST JUMPDEST DUP2 CALLDATALOAD PUSH2 0x419 DUP5 DUP3 PUSH1 0x20 DUP7 ADD PUSH2 0x3B2 JUMP JUMPDEST SWAP2 POP POP SWAP3 SWAP2 POP POP JUMP JUMPDEST PUSH1 0x0 PUSH1 0x20 DUP3 DUP5 SUB SLT ISZERO PUSH2 0x438 JUMPI PUSH2 0x437 PUSH2 0x2D2 JUMP JUMPDEST JUMPDEST PUSH1 0x0 DUP3 ADD CALLDATALOAD PUSH8 0xFFFFFFFFFFFFFFFF DUP2 GT ISZERO PUSH2 0x456 JUMPI PUSH2 0x455 PUSH2 0x2D7 JUMP JUMPDEST JUMPDEST PUSH2 0x462 DUP5 DUP3 DUP6 ADD PUSH2 0x3F4 JUMP JUMPDEST SWAP2 POP POP SWAP3 SWAP2 POP POP JUMP JUMPDEST PUSH1 0x0 DUP2 MLOAD SWAP1 POP SWAP2 SWAP1 POP JUMP JUMPDEST PUSH1 0x0 DUP3 DUP3 MSTORE PUSH1 0x20 DUP3 ADD SWAP1 POP SWAP3 SWAP2 POP POP JUMP JUMPDEST PUSH1 0x0 JUMPDEST DUP4 DUP2 LT ISZERO PUSH2 0x4A5 JUMPI DUP1 DUP3 ADD MLOAD DUP2 DUP5 ADD MSTORE PUSH1 0x20 DUP2 ADD SWAP1 POP PUSH2 0x48A JUMP JUMPDEST PUSH1 0x0 DUP5 DUP5 ADD MSTORE POP POP POP POP JUMP JUMPDEST PUSH1 0x0 PUSH2 0x4BC DUP3 PUSH2 0x46B JUMP JUMPDEST PUSH2 0x4C6 DUP2 DUP6 PUSH2 0x476 JUMP JUMPDEST SWAP4 POP PUSH2 0x4D6 DUP2 DUP6 PUSH1 0x20 DUP7 ADD PUSH2 0x487 JUMP JUMPDEST PUSH2 0x4DF DUP2 PUSH2 0x2E6 JUMP JUMPDEST DUP5 ADD SWAP2 POP POP SWAP3 SWAP2 POP POP JUMP JUMPDEST PUSH1 0x0 DUP2 SWAP1 POP SWAP2 SWAP1 POP JUMP JUMPDEST PUSH2 0x4FD DUP2 PUSH2 0x4EA JUMP JUMPDEST DUP3 MSTORE POP POP JUMP JUMPDEST PUSH1 0x0 PUSH20 0xFFFFFFFFFFFFFFFFFFFFFFFFFFFFFFFFFFFFFFFF DUP3 AND SWAP1 POP SWAP2 SWAP1 POP JUMP JUMPDEST PUSH1 0x0 PUSH2 0x52E DUP3 PUSH2 0x503 JUMP JUMPDEST SWAP1 POP SWAP2 SWAP1 POP JUMP JUMPDEST PUSH2 0x53E DUP2 PUSH2 0x523 JUMP JUMPDEST DUP3 MSTORE POP POP JUMP JUMPDEST PUSH1 0x0 PUSH1 0x80 DUP4 ADD PUSH1 0x0 DUP4 ADD MLOAD DUP5 DUP3 SUB PUSH1 0x0 DUP7 ADD MSTORE PUSH2 0x561 DUP3 DUP3 PUSH2 0x4B1 JUMP JUMPDEST SWAP2 POP POP PUSH1 0x20 DUP4 ADD MLOAD PUSH2 0x576 PUSH1 0x20 DUP7 ADD DUP3 PUSH2 0x4F4 JUMP JUMPDEST POP PUSH1 0x40 DUP4 ADD MLOAD PUSH2 0x589 PUSH1 0x40 DUP7 ADD DUP3 PUSH2 0x535 JUMP JUMPDEST POP PUSH1 0x60 DUP4 ADD MLOAD PUSH2 0x59C PUSH1 0x60 DUP7 ADD DUP3 PUSH2 0x4F4 JUMP JUMPDEST POP DUP1 SWAP2 POP POP SWAP3 SWAP2 POP POP JUMP JUMPDEST PUSH1 0x0 PUSH1 0x20 DUP3 ADD SWAP1 POP DUP2 DUP2 SUB PUSH1 0x0 DUP4 ADD MSTORE PUSH2 0x5C1 DUP2 DUP5 PUSH2 0x544 JUMP JUMPDEST SWAP1 POP SWAP3 SWAP2 POP POP JUMP JUMPDEST PUSH2 0x5D2 DUP2 PUSH2 0x4EA JUMP JUMPDEST DUP2 EQ PUSH2 0x5DD JUMPI PUSH1 0x0 DUP1 REVERT JUMPDEST POP JUMP JUMPDEST PUSH1 0x0 DUP2 CALLDATALOAD SWAP1 POP PUSH2 0x5EF DUP2 PUSH2 0x5C9 JUMP JUMPDEST SWAP3 SWAP2 POP POP JUMP JUMPDEST PUSH2 0x5FE DUP2 PUSH2 0x523 JUMP JUMPDEST DUP2 EQ PUSH2 0x609 JUMPI PUSH1 0x0 DUP1 REVERT JUMPDEST POP JUMP JUMPDEST PUSH1 0x0 DUP2 CALLDATALOAD SWAP1 POP PUSH2 0x61B DUP2 PUSH2 0x5F5 JUMP JUMPDEST SWAP3 SWAP2 POP POP JUMP JUMPDEST PUSH1 0x0 DUP1 PUSH1 0x0 DUP1 PUSH1 0x80 DUP6 DUP8 SUB SLT ISZERO PUSH2 0x63B JUMPI PUSH2 0x63A PUSH2 0x2D2 JUMP JUMPDEST JUMPDEST PUSH1 0x0 DUP6 ADD CALLDATALOAD PUSH8 0xFFFFFFFFFFFFFFFF DUP2 GT ISZERO PUSH2 0x659 JUMPI PUSH2 0x658 PUSH2 0x2D7 JUMP JUMPDEST JUMPDEST PUSH2 0x665 DUP8 DUP3 DUP9 ADD PUSH2 0x3F4 JUMP JUMPDEST SWAP5 POP POP PUSH1 0x20 PUSH2 0x676 DUP8 DUP3 DUP9 ADD PUSH2 0x5E0 JUMP JUMPDEST SWAP4 POP POP PUSH1 0x40 PUSH2 0x687 DUP8 DUP3 DUP9 ADD PUSH2 0x60C JUMP JUMPDEST SWAP3 POP POP PUSH1 0x60 PUSH2 0x698 DUP8 DUP3 DUP9 ADD PUSH2 0x5E0 JUMP JUMPDEST SWAP2 POP POP SWAP3 SWAP6 SWAP2 SWAP5 POP SWAP3 POP JUMP JUMPDEST PUSH1 0x0 DUP2 SWAP1 POP SWAP3 SWAP2 POP POP JUMP JUMPDEST PUSH1 0x0 PUSH2 0x6BA DUP3 PUSH2 0x46B JUMP JUMPDEST PUSH2 0x6C4 DUP2 DUP6 PUSH2 0x6A4 JUMP JUMPDEST SWAP4 POP PUSH2 0x6D4 DUP2 DUP6 PUSH1 0x20 DUP7 ADD PUSH2 0x487 JUMP JUMPDEST DUP1 DUP5 ADD SWAP2 POP POP SWAP3 SWAP2 POP POP JUMP JUMPDEST PUSH1 0x0 PUSH2 0x6EC DUP3 DUP5 PUSH2 0x6AF JUMP JUMPDEST SWAP2 POP DUP2 SWAP1 POP SWAP3 SWAP2 POP POP JUMP JUMPDEST PUSH32 0x4E487B7100000000000000000000000000000000000000000000000000000000 PUSH1 0x0 MSTORE PUSH1 0x22 PUSH1 0x4 MSTORE PUSH1 0x24 PUSH1 0x0 REVERT JUMPDEST PUSH1 0x0 PUSH1 0x2 DUP3 DIV SWAP1 POP PUSH1 0x1 DUP3 AND DUP1 PUSH2 0x73E JUMPI PUSH1 0x7F DUP3 AND SWAP2 POP JUMPDEST PUSH1 0x20 DUP3 LT DUP2 SUB PUSH2 0x751 JUMPI PUSH2 0x750 PUSH2 0x6F7 JUMP JUMPDEST JUMPDEST POP SWAP2 SWAP1 POP JUMP JUMPDEST PUSH1 0x0 DUP2 SWAP1 POP DUP2 PUSH1 0x0 MSTORE PUSH1 0x20 PUSH1 0x0 KECCAK256 SWAP1 POP SWAP2 SWAP1 POP JUMP JUMPDEST PUSH1 0x0 PUSH1 0x20 PUSH1 0x1F DUP4 ADD DIV SWAP1 POP SWAP2 SWAP1 POP JUMP JUMPDEST PUSH1 0x0 DUP3 DUP3 SHL SWAP1 POP SWAP3 SWAP2 POP POP JUMP JUMPDEST PUSH1 0x0 PUSH1 0x8 DUP4 MUL PUSH2 0x7B9 PUSH32 0xFFFFFFFFFFFFFFFFFFFFFFFFFFFFFFFFFFFFFFFFFFFFFFFFFFFFFFFFFFFFFFFF DUP3 PUSH2 0x77C JUMP JUMPDEST PUSH2 0x7C3 DUP7 DUP4 PUSH2 0x77C JUMP JUMPDEST SWAP6 POP DUP1 NOT DUP5 AND SWAP4 POP DUP1 DUP7 AND DUP5 OR SWAP3 POP POP POP SWAP4 SWAP3 POP POP POP JUMP JUMPDEST PUSH1 0x0 DUP2 SWAP1 POP SWAP2 SWAP1 POP JUMP JUMPDEST PUSH1 0x0 PUSH2 0x800 PUSH2 0x7FB PUSH2 0x7F6 DUP5 PUSH2 0x4EA JUMP JUMPDEST PUSH2 0x7DB JUMP JUMPDEST PUSH2 0x4EA JUMP JUMPDEST SWAP1 POP SWAP2 SWAP1 POP JUMP JUMPDEST PUSH1 0x0 DUP2 SWAP1 POP SWAP2 SWAP1 POP JUMP JUMPDEST PUSH2 0x81A DUP4 PUSH2 0x7E5 JUMP JUMPDEST PUSH2 0x82E PUSH2 0x826 DUP3 PUSH2 0x807 JUMP JUMPDEST DUP5 DUP5 SLOAD PUSH2 0x789 JUMP JUMPDEST DUP3 SSTORE POP POP POP POP JUMP JUMPDEST PUSH1 0x0 SWAP1 JUMP JUMPDEST PUSH2 0x843 PUSH2 0x836 JUMP JUMPDEST PUSH2 0x84E DUP2 DUP5 DUP5 PUSH2 0x811 JUMP JUMPDEST POP POP POP JUMP JUMPDEST JUMPDEST DUP2 DUP2 LT ISZERO PUSH2 0x872 JUMPI PUSH2 0x867 PUSH1 0x0 DUP3 PUSH2 0x83B JUMP JUMPDEST PUSH1 0x1 DUP2 ADD SWAP1 POP PUSH2 0x854 JUMP JUMPDEST POP POP JUMP JUMPDEST PUSH1 0x1F DUP3 GT ISZERO PUSH2 0x8B7 JUMPI PUSH2 0x888 DUP2 PUSH2 0x757 JUMP JUMPDEST PUSH2 0x891 DUP5 PUSH2 0x76C JUMP JUMPDEST DUP2 ADD PUSH1 0x20 DUP6 LT ISZERO PUSH2 0x8A0 JUMPI DUP2 SWAP1 POP JUMPDEST PUSH2 0x8B4 PUSH2 0x8AC DUP6 PUSH2 0x76C JUMP JUMPDEST DUP4 ADD DUP3 PUSH2 0x853 JUMP JUMPDEST POP POP JUMPDEST POP POP POP JUMP JUMPDEST PUSH1 0x0 DUP3 DUP3 SHR SWAP1 POP SWAP3 SWAP2 POP POP JUMP JUMPDEST PUSH1 0x0 PUSH2 0x8DA PUSH1 0x0 NOT DUP5 PUSH1 0x8 MUL PUSH2 0x8BC JUMP JUMPDEST NOT DUP1 DUP4 AND SWAP2 POP POP SWAP3 SWAP2 POP POP JUMP JUMPDEST PUSH1 0x0 PUSH2 0x8F3 DUP4 DUP4 PUSH2 0x8C9 JUMP JUMPDEST SWAP2 POP DUP3 PUSH1 0x2 MUL DUP3 OR SWAP1 POP SWAP3 SWAP2 POP POP JUMP JUMPDEST PUSH2 0x90C DUP3 PUSH2 0x46B JUMP JUMPDEST PUSH8 0xFFFFFFFFFFFFFFFF DUP2 GT ISZERO PUSH2 0x925 JUMPI PUSH2 0x924 PUSH2 0x2F7 JUMP JUMPDEST JUMPDEST PUSH2 0x92F DUP3 SLOAD PUSH2 0x726 JUMP JUMPDEST PUSH2 0x93A DUP3 DUP3 DUP6 PUSH2 0x876 JUMP JUMPDEST PUSH1 0x0 PUSH1 0x20 SWAP1 POP PUSH1 0x1F DUP4 GT PUSH1 0x1 DUP2 EQ PUSH2 0x96D JUMPI PUSH1 0x0 DUP5 ISZERO PUSH2 0x95B JUMPI DUP3 DUP8 ADD MLOAD SWAP1 POP JUMPDEST PUSH2 0x965 DUP6 DUP3 PUSH2 0x8E7 JUMP JUMPDEST DUP7 SSTORE POP PUSH2 0x9CD JUMP JUMPDEST PUSH1 0x1F NOT DUP5 AND PUSH2 0x97B DUP7 PUSH2 0x757 JUMP JUMPDEST PUSH1 0x0 JUMPDEST DUP3 DUP2 LT ISZERO PUSH2 0x9A3 JUMPI DUP5 DUP10 ADD MLOAD DUP3 SSTORE PUSH1 0x1 DUP3 ADD SWAP2 POP PUSH1 0x20 DUP6 ADD SWAP5 POP PUSH1 0x20 DUP2 ADD SWAP1 POP PUSH2 0x97E JUMP JUMPDEST DUP7 DUP4 LT ISZERO PUSH2 0x9C0 JUMPI DUP5 DUP10 ADD MLOAD PUSH2 0x9BC PUSH1 0x1F DUP10 AND DUP3 PUSH2 0x8C9 JUMP JUMPDEST DUP4 SSTORE POP JUMPDEST PUSH1 0x1 PUSH1 0x2 DUP9 MUL ADD DUP9 SSTORE POP POP POP JUMPDEST POP POP POP POP POP POP JUMP INVALID LOG2 PUSH5 0x6970667358 0x22 SLT KECCAK256 0xE9 0xEB 0xD0 0x2A SHL ISZERO 0xD3 LT NOT 0xCE EXP 0x26 0xF9 0xE6 SWAP15 0xEB 0xA5 PUSH1 0x38 EXTCODEHASH 0xFC GT SGT LOG0 PUSH23 0xDEECB2E66FE93664736F6C634300081200330000000000 "
				},
				"gasEstimates": {
					"creation": {
						"codeDepositCost": "514200",
						"executionCost": "549",
						"totalCost": "514749"
					},
					"external": {
						"getU(string)": "infinite",
						"setU(string,uint256,address,uint256)": "infinite"
					}
				},
				"methodIdentifiers": {
					"getU(string)": "e7bc4bfb",
					"setU(string,uint256,address,uint256)": "ec2d1cd7"
				}
			},
			"storageLayout": {
				"storage": [
					{
						"astId": 90,
						"contract": "contract/solidity_31~40.sol:Q33",
						"label": "user_db",
						"offset": 0,
						"slot": "0",
						"type": "t_mapping(t_string_memory_ptr,t_struct(u_type)85_storage)"
					}
				],
				"types": {
					"t_address": {
						"encoding": "inplace",
						"label": "address",
						"numberOfBytes": "20"
					},
					"t_mapping(t_string_memory_ptr,t_struct(u_type)85_storage)": {
						"encoding": "mapping",
						"key": "t_string_memory_ptr",
						"label": "mapping(string => struct Q33.u_type)",
						"numberOfBytes": "32",
						"value": "t_struct(u_type)85_storage"
					},
					"t_string_memory_ptr": {
						"encoding": "bytes",
						"label": "string",
						"numberOfBytes": "32"
					},
					"t_string_storage": {
						"encoding": "bytes",
						"label": "string",
						"numberOfBytes": "32"
					},
					"t_struct(u_type)85_storage": {
						"encoding": "inplace",
						"label": "struct Q33.u_type",
						"members": [
							{
								"astId": 78,
								"contract": "contract/solidity_31~40.sol:Q33",
								"label": "name",
								"offset": 0,
								"slot": "0",
								"type": "t_string_storage"
							},
							{
								"astId": 80,
								"contract": "contract/solidity_31~40.sol:Q33",
								"label": "number",
								"offset": 0,
								"slot": "1",
								"type": "t_uint256"
							},
							{
								"astId": 82,
								"contract": "contract/solidity_31~40.sol:Q33",
								"label": "add",
								"offset": 0,
								"slot": "2",
								"type": "t_address"
							},
							{
								"astId": 84,
								"contract": "contract/solidity_31~40.sol:Q33",
								"label": "birthday",
								"offset": 0,
								"slot": "3",
								"type": "t_uint256"
							}
						],
						"numberOfBytes": "128"
					},
					"t_uint256": {
						"encoding": "inplace",
						"label": "uint256",
						"numberOfBytes": "32"
					}
				}
			},
			"userdoc": {
				"kind": "user",
				"methods": {},
				"version": 1
			}
		}
	}
}