{
	"contract/solidity_31~40.sol": {
		"Q35": {
			"abi": [
				{
					"inputs": [],
					"name": "geteven",
					"outputs": [
						{
							"internalType": "uint256[]",
							"name": "",
							"type": "uint256[]"
						}
					],
					"stateMutability": "view",
					"type": "function"
				}
			],
			"devdoc": {
				"kind": "dev",
				"methods": {},
				"version": 1
			},
			"evm": {
				"assembly": "    /* \"contract/solidity_31~40.sol\":2636:2965  contract Q35 {... */\n  mstore(0x40, 0x80)\n  callvalue\n  dup1\n  iszero\n  tag_1\n  jumpi\n  0x00\n  dup1\n  revert\ntag_1:\n  pop\n  dataSize(sub_0)\n  dup1\n  dataOffset(sub_0)\n  0x00\n  codecopy\n  0x00\n  return\nstop\n\nsub_0: assembly {\n        /* \"contract/solidity_31~40.sol\":2636:2965  contract Q35 {... */\n      mstore(0x40, 0x80)\n      callvalue\n      dup1\n      iszero\n      tag_1\n      jumpi\n      0x00\n      dup1\n      revert\n    tag_1:\n      pop\n      jumpi(tag_2, lt(calldatasize, 0x04))\n      shr(0xe0, calldataload(0x00))\n      dup1\n      0x54173c51\n      eq\n      tag_3\n      jumpi\n    tag_2:\n      0x00\n      dup1\n      revert\n        /* \"contract/solidity_31~40.sol\":2680:2960  function geteven() public view returns( uint[] memory ){... */\n    tag_3:\n      tag_4\n      tag_5\n      jump\t// in\n    tag_4:\n      mload(0x40)\n      tag_6\n      swap2\n      swap1\n      tag_7\n      jump\t// in\n    tag_6:\n      mload(0x40)\n      dup1\n      swap2\n      sub\n      swap1\n      return\n    tag_5:\n        /* \"contract/solidity_31~40.sol\":2720:2733  uint[] memory */\n      0x60\n        /* \"contract/solidity_31~40.sol\":2748:2770  uint[] memory rt_value */\n      0x00\n        /* \"contract/solidity_31~40.sol\":2800:2801  2 */\n      0x02\n        /* \"contract/solidity_31~40.sol\":2785:2790  array */\n      0x00\n        /* \"contract/solidity_31~40.sol\":2785:2797  array.length */\n      dup1\n      sload\n      swap1\n      pop\n        /* \"contract/solidity_31~40.sol\":2785:2801  array.length / 2 */\n      tag_9\n      swap2\n      swap1\n      tag_10\n      jump\t// in\n    tag_9:\n        /* \"contract/solidity_31~40.sol\":2773:2803  new uint[]( array.length / 2 ) */\n      0xffffffffffffffff\n      dup2\n      gt\n      iszero\n      tag_11\n      jumpi\n      tag_12\n      tag_13\n      jump\t// in\n    tag_12:\n    tag_11:\n      mload(0x40)\n      swap1\n      dup1\n      dup3\n      mstore\n      dup1\n      0x20\n      mul\n      0x20\n      add\n      dup3\n      add\n      0x40\n      mstore\n      dup1\n      iszero\n      tag_14\n      jumpi\n      dup2\n      0x20\n      add\n      0x20\n      dup3\n      mul\n      dup1\n      calldatasize\n      dup4\n      calldatacopy\n      dup1\n      dup3\n      add\n      swap2\n      pop\n      pop\n      swap1\n      pop\n    tag_14:\n      pop\n        /* \"contract/solidity_31~40.sol\":2748:2803  uint[] memory rt_value = new uint[]( array.length / 2 ) */\n      swap1\n      pop\n        /* \"contract/solidity_31~40.sol\":2815:2825  uint count */\n      0x00\n        /* \"contract/solidity_31~40.sol\":2846:2852  uint i */\n      dup1\n        /* \"contract/solidity_31~40.sol\":2855:2856  1 */\n      0x01\n        /* \"contract/solidity_31~40.sol\":2846:2856  uint i = 1 */\n      swap1\n      pop\n        /* \"contract/solidity_31~40.sol\":2841:2920  for( uint i = 1 ; i < array.length ; i += 2 ) rt_value[ count ++ ] = array[ i ] */\n    tag_15:\n        /* \"contract/solidity_31~40.sol\":2863:2868  array */\n      0x00\n        /* \"contract/solidity_31~40.sol\":2863:2875  array.length */\n      dup1\n      sload\n      swap1\n      pop\n        /* \"contract/solidity_31~40.sol\":2859:2860  i */\n      dup2\n        /* \"contract/solidity_31~40.sol\":2859:2875  i < array.length */\n      lt\n        /* \"contract/solidity_31~40.sol\":2841:2920  for( uint i = 1 ; i < array.length ; i += 2 ) rt_value[ count ++ ] = array[ i ] */\n      iszero\n      tag_16\n      jumpi\n        /* \"contract/solidity_31~40.sol\":2910:2915  array */\n      0x00\n        /* \"contract/solidity_31~40.sol\":2917:2918  i */\n      dup2\n        /* \"contract/solidity_31~40.sol\":2910:2920  array[ i ] */\n      dup2\n      sload\n      dup2\n      lt\n      tag_18\n      jumpi\n      tag_19\n      tag_20\n      jump\t// in\n    tag_19:\n    tag_18:\n      swap1\n      0x00\n      mstore\n      keccak256(0x00, 0x20)\n      add\n      sload\n        /* \"contract/solidity_31~40.sol\":2887:2895  rt_value */\n      dup4\n        /* \"contract/solidity_31~40.sol\":2897:2905  count ++ */\n      dup4\n      dup1\n      tag_22\n      swap1\n      tag_23\n      jump\t// in\n    tag_22:\n      swap5\n      pop\n        /* \"contract/solidity_31~40.sol\":2887:2907  rt_value[ count ++ ] */\n      dup2\n      mload\n      dup2\n      lt\n      tag_24\n      jumpi\n      tag_25\n      tag_20\n      jump\t// in\n    tag_25:\n    tag_24:\n      0x20\n      mul\n      0x20\n      add\n      add\n        /* \"contract/solidity_31~40.sol\":2887:2920  rt_value[ count ++ ] = array[ i ] */\n      dup2\n      dup2\n      mstore\n      pop\n      pop\n        /* \"contract/solidity_31~40.sol\":2883:2884  2 */\n      0x02\n        /* \"contract/solidity_31~40.sol\":2878:2884  i += 2 */\n      dup2\n      tag_26\n      swap2\n      swap1\n      tag_27\n      jump\t// in\n    tag_26:\n      swap1\n      pop\n        /* \"contract/solidity_31~40.sol\":2841:2920  for( uint i = 1 ; i < array.length ; i += 2 ) rt_value[ count ++ ] = array[ i ] */\n      jump(tag_15)\n    tag_16:\n      pop\n        /* \"contract/solidity_31~40.sol\":2941:2949  rt_value */\n      dup2\n        /* \"contract/solidity_31~40.sol\":2934:2949  return rt_value */\n      swap3\n      pop\n      pop\n      pop\n        /* \"contract/solidity_31~40.sol\":2680:2960  function geteven() public view returns( uint[] memory ){... */\n      swap1\n      jump\t// out\n        /* \"#utility.yul\":7:121   */\n    tag_28:\n        /* \"#utility.yul\":74:80   */\n      0x00\n        /* \"#utility.yul\":108:113   */\n      dup2\n        /* \"#utility.yul\":102:114   */\n      mload\n        /* \"#utility.yul\":92:114   */\n      swap1\n      pop\n        /* \"#utility.yul\":7:121   */\n      swap2\n      swap1\n      pop\n      jump\t// out\n        /* \"#utility.yul\":127:311   */\n    tag_29:\n        /* \"#utility.yul\":226:237   */\n      0x00\n        /* \"#utility.yul\":260:266   */\n      dup3\n        /* \"#utility.yul\":255:258   */\n      dup3\n        /* \"#utility.yul\":248:267   */\n      mstore\n        /* \"#utility.yul\":300:304   */\n      0x20\n        /* \"#utility.yul\":295:298   */\n      dup3\n        /* \"#utility.yul\":291:305   */\n      add\n        /* \"#utility.yul\":276:305   */\n      swap1\n      pop\n        /* \"#utility.yul\":127:311   */\n      swap3\n      swap2\n      pop\n      pop\n      jump\t// out\n        /* \"#utility.yul\":317:449   */\n    tag_30:\n        /* \"#utility.yul\":384:388   */\n      0x00\n        /* \"#utility.yul\":407:410   */\n      dup2\n        /* \"#utility.yul\":399:410   */\n      swap1\n      pop\n        /* \"#utility.yul\":437:441   */\n      0x20\n        /* \"#utility.yul\":432:435   */\n      dup3\n        /* \"#utility.yul\":428:442   */\n      add\n        /* \"#utility.yul\":420:442   */\n      swap1\n      pop\n        /* \"#utility.yul\":317:449   */\n      swap2\n      swap1\n      pop\n      jump\t// out\n        /* \"#utility.yul\":455:532   */\n    tag_31:\n        /* \"#utility.yul\":492:499   */\n      0x00\n        /* \"#utility.yul\":521:526   */\n      dup2\n        /* \"#utility.yul\":510:526   */\n      swap1\n      pop\n        /* \"#utility.yul\":455:532   */\n      swap2\n      swap1\n      pop\n      jump\t// out\n        /* \"#utility.yul\":538:646   */\n    tag_32:\n        /* \"#utility.yul\":615:639   */\n      tag_44\n        /* \"#utility.yul\":633:638   */\n      dup2\n        /* \"#utility.yul\":615:639   */\n      tag_31\n      jump\t// in\n    tag_44:\n        /* \"#utility.yul\":610:613   */\n      dup3\n        /* \"#utility.yul\":603:640   */\n      mstore\n        /* \"#utility.yul\":538:646   */\n      pop\n      pop\n      jump\t// out\n        /* \"#utility.yul\":652:831   */\n    tag_33:\n        /* \"#utility.yul\":721:731   */\n      0x00\n        /* \"#utility.yul\":742:788   */\n      tag_46\n        /* \"#utility.yul\":784:787   */\n      dup4\n        /* \"#utility.yul\":776:782   */\n      dup4\n        /* \"#utility.yul\":742:788   */\n      tag_32\n      jump\t// in\n    tag_46:\n        /* \"#utility.yul\":820:824   */\n      0x20\n        /* \"#utility.yul\":815:818   */\n      dup4\n        /* \"#utility.yul\":811:825   */\n      add\n        /* \"#utility.yul\":797:825   */\n      swap1\n      pop\n        /* \"#utility.yul\":652:831   */\n      swap3\n      swap2\n      pop\n      pop\n      jump\t// out\n        /* \"#utility.yul\":837:950   */\n    tag_34:\n        /* \"#utility.yul\":907:911   */\n      0x00\n        /* \"#utility.yul\":939:943   */\n      0x20\n        /* \"#utility.yul\":934:937   */\n      dup3\n        /* \"#utility.yul\":930:944   */\n      add\n        /* \"#utility.yul\":922:944   */\n      swap1\n      pop\n        /* \"#utility.yul\":837:950   */\n      swap2\n      swap1\n      pop\n      jump\t// out\n        /* \"#utility.yul\":986:1718   */\n    tag_35:\n        /* \"#utility.yul\":1105:1108   */\n      0x00\n        /* \"#utility.yul\":1134:1188   */\n      tag_49\n        /* \"#utility.yul\":1182:1187   */\n      dup3\n        /* \"#utility.yul\":1134:1188   */\n      tag_28\n      jump\t// in\n    tag_49:\n        /* \"#utility.yul\":1204:1290   */\n      tag_50\n        /* \"#utility.yul\":1283:1289   */\n      dup2\n        /* \"#utility.yul\":1278:1281   */\n      dup6\n        /* \"#utility.yul\":1204:1290   */\n      tag_29\n      jump\t// in\n    tag_50:\n        /* \"#utility.yul\":1197:1290   */\n      swap4\n      pop\n        /* \"#utility.yul\":1314:1370   */\n      tag_51\n        /* \"#utility.yul\":1364:1369   */\n      dup4\n        /* \"#utility.yul\":1314:1370   */\n      tag_30\n      jump\t// in\n    tag_51:\n        /* \"#utility.yul\":1393:1400   */\n      dup1\n        /* \"#utility.yul\":1424:1425   */\n      0x00\n        /* \"#utility.yul\":1409:1693   */\n    tag_52:\n        /* \"#utility.yul\":1434:1440   */\n      dup4\n        /* \"#utility.yul\":1431:1432   */\n      dup2\n        /* \"#utility.yul\":1428:1441   */\n      lt\n        /* \"#utility.yul\":1409:1693   */\n      iszero\n      tag_54\n      jumpi\n        /* \"#utility.yul\":1510:1516   */\n      dup2\n        /* \"#utility.yul\":1504:1517   */\n      mload\n        /* \"#utility.yul\":1537:1600   */\n      tag_55\n        /* \"#utility.yul\":1596:1599   */\n      dup9\n        /* \"#utility.yul\":1581:1594   */\n      dup3\n        /* \"#utility.yul\":1537:1600   */\n      tag_33\n      jump\t// in\n    tag_55:\n        /* \"#utility.yul\":1530:1600   */\n      swap8\n      pop\n        /* \"#utility.yul\":1623:1683   */\n      tag_56\n        /* \"#utility.yul\":1676:1682   */\n      dup4\n        /* \"#utility.yul\":1623:1683   */\n      tag_34\n      jump\t// in\n    tag_56:\n        /* \"#utility.yul\":1613:1683   */\n      swap3\n      pop\n        /* \"#utility.yul\":1469:1693   */\n      pop\n        /* \"#utility.yul\":1456:1457   */\n      0x01\n        /* \"#utility.yul\":1453:1454   */\n      dup2\n        /* \"#utility.yul\":1449:1458   */\n      add\n        /* \"#utility.yul\":1444:1458   */\n      swap1\n      pop\n        /* \"#utility.yul\":1409:1693   */\n      jump(tag_52)\n    tag_54:\n        /* \"#utility.yul\":1413:1427   */\n      pop\n        /* \"#utility.yul\":1709:1712   */\n      dup6\n        /* \"#utility.yul\":1702:1712   */\n      swap4\n      pop\n        /* \"#utility.yul\":1110:1718   */\n      pop\n      pop\n      pop\n        /* \"#utility.yul\":986:1718   */\n      swap3\n      swap2\n      pop\n      pop\n      jump\t// out\n        /* \"#utility.yul\":1724:2097   */\n    tag_7:\n        /* \"#utility.yul\":1867:1871   */\n      0x00\n        /* \"#utility.yul\":1905:1907   */\n      0x20\n        /* \"#utility.yul\":1894:1903   */\n      dup3\n        /* \"#utility.yul\":1890:1908   */\n      add\n        /* \"#utility.yul\":1882:1908   */\n      swap1\n      pop\n        /* \"#utility.yul\":1954:1963   */\n      dup2\n        /* \"#utility.yul\":1948:1952   */\n      dup2\n        /* \"#utility.yul\":1944:1964   */\n      sub\n        /* \"#utility.yul\":1940:1941   */\n      0x00\n        /* \"#utility.yul\":1929:1938   */\n      dup4\n        /* \"#utility.yul\":1925:1942   */\n      add\n        /* \"#utility.yul\":1918:1965   */\n      mstore\n        /* \"#utility.yul\":1982:2090   */\n      tag_58\n        /* \"#utility.yul\":2085:2089   */\n      dup2\n        /* \"#utility.yul\":2076:2082   */\n      dup5\n        /* \"#utility.yul\":1982:2090   */\n      tag_35\n      jump\t// in\n    tag_58:\n        /* \"#utility.yul\":1974:2090   */\n      swap1\n      pop\n        /* \"#utility.yul\":1724:2097   */\n      swap3\n      swap2\n      pop\n      pop\n      jump\t// out\n        /* \"#utility.yul\":2103:2283   */\n    tag_36:\n        /* \"#utility.yul\":2151:2228   */\n      0x4e487b7100000000000000000000000000000000000000000000000000000000\n        /* \"#utility.yul\":2148:2149   */\n      0x00\n        /* \"#utility.yul\":2141:2229   */\n      mstore\n        /* \"#utility.yul\":2248:2252   */\n      0x12\n        /* \"#utility.yul\":2245:2246   */\n      0x04\n        /* \"#utility.yul\":2238:2253   */\n      mstore\n        /* \"#utility.yul\":2272:2276   */\n      0x24\n        /* \"#utility.yul\":2269:2270   */\n      0x00\n        /* \"#utility.yul\":2262:2277   */\n      revert\n        /* \"#utility.yul\":2289:2469   */\n    tag_37:\n        /* \"#utility.yul\":2337:2414   */\n      0x4e487b7100000000000000000000000000000000000000000000000000000000\n        /* \"#utility.yul\":2334:2335   */\n      0x00\n        /* \"#utility.yul\":2327:2415   */\n      mstore\n        /* \"#utility.yul\":2434:2438   */\n      0x11\n        /* \"#utility.yul\":2431:2432   */\n      0x04\n        /* \"#utility.yul\":2424:2439   */\n      mstore\n        /* \"#utility.yul\":2458:2462   */\n      0x24\n        /* \"#utility.yul\":2455:2456   */\n      0x00\n        /* \"#utility.yul\":2448:2463   */\n      revert\n        /* \"#utility.yul\":2475:2660   */\n    tag_10:\n        /* \"#utility.yul\":2515:2516   */\n      0x00\n        /* \"#utility.yul\":2532:2552   */\n      tag_62\n        /* \"#utility.yul\":2550:2551   */\n      dup3\n        /* \"#utility.yul\":2532:2552   */\n      tag_31\n      jump\t// in\n    tag_62:\n        /* \"#utility.yul\":2527:2552   */\n      swap2\n      pop\n        /* \"#utility.yul\":2566:2586   */\n      tag_63\n        /* \"#utility.yul\":2584:2585   */\n      dup4\n        /* \"#utility.yul\":2566:2586   */\n      tag_31\n      jump\t// in\n    tag_63:\n        /* \"#utility.yul\":2561:2586   */\n      swap3\n      pop\n        /* \"#utility.yul\":2605:2606   */\n      dup3\n        /* \"#utility.yul\":2595:2630   */\n      tag_64\n      jumpi\n        /* \"#utility.yul\":2610:2628   */\n      tag_65\n      tag_36\n      jump\t// in\n    tag_65:\n        /* \"#utility.yul\":2595:2630   */\n    tag_64:\n        /* \"#utility.yul\":2652:2653   */\n      dup3\n        /* \"#utility.yul\":2649:2650   */\n      dup3\n        /* \"#utility.yul\":2645:2654   */\n      div\n        /* \"#utility.yul\":2640:2654   */\n      swap1\n      pop\n        /* \"#utility.yul\":2475:2660   */\n      swap3\n      swap2\n      pop\n      pop\n      jump\t// out\n        /* \"#utility.yul\":2666:2846   */\n    tag_13:\n        /* \"#utility.yul\":2714:2791   */\n      0x4e487b7100000000000000000000000000000000000000000000000000000000\n        /* \"#utility.yul\":2711:2712   */\n      0x00\n        /* \"#utility.yul\":2704:2792   */\n      mstore\n        /* \"#utility.yul\":2811:2815   */\n      0x41\n        /* \"#utility.yul\":2808:2809   */\n      0x04\n        /* \"#utility.yul\":2801:2816   */\n      mstore\n        /* \"#utility.yul\":2835:2839   */\n      0x24\n        /* \"#utility.yul\":2832:2833   */\n      0x00\n        /* \"#utility.yul\":2825:2840   */\n      revert\n        /* \"#utility.yul\":2852:3032   */\n    tag_20:\n        /* \"#utility.yul\":2900:2977   */\n      0x4e487b7100000000000000000000000000000000000000000000000000000000\n        /* \"#utility.yul\":2897:2898   */\n      0x00\n        /* \"#utility.yul\":2890:2978   */\n      mstore\n        /* \"#utility.yul\":2997:3001   */\n      0x32\n        /* \"#utility.yul\":2994:2995   */\n      0x04\n        /* \"#utility.yul\":2987:3002   */\n      mstore\n        /* \"#utility.yul\":3021:3025   */\n      0x24\n        /* \"#utility.yul\":3018:3019   */\n      0x00\n        /* \"#utility.yul\":3011:3026   */\n      revert\n        /* \"#utility.yul\":3038:3271   */\n    tag_23:\n        /* \"#utility.yul\":3077:3080   */\n      0x00\n        /* \"#utility.yul\":3100:3124   */\n      tag_69\n        /* \"#utility.yul\":3118:3123   */\n      dup3\n        /* \"#utility.yul\":3100:3124   */\n      tag_31\n      jump\t// in\n    tag_69:\n        /* \"#utility.yul\":3091:3124   */\n      swap2\n      pop\n        /* \"#utility.yul\":3146:3212   */\n      0xffffffffffffffffffffffffffffffffffffffffffffffffffffffffffffffff\n        /* \"#utility.yul\":3139:3144   */\n      dup3\n        /* \"#utility.yul\":3136:3213   */\n      sub\n        /* \"#utility.yul\":3133:3236   */\n      tag_70\n      jumpi\n        /* \"#utility.yul\":3216:3234   */\n      tag_71\n      tag_37\n      jump\t// in\n    tag_71:\n        /* \"#utility.yul\":3133:3236   */\n    tag_70:\n        /* \"#utility.yul\":3263:3264   */\n      0x01\n        /* \"#utility.yul\":3256:3261   */\n      dup3\n        /* \"#utility.yul\":3252:3265   */\n      add\n        /* \"#utility.yul\":3245:3265   */\n      swap1\n      pop\n        /* \"#utility.yul\":3038:3271   */\n      swap2\n      swap1\n      pop\n      jump\t// out\n        /* \"#utility.yul\":3277:3468   */\n    tag_27:\n        /* \"#utility.yul\":3317:3320   */\n      0x00\n        /* \"#utility.yul\":3336:3356   */\n      tag_73\n        /* \"#utility.yul\":3354:3355   */\n      dup3\n        /* \"#utility.yul\":3336:3356   */\n      tag_31\n      jump\t// in\n    tag_73:\n        /* \"#utility.yul\":3331:3356   */\n      swap2\n      pop\n        /* \"#utility.yul\":3370:3390   */\n      tag_74\n        /* \"#utility.yul\":3388:3389   */\n      dup4\n        /* \"#utility.yul\":3370:3390   */\n      tag_31\n      jump\t// in\n    tag_74:\n        /* \"#utility.yul\":3365:3390   */\n      swap3\n      pop\n        /* \"#utility.yul\":3413:3414   */\n      dup3\n        /* \"#utility.yul\":3410:3411   */\n      dup3\n        /* \"#utility.yul\":3406:3415   */\n      add\n        /* \"#utility.yul\":3399:3415   */\n      swap1\n      pop\n        /* \"#utility.yul\":3434:3437   */\n      dup1\n        /* \"#utility.yul\":3431:3432   */\n      dup3\n        /* \"#utility.yul\":3428:3438   */\n      gt\n        /* \"#utility.yul\":3425:3461   */\n      iszero\n      tag_75\n      jumpi\n        /* \"#utility.yul\":3441:3459   */\n      tag_76\n      tag_37\n      jump\t// in\n    tag_76:\n        /* \"#utility.yul\":3425:3461   */\n    tag_75:\n        /* \"#utility.yul\":3277:3468   */\n      swap3\n      swap2\n      pop\n      pop\n      jump\t// out\n\n    auxdata: 0xa26469706673582212208179ca5865172384b3002f593c70aee1d237e00465bf3f7018077b1a750ab93964736f6c63430008120033\n}\n",
				"bytecode": {
					"linkReferences": {},
					"object": "608060405234801561001057600080fd5b506103b3806100206000396000f3fe608060405234801561001057600080fd5b506004361061002b5760003560e01c806354173c5114610030575b600080fd5b61003861004e565b60405161004591906101f2565b60405180910390f35b6060600060026000805490506100649190610272565b67ffffffffffffffff81111561007d5761007c6102a3565b5b6040519080825280602002602001820160405280156100ab5781602001602082028036833780820191505090505b509050600080600190505b60008054905081101561012157600081815481106100d7576100d66102d2565b5b90600052602060002001548383806100ee90610301565b945081518110610101576101006102d2565b5b60200260200101818152505060028161011a9190610349565b90506100b6565b50819250505090565b600081519050919050565b600082825260208201905092915050565b6000819050602082019050919050565b6000819050919050565b61016981610156565b82525050565b600061017b8383610160565b60208301905092915050565b6000602082019050919050565b600061019f8261012a565b6101a98185610135565b93506101b483610146565b8060005b838110156101e55781516101cc888261016f565b97506101d783610187565b9250506001810190506101b8565b5085935050505092915050565b6000602082019050818103600083015261020c8184610194565b905092915050565b7f4e487b7100000000000000000000000000000000000000000000000000000000600052601260045260246000fd5b7f4e487b7100000000000000000000000000000000000000000000000000000000600052601160045260246000fd5b600061027d82610156565b915061028883610156565b92508261029857610297610214565b5b828204905092915050565b7f4e487b7100000000000000000000000000000000000000000000000000000000600052604160045260246000fd5b7f4e487b7100000000000000000000000000000000000000000000000000000000600052603260045260246000fd5b600061030c82610156565b91507fffffffffffffffffffffffffffffffffffffffffffffffffffffffffffffffff820361033e5761033d610243565b5b600182019050919050565b600061035482610156565b915061035f83610156565b925082820190508082111561037757610376610243565b5b9291505056fea26469706673582212208179ca5865172384b3002f593c70aee1d237e00465bf3f7018077b1a750ab93964736f6c63430008120033",
					"opcodes": "PUSH1 0x80 PUSH1 0x40 MSTORE CALLVALUE DUP1 ISZERO PUSH2 0x10 JUMPI PUSH1 0x0 DUP1 REVERT JUMPDEST POP PUSH2 0x3B3 DUP1 PUSH2 0x20 PUSH1 0x0 CODECOPY PUSH1 0x0 RETURN INVALID PUSH1 0x80 PUSH1 0x40 MSTORE CALLVALUE DUP1 ISZERO PUSH2 0x10 JUMPI PUSH1 0x0 DUP1 REVERT JUMPDEST POP PUSH1 0x4 CALLDATASIZE LT PUSH2 0x2B JUMPI PUSH1 0x0 CALLDATALOAD PUSH1 0xE0 SHR DUP1 PUSH4 0x54173C51 EQ PUSH2 0x30 JUMPI JUMPDEST PUSH1 0x0 DUP1 REVERT JUMPDEST PUSH2 0x38 PUSH2 0x4E JUMP JUMPDEST PUSH1 0x40 MLOAD PUSH2 0x45 SWAP2 SWAP1 PUSH2 0x1F2 JUMP JUMPDEST PUSH1 0x40 MLOAD DUP1 SWAP2 SUB SWAP1 RETURN JUMPDEST PUSH1 0x60 PUSH1 0x0 PUSH1 0x2 PUSH1 0x0 DUP1 SLOAD SWAP1 POP PUSH2 0x64 SWAP2 SWAP1 PUSH2 0x272 JUMP JUMPDEST PUSH8 0xFFFFFFFFFFFFFFFF DUP2 GT ISZERO PUSH2 0x7D JUMPI PUSH2 0x7C PUSH2 0x2A3 JUMP JUMPDEST JUMPDEST PUSH1 0x40 MLOAD SWAP1 DUP1 DUP3 MSTORE DUP1 PUSH1 0x20 MUL PUSH1 0x20 ADD DUP3 ADD PUSH1 0x40 MSTORE DUP1 ISZERO PUSH2 0xAB JUMPI DUP2 PUSH1 0x20 ADD PUSH1 0x20 DUP3 MUL DUP1 CALLDATASIZE DUP4 CALLDATACOPY DUP1 DUP3 ADD SWAP2 POP POP SWAP1 POP JUMPDEST POP SWAP1 POP PUSH1 0x0 DUP1 PUSH1 0x1 SWAP1 POP JUMPDEST PUSH1 0x0 DUP1 SLOAD SWAP1 POP DUP2 LT ISZERO PUSH2 0x121 JUMPI PUSH1 0x0 DUP2 DUP2 SLOAD DUP2 LT PUSH2 0xD7 JUMPI PUSH2 0xD6 PUSH2 0x2D2 JUMP JUMPDEST JUMPDEST SWAP1 PUSH1 0x0 MSTORE PUSH1 0x20 PUSH1 0x0 KECCAK256 ADD SLOAD DUP4 DUP4 DUP1 PUSH2 0xEE SWAP1 PUSH2 0x301 JUMP JUMPDEST SWAP5 POP DUP2 MLOAD DUP2 LT PUSH2 0x101 JUMPI PUSH2 0x100 PUSH2 0x2D2 JUMP JUMPDEST JUMPDEST PUSH1 0x20 MUL PUSH1 0x20 ADD ADD DUP2 DUP2 MSTORE POP POP PUSH1 0x2 DUP2 PUSH2 0x11A SWAP2 SWAP1 PUSH2 0x349 JUMP JUMPDEST SWAP1 POP PUSH2 0xB6 JUMP JUMPDEST POP DUP2 SWAP3 POP POP POP SWAP1 JUMP JUMPDEST PUSH1 0x0 DUP2 MLOAD SWAP1 POP SWAP2 SWAP1 POP JUMP JUMPDEST PUSH1 0x0 DUP3 DUP3 MSTORE PUSH1 0x20 DUP3 ADD SWAP1 POP SWAP3 SWAP2 POP POP JUMP JUMPDEST PUSH1 0x0 DUP2 SWAP1 POP PUSH1 0x20 DUP3 ADD SWAP1 POP SWAP2 SWAP1 POP JUMP JUMPDEST PUSH1 0x0 DUP2 SWAP1 POP SWAP2 SWAP1 POP JUMP JUMPDEST PUSH2 0x169 DUP2 PUSH2 0x156 JUMP JUMPDEST DUP3 MSTORE POP POP JUMP JUMPDEST PUSH1 0x0 PUSH2 0x17B DUP4 DUP4 PUSH2 0x160 JUMP JUMPDEST PUSH1 0x20 DUP4 ADD SWAP1 POP SWAP3 SWAP2 POP POP JUMP JUMPDEST PUSH1 0x0 PUSH1 0x20 DUP3 ADD SWAP1 POP SWAP2 SWAP1 POP JUMP JUMPDEST PUSH1 0x0 PUSH2 0x19F DUP3 PUSH2 0x12A JUMP JUMPDEST PUSH2 0x1A9 DUP2 DUP6 PUSH2 0x135 JUMP JUMPDEST SWAP4 POP PUSH2 0x1B4 DUP4 PUSH2 0x146 JUMP JUMPDEST DUP1 PUSH1 0x0 JUMPDEST DUP4 DUP2 LT ISZERO PUSH2 0x1E5 JUMPI DUP2 MLOAD PUSH2 0x1CC DUP9 DUP3 PUSH2 0x16F JUMP JUMPDEST SWAP8 POP PUSH2 0x1D7 DUP4 PUSH2 0x187 JUMP JUMPDEST SWAP3 POP POP PUSH1 0x1 DUP2 ADD SWAP1 POP PUSH2 0x1B8 JUMP JUMPDEST POP DUP6 SWAP4 POP POP POP POP SWAP3 SWAP2 POP POP JUMP JUMPDEST PUSH1 0x0 PUSH1 0x20 DUP3 ADD SWAP1 POP DUP2 DUP2 SUB PUSH1 0x0 DUP4 ADD MSTORE PUSH2 0x20C DUP2 DUP5 PUSH2 0x194 JUMP JUMPDEST SWAP1 POP SWAP3 SWAP2 POP POP JUMP JUMPDEST PUSH32 0x4E487B7100000000000000000000000000000000000000000000000000000000 PUSH1 0x0 MSTORE PUSH1 0x12 PUSH1 0x4 MSTORE PUSH1 0x24 PUSH1 0x0 REVERT JUMPDEST PUSH32 0x4E487B7100000000000000000000000000000000000000000000000000000000 PUSH1 0x0 MSTORE PUSH1 0x11 PUSH1 0x4 MSTORE PUSH1 0x24 PUSH1 0x0 REVERT JUMPDEST PUSH1 0x0 PUSH2 0x27D DUP3 PUSH2 0x156 JUMP JUMPDEST SWAP2 POP PUSH2 0x288 DUP4 PUSH2 0x156 JUMP JUMPDEST SWAP3 POP DUP3 PUSH2 0x298 JUMPI PUSH2 0x297 PUSH2 0x214 JUMP JUMPDEST JUMPDEST DUP3 DUP3 DIV SWAP1 POP SWAP3 SWAP2 POP POP JUMP JUMPDEST PUSH32 0x4E487B7100000000000000000000000000000000000000000000000000000000 PUSH1 0x0 MSTORE PUSH1 0x41 PUSH1 0x4 MSTORE PUSH1 0x24 PUSH1 0x0 REVERT JUMPDEST PUSH32 0x4E487B7100000000000000000000000000000000000000000000000000000000 PUSH1 0x0 MSTORE PUSH1 0x32 PUSH1 0x4 MSTORE PUSH1 0x24 PUSH1 0x0 REVERT JUMPDEST PUSH1 0x0 PUSH2 0x30C DUP3 PUSH2 0x156 JUMP JUMPDEST SWAP2 POP PUSH32 0xFFFFFFFFFFFFFFFFFFFFFFFFFFFFFFFFFFFFFFFFFFFFFFFFFFFFFFFFFFFFFFFF DUP3 SUB PUSH2 0x33E JUMPI PUSH2 0x33D PUSH2 0x243 JUMP JUMPDEST JUMPDEST PUSH1 0x1 DUP3 ADD SWAP1 POP SWAP2 SWAP1 POP JUMP JUMPDEST PUSH1 0x0 PUSH2 0x354 DUP3 PUSH2 0x156 JUMP JUMPDEST SWAP2 POP PUSH2 0x35F DUP4 PUSH2 0x156 JUMP JUMPDEST SWAP3 POP DUP3 DUP3 ADD SWAP1 POP DUP1 DUP3 GT ISZERO PUSH2 0x377 JUMPI PUSH2 0x376 PUSH2 0x243 JUMP JUMPDEST JUMPDEST SWAP3 SWAP2 POP POP JUMP INVALID LOG2 PUSH5 0x6970667358 0x22 SLT KECCAK256 DUP2 PUSH26 0xCA5865172384B3002F593C70AEE1D237E00465BF3F7018077B1A PUSH22 0xAB93964736F6C634300081200330000000000000000 "
				},
				"gasEstimates": {
					"creation": {
						"codeDepositCost": "189400",
						"executionCost": "232",
						"totalCost": "189632"
					},
					"external": {
						"geteven()": "infinite"
					}
				},
				"methodIdentifiers": {
					"geteven()": "54173c51"
				}
			},
			"storageLayout": {
				"storage": [
					{
						"astId": 178,
						"contract": "contract/solidity_31~40.sol:Q35",
						"label": "array",
						"offset": 0,
						"slot": "0",
						"type": "t_array(t_uint256)dyn_storage"
					}
				],
				"types": {
					"t_array(t_uint256)dyn_storage": {
						"base": "t_uint256",
						"encoding": "dynamic_array",
						"label": "uint256[]",
						"numberOfBytes": "32"
					},
					"t_uint256": {
						"encoding": "inplace",
						"label": "uint256",
						"numberOfBytes": "32"
					}
				}
			},
			"userdoc": {
				"kind": "user",
				"methods": {},
				"version": 1
			}
		}
	}
}