{
	"contract/solidity_31~40.sol": {
		"Q40": {
			"abi": [
				{
					"inputs": [
						{
							"internalType": "uint256",
							"name": "",
							"type": "uint256"
						}
					],
					"name": "array",
					"outputs": [
						{
							"internalType": "uint256",
							"name": "",
							"type": "uint256"
						}
					],
					"stateMutability": "view",
					"type": "function"
				},
				{
					"inputs": [],
					"name": "f",
					"outputs": [
						{
							"internalType": "uint256[]",
							"name": "",
							"type": "uint256[]"
						}
					],
					"stateMutability": "nonpayable",
					"type": "function"
				},
				{
					"inputs": [
						{
							"internalType": "uint256",
							"name": "_input",
							"type": "uint256"
						}
					],
					"name": "push",
					"outputs": [],
					"stateMutability": "nonpayable",
					"type": "function"
				}
			],
			"devdoc": {
				"kind": "dev",
				"methods": {},
				"version": 1
			},
			"evm": {
				"assembly": "    /* \"contract/solidity_31~40.sol\":6441:7548  contract Q40{... */\n  mstore(0x40, 0x80)\n  callvalue\n  dup1\n  iszero\n  tag_1\n  jumpi\n  0x00\n  dup1\n  revert\ntag_1:\n  pop\n  dataSize(sub_0)\n  dup1\n  dataOffset(sub_0)\n  0x00\n  codecopy\n  0x00\n  return\nstop\n\nsub_0: assembly {\n        /* \"contract/solidity_31~40.sol\":6441:7548  contract Q40{... */\n      mstore(0x40, 0x80)\n      callvalue\n      dup1\n      iszero\n      tag_1\n      jumpi\n      0x00\n      dup1\n      revert\n    tag_1:\n      pop\n      jumpi(tag_2, lt(calldatasize, 0x04))\n      shr(0xe0, calldataload(0x00))\n      dup1\n      0x26121ff0\n      eq\n      tag_3\n      jumpi\n      dup1\n      0x38d94193\n      eq\n      tag_4\n      jumpi\n      dup1\n      0x959ac484\n      eq\n      tag_5\n      jumpi\n    tag_2:\n      0x00\n      dup1\n      revert\n        /* \"contract/solidity_31~40.sol\":6846:7543  function f() public returns( uint[] memory ){... */\n    tag_3:\n      tag_6\n      tag_7\n      jump\t// in\n    tag_6:\n      mload(0x40)\n      tag_8\n      swap2\n      swap1\n      tag_9\n      jump\t// in\n    tag_8:\n      mload(0x40)\n      dup1\n      swap2\n      sub\n      swap1\n      return\n        /* \"contract/solidity_31~40.sol\":6462:6481  uint[] public array */\n    tag_4:\n      tag_10\n      0x04\n      dup1\n      calldatasize\n      sub\n      dup2\n      add\n      swap1\n      tag_11\n      swap2\n      swap1\n      tag_12\n      jump\t// in\n    tag_11:\n      tag_13\n      jump\t// in\n    tag_10:\n      mload(0x40)\n      tag_14\n      swap2\n      swap1\n      tag_15\n      jump\t// in\n    tag_14:\n      mload(0x40)\n      dup1\n      swap2\n      sub\n      swap1\n      return\n        /* \"contract/solidity_31~40.sol\":6491:6571  function push( uint _input ) public {... */\n    tag_5:\n      tag_16\n      0x04\n      dup1\n      calldatasize\n      sub\n      dup2\n      add\n      swap1\n      tag_17\n      swap2\n      swap1\n      tag_12\n      jump\t// in\n    tag_17:\n      tag_18\n      jump\t// in\n    tag_16:\n      stop\n        /* \"contract/solidity_31~40.sol\":6846:7543  function f() public returns( uint[] memory ){... */\n    tag_7:\n        /* \"contract/solidity_31~40.sol\":6875:6888  uint[] memory */\n      0x60\n        /* \"contract/solidity_31~40.sol\":6908:6914  uint i */\n      0x00\n        /* \"contract/solidity_31~40.sol\":6903:7127  for( uint i = 0 ; i < array.length ; i ++ ) {... */\n    tag_20:\n        /* \"contract/solidity_31~40.sol\":6925:6930  array */\n      0x00\n        /* \"contract/solidity_31~40.sol\":6925:6937  array.length */\n      dup1\n      sload\n      swap1\n      pop\n        /* \"contract/solidity_31~40.sol\":6921:6922  i */\n      dup2\n        /* \"contract/solidity_31~40.sol\":6921:6937  i < array.length */\n      lt\n        /* \"contract/solidity_31~40.sol\":6903:7127  for( uint i = 0 ; i < array.length ; i ++ ) {... */\n      iszero\n      tag_21\n      jumpi\n        /* \"contract/solidity_31~40.sol\":6967:6973  uint j */\n      0x00\n        /* \"contract/solidity_31~40.sol\":6980:6981  1 */\n      0x01\n        /* \"contract/solidity_31~40.sol\":6976:6977  i */\n      dup3\n        /* \"contract/solidity_31~40.sol\":6976:6981  i + 1 */\n      tag_26\n      swap2\n      swap1\n      tag_27\n      jump\t// in\n    tag_26:\n        /* \"contract/solidity_31~40.sol\":6967:6981  uint j = i + 1 */\n      swap1\n      pop\n        /* \"contract/solidity_31~40.sol\":6962:7114  for( uint j = i + 1 ; j < array.length ; j ++ )... */\n    tag_23:\n        /* \"contract/solidity_31~40.sol\":6988:6993  array */\n      0x00\n        /* \"contract/solidity_31~40.sol\":6988:7000  array.length */\n      dup1\n      sload\n      swap1\n      pop\n        /* \"contract/solidity_31~40.sol\":6984:6985  j */\n      dup2\n        /* \"contract/solidity_31~40.sol\":6984:7000  j < array.length */\n      lt\n        /* \"contract/solidity_31~40.sol\":6962:7114  for( uint j = i + 1 ; j < array.length ; j ++ )... */\n      iszero\n      tag_24\n      jumpi\n        /* \"contract/solidity_31~40.sol\":7044:7049  array */\n      0x00\n        /* \"contract/solidity_31~40.sol\":7051:7052  j */\n      dup2\n        /* \"contract/solidity_31~40.sol\":7044:7054  array[ j ] */\n      dup2\n      sload\n      dup2\n      lt\n      tag_28\n      jumpi\n      tag_29\n      tag_30\n      jump\t// in\n    tag_29:\n    tag_28:\n      swap1\n      0x00\n      mstore\n      keccak256(0x00, 0x20)\n      add\n      sload\n        /* \"contract/solidity_31~40.sol\":7031:7036  array */\n      0x00\n        /* \"contract/solidity_31~40.sol\":7038:7039  i */\n      dup4\n        /* \"contract/solidity_31~40.sol\":7031:7041  array[ i ] */\n      dup2\n      sload\n      dup2\n      lt\n      tag_32\n      jumpi\n      tag_33\n      tag_30\n      jump\t// in\n    tag_33:\n    tag_32:\n      swap1\n      0x00\n      mstore\n      keccak256(0x00, 0x20)\n      add\n      sload\n        /* \"contract/solidity_31~40.sol\":7031:7054  array[ i ] > array[ j ] */\n      gt\n        /* \"contract/solidity_31~40.sol\":7027:7114  if( array[ i ] > array[ j ] ) ( array[ i ] , array[ j ] ) = ( array[ j ] , array[ i ] ) */\n      iszero\n      tag_35\n      jumpi\n        /* \"contract/solidity_31~40.sol\":7089:7094  array */\n      0x00\n        /* \"contract/solidity_31~40.sol\":7096:7097  j */\n      dup2\n        /* \"contract/solidity_31~40.sol\":7089:7099  array[ j ] */\n      dup2\n      sload\n      dup2\n      lt\n      tag_36\n      jumpi\n      tag_37\n      tag_30\n      jump\t// in\n    tag_37:\n    tag_36:\n      swap1\n      0x00\n      mstore\n      keccak256(0x00, 0x20)\n      add\n      sload\n        /* \"contract/solidity_31~40.sol\":7102:7107  array */\n      0x00\n        /* \"contract/solidity_31~40.sol\":7109:7110  i */\n      dup4\n        /* \"contract/solidity_31~40.sol\":7102:7112  array[ i ] */\n      dup2\n      sload\n      dup2\n      lt\n      tag_39\n      jumpi\n      tag_40\n      tag_30\n      jump\t// in\n    tag_40:\n    tag_39:\n      swap1\n      0x00\n      mstore\n      keccak256(0x00, 0x20)\n      add\n      sload\n        /* \"contract/solidity_31~40.sol\":7059:7064  array */\n      0x00\n        /* \"contract/solidity_31~40.sol\":7066:7067  i */\n      dup5\n        /* \"contract/solidity_31~40.sol\":7059:7069  array[ i ] */\n      dup2\n      sload\n      dup2\n      lt\n      tag_42\n      jumpi\n      tag_43\n      tag_30\n      jump\t// in\n    tag_43:\n    tag_42:\n      swap1\n      0x00\n      mstore\n      keccak256(0x00, 0x20)\n      add\n      0x00\n        /* \"contract/solidity_31~40.sol\":7072:7077  array */\n      dup1\n        /* \"contract/solidity_31~40.sol\":7079:7080  j */\n      dup6\n        /* \"contract/solidity_31~40.sol\":7072:7082  array[ j ] */\n      dup2\n      sload\n      dup2\n      lt\n      tag_45\n      jumpi\n      tag_46\n      tag_30\n      jump\t// in\n    tag_46:\n    tag_45:\n      swap1\n      0x00\n      mstore\n      keccak256(0x00, 0x20)\n      add\n      0x00\n        /* \"contract/solidity_31~40.sol\":7057:7114  ( array[ i ] , array[ j ] ) = ( array[ j ] , array[ i ] ) */\n      dup5\n      swap2\n      swap1\n      pop\n      sstore\n      dup4\n      swap2\n      swap1\n      pop\n      sstore\n      pop\n      pop\n        /* \"contract/solidity_31~40.sol\":7027:7114  if( array[ i ] > array[ j ] ) ( array[ i ] , array[ j ] ) = ( array[ j ] , array[ i ] ) */\n    tag_35:\n        /* \"contract/solidity_31~40.sol\":7003:7007  j ++ */\n      dup1\n      dup1\n      tag_48\n      swap1\n      tag_49\n      jump\t// in\n    tag_48:\n      swap2\n      pop\n      pop\n        /* \"contract/solidity_31~40.sol\":6962:7114  for( uint j = i + 1 ; j < array.length ; j ++ )... */\n      jump(tag_23)\n    tag_24:\n      pop\n        /* \"contract/solidity_31~40.sol\":6940:6944  i ++ */\n      dup1\n      dup1\n      tag_50\n      swap1\n      tag_49\n      jump\t// in\n    tag_50:\n      swap2\n      pop\n      pop\n        /* \"contract/solidity_31~40.sol\":6903:7127  for( uint i = 0 ; i < array.length ; i ++ ) {... */\n      jump(tag_20)\n    tag_21:\n      pop\n        /* \"contract/solidity_31~40.sol\":7139:7161  uint[] memory rt_value */\n      0x60\n        /* \"contract/solidity_31~40.sol\":7197:7198  0 */\n      0x00\n        /* \"contract/solidity_31~40.sol\":7192:7193  2 */\n      0x02\n        /* \"contract/solidity_31~40.sol\":7177:7182  array */\n      0x00\n        /* \"contract/solidity_31~40.sol\":7177:7189  array.length */\n      dup1\n      sload\n      swap1\n      pop\n        /* \"contract/solidity_31~40.sol\":7177:7193  array.length % 2 */\n      tag_51\n      swap2\n      swap1\n      tag_52\n      jump\t// in\n    tag_51:\n        /* \"contract/solidity_31~40.sol\":7177:7198  array.length % 2 == 0 */\n      sub\n        /* \"contract/solidity_31~40.sol\":7173:7497  if( array.length % 2 == 0 ){... */\n      tag_53\n      jumpi\n        /* \"contract/solidity_31~40.sol\":7240:7241  2 */\n      0x02\n        /* \"contract/solidity_31~40.sol\":7228:7243  new uint[]( 2 ) */\n      0xffffffffffffffff\n      dup2\n      gt\n      iszero\n      tag_54\n      jumpi\n      tag_55\n      tag_56\n      jump\t// in\n    tag_55:\n    tag_54:\n      mload(0x40)\n      swap1\n      dup1\n      dup3\n      mstore\n      dup1\n      0x20\n      mul\n      0x20\n      add\n      dup3\n      add\n      0x40\n      mstore\n      dup1\n      iszero\n      tag_57\n      jumpi\n      dup2\n      0x20\n      add\n      0x20\n      dup3\n      mul\n      dup1\n      calldatasize\n      dup4\n      calldatacopy\n      dup1\n      dup3\n      add\n      swap2\n      pop\n      pop\n      swap1\n      pop\n    tag_57:\n      pop\n        /* \"contract/solidity_31~40.sol\":7217:7243  rt_value = new uint[]( 2 ) */\n      swap1\n      pop\n        /* \"contract/solidity_31~40.sol\":7275:7280  array */\n      0x00\n        /* \"contract/solidity_31~40.sol\":7301:7302  1 */\n      0x01\n        /* \"contract/solidity_31~40.sol\":7297:7298  2 */\n      0x02\n        /* \"contract/solidity_31~40.sol\":7282:7287  array */\n      0x00\n        /* \"contract/solidity_31~40.sol\":7282:7294  array.length */\n      dup1\n      sload\n      swap1\n      pop\n        /* \"contract/solidity_31~40.sol\":7282:7298  array.length / 2 */\n      tag_58\n      swap2\n      swap1\n      tag_59\n      jump\t// in\n    tag_58:\n        /* \"contract/solidity_31~40.sol\":7282:7302  array.length / 2 - 1 */\n      tag_60\n      swap2\n      swap1\n      tag_61\n      jump\t// in\n    tag_60:\n        /* \"contract/solidity_31~40.sol\":7275:7304  array[ array.length / 2 - 1 ] */\n      dup2\n      sload\n      dup2\n      lt\n      tag_62\n      jumpi\n      tag_63\n      tag_30\n      jump\t// in\n    tag_63:\n    tag_62:\n      swap1\n      0x00\n      mstore\n      keccak256(0x00, 0x20)\n      add\n      sload\n        /* \"contract/solidity_31~40.sol\":7259:7267  rt_value */\n      dup2\n        /* \"contract/solidity_31~40.sol\":7269:7270  0 */\n      0x00\n        /* \"contract/solidity_31~40.sol\":7259:7272  rt_value[ 0 ] */\n      dup2\n      mload\n      dup2\n      lt\n      tag_65\n      jumpi\n      tag_66\n      tag_30\n      jump\t// in\n    tag_66:\n    tag_65:\n      0x20\n      mul\n      0x20\n      add\n      add\n        /* \"contract/solidity_31~40.sol\":7259:7304  rt_value[ 0 ] = array[ array.length / 2 - 1 ] */\n      dup2\n      dup2\n      mstore\n      pop\n      pop\n        /* \"contract/solidity_31~40.sol\":7336:7341  array */\n      0x00\n        /* \"contract/solidity_31~40.sol\":7358:7359  2 */\n      0x02\n        /* \"contract/solidity_31~40.sol\":7343:7348  array */\n      0x00\n        /* \"contract/solidity_31~40.sol\":7343:7355  array.length */\n      dup1\n      sload\n      swap1\n      pop\n        /* \"contract/solidity_31~40.sol\":7343:7359  array.length / 2 */\n      tag_67\n      swap2\n      swap1\n      tag_59\n      jump\t// in\n    tag_67:\n        /* \"contract/solidity_31~40.sol\":7336:7361  array[ array.length / 2 ] */\n      dup2\n      sload\n      dup2\n      lt\n      tag_68\n      jumpi\n      tag_69\n      tag_30\n      jump\t// in\n    tag_69:\n    tag_68:\n      swap1\n      0x00\n      mstore\n      keccak256(0x00, 0x20)\n      add\n      sload\n        /* \"contract/solidity_31~40.sol\":7320:7328  rt_value */\n      dup2\n        /* \"contract/solidity_31~40.sol\":7330:7331  1 */\n      0x01\n        /* \"contract/solidity_31~40.sol\":7320:7333  rt_value[ 1 ] */\n      dup2\n      mload\n      dup2\n      lt\n      tag_71\n      jumpi\n      tag_72\n      tag_30\n      jump\t// in\n    tag_72:\n    tag_71:\n      0x20\n      mul\n      0x20\n      add\n      add\n        /* \"contract/solidity_31~40.sol\":7320:7361  rt_value[ 1 ] = array[ array.length / 2 ] */\n      dup2\n      dup2\n      mstore\n      pop\n      pop\n        /* \"contract/solidity_31~40.sol\":7173:7497  if( array.length % 2 == 0 ){... */\n      jump(tag_73)\n    tag_53:\n        /* \"contract/solidity_31~40.sol\":7422:7423  1 */\n      0x01\n        /* \"contract/solidity_31~40.sol\":7410:7425  new uint[]( 1 ) */\n      0xffffffffffffffff\n      dup2\n      gt\n      iszero\n      tag_74\n      jumpi\n      tag_75\n      tag_56\n      jump\t// in\n    tag_75:\n    tag_74:\n      mload(0x40)\n      swap1\n      dup1\n      dup3\n      mstore\n      dup1\n      0x20\n      mul\n      0x20\n      add\n      dup3\n      add\n      0x40\n      mstore\n      dup1\n      iszero\n      tag_76\n      jumpi\n      dup2\n      0x20\n      add\n      0x20\n      dup3\n      mul\n      dup1\n      calldatasize\n      dup4\n      calldatacopy\n      dup1\n      dup3\n      add\n      swap2\n      pop\n      pop\n      swap1\n      pop\n    tag_76:\n      pop\n        /* \"contract/solidity_31~40.sol\":7399:7425  rt_value = new uint[]( 1 ) */\n      swap1\n      pop\n        /* \"contract/solidity_31~40.sol\":7457:7462  array */\n      0x00\n        /* \"contract/solidity_31~40.sol\":7479:7480  2 */\n      0x02\n        /* \"contract/solidity_31~40.sol\":7464:7469  array */\n      0x00\n        /* \"contract/solidity_31~40.sol\":7464:7476  array.length */\n      dup1\n      sload\n      swap1\n      pop\n        /* \"contract/solidity_31~40.sol\":7464:7480  array.length / 2 */\n      tag_77\n      swap2\n      swap1\n      tag_59\n      jump\t// in\n    tag_77:\n        /* \"contract/solidity_31~40.sol\":7457:7482  array[ array.length / 2 ] */\n      dup2\n      sload\n      dup2\n      lt\n      tag_78\n      jumpi\n      tag_79\n      tag_30\n      jump\t// in\n    tag_79:\n    tag_78:\n      swap1\n      0x00\n      mstore\n      keccak256(0x00, 0x20)\n      add\n      sload\n        /* \"contract/solidity_31~40.sol\":7441:7449  rt_value */\n      dup2\n        /* \"contract/solidity_31~40.sol\":7451:7452  0 */\n      0x00\n        /* \"contract/solidity_31~40.sol\":7441:7454  rt_value[ 0 ] */\n      dup2\n      mload\n      dup2\n      lt\n      tag_81\n      jumpi\n      tag_82\n      tag_30\n      jump\t// in\n    tag_82:\n    tag_81:\n      0x20\n      mul\n      0x20\n      add\n      add\n        /* \"contract/solidity_31~40.sol\":7441:7482  rt_value[ 0 ] = array[ array.length / 2 ] */\n      dup2\n      dup2\n      mstore\n      pop\n      pop\n        /* \"contract/solidity_31~40.sol\":7173:7497  if( array.length % 2 == 0 ){... */\n    tag_73:\n        /* \"contract/solidity_31~40.sol\":7524:7532  rt_value */\n      dup1\n        /* \"contract/solidity_31~40.sol\":7517:7532  return rt_value */\n      swap2\n      pop\n      pop\n        /* \"contract/solidity_31~40.sol\":6846:7543  function f() public returns( uint[] memory ){... */\n      swap1\n      jump\t// out\n        /* \"contract/solidity_31~40.sol\":6462:6481  uint[] public array */\n    tag_13:\n      0x00\n      dup2\n      dup2\n      sload\n      dup2\n      lt\n      tag_83\n      jumpi\n      0x00\n      dup1\n      revert\n    tag_83:\n      swap1\n      0x00\n      mstore\n      keccak256(0x00, 0x20)\n      add\n      0x00\n      swap2\n      pop\n      swap1\n      pop\n      sload\n      dup2\n      jump\t// out\n        /* \"contract/solidity_31~40.sol\":6491:6571  function push( uint _input ) public {... */\n    tag_18:\n        /* \"contract/solidity_31~40.sol\":6540:6545  array */\n      0x00\n        /* \"contract/solidity_31~40.sol\":6552:6558  _input */\n      dup2\n        /* \"contract/solidity_31~40.sol\":6540:6560  array.push( _input ) */\n      swap1\n      dup1\n      0x01\n      dup2\n      sload\n      add\n      dup1\n      dup3\n      sstore\n      dup1\n      swap2\n      pop\n      pop\n      0x01\n      swap1\n      sub\n      swap1\n      0x00\n      mstore\n      keccak256(0x00, 0x20)\n      add\n      0x00\n      swap1\n      swap2\n      swap1\n      swap2\n      swap1\n      swap2\n      pop\n      sstore\n        /* \"contract/solidity_31~40.sol\":6491:6571  function push( uint _input ) public {... */\n      pop\n      jump\t// out\n        /* \"#utility.yul\":7:121   */\n    tag_87:\n        /* \"#utility.yul\":74:80   */\n      0x00\n        /* \"#utility.yul\":108:113   */\n      dup2\n        /* \"#utility.yul\":102:114   */\n      mload\n        /* \"#utility.yul\":92:114   */\n      swap1\n      pop\n        /* \"#utility.yul\":7:121   */\n      swap2\n      swap1\n      pop\n      jump\t// out\n        /* \"#utility.yul\":127:311   */\n    tag_88:\n        /* \"#utility.yul\":226:237   */\n      0x00\n        /* \"#utility.yul\":260:266   */\n      dup3\n        /* \"#utility.yul\":255:258   */\n      dup3\n        /* \"#utility.yul\":248:267   */\n      mstore\n        /* \"#utility.yul\":300:304   */\n      0x20\n        /* \"#utility.yul\":295:298   */\n      dup3\n        /* \"#utility.yul\":291:305   */\n      add\n        /* \"#utility.yul\":276:305   */\n      swap1\n      pop\n        /* \"#utility.yul\":127:311   */\n      swap3\n      swap2\n      pop\n      pop\n      jump\t// out\n        /* \"#utility.yul\":317:449   */\n    tag_89:\n        /* \"#utility.yul\":384:388   */\n      0x00\n        /* \"#utility.yul\":407:410   */\n      dup2\n        /* \"#utility.yul\":399:410   */\n      swap1\n      pop\n        /* \"#utility.yul\":437:441   */\n      0x20\n        /* \"#utility.yul\":432:435   */\n      dup3\n        /* \"#utility.yul\":428:442   */\n      add\n        /* \"#utility.yul\":420:442   */\n      swap1\n      pop\n        /* \"#utility.yul\":317:449   */\n      swap2\n      swap1\n      pop\n      jump\t// out\n        /* \"#utility.yul\":455:532   */\n    tag_90:\n        /* \"#utility.yul\":492:499   */\n      0x00\n        /* \"#utility.yul\":521:526   */\n      dup2\n        /* \"#utility.yul\":510:526   */\n      swap1\n      pop\n        /* \"#utility.yul\":455:532   */\n      swap2\n      swap1\n      pop\n      jump\t// out\n        /* \"#utility.yul\":538:646   */\n    tag_91:\n        /* \"#utility.yul\":615:639   */\n      tag_109\n        /* \"#utility.yul\":633:638   */\n      dup2\n        /* \"#utility.yul\":615:639   */\n      tag_90\n      jump\t// in\n    tag_109:\n        /* \"#utility.yul\":610:613   */\n      dup3\n        /* \"#utility.yul\":603:640   */\n      mstore\n        /* \"#utility.yul\":538:646   */\n      pop\n      pop\n      jump\t// out\n        /* \"#utility.yul\":652:831   */\n    tag_92:\n        /* \"#utility.yul\":721:731   */\n      0x00\n        /* \"#utility.yul\":742:788   */\n      tag_111\n        /* \"#utility.yul\":784:787   */\n      dup4\n        /* \"#utility.yul\":776:782   */\n      dup4\n        /* \"#utility.yul\":742:788   */\n      tag_91\n      jump\t// in\n    tag_111:\n        /* \"#utility.yul\":820:824   */\n      0x20\n        /* \"#utility.yul\":815:818   */\n      dup4\n        /* \"#utility.yul\":811:825   */\n      add\n        /* \"#utility.yul\":797:825   */\n      swap1\n      pop\n        /* \"#utility.yul\":652:831   */\n      swap3\n      swap2\n      pop\n      pop\n      jump\t// out\n        /* \"#utility.yul\":837:950   */\n    tag_93:\n        /* \"#utility.yul\":907:911   */\n      0x00\n        /* \"#utility.yul\":939:943   */\n      0x20\n        /* \"#utility.yul\":934:937   */\n      dup3\n        /* \"#utility.yul\":930:944   */\n      add\n        /* \"#utility.yul\":922:944   */\n      swap1\n      pop\n        /* \"#utility.yul\":837:950   */\n      swap2\n      swap1\n      pop\n      jump\t// out\n        /* \"#utility.yul\":986:1718   */\n    tag_94:\n        /* \"#utility.yul\":1105:1108   */\n      0x00\n        /* \"#utility.yul\":1134:1188   */\n      tag_114\n        /* \"#utility.yul\":1182:1187   */\n      dup3\n        /* \"#utility.yul\":1134:1188   */\n      tag_87\n      jump\t// in\n    tag_114:\n        /* \"#utility.yul\":1204:1290   */\n      tag_115\n        /* \"#utility.yul\":1283:1289   */\n      dup2\n        /* \"#utility.yul\":1278:1281   */\n      dup6\n        /* \"#utility.yul\":1204:1290   */\n      tag_88\n      jump\t// in\n    tag_115:\n        /* \"#utility.yul\":1197:1290   */\n      swap4\n      pop\n        /* \"#utility.yul\":1314:1370   */\n      tag_116\n        /* \"#utility.yul\":1364:1369   */\n      dup4\n        /* \"#utility.yul\":1314:1370   */\n      tag_89\n      jump\t// in\n    tag_116:\n        /* \"#utility.yul\":1393:1400   */\n      dup1\n        /* \"#utility.yul\":1424:1425   */\n      0x00\n        /* \"#utility.yul\":1409:1693   */\n    tag_117:\n        /* \"#utility.yul\":1434:1440   */\n      dup4\n        /* \"#utility.yul\":1431:1432   */\n      dup2\n        /* \"#utility.yul\":1428:1441   */\n      lt\n        /* \"#utility.yul\":1409:1693   */\n      iszero\n      tag_119\n      jumpi\n        /* \"#utility.yul\":1510:1516   */\n      dup2\n        /* \"#utility.yul\":1504:1517   */\n      mload\n        /* \"#utility.yul\":1537:1600   */\n      tag_120\n        /* \"#utility.yul\":1596:1599   */\n      dup9\n        /* \"#utility.yul\":1581:1594   */\n      dup3\n        /* \"#utility.yul\":1537:1600   */\n      tag_92\n      jump\t// in\n    tag_120:\n        /* \"#utility.yul\":1530:1600   */\n      swap8\n      pop\n        /* \"#utility.yul\":1623:1683   */\n      tag_121\n        /* \"#utility.yul\":1676:1682   */\n      dup4\n        /* \"#utility.yul\":1623:1683   */\n      tag_93\n      jump\t// in\n    tag_121:\n        /* \"#utility.yul\":1613:1683   */\n      swap3\n      pop\n        /* \"#utility.yul\":1469:1693   */\n      pop\n        /* \"#utility.yul\":1456:1457   */\n      0x01\n        /* \"#utility.yul\":1453:1454   */\n      dup2\n        /* \"#utility.yul\":1449:1458   */\n      add\n        /* \"#utility.yul\":1444:1458   */\n      swap1\n      pop\n        /* \"#utility.yul\":1409:1693   */\n      jump(tag_117)\n    tag_119:\n        /* \"#utility.yul\":1413:1427   */\n      pop\n        /* \"#utility.yul\":1709:1712   */\n      dup6\n        /* \"#utility.yul\":1702:1712   */\n      swap4\n      pop\n        /* \"#utility.yul\":1110:1718   */\n      pop\n      pop\n      pop\n        /* \"#utility.yul\":986:1718   */\n      swap3\n      swap2\n      pop\n      pop\n      jump\t// out\n        /* \"#utility.yul\":1724:2097   */\n    tag_9:\n        /* \"#utility.yul\":1867:1871   */\n      0x00\n        /* \"#utility.yul\":1905:1907   */\n      0x20\n        /* \"#utility.yul\":1894:1903   */\n      dup3\n        /* \"#utility.yul\":1890:1908   */\n      add\n        /* \"#utility.yul\":1882:1908   */\n      swap1\n      pop\n        /* \"#utility.yul\":1954:1963   */\n      dup2\n        /* \"#utility.yul\":1948:1952   */\n      dup2\n        /* \"#utility.yul\":1944:1964   */\n      sub\n        /* \"#utility.yul\":1940:1941   */\n      0x00\n        /* \"#utility.yul\":1929:1938   */\n      dup4\n        /* \"#utility.yul\":1925:1942   */\n      add\n        /* \"#utility.yul\":1918:1965   */\n      mstore\n        /* \"#utility.yul\":1982:2090   */\n      tag_123\n        /* \"#utility.yul\":2085:2089   */\n      dup2\n        /* \"#utility.yul\":2076:2082   */\n      dup5\n        /* \"#utility.yul\":1982:2090   */\n      tag_94\n      jump\t// in\n    tag_123:\n        /* \"#utility.yul\":1974:2090   */\n      swap1\n      pop\n        /* \"#utility.yul\":1724:2097   */\n      swap3\n      swap2\n      pop\n      pop\n      jump\t// out\n        /* \"#utility.yul\":2184:2301   */\n    tag_96:\n        /* \"#utility.yul\":2293:2294   */\n      0x00\n        /* \"#utility.yul\":2290:2291   */\n      dup1\n        /* \"#utility.yul\":2283:2295   */\n      revert\n        /* \"#utility.yul\":2430:2552   */\n    tag_98:\n        /* \"#utility.yul\":2503:2527   */\n      tag_128\n        /* \"#utility.yul\":2521:2526   */\n      dup2\n        /* \"#utility.yul\":2503:2527   */\n      tag_90\n      jump\t// in\n    tag_128:\n        /* \"#utility.yul\":2496:2501   */\n      dup2\n        /* \"#utility.yul\":2493:2528   */\n      eq\n        /* \"#utility.yul\":2483:2546   */\n      tag_129\n      jumpi\n        /* \"#utility.yul\":2542:2543   */\n      0x00\n        /* \"#utility.yul\":2539:2540   */\n      dup1\n        /* \"#utility.yul\":2532:2544   */\n      revert\n        /* \"#utility.yul\":2483:2546   */\n    tag_129:\n        /* \"#utility.yul\":2430:2552   */\n      pop\n      jump\t// out\n        /* \"#utility.yul\":2558:2697   */\n    tag_99:\n        /* \"#utility.yul\":2604:2609   */\n      0x00\n        /* \"#utility.yul\":2642:2648   */\n      dup2\n        /* \"#utility.yul\":2629:2649   */\n      calldataload\n        /* \"#utility.yul\":2620:2649   */\n      swap1\n      pop\n        /* \"#utility.yul\":2658:2691   */\n      tag_131\n        /* \"#utility.yul\":2685:2690   */\n      dup2\n        /* \"#utility.yul\":2658:2691   */\n      tag_98\n      jump\t// in\n    tag_131:\n        /* \"#utility.yul\":2558:2697   */\n      swap3\n      swap2\n      pop\n      pop\n      jump\t// out\n        /* \"#utility.yul\":2703:3032   */\n    tag_12:\n        /* \"#utility.yul\":2762:2768   */\n      0x00\n        /* \"#utility.yul\":2811:2813   */\n      0x20\n        /* \"#utility.yul\":2799:2808   */\n      dup3\n        /* \"#utility.yul\":2790:2797   */\n      dup5\n        /* \"#utility.yul\":2786:2809   */\n      sub\n        /* \"#utility.yul\":2782:2814   */\n      slt\n        /* \"#utility.yul\":2779:2898   */\n      iszero\n      tag_133\n      jumpi\n        /* \"#utility.yul\":2817:2896   */\n      tag_134\n      tag_96\n      jump\t// in\n    tag_134:\n        /* \"#utility.yul\":2779:2898   */\n    tag_133:\n        /* \"#utility.yul\":2937:2938   */\n      0x00\n        /* \"#utility.yul\":2962:3015   */\n      tag_135\n        /* \"#utility.yul\":3007:3014   */\n      dup5\n        /* \"#utility.yul\":2998:3004   */\n      dup3\n        /* \"#utility.yul\":2987:2996   */\n      dup6\n        /* \"#utility.yul\":2983:3005   */\n      add\n        /* \"#utility.yul\":2962:3015   */\n      tag_99\n      jump\t// in\n    tag_135:\n        /* \"#utility.yul\":2952:3015   */\n      swap2\n      pop\n        /* \"#utility.yul\":2908:3025   */\n      pop\n        /* \"#utility.yul\":2703:3032   */\n      swap3\n      swap2\n      pop\n      pop\n      jump\t// out\n        /* \"#utility.yul\":3038:3156   */\n    tag_100:\n        /* \"#utility.yul\":3125:3149   */\n      tag_137\n        /* \"#utility.yul\":3143:3148   */\n      dup2\n        /* \"#utility.yul\":3125:3149   */\n      tag_90\n      jump\t// in\n    tag_137:\n        /* \"#utility.yul\":3120:3123   */\n      dup3\n        /* \"#utility.yul\":3113:3150   */\n      mstore\n        /* \"#utility.yul\":3038:3156   */\n      pop\n      pop\n      jump\t// out\n        /* \"#utility.yul\":3162:3384   */\n    tag_15:\n        /* \"#utility.yul\":3255:3259   */\n      0x00\n        /* \"#utility.yul\":3293:3295   */\n      0x20\n        /* \"#utility.yul\":3282:3291   */\n      dup3\n        /* \"#utility.yul\":3278:3296   */\n      add\n        /* \"#utility.yul\":3270:3296   */\n      swap1\n      pop\n        /* \"#utility.yul\":3306:3377   */\n      tag_139\n        /* \"#utility.yul\":3374:3375   */\n      0x00\n        /* \"#utility.yul\":3363:3372   */\n      dup4\n        /* \"#utility.yul\":3359:3376   */\n      add\n        /* \"#utility.yul\":3350:3356   */\n      dup5\n        /* \"#utility.yul\":3306:3377   */\n      tag_100\n      jump\t// in\n    tag_139:\n        /* \"#utility.yul\":3162:3384   */\n      swap3\n      swap2\n      pop\n      pop\n      jump\t// out\n        /* \"#utility.yul\":3390:3570   */\n    tag_101:\n        /* \"#utility.yul\":3438:3515   */\n      0x4e487b7100000000000000000000000000000000000000000000000000000000\n        /* \"#utility.yul\":3435:3436   */\n      0x00\n        /* \"#utility.yul\":3428:3516   */\n      mstore\n        /* \"#utility.yul\":3535:3539   */\n      0x11\n        /* \"#utility.yul\":3532:3533   */\n      0x04\n        /* \"#utility.yul\":3525:3540   */\n      mstore\n        /* \"#utility.yul\":3559:3563   */\n      0x24\n        /* \"#utility.yul\":3556:3557   */\n      0x00\n        /* \"#utility.yul\":3549:3564   */\n      revert\n        /* \"#utility.yul\":3576:3767   */\n    tag_27:\n        /* \"#utility.yul\":3616:3619   */\n      0x00\n        /* \"#utility.yul\":3635:3655   */\n      tag_142\n        /* \"#utility.yul\":3653:3654   */\n      dup3\n        /* \"#utility.yul\":3635:3655   */\n      tag_90\n      jump\t// in\n    tag_142:\n        /* \"#utility.yul\":3630:3655   */\n      swap2\n      pop\n        /* \"#utility.yul\":3669:3689   */\n      tag_143\n        /* \"#utility.yul\":3687:3688   */\n      dup4\n        /* \"#utility.yul\":3669:3689   */\n      tag_90\n      jump\t// in\n    tag_143:\n        /* \"#utility.yul\":3664:3689   */\n      swap3\n      pop\n        /* \"#utility.yul\":3712:3713   */\n      dup3\n        /* \"#utility.yul\":3709:3710   */\n      dup3\n        /* \"#utility.yul\":3705:3714   */\n      add\n        /* \"#utility.yul\":3698:3714   */\n      swap1\n      pop\n        /* \"#utility.yul\":3733:3736   */\n      dup1\n        /* \"#utility.yul\":3730:3731   */\n      dup3\n        /* \"#utility.yul\":3727:3737   */\n      gt\n        /* \"#utility.yul\":3724:3760   */\n      iszero\n      tag_144\n      jumpi\n        /* \"#utility.yul\":3740:3758   */\n      tag_145\n      tag_101\n      jump\t// in\n    tag_145:\n        /* \"#utility.yul\":3724:3760   */\n    tag_144:\n        /* \"#utility.yul\":3576:3767   */\n      swap3\n      swap2\n      pop\n      pop\n      jump\t// out\n        /* \"#utility.yul\":3773:3953   */\n    tag_30:\n        /* \"#utility.yul\":3821:3898   */\n      0x4e487b7100000000000000000000000000000000000000000000000000000000\n        /* \"#utility.yul\":3818:3819   */\n      0x00\n        /* \"#utility.yul\":3811:3899   */\n      mstore\n        /* \"#utility.yul\":3918:3922   */\n      0x32\n        /* \"#utility.yul\":3915:3916   */\n      0x04\n        /* \"#utility.yul\":3908:3923   */\n      mstore\n        /* \"#utility.yul\":3942:3946   */\n      0x24\n        /* \"#utility.yul\":3939:3940   */\n      0x00\n        /* \"#utility.yul\":3932:3947   */\n      revert\n        /* \"#utility.yul\":3959:4192   */\n    tag_49:\n        /* \"#utility.yul\":3998:4001   */\n      0x00\n        /* \"#utility.yul\":4021:4045   */\n      tag_148\n        /* \"#utility.yul\":4039:4044   */\n      dup3\n        /* \"#utility.yul\":4021:4045   */\n      tag_90\n      jump\t// in\n    tag_148:\n        /* \"#utility.yul\":4012:4045   */\n      swap2\n      pop\n        /* \"#utility.yul\":4067:4133   */\n      0xffffffffffffffffffffffffffffffffffffffffffffffffffffffffffffffff\n        /* \"#utility.yul\":4060:4065   */\n      dup3\n        /* \"#utility.yul\":4057:4134   */\n      sub\n        /* \"#utility.yul\":4054:4157   */\n      tag_149\n      jumpi\n        /* \"#utility.yul\":4137:4155   */\n      tag_150\n      tag_101\n      jump\t// in\n    tag_150:\n        /* \"#utility.yul\":4054:4157   */\n    tag_149:\n        /* \"#utility.yul\":4184:4185   */\n      0x01\n        /* \"#utility.yul\":4177:4182   */\n      dup3\n        /* \"#utility.yul\":4173:4186   */\n      add\n        /* \"#utility.yul\":4166:4186   */\n      swap1\n      pop\n        /* \"#utility.yul\":3959:4192   */\n      swap2\n      swap1\n      pop\n      jump\t// out\n        /* \"#utility.yul\":4198:4378   */\n    tag_102:\n        /* \"#utility.yul\":4246:4323   */\n      0x4e487b7100000000000000000000000000000000000000000000000000000000\n        /* \"#utility.yul\":4243:4244   */\n      0x00\n        /* \"#utility.yul\":4236:4324   */\n      mstore\n        /* \"#utility.yul\":4343:4347   */\n      0x12\n        /* \"#utility.yul\":4340:4341   */\n      0x04\n        /* \"#utility.yul\":4333:4348   */\n      mstore\n        /* \"#utility.yul\":4367:4371   */\n      0x24\n        /* \"#utility.yul\":4364:4365   */\n      0x00\n        /* \"#utility.yul\":4357:4372   */\n      revert\n        /* \"#utility.yul\":4384:4560   */\n    tag_52:\n        /* \"#utility.yul\":4416:4417   */\n      0x00\n        /* \"#utility.yul\":4433:4453   */\n      tag_153\n        /* \"#utility.yul\":4451:4452   */\n      dup3\n        /* \"#utility.yul\":4433:4453   */\n      tag_90\n      jump\t// in\n    tag_153:\n        /* \"#utility.yul\":4428:4453   */\n      swap2\n      pop\n        /* \"#utility.yul\":4467:4487   */\n      tag_154\n        /* \"#utility.yul\":4485:4486   */\n      dup4\n        /* \"#utility.yul\":4467:4487   */\n      tag_90\n      jump\t// in\n    tag_154:\n        /* \"#utility.yul\":4462:4487   */\n      swap3\n      pop\n        /* \"#utility.yul\":4506:4507   */\n      dup3\n        /* \"#utility.yul\":4496:4531   */\n      tag_155\n      jumpi\n        /* \"#utility.yul\":4511:4529   */\n      tag_156\n      tag_102\n      jump\t// in\n    tag_156:\n        /* \"#utility.yul\":4496:4531   */\n    tag_155:\n        /* \"#utility.yul\":4552:4553   */\n      dup3\n        /* \"#utility.yul\":4549:4550   */\n      dup3\n        /* \"#utility.yul\":4545:4554   */\n      mod\n        /* \"#utility.yul\":4540:4554   */\n      swap1\n      pop\n        /* \"#utility.yul\":4384:4560   */\n      swap3\n      swap2\n      pop\n      pop\n      jump\t// out\n        /* \"#utility.yul\":4566:4746   */\n    tag_56:\n        /* \"#utility.yul\":4614:4691   */\n      0x4e487b7100000000000000000000000000000000000000000000000000000000\n        /* \"#utility.yul\":4611:4612   */\n      0x00\n        /* \"#utility.yul\":4604:4692   */\n      mstore\n        /* \"#utility.yul\":4711:4715   */\n      0x41\n        /* \"#utility.yul\":4708:4709   */\n      0x04\n        /* \"#utility.yul\":4701:4716   */\n      mstore\n        /* \"#utility.yul\":4735:4739   */\n      0x24\n        /* \"#utility.yul\":4732:4733   */\n      0x00\n        /* \"#utility.yul\":4725:4740   */\n      revert\n        /* \"#utility.yul\":4752:4937   */\n    tag_59:\n        /* \"#utility.yul\":4792:4793   */\n      0x00\n        /* \"#utility.yul\":4809:4829   */\n      tag_159\n        /* \"#utility.yul\":4827:4828   */\n      dup3\n        /* \"#utility.yul\":4809:4829   */\n      tag_90\n      jump\t// in\n    tag_159:\n        /* \"#utility.yul\":4804:4829   */\n      swap2\n      pop\n        /* \"#utility.yul\":4843:4863   */\n      tag_160\n        /* \"#utility.yul\":4861:4862   */\n      dup4\n        /* \"#utility.yul\":4843:4863   */\n      tag_90\n      jump\t// in\n    tag_160:\n        /* \"#utility.yul\":4838:4863   */\n      swap3\n      pop\n        /* \"#utility.yul\":4882:4883   */\n      dup3\n        /* \"#utility.yul\":4872:4907   */\n      tag_161\n      jumpi\n        /* \"#utility.yul\":4887:4905   */\n      tag_162\n      tag_102\n      jump\t// in\n    tag_162:\n        /* \"#utility.yul\":4872:4907   */\n    tag_161:\n        /* \"#utility.yul\":4929:4930   */\n      dup3\n        /* \"#utility.yul\":4926:4927   */\n      dup3\n        /* \"#utility.yul\":4922:4931   */\n      div\n        /* \"#utility.yul\":4917:4931   */\n      swap1\n      pop\n        /* \"#utility.yul\":4752:4937   */\n      swap3\n      swap2\n      pop\n      pop\n      jump\t// out\n        /* \"#utility.yul\":4943:5137   */\n    tag_61:\n        /* \"#utility.yul\":4983:4987   */\n      0x00\n        /* \"#utility.yul\":5003:5023   */\n      tag_164\n        /* \"#utility.yul\":5021:5022   */\n      dup3\n        /* \"#utility.yul\":5003:5023   */\n      tag_90\n      jump\t// in\n    tag_164:\n        /* \"#utility.yul\":4998:5023   */\n      swap2\n      pop\n        /* \"#utility.yul\":5037:5057   */\n      tag_165\n        /* \"#utility.yul\":5055:5056   */\n      dup4\n        /* \"#utility.yul\":5037:5057   */\n      tag_90\n      jump\t// in\n    tag_165:\n        /* \"#utility.yul\":5032:5057   */\n      swap3\n      pop\n        /* \"#utility.yul\":5081:5082   */\n      dup3\n        /* \"#utility.yul\":5078:5079   */\n      dup3\n        /* \"#utility.yul\":5074:5083   */\n      sub\n        /* \"#utility.yul\":5066:5083   */\n      swap1\n      pop\n        /* \"#utility.yul\":5105:5106   */\n      dup2\n        /* \"#utility.yul\":5099:5103   */\n      dup2\n        /* \"#utility.yul\":5096:5107   */\n      gt\n        /* \"#utility.yul\":5093:5130   */\n      iszero\n      tag_166\n      jumpi\n        /* \"#utility.yul\":5110:5128   */\n      tag_167\n      tag_101\n      jump\t// in\n    tag_167:\n        /* \"#utility.yul\":5093:5130   */\n    tag_166:\n        /* \"#utility.yul\":4943:5137   */\n      swap3\n      swap2\n      pop\n      pop\n      jump\t// out\n\n    auxdata: 0xa264697066735822122067f73c653850c409703291b98dc8870a63dff346d3db9d517434ef95ba40c2d064736f6c63430008120033\n}\n",
				"bytecode": {
					"linkReferences": {},
					"object": "608060405234801561001057600080fd5b50610759806100206000396000f3fe608060405234801561001057600080fd5b50600436106100415760003560e01c806326121ff01461004657806338d9419314610064578063959ac48414610094575b600080fd5b61004e6100b0565b60405161005b91906104ab565b60405180910390f35b61007e600480360381019061007991906104fe565b610393565b60405161008b919061053a565b60405180910390f35b6100ae60048036038101906100a991906104fe565b6103b7565b005b606060005b6000805490508110156101d65760006001826100d19190610584565b90505b6000805490508110156101c257600081815481106100f5576100f46105b8565b5b906000526020600020015460008381548110610114576101136105b8565b5b906000526020600020015411156101af5760008181548110610139576101386105b8565b5b906000526020600020015460008381548110610158576101576105b8565b5b906000526020600020015460008481548110610177576101766105b8565b5b906000526020600020016000808581548110610196576101956105b8565b5b9060005260206000200160008491905055839190505550505b80806101ba906105e7565b9150506100d4565b5080806101ce906105e7565b9150506100b5565b506060600060026000805490506101ed919061065e565b036102ef57600267ffffffffffffffff81111561020d5761020c61068f565b5b60405190808252806020026020018201604052801561023b5781602001602082028036833780820191505090505b50905060006001600260008054905061025491906106be565b61025e91906106ef565b8154811061026f5761026e6105b8565b5b90600052602060002001548160008151811061028e5761028d6105b8565b5b602002602001018181525050600060026000805490506102ae91906106be565b815481106102bf576102be6105b8565b5b9060005260206000200154816001815181106102de576102dd6105b8565b5b60200260200101818152505061038c565b600167ffffffffffffffff81111561030a5761030961068f565b5b6040519080825280602002602001820160405280156103385781602001602082028036833780820191505090505b5090506000600260008054905061034f91906106be565b815481106103605761035f6105b8565b5b90600052602060002001548160008151811061037f5761037e6105b8565b5b6020026020010181815250505b8091505090565b600081815481106103a357600080fd5b906000526020600020016000915090505481565b600081908060018154018082558091505060019003906000526020600020016000909190919091505550565b600081519050919050565b600082825260208201905092915050565b6000819050602082019050919050565b6000819050919050565b6104228161040f565b82525050565b60006104348383610419565b60208301905092915050565b6000602082019050919050565b6000610458826103e3565b61046281856103ee565b935061046d836103ff565b8060005b8381101561049e5781516104858882610428565b975061049083610440565b925050600181019050610471565b5085935050505092915050565b600060208201905081810360008301526104c5818461044d565b905092915050565b600080fd5b6104db8161040f565b81146104e657600080fd5b50565b6000813590506104f8816104d2565b92915050565b600060208284031215610514576105136104cd565b5b6000610522848285016104e9565b91505092915050565b6105348161040f565b82525050565b600060208201905061054f600083018461052b565b92915050565b7f4e487b7100000000000000000000000000000000000000000000000000000000600052601160045260246000fd5b600061058f8261040f565b915061059a8361040f565b92508282019050808211156105b2576105b1610555565b5b92915050565b7f4e487b7100000000000000000000000000000000000000000000000000000000600052603260045260246000fd5b60006105f28261040f565b91507fffffffffffffffffffffffffffffffffffffffffffffffffffffffffffffffff820361062457610623610555565b5b600182019050919050565b7f4e487b7100000000000000000000000000000000000000000000000000000000600052601260045260246000fd5b60006106698261040f565b91506106748361040f565b9250826106845761068361062f565b5b828206905092915050565b7f4e487b7100000000000000000000000000000000000000000000000000000000600052604160045260246000fd5b60006106c98261040f565b91506106d48361040f565b9250826106e4576106e361062f565b5b828204905092915050565b60006106fa8261040f565b91506107058361040f565b925082820390508181111561071d5761071c610555565b5b9291505056fea264697066735822122067f73c653850c409703291b98dc8870a63dff346d3db9d517434ef95ba40c2d064736f6c63430008120033",
					"opcodes": "PUSH1 0x80 PUSH1 0x40 MSTORE CALLVALUE DUP1 ISZERO PUSH2 0x10 JUMPI PUSH1 0x0 DUP1 REVERT JUMPDEST POP PUSH2 0x759 DUP1 PUSH2 0x20 PUSH1 0x0 CODECOPY PUSH1 0x0 RETURN INVALID PUSH1 0x80 PUSH1 0x40 MSTORE CALLVALUE DUP1 ISZERO PUSH2 0x10 JUMPI PUSH1 0x0 DUP1 REVERT JUMPDEST POP PUSH1 0x4 CALLDATASIZE LT PUSH2 0x41 JUMPI PUSH1 0x0 CALLDATALOAD PUSH1 0xE0 SHR DUP1 PUSH4 0x26121FF0 EQ PUSH2 0x46 JUMPI DUP1 PUSH4 0x38D94193 EQ PUSH2 0x64 JUMPI DUP1 PUSH4 0x959AC484 EQ PUSH2 0x94 JUMPI JUMPDEST PUSH1 0x0 DUP1 REVERT JUMPDEST PUSH2 0x4E PUSH2 0xB0 JUMP JUMPDEST PUSH1 0x40 MLOAD PUSH2 0x5B SWAP2 SWAP1 PUSH2 0x4AB JUMP JUMPDEST PUSH1 0x40 MLOAD DUP1 SWAP2 SUB SWAP1 RETURN JUMPDEST PUSH2 0x7E PUSH1 0x4 DUP1 CALLDATASIZE SUB DUP2 ADD SWAP1 PUSH2 0x79 SWAP2 SWAP1 PUSH2 0x4FE JUMP JUMPDEST PUSH2 0x393 JUMP JUMPDEST PUSH1 0x40 MLOAD PUSH2 0x8B SWAP2 SWAP1 PUSH2 0x53A JUMP JUMPDEST PUSH1 0x40 MLOAD DUP1 SWAP2 SUB SWAP1 RETURN JUMPDEST PUSH2 0xAE PUSH1 0x4 DUP1 CALLDATASIZE SUB DUP2 ADD SWAP1 PUSH2 0xA9 SWAP2 SWAP1 PUSH2 0x4FE JUMP JUMPDEST PUSH2 0x3B7 JUMP JUMPDEST STOP JUMPDEST PUSH1 0x60 PUSH1 0x0 JUMPDEST PUSH1 0x0 DUP1 SLOAD SWAP1 POP DUP2 LT ISZERO PUSH2 0x1D6 JUMPI PUSH1 0x0 PUSH1 0x1 DUP3 PUSH2 0xD1 SWAP2 SWAP1 PUSH2 0x584 JUMP JUMPDEST SWAP1 POP JUMPDEST PUSH1 0x0 DUP1 SLOAD SWAP1 POP DUP2 LT ISZERO PUSH2 0x1C2 JUMPI PUSH1 0x0 DUP2 DUP2 SLOAD DUP2 LT PUSH2 0xF5 JUMPI PUSH2 0xF4 PUSH2 0x5B8 JUMP JUMPDEST JUMPDEST SWAP1 PUSH1 0x0 MSTORE PUSH1 0x20 PUSH1 0x0 KECCAK256 ADD SLOAD PUSH1 0x0 DUP4 DUP2 SLOAD DUP2 LT PUSH2 0x114 JUMPI PUSH2 0x113 PUSH2 0x5B8 JUMP JUMPDEST JUMPDEST SWAP1 PUSH1 0x0 MSTORE PUSH1 0x20 PUSH1 0x0 KECCAK256 ADD SLOAD GT ISZERO PUSH2 0x1AF JUMPI PUSH1 0x0 DUP2 DUP2 SLOAD DUP2 LT PUSH2 0x139 JUMPI PUSH2 0x138 PUSH2 0x5B8 JUMP JUMPDEST JUMPDEST SWAP1 PUSH1 0x0 MSTORE PUSH1 0x20 PUSH1 0x0 KECCAK256 ADD SLOAD PUSH1 0x0 DUP4 DUP2 SLOAD DUP2 LT PUSH2 0x158 JUMPI PUSH2 0x157 PUSH2 0x5B8 JUMP JUMPDEST JUMPDEST SWAP1 PUSH1 0x0 MSTORE PUSH1 0x20 PUSH1 0x0 KECCAK256 ADD SLOAD PUSH1 0x0 DUP5 DUP2 SLOAD DUP2 LT PUSH2 0x177 JUMPI PUSH2 0x176 PUSH2 0x5B8 JUMP JUMPDEST JUMPDEST SWAP1 PUSH1 0x0 MSTORE PUSH1 0x20 PUSH1 0x0 KECCAK256 ADD PUSH1 0x0 DUP1 DUP6 DUP2 SLOAD DUP2 LT PUSH2 0x196 JUMPI PUSH2 0x195 PUSH2 0x5B8 JUMP JUMPDEST JUMPDEST SWAP1 PUSH1 0x0 MSTORE PUSH1 0x20 PUSH1 0x0 KECCAK256 ADD PUSH1 0x0 DUP5 SWAP2 SWAP1 POP SSTORE DUP4 SWAP2 SWAP1 POP SSTORE POP POP JUMPDEST DUP1 DUP1 PUSH2 0x1BA SWAP1 PUSH2 0x5E7 JUMP JUMPDEST SWAP2 POP POP PUSH2 0xD4 JUMP JUMPDEST POP DUP1 DUP1 PUSH2 0x1CE SWAP1 PUSH2 0x5E7 JUMP JUMPDEST SWAP2 POP POP PUSH2 0xB5 JUMP JUMPDEST POP PUSH1 0x60 PUSH1 0x0 PUSH1 0x2 PUSH1 0x0 DUP1 SLOAD SWAP1 POP PUSH2 0x1ED SWAP2 SWAP1 PUSH2 0x65E JUMP JUMPDEST SUB PUSH2 0x2EF JUMPI PUSH1 0x2 PUSH8 0xFFFFFFFFFFFFFFFF DUP2 GT ISZERO PUSH2 0x20D JUMPI PUSH2 0x20C PUSH2 0x68F JUMP JUMPDEST JUMPDEST PUSH1 0x40 MLOAD SWAP1 DUP1 DUP3 MSTORE DUP1 PUSH1 0x20 MUL PUSH1 0x20 ADD DUP3 ADD PUSH1 0x40 MSTORE DUP1 ISZERO PUSH2 0x23B JUMPI DUP2 PUSH1 0x20 ADD PUSH1 0x20 DUP3 MUL DUP1 CALLDATASIZE DUP4 CALLDATACOPY DUP1 DUP3 ADD SWAP2 POP POP SWAP1 POP JUMPDEST POP SWAP1 POP PUSH1 0x0 PUSH1 0x1 PUSH1 0x2 PUSH1 0x0 DUP1 SLOAD SWAP1 POP PUSH2 0x254 SWAP2 SWAP1 PUSH2 0x6BE JUMP JUMPDEST PUSH2 0x25E SWAP2 SWAP1 PUSH2 0x6EF JUMP JUMPDEST DUP2 SLOAD DUP2 LT PUSH2 0x26F JUMPI PUSH2 0x26E PUSH2 0x5B8 JUMP JUMPDEST JUMPDEST SWAP1 PUSH1 0x0 MSTORE PUSH1 0x20 PUSH1 0x0 KECCAK256 ADD SLOAD DUP2 PUSH1 0x0 DUP2 MLOAD DUP2 LT PUSH2 0x28E JUMPI PUSH2 0x28D PUSH2 0x5B8 JUMP JUMPDEST JUMPDEST PUSH1 0x20 MUL PUSH1 0x20 ADD ADD DUP2 DUP2 MSTORE POP POP PUSH1 0x0 PUSH1 0x2 PUSH1 0x0 DUP1 SLOAD SWAP1 POP PUSH2 0x2AE SWAP2 SWAP1 PUSH2 0x6BE JUMP JUMPDEST DUP2 SLOAD DUP2 LT PUSH2 0x2BF JUMPI PUSH2 0x2BE PUSH2 0x5B8 JUMP JUMPDEST JUMPDEST SWAP1 PUSH1 0x0 MSTORE PUSH1 0x20 PUSH1 0x0 KECCAK256 ADD SLOAD DUP2 PUSH1 0x1 DUP2 MLOAD DUP2 LT PUSH2 0x2DE JUMPI PUSH2 0x2DD PUSH2 0x5B8 JUMP JUMPDEST JUMPDEST PUSH1 0x20 MUL PUSH1 0x20 ADD ADD DUP2 DUP2 MSTORE POP POP PUSH2 0x38C JUMP JUMPDEST PUSH1 0x1 PUSH8 0xFFFFFFFFFFFFFFFF DUP2 GT ISZERO PUSH2 0x30A JUMPI PUSH2 0x309 PUSH2 0x68F JUMP JUMPDEST JUMPDEST PUSH1 0x40 MLOAD SWAP1 DUP1 DUP3 MSTORE DUP1 PUSH1 0x20 MUL PUSH1 0x20 ADD DUP3 ADD PUSH1 0x40 MSTORE DUP1 ISZERO PUSH2 0x338 JUMPI DUP2 PUSH1 0x20 ADD PUSH1 0x20 DUP3 MUL DUP1 CALLDATASIZE DUP4 CALLDATACOPY DUP1 DUP3 ADD SWAP2 POP POP SWAP1 POP JUMPDEST POP SWAP1 POP PUSH1 0x0 PUSH1 0x2 PUSH1 0x0 DUP1 SLOAD SWAP1 POP PUSH2 0x34F SWAP2 SWAP1 PUSH2 0x6BE JUMP JUMPDEST DUP2 SLOAD DUP2 LT PUSH2 0x360 JUMPI PUSH2 0x35F PUSH2 0x5B8 JUMP JUMPDEST JUMPDEST SWAP1 PUSH1 0x0 MSTORE PUSH1 0x20 PUSH1 0x0 KECCAK256 ADD SLOAD DUP2 PUSH1 0x0 DUP2 MLOAD DUP2 LT PUSH2 0x37F JUMPI PUSH2 0x37E PUSH2 0x5B8 JUMP JUMPDEST JUMPDEST PUSH1 0x20 MUL PUSH1 0x20 ADD ADD DUP2 DUP2 MSTORE POP POP JUMPDEST DUP1 SWAP2 POP POP SWAP1 JUMP JUMPDEST PUSH1 0x0 DUP2 DUP2 SLOAD DUP2 LT PUSH2 0x3A3 JUMPI PUSH1 0x0 DUP1 REVERT JUMPDEST SWAP1 PUSH1 0x0 MSTORE PUSH1 0x20 PUSH1 0x0 KECCAK256 ADD PUSH1 0x0 SWAP2 POP SWAP1 POP SLOAD DUP2 JUMP JUMPDEST PUSH1 0x0 DUP2 SWAP1 DUP1 PUSH1 0x1 DUP2 SLOAD ADD DUP1 DUP3 SSTORE DUP1 SWAP2 POP POP PUSH1 0x1 SWAP1 SUB SWAP1 PUSH1 0x0 MSTORE PUSH1 0x20 PUSH1 0x0 KECCAK256 ADD PUSH1 0x0 SWAP1 SWAP2 SWAP1 SWAP2 SWAP1 SWAP2 POP SSTORE POP JUMP JUMPDEST PUSH1 0x0 DUP2 MLOAD SWAP1 POP SWAP2 SWAP1 POP JUMP JUMPDEST PUSH1 0x0 DUP3 DUP3 MSTORE PUSH1 0x20 DUP3 ADD SWAP1 POP SWAP3 SWAP2 POP POP JUMP JUMPDEST PUSH1 0x0 DUP2 SWAP1 POP PUSH1 0x20 DUP3 ADD SWAP1 POP SWAP2 SWAP1 POP JUMP JUMPDEST PUSH1 0x0 DUP2 SWAP1 POP SWAP2 SWAP1 POP JUMP JUMPDEST PUSH2 0x422 DUP2 PUSH2 0x40F JUMP JUMPDEST DUP3 MSTORE POP POP JUMP JUMPDEST PUSH1 0x0 PUSH2 0x434 DUP4 DUP4 PUSH2 0x419 JUMP JUMPDEST PUSH1 0x20 DUP4 ADD SWAP1 POP SWAP3 SWAP2 POP POP JUMP JUMPDEST PUSH1 0x0 PUSH1 0x20 DUP3 ADD SWAP1 POP SWAP2 SWAP1 POP JUMP JUMPDEST PUSH1 0x0 PUSH2 0x458 DUP3 PUSH2 0x3E3 JUMP JUMPDEST PUSH2 0x462 DUP2 DUP6 PUSH2 0x3EE JUMP JUMPDEST SWAP4 POP PUSH2 0x46D DUP4 PUSH2 0x3FF JUMP JUMPDEST DUP1 PUSH1 0x0 JUMPDEST DUP4 DUP2 LT ISZERO PUSH2 0x49E JUMPI DUP2 MLOAD PUSH2 0x485 DUP9 DUP3 PUSH2 0x428 JUMP JUMPDEST SWAP8 POP PUSH2 0x490 DUP4 PUSH2 0x440 JUMP JUMPDEST SWAP3 POP POP PUSH1 0x1 DUP2 ADD SWAP1 POP PUSH2 0x471 JUMP JUMPDEST POP DUP6 SWAP4 POP POP POP POP SWAP3 SWAP2 POP POP JUMP JUMPDEST PUSH1 0x0 PUSH1 0x20 DUP3 ADD SWAP1 POP DUP2 DUP2 SUB PUSH1 0x0 DUP4 ADD MSTORE PUSH2 0x4C5 DUP2 DUP5 PUSH2 0x44D JUMP JUMPDEST SWAP1 POP SWAP3 SWAP2 POP POP JUMP JUMPDEST PUSH1 0x0 DUP1 REVERT JUMPDEST PUSH2 0x4DB DUP2 PUSH2 0x40F JUMP JUMPDEST DUP2 EQ PUSH2 0x4E6 JUMPI PUSH1 0x0 DUP1 REVERT JUMPDEST POP JUMP JUMPDEST PUSH1 0x0 DUP2 CALLDATALOAD SWAP1 POP PUSH2 0x4F8 DUP2 PUSH2 0x4D2 JUMP JUMPDEST SWAP3 SWAP2 POP POP JUMP JUMPDEST PUSH1 0x0 PUSH1 0x20 DUP3 DUP5 SUB SLT ISZERO PUSH2 0x514 JUMPI PUSH2 0x513 PUSH2 0x4CD JUMP JUMPDEST JUMPDEST PUSH1 0x0 PUSH2 0x522 DUP5 DUP3 DUP6 ADD PUSH2 0x4E9 JUMP JUMPDEST SWAP2 POP POP SWAP3 SWAP2 POP POP JUMP JUMPDEST PUSH2 0x534 DUP2 PUSH2 0x40F JUMP JUMPDEST DUP3 MSTORE POP POP JUMP JUMPDEST PUSH1 0x0 PUSH1 0x20 DUP3 ADD SWAP1 POP PUSH2 0x54F PUSH1 0x0 DUP4 ADD DUP5 PUSH2 0x52B JUMP JUMPDEST SWAP3 SWAP2 POP POP JUMP JUMPDEST PUSH32 0x4E487B7100000000000000000000000000000000000000000000000000000000 PUSH1 0x0 MSTORE PUSH1 0x11 PUSH1 0x4 MSTORE PUSH1 0x24 PUSH1 0x0 REVERT JUMPDEST PUSH1 0x0 PUSH2 0x58F DUP3 PUSH2 0x40F JUMP JUMPDEST SWAP2 POP PUSH2 0x59A DUP4 PUSH2 0x40F JUMP JUMPDEST SWAP3 POP DUP3 DUP3 ADD SWAP1 POP DUP1 DUP3 GT ISZERO PUSH2 0x5B2 JUMPI PUSH2 0x5B1 PUSH2 0x555 JUMP JUMPDEST JUMPDEST SWAP3 SWAP2 POP POP JUMP JUMPDEST PUSH32 0x4E487B7100000000000000000000000000000000000000000000000000000000 PUSH1 0x0 MSTORE PUSH1 0x32 PUSH1 0x4 MSTORE PUSH1 0x24 PUSH1 0x0 REVERT JUMPDEST PUSH1 0x0 PUSH2 0x5F2 DUP3 PUSH2 0x40F JUMP JUMPDEST SWAP2 POP PUSH32 0xFFFFFFFFFFFFFFFFFFFFFFFFFFFFFFFFFFFFFFFFFFFFFFFFFFFFFFFFFFFFFFFF DUP3 SUB PUSH2 0x624 JUMPI PUSH2 0x623 PUSH2 0x555 JUMP JUMPDEST JUMPDEST PUSH1 0x1 DUP3 ADD SWAP1 POP SWAP2 SWAP1 POP JUMP JUMPDEST PUSH32 0x4E487B7100000000000000000000000000000000000000000000000000000000 PUSH1 0x0 MSTORE PUSH1 0x12 PUSH1 0x4 MSTORE PUSH1 0x24 PUSH1 0x0 REVERT JUMPDEST PUSH1 0x0 PUSH2 0x669 DUP3 PUSH2 0x40F JUMP JUMPDEST SWAP2 POP PUSH2 0x674 DUP4 PUSH2 0x40F JUMP JUMPDEST SWAP3 POP DUP3 PUSH2 0x684 JUMPI PUSH2 0x683 PUSH2 0x62F JUMP JUMPDEST JUMPDEST DUP3 DUP3 MOD SWAP1 POP SWAP3 SWAP2 POP POP JUMP JUMPDEST PUSH32 0x4E487B7100000000000000000000000000000000000000000000000000000000 PUSH1 0x0 MSTORE PUSH1 0x41 PUSH1 0x4 MSTORE PUSH1 0x24 PUSH1 0x0 REVERT JUMPDEST PUSH1 0x0 PUSH2 0x6C9 DUP3 PUSH2 0x40F JUMP JUMPDEST SWAP2 POP PUSH2 0x6D4 DUP4 PUSH2 0x40F JUMP JUMPDEST SWAP3 POP DUP3 PUSH2 0x6E4 JUMPI PUSH2 0x6E3 PUSH2 0x62F JUMP JUMPDEST JUMPDEST DUP3 DUP3 DIV SWAP1 POP SWAP3 SWAP2 POP POP JUMP JUMPDEST PUSH1 0x0 PUSH2 0x6FA DUP3 PUSH2 0x40F JUMP JUMPDEST SWAP2 POP PUSH2 0x705 DUP4 PUSH2 0x40F JUMP JUMPDEST SWAP3 POP DUP3 DUP3 SUB SWAP1 POP DUP2 DUP2 GT ISZERO PUSH2 0x71D JUMPI PUSH2 0x71C PUSH2 0x555 JUMP JUMPDEST JUMPDEST SWAP3 SWAP2 POP POP JUMP INVALID LOG2 PUSH5 0x6970667358 0x22 SLT KECCAK256 PUSH8 0xF73C653850C40970 ORIGIN SWAP2 0xB9 DUP14 0xC8 DUP8 EXP PUSH4 0xDFF346D3 0xDB SWAP14 MLOAD PUSH21 0x34EF95BA40C2D064736F6C63430008120033000000 "
				},
				"gasEstimates": {
					"creation": {
						"codeDepositCost": "376200",
						"executionCost": "411",
						"totalCost": "376611"
					},
					"external": {
						"array(uint256)": "infinite",
						"f()": "infinite",
						"push(uint256)": "46851"
					},
					"internal": {
						"get_m1()": "infinite",
						"get_m2()": "infinite"
					}
				},
				"methodIdentifiers": {
					"array(uint256)": "38d94193",
					"f()": "26121ff0",
					"push(uint256)": "959ac484"
				}
			},
			"storageLayout": {
				"storage": [
					{
						"astId": 467,
						"contract": "contract/solidity_31~40.sol:Q40",
						"label": "array",
						"offset": 0,
						"slot": "0",
						"type": "t_array(t_uint256)dyn_storage"
					}
				],
				"types": {
					"t_array(t_uint256)dyn_storage": {
						"base": "t_uint256",
						"encoding": "dynamic_array",
						"label": "uint256[]",
						"numberOfBytes": "32"
					},
					"t_uint256": {
						"encoding": "inplace",
						"label": "uint256",
						"numberOfBytes": "32"
					}
				}
			},
			"userdoc": {
				"kind": "user",
				"methods": {},
				"version": 1
			}
		}
	}
}