{
	"contract/solidity_41~50.sol": {
		"Q42": {
			"abi": [
				{
					"inputs": [
						{
							"internalType": "string",
							"name": "_name",
							"type": "string"
						}
					],
					"name": "new_user",
					"outputs": [],
					"stateMutability": "nonpayable",
					"type": "function"
				}
			],
			"devdoc": {
				"kind": "dev",
				"methods": {},
				"version": 1
			},
			"evm": {
				"assembly": "    /* \"contract/solidity_41~50.sol\":846:1281  contract Q42 {... */\n  mstore(0x40, 0x80)\n    /* \"contract/solidity_41~50.sol\":1022:1023  0 */\n  0x00\n    /* \"contract/solidity_41~50.sol\":1009:1023  uint u_cnt = 0 */\n  0x01\n  sstore\n    /* \"contract/solidity_41~50.sol\":846:1281  contract Q42 {... */\n  callvalue\n  dup1\n  iszero\n  tag_1\n  jumpi\n  0x00\n  dup1\n  revert\ntag_1:\n  pop\n  dataSize(sub_0)\n  dup1\n  dataOffset(sub_0)\n  0x00\n  codecopy\n  0x00\n  return\nstop\n\nsub_0: assembly {\n        /* \"contract/solidity_41~50.sol\":846:1281  contract Q42 {... */\n      mstore(0x40, 0x80)\n      callvalue\n      dup1\n      iszero\n      tag_1\n      jumpi\n      0x00\n      dup1\n      revert\n    tag_1:\n      pop\n      jumpi(tag_2, lt(calldatasize, 0x04))\n      shr(0xe0, calldataload(0x00))\n      dup1\n      0xfc5beb4a\n      eq\n      tag_3\n      jumpi\n    tag_2:\n      0x00\n      dup1\n      revert\n        /* \"contract/solidity_41~50.sol\":1033:1276  function new_user( string memory _name ) public {... */\n    tag_3:\n      tag_4\n      0x04\n      dup1\n      calldatasize\n      sub\n      dup2\n      add\n      swap1\n      tag_5\n      swap2\n      swap1\n      tag_6\n      jump\t// in\n    tag_5:\n      tag_7\n      jump\t// in\n    tag_4:\n      stop\n    tag_7:\n        /* \"contract/solidity_41~50.sol\":1128:1129  5 */\n      0x05\n        /* \"contract/solidity_41~50.sol\":1110:1115  _name */\n      dup2\n        /* \"contract/solidity_41~50.sol\":1103:1124  bytes( _name ).length */\n      mload\n        /* \"contract/solidity_41~50.sol\":1103:1129  bytes( _name ).length >= 5 */\n      lt\n      iszero\n        /* \"contract/solidity_41~50.sol\":1094:1131  require( bytes( _name ).length >= 5 ) */\n      tag_9\n      jumpi\n      0x00\n      dup1\n      revert\n    tag_9:\n        /* \"contract/solidity_41~50.sol\":1171:1176  u_cnt */\n      0x01\n      0x00\n        /* \"contract/solidity_41~50.sol\":1171:1179  u_cnt ++ */\n      dup2\n      sload\n      dup1\n      swap3\n      swap2\n      swap1\n      tag_10\n      swap1\n      tag_11\n      jump\t// in\n    tag_10:\n      swap2\n      swap1\n      pop\n      sstore\n        /* \"contract/solidity_41~50.sol\":1145:1147  db */\n      0x00\n        /* \"contract/solidity_41~50.sol\":1145:1161  db[ msg.sender ] */\n      dup1\n        /* \"contract/solidity_41~50.sol\":1149:1159  msg.sender */\n      caller\n        /* \"contract/solidity_41~50.sol\":1145:1161  db[ msg.sender ] */\n      0xffffffffffffffffffffffffffffffffffffffff\n      and\n      0xffffffffffffffffffffffffffffffffffffffff\n      and\n      dup2\n      mstore\n      0x20\n      add\n      swap1\n      dup2\n      mstore\n      0x20\n      add\n      0x00\n      keccak256\n        /* \"contract/solidity_41~50.sol\":1145:1168  db[ msg.sender ].number */\n      0x01\n      add\n        /* \"contract/solidity_41~50.sol\":1145:1179  db[ msg.sender ].number = u_cnt ++ */\n      dup2\n      swap1\n      sstore\n      pop\n        /* \"contract/solidity_41~50.sol\":1215:1220  _name */\n      dup1\n        /* \"contract/solidity_41~50.sol\":1191:1193  db */\n      0x00\n        /* \"contract/solidity_41~50.sol\":1191:1207  db[ msg.sender ] */\n      dup1\n        /* \"contract/solidity_41~50.sol\":1195:1205  msg.sender */\n      caller\n        /* \"contract/solidity_41~50.sol\":1191:1207  db[ msg.sender ] */\n      0xffffffffffffffffffffffffffffffffffffffff\n      and\n      0xffffffffffffffffffffffffffffffffffffffff\n      and\n      dup2\n      mstore\n      0x20\n      add\n      swap1\n      dup2\n      mstore\n      0x20\n      add\n      0x00\n      keccak256\n        /* \"contract/solidity_41~50.sol\":1191:1212  db[ msg.sender ].name */\n      0x00\n      add\n        /* \"contract/solidity_41~50.sol\":1191:1220  db[ msg.sender ].name = _name */\n      swap1\n      dup2\n      tag_12\n      swap2\n      swap1\n      tag_13\n      jump\t// in\n    tag_12:\n      pop\n        /* \"contract/solidity_41~50.sol\":1255:1265  msg.sender */\n      caller\n        /* \"contract/solidity_41~50.sol\":1232:1234  db */\n      0x00\n        /* \"contract/solidity_41~50.sol\":1232:1248  db[ msg.sender ] */\n      dup1\n        /* \"contract/solidity_41~50.sol\":1236:1246  msg.sender */\n      caller\n        /* \"contract/solidity_41~50.sol\":1232:1248  db[ msg.sender ] */\n      0xffffffffffffffffffffffffffffffffffffffff\n      and\n      0xffffffffffffffffffffffffffffffffffffffff\n      and\n      dup2\n      mstore\n      0x20\n      add\n      swap1\n      dup2\n      mstore\n      0x20\n      add\n      0x00\n      keccak256\n        /* \"contract/solidity_41~50.sol\":1232:1252  db[ msg.sender ].add */\n      0x02\n      add\n      0x00\n        /* \"contract/solidity_41~50.sol\":1232:1265  db[ msg.sender ].add = msg.sender */\n      0x0100\n      exp\n      dup2\n      sload\n      dup2\n      0xffffffffffffffffffffffffffffffffffffffff\n      mul\n      not\n      and\n      swap1\n      dup4\n      0xffffffffffffffffffffffffffffffffffffffff\n      and\n      mul\n      or\n      swap1\n      sstore\n      pop\n        /* \"contract/solidity_41~50.sol\":1033:1276  function new_user( string memory _name ) public {... */\n      pop\n      jump\t// out\n        /* \"#utility.yul\":7:82   */\n    tag_14:\n        /* \"#utility.yul\":40:46   */\n      0x00\n        /* \"#utility.yul\":73:75   */\n      0x40\n        /* \"#utility.yul\":67:76   */\n      mload\n        /* \"#utility.yul\":57:76   */\n      swap1\n      pop\n        /* \"#utility.yul\":7:82   */\n      swap1\n      jump\t// out\n        /* \"#utility.yul\":88:205   */\n    tag_15:\n        /* \"#utility.yul\":197:198   */\n      0x00\n        /* \"#utility.yul\":194:195   */\n      dup1\n        /* \"#utility.yul\":187:199   */\n      revert\n        /* \"#utility.yul\":211:328   */\n    tag_16:\n        /* \"#utility.yul\":320:321   */\n      0x00\n        /* \"#utility.yul\":317:318   */\n      dup1\n        /* \"#utility.yul\":310:322   */\n      revert\n        /* \"#utility.yul\":334:451   */\n    tag_17:\n        /* \"#utility.yul\":443:444   */\n      0x00\n        /* \"#utility.yul\":440:441   */\n      dup1\n        /* \"#utility.yul\":433:445   */\n      revert\n        /* \"#utility.yul\":457:574   */\n    tag_18:\n        /* \"#utility.yul\":566:567   */\n      0x00\n        /* \"#utility.yul\":563:564   */\n      dup1\n        /* \"#utility.yul\":556:568   */\n      revert\n        /* \"#utility.yul\":580:682   */\n    tag_19:\n        /* \"#utility.yul\":621:627   */\n      0x00\n        /* \"#utility.yul\":672:674   */\n      0x1f\n        /* \"#utility.yul\":668:675   */\n      not\n        /* \"#utility.yul\":663:665   */\n      0x1f\n        /* \"#utility.yul\":656:661   */\n      dup4\n        /* \"#utility.yul\":652:666   */\n      add\n        /* \"#utility.yul\":648:676   */\n      and\n        /* \"#utility.yul\":638:676   */\n      swap1\n      pop\n        /* \"#utility.yul\":580:682   */\n      swap2\n      swap1\n      pop\n      jump\t// out\n        /* \"#utility.yul\":688:868   */\n    tag_20:\n        /* \"#utility.yul\":736:813   */\n      0x4e487b7100000000000000000000000000000000000000000000000000000000\n        /* \"#utility.yul\":733:734   */\n      0x00\n        /* \"#utility.yul\":726:814   */\n      mstore\n        /* \"#utility.yul\":833:837   */\n      0x41\n        /* \"#utility.yul\":830:831   */\n      0x04\n        /* \"#utility.yul\":823:838   */\n      mstore\n        /* \"#utility.yul\":857:861   */\n      0x24\n        /* \"#utility.yul\":854:855   */\n      0x00\n        /* \"#utility.yul\":847:862   */\n      revert\n        /* \"#utility.yul\":874:1155   */\n    tag_21:\n        /* \"#utility.yul\":957:984   */\n      tag_56\n        /* \"#utility.yul\":979:983   */\n      dup3\n        /* \"#utility.yul\":957:984   */\n      tag_19\n      jump\t// in\n    tag_56:\n        /* \"#utility.yul\":949:955   */\n      dup2\n        /* \"#utility.yul\":945:985   */\n      add\n        /* \"#utility.yul\":1087:1093   */\n      dup2\n        /* \"#utility.yul\":1075:1085   */\n      dup2\n        /* \"#utility.yul\":1072:1094   */\n      lt\n        /* \"#utility.yul\":1051:1069   */\n      0xffffffffffffffff\n        /* \"#utility.yul\":1039:1049   */\n      dup3\n        /* \"#utility.yul\":1036:1070   */\n      gt\n        /* \"#utility.yul\":1033:1095   */\n      or\n        /* \"#utility.yul\":1030:1118   */\n      iszero\n      tag_57\n      jumpi\n        /* \"#utility.yul\":1098:1116   */\n      tag_58\n      tag_20\n      jump\t// in\n    tag_58:\n        /* \"#utility.yul\":1030:1118   */\n    tag_57:\n        /* \"#utility.yul\":1138:1148   */\n      dup1\n        /* \"#utility.yul\":1134:1136   */\n      0x40\n        /* \"#utility.yul\":1127:1149   */\n      mstore\n        /* \"#utility.yul\":917:1155   */\n      pop\n        /* \"#utility.yul\":874:1155   */\n      pop\n      pop\n      jump\t// out\n        /* \"#utility.yul\":1161:1290   */\n    tag_22:\n        /* \"#utility.yul\":1195:1201   */\n      0x00\n        /* \"#utility.yul\":1222:1242   */\n      tag_60\n      tag_14\n      jump\t// in\n    tag_60:\n        /* \"#utility.yul\":1212:1242   */\n      swap1\n      pop\n        /* \"#utility.yul\":1251:1284   */\n      tag_61\n        /* \"#utility.yul\":1279:1283   */\n      dup3\n        /* \"#utility.yul\":1271:1277   */\n      dup3\n        /* \"#utility.yul\":1251:1284   */\n      tag_21\n      jump\t// in\n    tag_61:\n        /* \"#utility.yul\":1161:1290   */\n      swap2\n      swap1\n      pop\n      jump\t// out\n        /* \"#utility.yul\":1296:1604   */\n    tag_23:\n        /* \"#utility.yul\":1358:1362   */\n      0x00\n        /* \"#utility.yul\":1448:1466   */\n      0xffffffffffffffff\n        /* \"#utility.yul\":1440:1446   */\n      dup3\n        /* \"#utility.yul\":1437:1467   */\n      gt\n        /* \"#utility.yul\":1434:1490   */\n      iszero\n      tag_63\n      jumpi\n        /* \"#utility.yul\":1470:1488   */\n      tag_64\n      tag_20\n      jump\t// in\n    tag_64:\n        /* \"#utility.yul\":1434:1490   */\n    tag_63:\n        /* \"#utility.yul\":1508:1537   */\n      tag_65\n        /* \"#utility.yul\":1530:1536   */\n      dup3\n        /* \"#utility.yul\":1508:1537   */\n      tag_19\n      jump\t// in\n    tag_65:\n        /* \"#utility.yul\":1500:1537   */\n      swap1\n      pop\n        /* \"#utility.yul\":1592:1596   */\n      0x20\n        /* \"#utility.yul\":1586:1590   */\n      dup2\n        /* \"#utility.yul\":1582:1597   */\n      add\n        /* \"#utility.yul\":1574:1597   */\n      swap1\n      pop\n        /* \"#utility.yul\":1296:1604   */\n      swap2\n      swap1\n      pop\n      jump\t// out\n        /* \"#utility.yul\":1610:1756   */\n    tag_24:\n        /* \"#utility.yul\":1707:1713   */\n      dup3\n        /* \"#utility.yul\":1702:1705   */\n      dup2\n        /* \"#utility.yul\":1697:1700   */\n      dup4\n        /* \"#utility.yul\":1684:1714   */\n      calldatacopy\n        /* \"#utility.yul\":1748:1749   */\n      0x00\n        /* \"#utility.yul\":1739:1745   */\n      dup4\n        /* \"#utility.yul\":1734:1737   */\n      dup4\n        /* \"#utility.yul\":1730:1746   */\n      add\n        /* \"#utility.yul\":1723:1750   */\n      mstore\n        /* \"#utility.yul\":1610:1756   */\n      pop\n      pop\n      pop\n      jump\t// out\n        /* \"#utility.yul\":1762:2187   */\n    tag_25:\n        /* \"#utility.yul\":1840:1845   */\n      0x00\n        /* \"#utility.yul\":1865:1931   */\n      tag_68\n        /* \"#utility.yul\":1881:1930   */\n      tag_69\n        /* \"#utility.yul\":1923:1929   */\n      dup5\n        /* \"#utility.yul\":1881:1930   */\n      tag_23\n      jump\t// in\n    tag_69:\n        /* \"#utility.yul\":1865:1931   */\n      tag_22\n      jump\t// in\n    tag_68:\n        /* \"#utility.yul\":1856:1931   */\n      swap1\n      pop\n        /* \"#utility.yul\":1954:1960   */\n      dup3\n        /* \"#utility.yul\":1947:1952   */\n      dup2\n        /* \"#utility.yul\":1940:1961   */\n      mstore\n        /* \"#utility.yul\":1992:1996   */\n      0x20\n        /* \"#utility.yul\":1985:1990   */\n      dup2\n        /* \"#utility.yul\":1981:1997   */\n      add\n        /* \"#utility.yul\":2030:2033   */\n      dup5\n        /* \"#utility.yul\":2021:2027   */\n      dup5\n        /* \"#utility.yul\":2016:2019   */\n      dup5\n        /* \"#utility.yul\":2012:2028   */\n      add\n        /* \"#utility.yul\":2009:2034   */\n      gt\n        /* \"#utility.yul\":2006:2118   */\n      iszero\n      tag_70\n      jumpi\n        /* \"#utility.yul\":2037:2116   */\n      tag_71\n      tag_18\n      jump\t// in\n    tag_71:\n        /* \"#utility.yul\":2006:2118   */\n    tag_70:\n        /* \"#utility.yul\":2127:2181   */\n      tag_72\n        /* \"#utility.yul\":2174:2180   */\n      dup5\n        /* \"#utility.yul\":2169:2172   */\n      dup3\n        /* \"#utility.yul\":2164:2167   */\n      dup6\n        /* \"#utility.yul\":2127:2181   */\n      tag_24\n      jump\t// in\n    tag_72:\n        /* \"#utility.yul\":1846:2187   */\n      pop\n        /* \"#utility.yul\":1762:2187   */\n      swap4\n      swap3\n      pop\n      pop\n      pop\n      jump\t// out\n        /* \"#utility.yul\":2207:2547   */\n    tag_26:\n        /* \"#utility.yul\":2263:2268   */\n      0x00\n        /* \"#utility.yul\":2312:2315   */\n      dup3\n        /* \"#utility.yul\":2305:2309   */\n      0x1f\n        /* \"#utility.yul\":2297:2303   */\n      dup4\n        /* \"#utility.yul\":2293:2310   */\n      add\n        /* \"#utility.yul\":2289:2316   */\n      slt\n        /* \"#utility.yul\":2279:2401   */\n      tag_74\n      jumpi\n        /* \"#utility.yul\":2320:2399   */\n      tag_75\n      tag_17\n      jump\t// in\n    tag_75:\n        /* \"#utility.yul\":2279:2401   */\n    tag_74:\n        /* \"#utility.yul\":2437:2443   */\n      dup2\n        /* \"#utility.yul\":2424:2444   */\n      calldataload\n        /* \"#utility.yul\":2462:2541   */\n      tag_76\n        /* \"#utility.yul\":2537:2540   */\n      dup5\n        /* \"#utility.yul\":2529:2535   */\n      dup3\n        /* \"#utility.yul\":2522:2526   */\n      0x20\n        /* \"#utility.yul\":2514:2520   */\n      dup7\n        /* \"#utility.yul\":2510:2527   */\n      add\n        /* \"#utility.yul\":2462:2541   */\n      tag_25\n      jump\t// in\n    tag_76:\n        /* \"#utility.yul\":2453:2541   */\n      swap2\n      pop\n        /* \"#utility.yul\":2269:2547   */\n      pop\n        /* \"#utility.yul\":2207:2547   */\n      swap3\n      swap2\n      pop\n      pop\n      jump\t// out\n        /* \"#utility.yul\":2553:3062   */\n    tag_6:\n        /* \"#utility.yul\":2622:2628   */\n      0x00\n        /* \"#utility.yul\":2671:2673   */\n      0x20\n        /* \"#utility.yul\":2659:2668   */\n      dup3\n        /* \"#utility.yul\":2650:2657   */\n      dup5\n        /* \"#utility.yul\":2646:2669   */\n      sub\n        /* \"#utility.yul\":2642:2674   */\n      slt\n        /* \"#utility.yul\":2639:2758   */\n      iszero\n      tag_78\n      jumpi\n        /* \"#utility.yul\":2677:2756   */\n      tag_79\n      tag_15\n      jump\t// in\n    tag_79:\n        /* \"#utility.yul\":2639:2758   */\n    tag_78:\n        /* \"#utility.yul\":2825:2826   */\n      0x00\n        /* \"#utility.yul\":2814:2823   */\n      dup3\n        /* \"#utility.yul\":2810:2827   */\n      add\n        /* \"#utility.yul\":2797:2828   */\n      calldataload\n        /* \"#utility.yul\":2855:2873   */\n      0xffffffffffffffff\n        /* \"#utility.yul\":2847:2853   */\n      dup2\n        /* \"#utility.yul\":2844:2874   */\n      gt\n        /* \"#utility.yul\":2841:2958   */\n      iszero\n      tag_80\n      jumpi\n        /* \"#utility.yul\":2877:2956   */\n      tag_81\n      tag_16\n      jump\t// in\n    tag_81:\n        /* \"#utility.yul\":2841:2958   */\n    tag_80:\n        /* \"#utility.yul\":2982:3045   */\n      tag_82\n        /* \"#utility.yul\":3037:3044   */\n      dup5\n        /* \"#utility.yul\":3028:3034   */\n      dup3\n        /* \"#utility.yul\":3017:3026   */\n      dup6\n        /* \"#utility.yul\":3013:3035   */\n      add\n        /* \"#utility.yul\":2982:3045   */\n      tag_26\n      jump\t// in\n    tag_82:\n        /* \"#utility.yul\":2972:3045   */\n      swap2\n      pop\n        /* \"#utility.yul\":2768:3055   */\n      pop\n        /* \"#utility.yul\":2553:3062   */\n      swap3\n      swap2\n      pop\n      pop\n      jump\t// out\n        /* \"#utility.yul\":3068:3248   */\n    tag_27:\n        /* \"#utility.yul\":3116:3193   */\n      0x4e487b7100000000000000000000000000000000000000000000000000000000\n        /* \"#utility.yul\":3113:3114   */\n      0x00\n        /* \"#utility.yul\":3106:3194   */\n      mstore\n        /* \"#utility.yul\":3213:3217   */\n      0x11\n        /* \"#utility.yul\":3210:3211   */\n      0x04\n        /* \"#utility.yul\":3203:3218   */\n      mstore\n        /* \"#utility.yul\":3237:3241   */\n      0x24\n        /* \"#utility.yul\":3234:3235   */\n      0x00\n        /* \"#utility.yul\":3227:3242   */\n      revert\n        /* \"#utility.yul\":3254:3331   */\n    tag_28:\n        /* \"#utility.yul\":3291:3298   */\n      0x00\n        /* \"#utility.yul\":3320:3325   */\n      dup2\n        /* \"#utility.yul\":3309:3325   */\n      swap1\n      pop\n        /* \"#utility.yul\":3254:3331   */\n      swap2\n      swap1\n      pop\n      jump\t// out\n        /* \"#utility.yul\":3337:3570   */\n    tag_11:\n        /* \"#utility.yul\":3376:3379   */\n      0x00\n        /* \"#utility.yul\":3399:3423   */\n      tag_86\n        /* \"#utility.yul\":3417:3422   */\n      dup3\n        /* \"#utility.yul\":3399:3423   */\n      tag_28\n      jump\t// in\n    tag_86:\n        /* \"#utility.yul\":3390:3423   */\n      swap2\n      pop\n        /* \"#utility.yul\":3445:3511   */\n      0xffffffffffffffffffffffffffffffffffffffffffffffffffffffffffffffff\n        /* \"#utility.yul\":3438:3443   */\n      dup3\n        /* \"#utility.yul\":3435:3512   */\n      sub\n        /* \"#utility.yul\":3432:3535   */\n      tag_87\n      jumpi\n        /* \"#utility.yul\":3515:3533   */\n      tag_88\n      tag_27\n      jump\t// in\n    tag_88:\n        /* \"#utility.yul\":3432:3535   */\n    tag_87:\n        /* \"#utility.yul\":3562:3563   */\n      0x01\n        /* \"#utility.yul\":3555:3560   */\n      dup3\n        /* \"#utility.yul\":3551:3564   */\n      add\n        /* \"#utility.yul\":3544:3564   */\n      swap1\n      pop\n        /* \"#utility.yul\":3337:3570   */\n      swap2\n      swap1\n      pop\n      jump\t// out\n        /* \"#utility.yul\":3576:3675   */\n    tag_29:\n        /* \"#utility.yul\":3628:3634   */\n      0x00\n        /* \"#utility.yul\":3662:3667   */\n      dup2\n        /* \"#utility.yul\":3656:3668   */\n      mload\n        /* \"#utility.yul\":3646:3668   */\n      swap1\n      pop\n        /* \"#utility.yul\":3576:3675   */\n      swap2\n      swap1\n      pop\n      jump\t// out\n        /* \"#utility.yul\":3681:3861   */\n    tag_30:\n        /* \"#utility.yul\":3729:3806   */\n      0x4e487b7100000000000000000000000000000000000000000000000000000000\n        /* \"#utility.yul\":3726:3727   */\n      0x00\n        /* \"#utility.yul\":3719:3807   */\n      mstore\n        /* \"#utility.yul\":3826:3830   */\n      0x22\n        /* \"#utility.yul\":3823:3824   */\n      0x04\n        /* \"#utility.yul\":3816:3831   */\n      mstore\n        /* \"#utility.yul\":3850:3854   */\n      0x24\n        /* \"#utility.yul\":3847:3848   */\n      0x00\n        /* \"#utility.yul\":3840:3855   */\n      revert\n        /* \"#utility.yul\":3867:4187   */\n    tag_31:\n        /* \"#utility.yul\":3911:3917   */\n      0x00\n        /* \"#utility.yul\":3948:3949   */\n      0x02\n        /* \"#utility.yul\":3942:3946   */\n      dup3\n        /* \"#utility.yul\":3938:3950   */\n      div\n        /* \"#utility.yul\":3928:3950   */\n      swap1\n      pop\n        /* \"#utility.yul\":3995:3996   */\n      0x01\n        /* \"#utility.yul\":3989:3993   */\n      dup3\n        /* \"#utility.yul\":3985:3997   */\n      and\n        /* \"#utility.yul\":4016:4034   */\n      dup1\n        /* \"#utility.yul\":4006:4087   */\n      tag_92\n      jumpi\n        /* \"#utility.yul\":4072:4076   */\n      0x7f\n        /* \"#utility.yul\":4064:4070   */\n      dup3\n        /* \"#utility.yul\":4060:4077   */\n      and\n        /* \"#utility.yul\":4050:4077   */\n      swap2\n      pop\n        /* \"#utility.yul\":4006:4087   */\n    tag_92:\n        /* \"#utility.yul\":4134:4136   */\n      0x20\n        /* \"#utility.yul\":4126:4132   */\n      dup3\n        /* \"#utility.yul\":4123:4137   */\n      lt\n        /* \"#utility.yul\":4103:4121   */\n      dup2\n        /* \"#utility.yul\":4100:4138   */\n      sub\n        /* \"#utility.yul\":4097:4181   */\n      tag_93\n      jumpi\n        /* \"#utility.yul\":4153:4171   */\n      tag_94\n      tag_30\n      jump\t// in\n    tag_94:\n        /* \"#utility.yul\":4097:4181   */\n    tag_93:\n        /* \"#utility.yul\":3918:4187   */\n      pop\n        /* \"#utility.yul\":3867:4187   */\n      swap2\n      swap1\n      pop\n      jump\t// out\n        /* \"#utility.yul\":4193:4334   */\n    tag_32:\n        /* \"#utility.yul\":4242:4246   */\n      0x00\n        /* \"#utility.yul\":4265:4268   */\n      dup2\n        /* \"#utility.yul\":4257:4268   */\n      swap1\n      pop\n        /* \"#utility.yul\":4288:4291   */\n      dup2\n        /* \"#utility.yul\":4285:4286   */\n      0x00\n        /* \"#utility.yul\":4278:4292   */\n      mstore\n        /* \"#utility.yul\":4322:4326   */\n      0x20\n        /* \"#utility.yul\":4319:4320   */\n      0x00\n        /* \"#utility.yul\":4309:4327   */\n      keccak256\n        /* \"#utility.yul\":4301:4327   */\n      swap1\n      pop\n        /* \"#utility.yul\":4193:4334   */\n      swap2\n      swap1\n      pop\n      jump\t// out\n        /* \"#utility.yul\":4340:4433   */\n    tag_33:\n        /* \"#utility.yul\":4377:4383   */\n      0x00\n        /* \"#utility.yul\":4424:4426   */\n      0x20\n        /* \"#utility.yul\":4419:4421   */\n      0x1f\n        /* \"#utility.yul\":4412:4417   */\n      dup4\n        /* \"#utility.yul\":4408:4422   */\n      add\n        /* \"#utility.yul\":4404:4427   */\n      div\n        /* \"#utility.yul\":4394:4427   */\n      swap1\n      pop\n        /* \"#utility.yul\":4340:4433   */\n      swap2\n      swap1\n      pop\n      jump\t// out\n        /* \"#utility.yul\":4439:4546   */\n    tag_34:\n        /* \"#utility.yul\":4483:4491   */\n      0x00\n        /* \"#utility.yul\":4533:4538   */\n      dup3\n        /* \"#utility.yul\":4527:4531   */\n      dup3\n        /* \"#utility.yul\":4523:4539   */\n      shl\n        /* \"#utility.yul\":4502:4539   */\n      swap1\n      pop\n        /* \"#utility.yul\":4439:4546   */\n      swap3\n      swap2\n      pop\n      pop\n      jump\t// out\n        /* \"#utility.yul\":4552:4945   */\n    tag_35:\n        /* \"#utility.yul\":4621:4627   */\n      0x00\n        /* \"#utility.yul\":4671:4672   */\n      0x08\n        /* \"#utility.yul\":4659:4669   */\n      dup4\n        /* \"#utility.yul\":4655:4673   */\n      mul\n        /* \"#utility.yul\":4694:4791   */\n      tag_99\n        /* \"#utility.yul\":4724:4790   */\n      0xffffffffffffffffffffffffffffffffffffffffffffffffffffffffffffffff\n        /* \"#utility.yul\":4713:4722   */\n      dup3\n        /* \"#utility.yul\":4694:4791   */\n      tag_34\n      jump\t// in\n    tag_99:\n        /* \"#utility.yul\":4812:4851   */\n      tag_100\n        /* \"#utility.yul\":4842:4850   */\n      dup7\n        /* \"#utility.yul\":4831:4840   */\n      dup4\n        /* \"#utility.yul\":4812:4851   */\n      tag_34\n      jump\t// in\n    tag_100:\n        /* \"#utility.yul\":4800:4851   */\n      swap6\n      pop\n        /* \"#utility.yul\":4884:4888   */\n      dup1\n        /* \"#utility.yul\":4880:4889   */\n      not\n        /* \"#utility.yul\":4873:4878   */\n      dup5\n        /* \"#utility.yul\":4869:4890   */\n      and\n        /* \"#utility.yul\":4860:4890   */\n      swap4\n      pop\n        /* \"#utility.yul\":4933:4937   */\n      dup1\n        /* \"#utility.yul\":4923:4931   */\n      dup7\n        /* \"#utility.yul\":4919:4938   */\n      and\n        /* \"#utility.yul\":4912:4917   */\n      dup5\n        /* \"#utility.yul\":4909:4939   */\n      or\n        /* \"#utility.yul\":4899:4939   */\n      swap3\n      pop\n        /* \"#utility.yul\":4628:4945   */\n      pop\n      pop\n        /* \"#utility.yul\":4552:4945   */\n      swap4\n      swap3\n      pop\n      pop\n      pop\n      jump\t// out\n        /* \"#utility.yul\":4951:5011   */\n    tag_36:\n        /* \"#utility.yul\":4979:4982   */\n      0x00\n        /* \"#utility.yul\":5000:5005   */\n      dup2\n        /* \"#utility.yul\":4993:5005   */\n      swap1\n      pop\n        /* \"#utility.yul\":4951:5011   */\n      swap2\n      swap1\n      pop\n      jump\t// out\n        /* \"#utility.yul\":5017:5159   */\n    tag_37:\n        /* \"#utility.yul\":5067:5076   */\n      0x00\n        /* \"#utility.yul\":5100:5153   */\n      tag_103\n        /* \"#utility.yul\":5118:5152   */\n      tag_104\n        /* \"#utility.yul\":5127:5151   */\n      tag_105\n        /* \"#utility.yul\":5145:5150   */\n      dup5\n        /* \"#utility.yul\":5127:5151   */\n      tag_28\n      jump\t// in\n    tag_105:\n        /* \"#utility.yul\":5118:5152   */\n      tag_36\n      jump\t// in\n    tag_104:\n        /* \"#utility.yul\":5100:5153   */\n      tag_28\n      jump\t// in\n    tag_103:\n        /* \"#utility.yul\":5087:5153   */\n      swap1\n      pop\n        /* \"#utility.yul\":5017:5159   */\n      swap2\n      swap1\n      pop\n      jump\t// out\n        /* \"#utility.yul\":5165:5240   */\n    tag_38:\n        /* \"#utility.yul\":5208:5211   */\n      0x00\n        /* \"#utility.yul\":5229:5234   */\n      dup2\n        /* \"#utility.yul\":5222:5234   */\n      swap1\n      pop\n        /* \"#utility.yul\":5165:5240   */\n      swap2\n      swap1\n      pop\n      jump\t// out\n        /* \"#utility.yul\":5246:5515   */\n    tag_39:\n        /* \"#utility.yul\":5356:5395   */\n      tag_108\n        /* \"#utility.yul\":5387:5394   */\n      dup4\n        /* \"#utility.yul\":5356:5395   */\n      tag_37\n      jump\t// in\n    tag_108:\n        /* \"#utility.yul\":5417:5508   */\n      tag_109\n        /* \"#utility.yul\":5466:5507   */\n      tag_110\n        /* \"#utility.yul\":5490:5506   */\n      dup3\n        /* \"#utility.yul\":5466:5507   */\n      tag_38\n      jump\t// in\n    tag_110:\n        /* \"#utility.yul\":5458:5464   */\n      dup5\n        /* \"#utility.yul\":5451:5455   */\n      dup5\n        /* \"#utility.yul\":5445:5456   */\n      sload\n        /* \"#utility.yul\":5417:5508   */\n      tag_35\n      jump\t// in\n    tag_109:\n        /* \"#utility.yul\":5411:5415   */\n      dup3\n        /* \"#utility.yul\":5404:5509   */\n      sstore\n        /* \"#utility.yul\":5322:5515   */\n      pop\n        /* \"#utility.yul\":5246:5515   */\n      pop\n      pop\n      pop\n      jump\t// out\n        /* \"#utility.yul\":5521:5594   */\n    tag_40:\n        /* \"#utility.yul\":5566:5569   */\n      0x00\n        /* \"#utility.yul\":5521:5594   */\n      swap1\n      jump\t// out\n        /* \"#utility.yul\":5600:5789   */\n    tag_41:\n        /* \"#utility.yul\":5677:5709   */\n      tag_113\n      tag_40\n      jump\t// in\n    tag_113:\n        /* \"#utility.yul\":5718:5783   */\n      tag_114\n        /* \"#utility.yul\":5776:5782   */\n      dup2\n        /* \"#utility.yul\":5768:5774   */\n      dup5\n        /* \"#utility.yul\":5762:5766   */\n      dup5\n        /* \"#utility.yul\":5718:5783   */\n      tag_39\n      jump\t// in\n    tag_114:\n        /* \"#utility.yul\":5653:5789   */\n      pop\n        /* \"#utility.yul\":5600:5789   */\n      pop\n      pop\n      jump\t// out\n        /* \"#utility.yul\":5795:5981   */\n    tag_42:\n        /* \"#utility.yul\":5855:5975   */\n    tag_116:\n        /* \"#utility.yul\":5872:5875   */\n      dup2\n        /* \"#utility.yul\":5865:5870   */\n      dup2\n        /* \"#utility.yul\":5862:5876   */\n      lt\n        /* \"#utility.yul\":5855:5975   */\n      iszero\n      tag_118\n      jumpi\n        /* \"#utility.yul\":5926:5965   */\n      tag_119\n        /* \"#utility.yul\":5963:5964   */\n      0x00\n        /* \"#utility.yul\":5956:5961   */\n      dup3\n        /* \"#utility.yul\":5926:5965   */\n      tag_41\n      jump\t// in\n    tag_119:\n        /* \"#utility.yul\":5899:5900   */\n      0x01\n        /* \"#utility.yul\":5892:5897   */\n      dup2\n        /* \"#utility.yul\":5888:5901   */\n      add\n        /* \"#utility.yul\":5879:5901   */\n      swap1\n      pop\n        /* \"#utility.yul\":5855:5975   */\n      jump(tag_116)\n    tag_118:\n        /* \"#utility.yul\":5795:5981   */\n      pop\n      pop\n      jump\t// out\n        /* \"#utility.yul\":5987:6530   */\n    tag_43:\n        /* \"#utility.yul\":6088:6090   */\n      0x1f\n        /* \"#utility.yul\":6083:6086   */\n      dup3\n        /* \"#utility.yul\":6080:6091   */\n      gt\n        /* \"#utility.yul\":6077:6523   */\n      iszero\n      tag_121\n      jumpi\n        /* \"#utility.yul\":6122:6160   */\n      tag_122\n        /* \"#utility.yul\":6154:6159   */\n      dup2\n        /* \"#utility.yul\":6122:6160   */\n      tag_32\n      jump\t// in\n    tag_122:\n        /* \"#utility.yul\":6206:6235   */\n      tag_123\n        /* \"#utility.yul\":6224:6234   */\n      dup5\n        /* \"#utility.yul\":6206:6235   */\n      tag_33\n      jump\t// in\n    tag_123:\n        /* \"#utility.yul\":6196:6204   */\n      dup2\n        /* \"#utility.yul\":6192:6236   */\n      add\n        /* \"#utility.yul\":6389:6391   */\n      0x20\n        /* \"#utility.yul\":6377:6387   */\n      dup6\n        /* \"#utility.yul\":6374:6392   */\n      lt\n        /* \"#utility.yul\":6371:6420   */\n      iszero\n      tag_124\n      jumpi\n        /* \"#utility.yul\":6410:6418   */\n      dup2\n        /* \"#utility.yul\":6395:6418   */\n      swap1\n      pop\n        /* \"#utility.yul\":6371:6420   */\n    tag_124:\n        /* \"#utility.yul\":6433:6513   */\n      tag_125\n        /* \"#utility.yul\":6489:6511   */\n      tag_126\n        /* \"#utility.yul\":6507:6510   */\n      dup6\n        /* \"#utility.yul\":6489:6511   */\n      tag_33\n      jump\t// in\n    tag_126:\n        /* \"#utility.yul\":6479:6487   */\n      dup4\n        /* \"#utility.yul\":6475:6512   */\n      add\n        /* \"#utility.yul\":6462:6473   */\n      dup3\n        /* \"#utility.yul\":6433:6513   */\n      tag_42\n      jump\t// in\n    tag_125:\n        /* \"#utility.yul\":6092:6523   */\n      pop\n      pop\n        /* \"#utility.yul\":6077:6523   */\n    tag_121:\n        /* \"#utility.yul\":5987:6530   */\n      pop\n      pop\n      pop\n      jump\t// out\n        /* \"#utility.yul\":6536:6653   */\n    tag_44:\n        /* \"#utility.yul\":6590:6598   */\n      0x00\n        /* \"#utility.yul\":6640:6645   */\n      dup3\n        /* \"#utility.yul\":6634:6638   */\n      dup3\n        /* \"#utility.yul\":6630:6646   */\n      shr\n        /* \"#utility.yul\":6609:6646   */\n      swap1\n      pop\n        /* \"#utility.yul\":6536:6653   */\n      swap3\n      swap2\n      pop\n      pop\n      jump\t// out\n        /* \"#utility.yul\":6659:6828   */\n    tag_45:\n        /* \"#utility.yul\":6703:6709   */\n      0x00\n        /* \"#utility.yul\":6736:6787   */\n      tag_129\n        /* \"#utility.yul\":6784:6785   */\n      0x00\n        /* \"#utility.yul\":6780:6786   */\n      not\n        /* \"#utility.yul\":6772:6777   */\n      dup5\n        /* \"#utility.yul\":6769:6770   */\n      0x08\n        /* \"#utility.yul\":6765:6778   */\n      mul\n        /* \"#utility.yul\":6736:6787   */\n      tag_44\n      jump\t// in\n    tag_129:\n        /* \"#utility.yul\":6732:6788   */\n      not\n        /* \"#utility.yul\":6817:6821   */\n      dup1\n        /* \"#utility.yul\":6811:6815   */\n      dup4\n        /* \"#utility.yul\":6807:6822   */\n      and\n        /* \"#utility.yul\":6797:6822   */\n      swap2\n      pop\n        /* \"#utility.yul\":6710:6828   */\n      pop\n        /* \"#utility.yul\":6659:6828   */\n      swap3\n      swap2\n      pop\n      pop\n      jump\t// out\n        /* \"#utility.yul\":6833:7128   */\n    tag_46:\n        /* \"#utility.yul\":6909:6913   */\n      0x00\n        /* \"#utility.yul\":7055:7084   */\n      tag_131\n        /* \"#utility.yul\":7080:7083   */\n      dup4\n        /* \"#utility.yul\":7074:7078   */\n      dup4\n        /* \"#utility.yul\":7055:7084   */\n      tag_45\n      jump\t// in\n    tag_131:\n        /* \"#utility.yul\":7047:7084   */\n      swap2\n      pop\n        /* \"#utility.yul\":7117:7120   */\n      dup3\n        /* \"#utility.yul\":7114:7115   */\n      0x02\n        /* \"#utility.yul\":7110:7121   */\n      mul\n        /* \"#utility.yul\":7104:7108   */\n      dup3\n        /* \"#utility.yul\":7101:7122   */\n      or\n        /* \"#utility.yul\":7093:7122   */\n      swap1\n      pop\n        /* \"#utility.yul\":6833:7128   */\n      swap3\n      swap2\n      pop\n      pop\n      jump\t// out\n        /* \"#utility.yul\":7133:8528   */\n    tag_13:\n        /* \"#utility.yul\":7250:7287   */\n      tag_133\n        /* \"#utility.yul\":7283:7286   */\n      dup3\n        /* \"#utility.yul\":7250:7287   */\n      tag_29\n      jump\t// in\n    tag_133:\n        /* \"#utility.yul\":7352:7370   */\n      0xffffffffffffffff\n        /* \"#utility.yul\":7344:7350   */\n      dup2\n        /* \"#utility.yul\":7341:7371   */\n      gt\n        /* \"#utility.yul\":7338:7394   */\n      iszero\n      tag_134\n      jumpi\n        /* \"#utility.yul\":7374:7392   */\n      tag_135\n      tag_20\n      jump\t// in\n    tag_135:\n        /* \"#utility.yul\":7338:7394   */\n    tag_134:\n        /* \"#utility.yul\":7418:7456   */\n      tag_136\n        /* \"#utility.yul\":7450:7454   */\n      dup3\n        /* \"#utility.yul\":7444:7455   */\n      sload\n        /* \"#utility.yul\":7418:7456   */\n      tag_31\n      jump\t// in\n    tag_136:\n        /* \"#utility.yul\":7503:7570   */\n      tag_137\n        /* \"#utility.yul\":7563:7569   */\n      dup3\n        /* \"#utility.yul\":7555:7561   */\n      dup3\n        /* \"#utility.yul\":7549:7553   */\n      dup6\n        /* \"#utility.yul\":7503:7570   */\n      tag_43\n      jump\t// in\n    tag_137:\n        /* \"#utility.yul\":7597:7598   */\n      0x00\n        /* \"#utility.yul\":7621:7625   */\n      0x20\n        /* \"#utility.yul\":7608:7625   */\n      swap1\n      pop\n        /* \"#utility.yul\":7653:7655   */\n      0x1f\n        /* \"#utility.yul\":7645:7651   */\n      dup4\n        /* \"#utility.yul\":7642:7656   */\n      gt\n        /* \"#utility.yul\":7670:7671   */\n      0x01\n        /* \"#utility.yul\":7665:8283   */\n      dup2\n      eq\n      tag_139\n      jumpi\n        /* \"#utility.yul\":8327:8328   */\n      0x00\n        /* \"#utility.yul\":8344:8350   */\n      dup5\n        /* \"#utility.yul\":8341:8418   */\n      iszero\n      tag_140\n      jumpi\n        /* \"#utility.yul\":8393:8402   */\n      dup3\n        /* \"#utility.yul\":8388:8391   */\n      dup8\n        /* \"#utility.yul\":8384:8403   */\n      add\n        /* \"#utility.yul\":8378:8404   */\n      mload\n        /* \"#utility.yul\":8369:8404   */\n      swap1\n      pop\n        /* \"#utility.yul\":8341:8418   */\n    tag_140:\n        /* \"#utility.yul\":8444:8511   */\n      tag_141\n        /* \"#utility.yul\":8504:8510   */\n      dup6\n        /* \"#utility.yul\":8497:8502   */\n      dup3\n        /* \"#utility.yul\":8444:8511   */\n      tag_46\n      jump\t// in\n    tag_141:\n        /* \"#utility.yul\":8438:8442   */\n      dup7\n        /* \"#utility.yul\":8431:8512   */\n      sstore\n        /* \"#utility.yul\":8300:8522   */\n      pop\n        /* \"#utility.yul\":7635:8522   */\n      jump(tag_138)\n        /* \"#utility.yul\":7665:8283   */\n    tag_139:\n        /* \"#utility.yul\":7717:7721   */\n      0x1f\n        /* \"#utility.yul\":7713:7722   */\n      not\n        /* \"#utility.yul\":7705:7711   */\n      dup5\n        /* \"#utility.yul\":7701:7723   */\n      and\n        /* \"#utility.yul\":7751:7788   */\n      tag_142\n        /* \"#utility.yul\":7783:7787   */\n      dup7\n        /* \"#utility.yul\":7751:7788   */\n      tag_32\n      jump\t// in\n    tag_142:\n        /* \"#utility.yul\":7810:7811   */\n      0x00\n        /* \"#utility.yul\":7824:8032   */\n    tag_143:\n        /* \"#utility.yul\":7838:7845   */\n      dup3\n        /* \"#utility.yul\":7835:7836   */\n      dup2\n        /* \"#utility.yul\":7832:7846   */\n      lt\n        /* \"#utility.yul\":7824:8032   */\n      iszero\n      tag_145\n      jumpi\n        /* \"#utility.yul\":7917:7926   */\n      dup5\n        /* \"#utility.yul\":7912:7915   */\n      dup10\n        /* \"#utility.yul\":7908:7927   */\n      add\n        /* \"#utility.yul\":7902:7928   */\n      mload\n        /* \"#utility.yul\":7894:7900   */\n      dup3\n        /* \"#utility.yul\":7887:7929   */\n      sstore\n        /* \"#utility.yul\":7968:7969   */\n      0x01\n        /* \"#utility.yul\":7960:7966   */\n      dup3\n        /* \"#utility.yul\":7956:7970   */\n      add\n        /* \"#utility.yul\":7946:7970   */\n      swap2\n      pop\n        /* \"#utility.yul\":8015:8017   */\n      0x20\n        /* \"#utility.yul\":8004:8013   */\n      dup6\n        /* \"#utility.yul\":8000:8018   */\n      add\n        /* \"#utility.yul\":7987:8018   */\n      swap5\n      pop\n        /* \"#utility.yul\":7861:7865   */\n      0x20\n        /* \"#utility.yul\":7858:7859   */\n      dup2\n        /* \"#utility.yul\":7854:7866   */\n      add\n        /* \"#utility.yul\":7849:7866   */\n      swap1\n      pop\n        /* \"#utility.yul\":7824:8032   */\n      jump(tag_143)\n    tag_145:\n        /* \"#utility.yul\":8060:8066   */\n      dup7\n        /* \"#utility.yul\":8051:8058   */\n      dup4\n        /* \"#utility.yul\":8048:8067   */\n      lt\n        /* \"#utility.yul\":8045:8224   */\n      iszero\n      tag_146\n      jumpi\n        /* \"#utility.yul\":8118:8127   */\n      dup5\n        /* \"#utility.yul\":8113:8116   */\n      dup10\n        /* \"#utility.yul\":8109:8128   */\n      add\n        /* \"#utility.yul\":8103:8129   */\n      mload\n        /* \"#utility.yul\":8161:8209   */\n      tag_147\n        /* \"#utility.yul\":8203:8207   */\n      0x1f\n        /* \"#utility.yul\":8195:8201   */\n      dup10\n        /* \"#utility.yul\":8191:8208   */\n      and\n        /* \"#utility.yul\":8180:8189   */\n      dup3\n        /* \"#utility.yul\":8161:8209   */\n      tag_45\n      jump\t// in\n    tag_147:\n        /* \"#utility.yul\":8153:8159   */\n      dup4\n        /* \"#utility.yul\":8146:8210   */\n      sstore\n        /* \"#utility.yul\":8068:8224   */\n      pop\n        /* \"#utility.yul\":8045:8224   */\n    tag_146:\n        /* \"#utility.yul\":8270:8271   */\n      0x01\n        /* \"#utility.yul\":8266:8267   */\n      0x02\n        /* \"#utility.yul\":8258:8264   */\n      dup9\n        /* \"#utility.yul\":8254:8268   */\n      mul\n        /* \"#utility.yul\":8250:8272   */\n      add\n        /* \"#utility.yul\":8244:8248   */\n      dup9\n        /* \"#utility.yul\":8237:8273   */\n      sstore\n        /* \"#utility.yul\":7672:8283   */\n      pop\n      pop\n      pop\n        /* \"#utility.yul\":7635:8522   */\n    tag_138:\n      pop\n        /* \"#utility.yul\":7225:8528   */\n      pop\n      pop\n      pop\n        /* \"#utility.yul\":7133:8528   */\n      pop\n      pop\n      jump\t// out\n\n    auxdata: 0xa264697066735822122047410c9e80c2baa8f1169172ed3aa3f71236463636dc312be1c9b0bd0d9294b364736f6c63430008120033\n}\n",
				"bytecode": {
					"linkReferences": {},
					"object": "6080604052600060015534801561001557600080fd5b506106cc806100256000396000f3fe608060405234801561001057600080fd5b506004361061002b5760003560e01c8063fc5beb4a14610030575b600080fd5b61004a600480360381019061004591906102e3565b61004c565b005b60058151101561005b57600080fd5b6001600081548092919061006e90610365565b919050556000803373ffffffffffffffffffffffffffffffffffffffff1673ffffffffffffffffffffffffffffffffffffffff16815260200190815260200160002060010181905550806000803373ffffffffffffffffffffffffffffffffffffffff1673ffffffffffffffffffffffffffffffffffffffff168152602001908152602001600020600001908161010591906105c4565b50336000803373ffffffffffffffffffffffffffffffffffffffff1673ffffffffffffffffffffffffffffffffffffffff16815260200190815260200160002060020160006101000a81548173ffffffffffffffffffffffffffffffffffffffff021916908373ffffffffffffffffffffffffffffffffffffffff16021790555050565b6000604051905090565b600080fd5b600080fd5b600080fd5b600080fd5b6000601f19601f8301169050919050565b7f4e487b7100000000000000000000000000000000000000000000000000000000600052604160045260246000fd5b6101f0826101a7565b810181811067ffffffffffffffff8211171561020f5761020e6101b8565b5b80604052505050565b6000610222610189565b905061022e82826101e7565b919050565b600067ffffffffffffffff82111561024e5761024d6101b8565b5b610257826101a7565b9050602081019050919050565b82818337600083830152505050565b600061028661028184610233565b610218565b9050828152602081018484840111156102a2576102a16101a2565b5b6102ad848285610264565b509392505050565b600082601f8301126102ca576102c961019d565b5b81356102da848260208601610273565b91505092915050565b6000602082840312156102f9576102f8610193565b5b600082013567ffffffffffffffff81111561031757610316610198565b5b610323848285016102b5565b91505092915050565b7f4e487b7100000000000000000000000000000000000000000000000000000000600052601160045260246000fd5b6000819050919050565b60006103708261035b565b91507fffffffffffffffffffffffffffffffffffffffffffffffffffffffffffffffff82036103a2576103a161032c565b5b600182019050919050565b600081519050919050565b7f4e487b7100000000000000000000000000000000000000000000000000000000600052602260045260246000fd5b600060028204905060018216806103ff57607f821691505b602082108103610412576104116103b8565b5b50919050565b60008190508160005260206000209050919050565b60006020601f8301049050919050565b600082821b905092915050565b60006008830261047a7fffffffffffffffffffffffffffffffffffffffffffffffffffffffffffffffff8261043d565b610484868361043d565b95508019841693508086168417925050509392505050565b6000819050919050565b60006104c16104bc6104b78461035b565b61049c565b61035b565b9050919050565b6000819050919050565b6104db836104a6565b6104ef6104e7826104c8565b84845461044a565b825550505050565b600090565b6105046104f7565b61050f8184846104d2565b505050565b5b81811015610533576105286000826104fc565b600181019050610515565b5050565b601f8211156105785761054981610418565b6105528461042d565b81016020851015610561578190505b61057561056d8561042d565b830182610514565b50505b505050565b600082821c905092915050565b600061059b6000198460080261057d565b1980831691505092915050565b60006105b4838361058a565b9150826002028217905092915050565b6105cd826103ad565b67ffffffffffffffff8111156105e6576105e56101b8565b5b6105f082546103e7565b6105fb828285610537565b600060209050601f83116001811461062e576000841561061c578287015190505b61062685826105a8565b86555061068e565b601f19841661063c86610418565b60005b828110156106645784890151825560018201915060208501945060208101905061063f565b86831015610681578489015161067d601f89168261058a565b8355505b6001600288020188555050505b50505050505056fea264697066735822122047410c9e80c2baa8f1169172ed3aa3f71236463636dc312be1c9b0bd0d9294b364736f6c63430008120033",
					"opcodes": "PUSH1 0x80 PUSH1 0x40 MSTORE PUSH1 0x0 PUSH1 0x1 SSTORE CALLVALUE DUP1 ISZERO PUSH2 0x15 JUMPI PUSH1 0x0 DUP1 REVERT JUMPDEST POP PUSH2 0x6CC DUP1 PUSH2 0x25 PUSH1 0x0 CODECOPY PUSH1 0x0 RETURN INVALID PUSH1 0x80 PUSH1 0x40 MSTORE CALLVALUE DUP1 ISZERO PUSH2 0x10 JUMPI PUSH1 0x0 DUP1 REVERT JUMPDEST POP PUSH1 0x4 CALLDATASIZE LT PUSH2 0x2B JUMPI PUSH1 0x0 CALLDATALOAD PUSH1 0xE0 SHR DUP1 PUSH4 0xFC5BEB4A EQ PUSH2 0x30 JUMPI JUMPDEST PUSH1 0x0 DUP1 REVERT JUMPDEST PUSH2 0x4A PUSH1 0x4 DUP1 CALLDATASIZE SUB DUP2 ADD SWAP1 PUSH2 0x45 SWAP2 SWAP1 PUSH2 0x2E3 JUMP JUMPDEST PUSH2 0x4C JUMP JUMPDEST STOP JUMPDEST PUSH1 0x5 DUP2 MLOAD LT ISZERO PUSH2 0x5B JUMPI PUSH1 0x0 DUP1 REVERT JUMPDEST PUSH1 0x1 PUSH1 0x0 DUP2 SLOAD DUP1 SWAP3 SWAP2 SWAP1 PUSH2 0x6E SWAP1 PUSH2 0x365 JUMP JUMPDEST SWAP2 SWAP1 POP SSTORE PUSH1 0x0 DUP1 CALLER PUSH20 0xFFFFFFFFFFFFFFFFFFFFFFFFFFFFFFFFFFFFFFFF AND PUSH20 0xFFFFFFFFFFFFFFFFFFFFFFFFFFFFFFFFFFFFFFFF AND DUP2 MSTORE PUSH1 0x20 ADD SWAP1 DUP2 MSTORE PUSH1 0x20 ADD PUSH1 0x0 KECCAK256 PUSH1 0x1 ADD DUP2 SWAP1 SSTORE POP DUP1 PUSH1 0x0 DUP1 CALLER PUSH20 0xFFFFFFFFFFFFFFFFFFFFFFFFFFFFFFFFFFFFFFFF AND PUSH20 0xFFFFFFFFFFFFFFFFFFFFFFFFFFFFFFFFFFFFFFFF AND DUP2 MSTORE PUSH1 0x20 ADD SWAP1 DUP2 MSTORE PUSH1 0x20 ADD PUSH1 0x0 KECCAK256 PUSH1 0x0 ADD SWAP1 DUP2 PUSH2 0x105 SWAP2 SWAP1 PUSH2 0x5C4 JUMP JUMPDEST POP CALLER PUSH1 0x0 DUP1 CALLER PUSH20 0xFFFFFFFFFFFFFFFFFFFFFFFFFFFFFFFFFFFFFFFF AND PUSH20 0xFFFFFFFFFFFFFFFFFFFFFFFFFFFFFFFFFFFFFFFF AND DUP2 MSTORE PUSH1 0x20 ADD SWAP1 DUP2 MSTORE PUSH1 0x20 ADD PUSH1 0x0 KECCAK256 PUSH1 0x2 ADD PUSH1 0x0 PUSH2 0x100 EXP DUP2 SLOAD DUP2 PUSH20 0xFFFFFFFFFFFFFFFFFFFFFFFFFFFFFFFFFFFFFFFF MUL NOT AND SWAP1 DUP4 PUSH20 0xFFFFFFFFFFFFFFFFFFFFFFFFFFFFFFFFFFFFFFFF AND MUL OR SWAP1 SSTORE POP POP JUMP JUMPDEST PUSH1 0x0 PUSH1 0x40 MLOAD SWAP1 POP SWAP1 JUMP JUMPDEST PUSH1 0x0 DUP1 REVERT JUMPDEST PUSH1 0x0 DUP1 REVERT JUMPDEST PUSH1 0x0 DUP1 REVERT JUMPDEST PUSH1 0x0 DUP1 REVERT JUMPDEST PUSH1 0x0 PUSH1 0x1F NOT PUSH1 0x1F DUP4 ADD AND SWAP1 POP SWAP2 SWAP1 POP JUMP JUMPDEST PUSH32 0x4E487B7100000000000000000000000000000000000000000000000000000000 PUSH1 0x0 MSTORE PUSH1 0x41 PUSH1 0x4 MSTORE PUSH1 0x24 PUSH1 0x0 REVERT JUMPDEST PUSH2 0x1F0 DUP3 PUSH2 0x1A7 JUMP JUMPDEST DUP2 ADD DUP2 DUP2 LT PUSH8 0xFFFFFFFFFFFFFFFF DUP3 GT OR ISZERO PUSH2 0x20F JUMPI PUSH2 0x20E PUSH2 0x1B8 JUMP JUMPDEST JUMPDEST DUP1 PUSH1 0x40 MSTORE POP POP POP JUMP JUMPDEST PUSH1 0x0 PUSH2 0x222 PUSH2 0x189 JUMP JUMPDEST SWAP1 POP PUSH2 0x22E DUP3 DUP3 PUSH2 0x1E7 JUMP JUMPDEST SWAP2 SWAP1 POP JUMP JUMPDEST PUSH1 0x0 PUSH8 0xFFFFFFFFFFFFFFFF DUP3 GT ISZERO PUSH2 0x24E JUMPI PUSH2 0x24D PUSH2 0x1B8 JUMP JUMPDEST JUMPDEST PUSH2 0x257 DUP3 PUSH2 0x1A7 JUMP JUMPDEST SWAP1 POP PUSH1 0x20 DUP2 ADD SWAP1 POP SWAP2 SWAP1 POP JUMP JUMPDEST DUP3 DUP2 DUP4 CALLDATACOPY PUSH1 0x0 DUP4 DUP4 ADD MSTORE POP POP POP JUMP JUMPDEST PUSH1 0x0 PUSH2 0x286 PUSH2 0x281 DUP5 PUSH2 0x233 JUMP JUMPDEST PUSH2 0x218 JUMP JUMPDEST SWAP1 POP DUP3 DUP2 MSTORE PUSH1 0x20 DUP2 ADD DUP5 DUP5 DUP5 ADD GT ISZERO PUSH2 0x2A2 JUMPI PUSH2 0x2A1 PUSH2 0x1A2 JUMP JUMPDEST JUMPDEST PUSH2 0x2AD DUP5 DUP3 DUP6 PUSH2 0x264 JUMP JUMPDEST POP SWAP4 SWAP3 POP POP POP JUMP JUMPDEST PUSH1 0x0 DUP3 PUSH1 0x1F DUP4 ADD SLT PUSH2 0x2CA JUMPI PUSH2 0x2C9 PUSH2 0x19D JUMP JUMPDEST JUMPDEST DUP2 CALLDATALOAD PUSH2 0x2DA DUP5 DUP3 PUSH1 0x20 DUP7 ADD PUSH2 0x273 JUMP JUMPDEST SWAP2 POP POP SWAP3 SWAP2 POP POP JUMP JUMPDEST PUSH1 0x0 PUSH1 0x20 DUP3 DUP5 SUB SLT ISZERO PUSH2 0x2F9 JUMPI PUSH2 0x2F8 PUSH2 0x193 JUMP JUMPDEST JUMPDEST PUSH1 0x0 DUP3 ADD CALLDATALOAD PUSH8 0xFFFFFFFFFFFFFFFF DUP2 GT ISZERO PUSH2 0x317 JUMPI PUSH2 0x316 PUSH2 0x198 JUMP JUMPDEST JUMPDEST PUSH2 0x323 DUP5 DUP3 DUP6 ADD PUSH2 0x2B5 JUMP JUMPDEST SWAP2 POP POP SWAP3 SWAP2 POP POP JUMP JUMPDEST PUSH32 0x4E487B7100000000000000000000000000000000000000000000000000000000 PUSH1 0x0 MSTORE PUSH1 0x11 PUSH1 0x4 MSTORE PUSH1 0x24 PUSH1 0x0 REVERT JUMPDEST PUSH1 0x0 DUP2 SWAP1 POP SWAP2 SWAP1 POP JUMP JUMPDEST PUSH1 0x0 PUSH2 0x370 DUP3 PUSH2 0x35B JUMP JUMPDEST SWAP2 POP PUSH32 0xFFFFFFFFFFFFFFFFFFFFFFFFFFFFFFFFFFFFFFFFFFFFFFFFFFFFFFFFFFFFFFFF DUP3 SUB PUSH2 0x3A2 JUMPI PUSH2 0x3A1 PUSH2 0x32C JUMP JUMPDEST JUMPDEST PUSH1 0x1 DUP3 ADD SWAP1 POP SWAP2 SWAP1 POP JUMP JUMPDEST PUSH1 0x0 DUP2 MLOAD SWAP1 POP SWAP2 SWAP1 POP JUMP JUMPDEST PUSH32 0x4E487B7100000000000000000000000000000000000000000000000000000000 PUSH1 0x0 MSTORE PUSH1 0x22 PUSH1 0x4 MSTORE PUSH1 0x24 PUSH1 0x0 REVERT JUMPDEST PUSH1 0x0 PUSH1 0x2 DUP3 DIV SWAP1 POP PUSH1 0x1 DUP3 AND DUP1 PUSH2 0x3FF JUMPI PUSH1 0x7F DUP3 AND SWAP2 POP JUMPDEST PUSH1 0x20 DUP3 LT DUP2 SUB PUSH2 0x412 JUMPI PUSH2 0x411 PUSH2 0x3B8 JUMP JUMPDEST JUMPDEST POP SWAP2 SWAP1 POP JUMP JUMPDEST PUSH1 0x0 DUP2 SWAP1 POP DUP2 PUSH1 0x0 MSTORE PUSH1 0x20 PUSH1 0x0 KECCAK256 SWAP1 POP SWAP2 SWAP1 POP JUMP JUMPDEST PUSH1 0x0 PUSH1 0x20 PUSH1 0x1F DUP4 ADD DIV SWAP1 POP SWAP2 SWAP1 POP JUMP JUMPDEST PUSH1 0x0 DUP3 DUP3 SHL SWAP1 POP SWAP3 SWAP2 POP POP JUMP JUMPDEST PUSH1 0x0 PUSH1 0x8 DUP4 MUL PUSH2 0x47A PUSH32 0xFFFFFFFFFFFFFFFFFFFFFFFFFFFFFFFFFFFFFFFFFFFFFFFFFFFFFFFFFFFFFFFF DUP3 PUSH2 0x43D JUMP JUMPDEST PUSH2 0x484 DUP7 DUP4 PUSH2 0x43D JUMP JUMPDEST SWAP6 POP DUP1 NOT DUP5 AND SWAP4 POP DUP1 DUP7 AND DUP5 OR SWAP3 POP POP POP SWAP4 SWAP3 POP POP POP JUMP JUMPDEST PUSH1 0x0 DUP2 SWAP1 POP SWAP2 SWAP1 POP JUMP JUMPDEST PUSH1 0x0 PUSH2 0x4C1 PUSH2 0x4BC PUSH2 0x4B7 DUP5 PUSH2 0x35B JUMP JUMPDEST PUSH2 0x49C JUMP JUMPDEST PUSH2 0x35B JUMP JUMPDEST SWAP1 POP SWAP2 SWAP1 POP JUMP JUMPDEST PUSH1 0x0 DUP2 SWAP1 POP SWAP2 SWAP1 POP JUMP JUMPDEST PUSH2 0x4DB DUP4 PUSH2 0x4A6 JUMP JUMPDEST PUSH2 0x4EF PUSH2 0x4E7 DUP3 PUSH2 0x4C8 JUMP JUMPDEST DUP5 DUP5 SLOAD PUSH2 0x44A JUMP JUMPDEST DUP3 SSTORE POP POP POP POP JUMP JUMPDEST PUSH1 0x0 SWAP1 JUMP JUMPDEST PUSH2 0x504 PUSH2 0x4F7 JUMP JUMPDEST PUSH2 0x50F DUP2 DUP5 DUP5 PUSH2 0x4D2 JUMP JUMPDEST POP POP POP JUMP JUMPDEST JUMPDEST DUP2 DUP2 LT ISZERO PUSH2 0x533 JUMPI PUSH2 0x528 PUSH1 0x0 DUP3 PUSH2 0x4FC JUMP JUMPDEST PUSH1 0x1 DUP2 ADD SWAP1 POP PUSH2 0x515 JUMP JUMPDEST POP POP JUMP JUMPDEST PUSH1 0x1F DUP3 GT ISZERO PUSH2 0x578 JUMPI PUSH2 0x549 DUP2 PUSH2 0x418 JUMP JUMPDEST PUSH2 0x552 DUP5 PUSH2 0x42D JUMP JUMPDEST DUP2 ADD PUSH1 0x20 DUP6 LT ISZERO PUSH2 0x561 JUMPI DUP2 SWAP1 POP JUMPDEST PUSH2 0x575 PUSH2 0x56D DUP6 PUSH2 0x42D JUMP JUMPDEST DUP4 ADD DUP3 PUSH2 0x514 JUMP JUMPDEST POP POP JUMPDEST POP POP POP JUMP JUMPDEST PUSH1 0x0 DUP3 DUP3 SHR SWAP1 POP SWAP3 SWAP2 POP POP JUMP JUMPDEST PUSH1 0x0 PUSH2 0x59B PUSH1 0x0 NOT DUP5 PUSH1 0x8 MUL PUSH2 0x57D JUMP JUMPDEST NOT DUP1 DUP4 AND SWAP2 POP POP SWAP3 SWAP2 POP POP JUMP JUMPDEST PUSH1 0x0 PUSH2 0x5B4 DUP4 DUP4 PUSH2 0x58A JUMP JUMPDEST SWAP2 POP DUP3 PUSH1 0x2 MUL DUP3 OR SWAP1 POP SWAP3 SWAP2 POP POP JUMP JUMPDEST PUSH2 0x5CD DUP3 PUSH2 0x3AD JUMP JUMPDEST PUSH8 0xFFFFFFFFFFFFFFFF DUP2 GT ISZERO PUSH2 0x5E6 JUMPI PUSH2 0x5E5 PUSH2 0x1B8 JUMP JUMPDEST JUMPDEST PUSH2 0x5F0 DUP3 SLOAD PUSH2 0x3E7 JUMP JUMPDEST PUSH2 0x5FB DUP3 DUP3 DUP6 PUSH2 0x537 JUMP JUMPDEST PUSH1 0x0 PUSH1 0x20 SWAP1 POP PUSH1 0x1F DUP4 GT PUSH1 0x1 DUP2 EQ PUSH2 0x62E JUMPI PUSH1 0x0 DUP5 ISZERO PUSH2 0x61C JUMPI DUP3 DUP8 ADD MLOAD SWAP1 POP JUMPDEST PUSH2 0x626 DUP6 DUP3 PUSH2 0x5A8 JUMP JUMPDEST DUP7 SSTORE POP PUSH2 0x68E JUMP JUMPDEST PUSH1 0x1F NOT DUP5 AND PUSH2 0x63C DUP7 PUSH2 0x418 JUMP JUMPDEST PUSH1 0x0 JUMPDEST DUP3 DUP2 LT ISZERO PUSH2 0x664 JUMPI DUP5 DUP10 ADD MLOAD DUP3 SSTORE PUSH1 0x1 DUP3 ADD SWAP2 POP PUSH1 0x20 DUP6 ADD SWAP5 POP PUSH1 0x20 DUP2 ADD SWAP1 POP PUSH2 0x63F JUMP JUMPDEST DUP7 DUP4 LT ISZERO PUSH2 0x681 JUMPI DUP5 DUP10 ADD MLOAD PUSH2 0x67D PUSH1 0x1F DUP10 AND DUP3 PUSH2 0x58A JUMP JUMPDEST DUP4 SSTORE POP JUMPDEST PUSH1 0x1 PUSH1 0x2 DUP9 MUL ADD DUP9 SSTORE POP POP POP JUMPDEST POP POP POP POP POP POP JUMP INVALID LOG2 PUSH5 0x6970667358 0x22 SLT KECCAK256 SELFBALANCE COINBASE 0xC SWAP15 DUP1 0xC2 0xBA 0xA8 CALL AND SWAP2 PUSH19 0xED3AA3F71236463636DC312BE1C9B0BD0D9294 0xB3 PUSH5 0x736F6C6343 STOP ADDMOD SLT STOP CALLER "
				},
				"gasEstimates": {
					"creation": {
						"codeDepositCost": "348000",
						"executionCost": "5392",
						"totalCost": "353392"
					},
					"external": {
						"new_user(string)": "infinite"
					}
				},
				"methodIdentifiers": {
					"new_user(string)": "fc5beb4a"
				}
			},
			"storageLayout": {
				"storage": [
					{
						"astId": 41,
						"contract": "contract/solidity_41~50.sol:Q42",
						"label": "db",
						"offset": 0,
						"slot": "0",
						"type": "t_mapping(t_address,t_struct(u_type)36_storage)"
					},
					{
						"astId": 44,
						"contract": "contract/solidity_41~50.sol:Q42",
						"label": "u_cnt",
						"offset": 0,
						"slot": "1",
						"type": "t_uint256"
					}
				],
				"types": {
					"t_address": {
						"encoding": "inplace",
						"label": "address",
						"numberOfBytes": "20"
					},
					"t_mapping(t_address,t_struct(u_type)36_storage)": {
						"encoding": "mapping",
						"key": "t_address",
						"label": "mapping(address => struct Q42.u_type)",
						"numberOfBytes": "32",
						"value": "t_struct(u_type)36_storage"
					},
					"t_string_storage": {
						"encoding": "bytes",
						"label": "string",
						"numberOfBytes": "32"
					},
					"t_struct(u_type)36_storage": {
						"encoding": "inplace",
						"label": "struct Q42.u_type",
						"members": [
							{
								"astId": 31,
								"contract": "contract/solidity_41~50.sol:Q42",
								"label": "name",
								"offset": 0,
								"slot": "0",
								"type": "t_string_storage"
							},
							{
								"astId": 33,
								"contract": "contract/solidity_41~50.sol:Q42",
								"label": "number",
								"offset": 0,
								"slot": "1",
								"type": "t_uint256"
							},
							{
								"astId": 35,
								"contract": "contract/solidity_41~50.sol:Q42",
								"label": "add",
								"offset": 0,
								"slot": "2",
								"type": "t_address"
							}
						],
						"numberOfBytes": "96"
					},
					"t_uint256": {
						"encoding": "inplace",
						"label": "uint256",
						"numberOfBytes": "32"
					}
				}
			},
			"userdoc": {
				"kind": "user",
				"methods": {},
				"version": 1
			}
		}
	}
}