{
	"contract/solidity_41~50.sol": {
		"Q44": {
			"abi": [
				{
					"inputs": [
						{
							"internalType": "uint256",
							"name": "",
							"type": "uint256"
						}
					],
					"name": "letter",
					"outputs": [
						{
							"internalType": "string",
							"name": "",
							"type": "string"
						}
					],
					"stateMutability": "view",
					"type": "function"
				},
				{
					"inputs": [
						{
							"internalType": "string",
							"name": "_input",
							"type": "string"
						}
					],
					"name": "setLetters",
					"outputs": [],
					"stateMutability": "nonpayable",
					"type": "function"
				}
			],
			"devdoc": {
				"kind": "dev",
				"methods": {},
				"version": 1
			},
			"evm": {
				"assembly": "    /* \"contract/solidity_41~50.sol\":2181:2382  contract Q44 {... */\n  mstore(0x40, 0x80)\n  callvalue\n  dup1\n  iszero\n  tag_1\n  jumpi\n  0x00\n  dup1\n  revert\ntag_1:\n  pop\n  dataSize(sub_0)\n  dup1\n  dataOffset(sub_0)\n  0x00\n  codecopy\n  0x00\n  return\nstop\n\nsub_0: assembly {\n        /* \"contract/solidity_41~50.sol\":2181:2382  contract Q44 {... */\n      mstore(0x40, 0x80)\n      callvalue\n      dup1\n      iszero\n      tag_1\n      jumpi\n      0x00\n      dup1\n      revert\n    tag_1:\n      pop\n      jumpi(tag_2, lt(calldatasize, 0x04))\n      shr(0xe0, calldataload(0x00))\n      dup1\n      0xb9ff5ec9\n      eq\n      tag_3\n      jumpi\n      dup1\n      0xca424bcf\n      eq\n      tag_4\n      jumpi\n    tag_2:\n      0x00\n      dup1\n      revert\n        /* \"contract/solidity_41~50.sol\":2201:2223  string[] public letter */\n    tag_3:\n      tag_5\n      0x04\n      dup1\n      calldatasize\n      sub\n      dup2\n      add\n      swap1\n      tag_6\n      swap2\n      swap1\n      tag_7\n      jump\t// in\n    tag_6:\n      tag_8\n      jump\t// in\n    tag_5:\n      mload(0x40)\n      tag_9\n      swap2\n      swap1\n      tag_10\n      jump\t// in\n    tag_9:\n      mload(0x40)\n      dup1\n      swap2\n      sub\n      swap1\n      return\n        /* \"contract/solidity_41~50.sol\":2237:2379  function setLetters( string memory _input ) public {... */\n    tag_4:\n      tag_11\n      0x04\n      dup1\n      calldatasize\n      sub\n      dup2\n      add\n      swap1\n      tag_12\n      swap2\n      swap1\n      tag_13\n      jump\t// in\n    tag_12:\n      tag_14\n      jump\t// in\n    tag_11:\n      stop\n        /* \"contract/solidity_41~50.sol\":2201:2223  string[] public letter */\n    tag_8:\n      0x00\n      dup2\n      dup2\n      sload\n      dup2\n      lt\n      tag_15\n      jumpi\n      0x00\n      dup1\n      revert\n    tag_15:\n      swap1\n      0x00\n      mstore\n      keccak256(0x00, 0x20)\n      add\n      0x00\n      swap2\n      pop\n      swap1\n      pop\n      dup1\n      sload\n      tag_17\n      swap1\n      tag_18\n      jump\t// in\n    tag_17:\n      dup1\n      0x1f\n      add\n      0x20\n      dup1\n      swap2\n      div\n      mul\n      0x20\n      add\n      mload(0x40)\n      swap1\n      dup2\n      add\n      0x40\n      mstore\n      dup1\n      swap3\n      swap2\n      swap1\n      dup2\n      dup2\n      mstore\n      0x20\n      add\n      dup3\n      dup1\n      sload\n      tag_19\n      swap1\n      tag_18\n      jump\t// in\n    tag_19:\n      dup1\n      iszero\n      tag_20\n      jumpi\n      dup1\n      0x1f\n      lt\n      tag_21\n      jumpi\n      0x0100\n      dup1\n      dup4\n      sload\n      div\n      mul\n      dup4\n      mstore\n      swap2\n      0x20\n      add\n      swap2\n      jump(tag_20)\n    tag_21:\n      dup3\n      add\n      swap2\n      swap1\n      0x00\n      mstore\n      keccak256(0x00, 0x20)\n      swap1\n    tag_22:\n      dup2\n      sload\n      dup2\n      mstore\n      swap1\n      0x01\n      add\n      swap1\n      0x20\n      add\n      dup1\n      dup4\n      gt\n      tag_22\n      jumpi\n      dup3\n      swap1\n      sub\n      0x1f\n      and\n      dup3\n      add\n      swap2\n    tag_20:\n      pop\n      pop\n      pop\n      pop\n      pop\n      dup2\n      jump\t// out\n        /* \"contract/solidity_41~50.sol\":2237:2379  function setLetters( string memory _input ) public {... */\n    tag_14:\n        /* \"contract/solidity_41~50.sol\":2334:2335  4 */\n      0x04\n        /* \"contract/solidity_41~50.sol\":2315:2321  _input */\n      dup2\n        /* \"contract/solidity_41~50.sol\":2308:2330  bytes( _input ).length */\n      mload\n        /* \"contract/solidity_41~50.sol\":2308:2335  bytes( _input ).length >= 4 */\n      lt\n      iszero\n        /* \"contract/solidity_41~50.sol\":2299:2337  require( bytes( _input ).length >= 4 ) */\n      tag_24\n      jumpi\n      0x00\n      dup1\n      revert\n    tag_24:\n        /* \"contract/solidity_41~50.sol\":2349:2355  letter */\n      0x00\n        /* \"contract/solidity_41~50.sol\":2362:2368  _input */\n      dup2\n        /* \"contract/solidity_41~50.sol\":2349:2370  letter.push( _input ) */\n      swap1\n      dup1\n      0x01\n      dup2\n      sload\n      add\n      dup1\n      dup3\n      sstore\n      dup1\n      swap2\n      pop\n      pop\n      0x01\n      swap1\n      sub\n      swap1\n      0x00\n      mstore\n      keccak256(0x00, 0x20)\n      add\n      0x00\n      swap1\n      swap2\n      swap1\n      swap2\n      swap1\n      swap2\n      pop\n      swap1\n      dup2\n      tag_26\n      swap2\n      swap1\n      tag_27\n      jump\t// in\n    tag_26:\n      pop\n        /* \"contract/solidity_41~50.sol\":2237:2379  function setLetters( string memory _input ) public {... */\n      pop\n      jump\t// out\n        /* \"#utility.yul\":7:82   */\n    tag_28:\n        /* \"#utility.yul\":40:46   */\n      0x00\n        /* \"#utility.yul\":73:75   */\n      0x40\n        /* \"#utility.yul\":67:76   */\n      mload\n        /* \"#utility.yul\":57:76   */\n      swap1\n      pop\n        /* \"#utility.yul\":7:82   */\n      swap1\n      jump\t// out\n        /* \"#utility.yul\":88:205   */\n    tag_29:\n        /* \"#utility.yul\":197:198   */\n      0x00\n        /* \"#utility.yul\":194:195   */\n      dup1\n        /* \"#utility.yul\":187:199   */\n      revert\n        /* \"#utility.yul\":211:328   */\n    tag_30:\n        /* \"#utility.yul\":320:321   */\n      0x00\n        /* \"#utility.yul\":317:318   */\n      dup1\n        /* \"#utility.yul\":310:322   */\n      revert\n        /* \"#utility.yul\":334:411   */\n    tag_31:\n        /* \"#utility.yul\":371:378   */\n      0x00\n        /* \"#utility.yul\":400:405   */\n      dup2\n        /* \"#utility.yul\":389:405   */\n      swap1\n      pop\n        /* \"#utility.yul\":334:411   */\n      swap2\n      swap1\n      pop\n      jump\t// out\n        /* \"#utility.yul\":417:539   */\n    tag_32:\n        /* \"#utility.yul\":490:514   */\n      tag_70\n        /* \"#utility.yul\":508:513   */\n      dup2\n        /* \"#utility.yul\":490:514   */\n      tag_31\n      jump\t// in\n    tag_70:\n        /* \"#utility.yul\":483:488   */\n      dup2\n        /* \"#utility.yul\":480:515   */\n      eq\n        /* \"#utility.yul\":470:533   */\n      tag_71\n      jumpi\n        /* \"#utility.yul\":529:530   */\n      0x00\n        /* \"#utility.yul\":526:527   */\n      dup1\n        /* \"#utility.yul\":519:531   */\n      revert\n        /* \"#utility.yul\":470:533   */\n    tag_71:\n        /* \"#utility.yul\":417:539   */\n      pop\n      jump\t// out\n        /* \"#utility.yul\":545:684   */\n    tag_33:\n        /* \"#utility.yul\":591:596   */\n      0x00\n        /* \"#utility.yul\":629:635   */\n      dup2\n        /* \"#utility.yul\":616:636   */\n      calldataload\n        /* \"#utility.yul\":607:636   */\n      swap1\n      pop\n        /* \"#utility.yul\":645:678   */\n      tag_73\n        /* \"#utility.yul\":672:677   */\n      dup2\n        /* \"#utility.yul\":645:678   */\n      tag_32\n      jump\t// in\n    tag_73:\n        /* \"#utility.yul\":545:684   */\n      swap3\n      swap2\n      pop\n      pop\n      jump\t// out\n        /* \"#utility.yul\":690:1019   */\n    tag_7:\n        /* \"#utility.yul\":749:755   */\n      0x00\n        /* \"#utility.yul\":798:800   */\n      0x20\n        /* \"#utility.yul\":786:795   */\n      dup3\n        /* \"#utility.yul\":777:784   */\n      dup5\n        /* \"#utility.yul\":773:796   */\n      sub\n        /* \"#utility.yul\":769:801   */\n      slt\n        /* \"#utility.yul\":766:885   */\n      iszero\n      tag_75\n      jumpi\n        /* \"#utility.yul\":804:883   */\n      tag_76\n      tag_29\n      jump\t// in\n    tag_76:\n        /* \"#utility.yul\":766:885   */\n    tag_75:\n        /* \"#utility.yul\":924:925   */\n      0x00\n        /* \"#utility.yul\":949:1002   */\n      tag_77\n        /* \"#utility.yul\":994:1001   */\n      dup5\n        /* \"#utility.yul\":985:991   */\n      dup3\n        /* \"#utility.yul\":974:983   */\n      dup6\n        /* \"#utility.yul\":970:992   */\n      add\n        /* \"#utility.yul\":949:1002   */\n      tag_33\n      jump\t// in\n    tag_77:\n        /* \"#utility.yul\":939:1002   */\n      swap2\n      pop\n        /* \"#utility.yul\":895:1012   */\n      pop\n        /* \"#utility.yul\":690:1019   */\n      swap3\n      swap2\n      pop\n      pop\n      jump\t// out\n        /* \"#utility.yul\":1025:1124   */\n    tag_34:\n        /* \"#utility.yul\":1077:1083   */\n      0x00\n        /* \"#utility.yul\":1111:1116   */\n      dup2\n        /* \"#utility.yul\":1105:1117   */\n      mload\n        /* \"#utility.yul\":1095:1117   */\n      swap1\n      pop\n        /* \"#utility.yul\":1025:1124   */\n      swap2\n      swap1\n      pop\n      jump\t// out\n        /* \"#utility.yul\":1130:1299   */\n    tag_35:\n        /* \"#utility.yul\":1214:1225   */\n      0x00\n        /* \"#utility.yul\":1248:1254   */\n      dup3\n        /* \"#utility.yul\":1243:1246   */\n      dup3\n        /* \"#utility.yul\":1236:1255   */\n      mstore\n        /* \"#utility.yul\":1288:1292   */\n      0x20\n        /* \"#utility.yul\":1283:1286   */\n      dup3\n        /* \"#utility.yul\":1279:1293   */\n      add\n        /* \"#utility.yul\":1264:1293   */\n      swap1\n      pop\n        /* \"#utility.yul\":1130:1299   */\n      swap3\n      swap2\n      pop\n      pop\n      jump\t// out\n        /* \"#utility.yul\":1305:1551   */\n    tag_36:\n        /* \"#utility.yul\":1386:1387   */\n      0x00\n        /* \"#utility.yul\":1396:1509   */\n    tag_81:\n        /* \"#utility.yul\":1410:1416   */\n      dup4\n        /* \"#utility.yul\":1407:1408   */\n      dup2\n        /* \"#utility.yul\":1404:1417   */\n      lt\n        /* \"#utility.yul\":1396:1509   */\n      iszero\n      tag_83\n      jumpi\n        /* \"#utility.yul\":1495:1496   */\n      dup1\n        /* \"#utility.yul\":1490:1493   */\n      dup3\n        /* \"#utility.yul\":1486:1497   */\n      add\n        /* \"#utility.yul\":1480:1498   */\n      mload\n        /* \"#utility.yul\":1476:1477   */\n      dup2\n        /* \"#utility.yul\":1471:1474   */\n      dup5\n        /* \"#utility.yul\":1467:1478   */\n      add\n        /* \"#utility.yul\":1460:1499   */\n      mstore\n        /* \"#utility.yul\":1432:1434   */\n      0x20\n        /* \"#utility.yul\":1429:1430   */\n      dup2\n        /* \"#utility.yul\":1425:1435   */\n      add\n        /* \"#utility.yul\":1420:1435   */\n      swap1\n      pop\n        /* \"#utility.yul\":1396:1509   */\n      jump(tag_81)\n    tag_83:\n        /* \"#utility.yul\":1543:1544   */\n      0x00\n        /* \"#utility.yul\":1534:1540   */\n      dup5\n        /* \"#utility.yul\":1529:1532   */\n      dup5\n        /* \"#utility.yul\":1525:1541   */\n      add\n        /* \"#utility.yul\":1518:1545   */\n      mstore\n        /* \"#utility.yul\":1367:1551   */\n      pop\n        /* \"#utility.yul\":1305:1551   */\n      pop\n      pop\n      pop\n      jump\t// out\n        /* \"#utility.yul\":1557:1659   */\n    tag_37:\n        /* \"#utility.yul\":1598:1604   */\n      0x00\n        /* \"#utility.yul\":1649:1651   */\n      0x1f\n        /* \"#utility.yul\":1645:1652   */\n      not\n        /* \"#utility.yul\":1640:1642   */\n      0x1f\n        /* \"#utility.yul\":1633:1638   */\n      dup4\n        /* \"#utility.yul\":1629:1643   */\n      add\n        /* \"#utility.yul\":1625:1653   */\n      and\n        /* \"#utility.yul\":1615:1653   */\n      swap1\n      pop\n        /* \"#utility.yul\":1557:1659   */\n      swap2\n      swap1\n      pop\n      jump\t// out\n        /* \"#utility.yul\":1665:2042   */\n    tag_38:\n        /* \"#utility.yul\":1753:1756   */\n      0x00\n        /* \"#utility.yul\":1781:1820   */\n      tag_86\n        /* \"#utility.yul\":1814:1819   */\n      dup3\n        /* \"#utility.yul\":1781:1820   */\n      tag_34\n      jump\t// in\n    tag_86:\n        /* \"#utility.yul\":1836:1907   */\n      tag_87\n        /* \"#utility.yul\":1900:1906   */\n      dup2\n        /* \"#utility.yul\":1895:1898   */\n      dup6\n        /* \"#utility.yul\":1836:1907   */\n      tag_35\n      jump\t// in\n    tag_87:\n        /* \"#utility.yul\":1829:1907   */\n      swap4\n      pop\n        /* \"#utility.yul\":1916:1981   */\n      tag_88\n        /* \"#utility.yul\":1974:1980   */\n      dup2\n        /* \"#utility.yul\":1969:1972   */\n      dup6\n        /* \"#utility.yul\":1962:1966   */\n      0x20\n        /* \"#utility.yul\":1955:1960   */\n      dup7\n        /* \"#utility.yul\":1951:1967   */\n      add\n        /* \"#utility.yul\":1916:1981   */\n      tag_36\n      jump\t// in\n    tag_88:\n        /* \"#utility.yul\":2006:2035   */\n      tag_89\n        /* \"#utility.yul\":2028:2034   */\n      dup2\n        /* \"#utility.yul\":2006:2035   */\n      tag_37\n      jump\t// in\n    tag_89:\n        /* \"#utility.yul\":2001:2004   */\n      dup5\n        /* \"#utility.yul\":1997:2036   */\n      add\n        /* \"#utility.yul\":1990:2036   */\n      swap2\n      pop\n        /* \"#utility.yul\":1757:2042   */\n      pop\n        /* \"#utility.yul\":1665:2042   */\n      swap3\n      swap2\n      pop\n      pop\n      jump\t// out\n        /* \"#utility.yul\":2048:2361   */\n    tag_10:\n        /* \"#utility.yul\":2161:2165   */\n      0x00\n        /* \"#utility.yul\":2199:2201   */\n      0x20\n        /* \"#utility.yul\":2188:2197   */\n      dup3\n        /* \"#utility.yul\":2184:2202   */\n      add\n        /* \"#utility.yul\":2176:2202   */\n      swap1\n      pop\n        /* \"#utility.yul\":2248:2257   */\n      dup2\n        /* \"#utility.yul\":2242:2246   */\n      dup2\n        /* \"#utility.yul\":2238:2258   */\n      sub\n        /* \"#utility.yul\":2234:2235   */\n      0x00\n        /* \"#utility.yul\":2223:2232   */\n      dup4\n        /* \"#utility.yul\":2219:2236   */\n      add\n        /* \"#utility.yul\":2212:2259   */\n      mstore\n        /* \"#utility.yul\":2276:2354   */\n      tag_91\n        /* \"#utility.yul\":2349:2353   */\n      dup2\n        /* \"#utility.yul\":2340:2346   */\n      dup5\n        /* \"#utility.yul\":2276:2354   */\n      tag_38\n      jump\t// in\n    tag_91:\n        /* \"#utility.yul\":2268:2354   */\n      swap1\n      pop\n        /* \"#utility.yul\":2048:2361   */\n      swap3\n      swap2\n      pop\n      pop\n      jump\t// out\n        /* \"#utility.yul\":2367:2484   */\n    tag_39:\n        /* \"#utility.yul\":2476:2477   */\n      0x00\n        /* \"#utility.yul\":2473:2474   */\n      dup1\n        /* \"#utility.yul\":2466:2478   */\n      revert\n        /* \"#utility.yul\":2490:2607   */\n    tag_40:\n        /* \"#utility.yul\":2599:2600   */\n      0x00\n        /* \"#utility.yul\":2596:2597   */\n      dup1\n        /* \"#utility.yul\":2589:2601   */\n      revert\n        /* \"#utility.yul\":2613:2793   */\n    tag_41:\n        /* \"#utility.yul\":2661:2738   */\n      0x4e487b7100000000000000000000000000000000000000000000000000000000\n        /* \"#utility.yul\":2658:2659   */\n      0x00\n        /* \"#utility.yul\":2651:2739   */\n      mstore\n        /* \"#utility.yul\":2758:2762   */\n      0x41\n        /* \"#utility.yul\":2755:2756   */\n      0x04\n        /* \"#utility.yul\":2748:2763   */\n      mstore\n        /* \"#utility.yul\":2782:2786   */\n      0x24\n        /* \"#utility.yul\":2779:2780   */\n      0x00\n        /* \"#utility.yul\":2772:2787   */\n      revert\n        /* \"#utility.yul\":2799:3080   */\n    tag_42:\n        /* \"#utility.yul\":2882:2909   */\n      tag_96\n        /* \"#utility.yul\":2904:2908   */\n      dup3\n        /* \"#utility.yul\":2882:2909   */\n      tag_37\n      jump\t// in\n    tag_96:\n        /* \"#utility.yul\":2874:2880   */\n      dup2\n        /* \"#utility.yul\":2870:2910   */\n      add\n        /* \"#utility.yul\":3012:3018   */\n      dup2\n        /* \"#utility.yul\":3000:3010   */\n      dup2\n        /* \"#utility.yul\":2997:3019   */\n      lt\n        /* \"#utility.yul\":2976:2994   */\n      0xffffffffffffffff\n        /* \"#utility.yul\":2964:2974   */\n      dup3\n        /* \"#utility.yul\":2961:2995   */\n      gt\n        /* \"#utility.yul\":2958:3020   */\n      or\n        /* \"#utility.yul\":2955:3043   */\n      iszero\n      tag_97\n      jumpi\n        /* \"#utility.yul\":3023:3041   */\n      tag_98\n      tag_41\n      jump\t// in\n    tag_98:\n        /* \"#utility.yul\":2955:3043   */\n    tag_97:\n        /* \"#utility.yul\":3063:3073   */\n      dup1\n        /* \"#utility.yul\":3059:3061   */\n      0x40\n        /* \"#utility.yul\":3052:3074   */\n      mstore\n        /* \"#utility.yul\":2842:3080   */\n      pop\n        /* \"#utility.yul\":2799:3080   */\n      pop\n      pop\n      jump\t// out\n        /* \"#utility.yul\":3086:3215   */\n    tag_43:\n        /* \"#utility.yul\":3120:3126   */\n      0x00\n        /* \"#utility.yul\":3147:3167   */\n      tag_100\n      tag_28\n      jump\t// in\n    tag_100:\n        /* \"#utility.yul\":3137:3167   */\n      swap1\n      pop\n        /* \"#utility.yul\":3176:3209   */\n      tag_101\n        /* \"#utility.yul\":3204:3208   */\n      dup3\n        /* \"#utility.yul\":3196:3202   */\n      dup3\n        /* \"#utility.yul\":3176:3209   */\n      tag_42\n      jump\t// in\n    tag_101:\n        /* \"#utility.yul\":3086:3215   */\n      swap2\n      swap1\n      pop\n      jump\t// out\n        /* \"#utility.yul\":3221:3529   */\n    tag_44:\n        /* \"#utility.yul\":3283:3287   */\n      0x00\n        /* \"#utility.yul\":3373:3391   */\n      0xffffffffffffffff\n        /* \"#utility.yul\":3365:3371   */\n      dup3\n        /* \"#utility.yul\":3362:3392   */\n      gt\n        /* \"#utility.yul\":3359:3415   */\n      iszero\n      tag_103\n      jumpi\n        /* \"#utility.yul\":3395:3413   */\n      tag_104\n      tag_41\n      jump\t// in\n    tag_104:\n        /* \"#utility.yul\":3359:3415   */\n    tag_103:\n        /* \"#utility.yul\":3433:3462   */\n      tag_105\n        /* \"#utility.yul\":3455:3461   */\n      dup3\n        /* \"#utility.yul\":3433:3462   */\n      tag_37\n      jump\t// in\n    tag_105:\n        /* \"#utility.yul\":3425:3462   */\n      swap1\n      pop\n        /* \"#utility.yul\":3517:3521   */\n      0x20\n        /* \"#utility.yul\":3511:3515   */\n      dup2\n        /* \"#utility.yul\":3507:3522   */\n      add\n        /* \"#utility.yul\":3499:3522   */\n      swap1\n      pop\n        /* \"#utility.yul\":3221:3529   */\n      swap2\n      swap1\n      pop\n      jump\t// out\n        /* \"#utility.yul\":3535:3681   */\n    tag_45:\n        /* \"#utility.yul\":3632:3638   */\n      dup3\n        /* \"#utility.yul\":3627:3630   */\n      dup2\n        /* \"#utility.yul\":3622:3625   */\n      dup4\n        /* \"#utility.yul\":3609:3639   */\n      calldatacopy\n        /* \"#utility.yul\":3673:3674   */\n      0x00\n        /* \"#utility.yul\":3664:3670   */\n      dup4\n        /* \"#utility.yul\":3659:3662   */\n      dup4\n        /* \"#utility.yul\":3655:3671   */\n      add\n        /* \"#utility.yul\":3648:3675   */\n      mstore\n        /* \"#utility.yul\":3535:3681   */\n      pop\n      pop\n      pop\n      jump\t// out\n        /* \"#utility.yul\":3687:4112   */\n    tag_46:\n        /* \"#utility.yul\":3765:3770   */\n      0x00\n        /* \"#utility.yul\":3790:3856   */\n      tag_108\n        /* \"#utility.yul\":3806:3855   */\n      tag_109\n        /* \"#utility.yul\":3848:3854   */\n      dup5\n        /* \"#utility.yul\":3806:3855   */\n      tag_44\n      jump\t// in\n    tag_109:\n        /* \"#utility.yul\":3790:3856   */\n      tag_43\n      jump\t// in\n    tag_108:\n        /* \"#utility.yul\":3781:3856   */\n      swap1\n      pop\n        /* \"#utility.yul\":3879:3885   */\n      dup3\n        /* \"#utility.yul\":3872:3877   */\n      dup2\n        /* \"#utility.yul\":3865:3886   */\n      mstore\n        /* \"#utility.yul\":3917:3921   */\n      0x20\n        /* \"#utility.yul\":3910:3915   */\n      dup2\n        /* \"#utility.yul\":3906:3922   */\n      add\n        /* \"#utility.yul\":3955:3958   */\n      dup5\n        /* \"#utility.yul\":3946:3952   */\n      dup5\n        /* \"#utility.yul\":3941:3944   */\n      dup5\n        /* \"#utility.yul\":3937:3953   */\n      add\n        /* \"#utility.yul\":3934:3959   */\n      gt\n        /* \"#utility.yul\":3931:4043   */\n      iszero\n      tag_110\n      jumpi\n        /* \"#utility.yul\":3962:4041   */\n      tag_111\n      tag_40\n      jump\t// in\n    tag_111:\n        /* \"#utility.yul\":3931:4043   */\n    tag_110:\n        /* \"#utility.yul\":4052:4106   */\n      tag_112\n        /* \"#utility.yul\":4099:4105   */\n      dup5\n        /* \"#utility.yul\":4094:4097   */\n      dup3\n        /* \"#utility.yul\":4089:4092   */\n      dup6\n        /* \"#utility.yul\":4052:4106   */\n      tag_45\n      jump\t// in\n    tag_112:\n        /* \"#utility.yul\":3771:4112   */\n      pop\n        /* \"#utility.yul\":3687:4112   */\n      swap4\n      swap3\n      pop\n      pop\n      pop\n      jump\t// out\n        /* \"#utility.yul\":4132:4472   */\n    tag_47:\n        /* \"#utility.yul\":4188:4193   */\n      0x00\n        /* \"#utility.yul\":4237:4240   */\n      dup3\n        /* \"#utility.yul\":4230:4234   */\n      0x1f\n        /* \"#utility.yul\":4222:4228   */\n      dup4\n        /* \"#utility.yul\":4218:4235   */\n      add\n        /* \"#utility.yul\":4214:4241   */\n      slt\n        /* \"#utility.yul\":4204:4326   */\n      tag_114\n      jumpi\n        /* \"#utility.yul\":4245:4324   */\n      tag_115\n      tag_39\n      jump\t// in\n    tag_115:\n        /* \"#utility.yul\":4204:4326   */\n    tag_114:\n        /* \"#utility.yul\":4362:4368   */\n      dup2\n        /* \"#utility.yul\":4349:4369   */\n      calldataload\n        /* \"#utility.yul\":4387:4466   */\n      tag_116\n        /* \"#utility.yul\":4462:4465   */\n      dup5\n        /* \"#utility.yul\":4454:4460   */\n      dup3\n        /* \"#utility.yul\":4447:4451   */\n      0x20\n        /* \"#utility.yul\":4439:4445   */\n      dup7\n        /* \"#utility.yul\":4435:4452   */\n      add\n        /* \"#utility.yul\":4387:4466   */\n      tag_46\n      jump\t// in\n    tag_116:\n        /* \"#utility.yul\":4378:4466   */\n      swap2\n      pop\n        /* \"#utility.yul\":4194:4472   */\n      pop\n        /* \"#utility.yul\":4132:4472   */\n      swap3\n      swap2\n      pop\n      pop\n      jump\t// out\n        /* \"#utility.yul\":4478:4987   */\n    tag_13:\n        /* \"#utility.yul\":4547:4553   */\n      0x00\n        /* \"#utility.yul\":4596:4598   */\n      0x20\n        /* \"#utility.yul\":4584:4593   */\n      dup3\n        /* \"#utility.yul\":4575:4582   */\n      dup5\n        /* \"#utility.yul\":4571:4594   */\n      sub\n        /* \"#utility.yul\":4567:4599   */\n      slt\n        /* \"#utility.yul\":4564:4683   */\n      iszero\n      tag_118\n      jumpi\n        /* \"#utility.yul\":4602:4681   */\n      tag_119\n      tag_29\n      jump\t// in\n    tag_119:\n        /* \"#utility.yul\":4564:4683   */\n    tag_118:\n        /* \"#utility.yul\":4750:4751   */\n      0x00\n        /* \"#utility.yul\":4739:4748   */\n      dup3\n        /* \"#utility.yul\":4735:4752   */\n      add\n        /* \"#utility.yul\":4722:4753   */\n      calldataload\n        /* \"#utility.yul\":4780:4798   */\n      0xffffffffffffffff\n        /* \"#utility.yul\":4772:4778   */\n      dup2\n        /* \"#utility.yul\":4769:4799   */\n      gt\n        /* \"#utility.yul\":4766:4883   */\n      iszero\n      tag_120\n      jumpi\n        /* \"#utility.yul\":4802:4881   */\n      tag_121\n      tag_30\n      jump\t// in\n    tag_121:\n        /* \"#utility.yul\":4766:4883   */\n    tag_120:\n        /* \"#utility.yul\":4907:4970   */\n      tag_122\n        /* \"#utility.yul\":4962:4969   */\n      dup5\n        /* \"#utility.yul\":4953:4959   */\n      dup3\n        /* \"#utility.yul\":4942:4951   */\n      dup6\n        /* \"#utility.yul\":4938:4960   */\n      add\n        /* \"#utility.yul\":4907:4970   */\n      tag_47\n      jump\t// in\n    tag_122:\n        /* \"#utility.yul\":4897:4970   */\n      swap2\n      pop\n        /* \"#utility.yul\":4693:4980   */\n      pop\n        /* \"#utility.yul\":4478:4987   */\n      swap3\n      swap2\n      pop\n      pop\n      jump\t// out\n        /* \"#utility.yul\":4993:5173   */\n    tag_48:\n        /* \"#utility.yul\":5041:5118   */\n      0x4e487b7100000000000000000000000000000000000000000000000000000000\n        /* \"#utility.yul\":5038:5039   */\n      0x00\n        /* \"#utility.yul\":5031:5119   */\n      mstore\n        /* \"#utility.yul\":5138:5142   */\n      0x22\n        /* \"#utility.yul\":5135:5136   */\n      0x04\n        /* \"#utility.yul\":5128:5143   */\n      mstore\n        /* \"#utility.yul\":5162:5166   */\n      0x24\n        /* \"#utility.yul\":5159:5160   */\n      0x00\n        /* \"#utility.yul\":5152:5167   */\n      revert\n        /* \"#utility.yul\":5179:5499   */\n    tag_18:\n        /* \"#utility.yul\":5223:5229   */\n      0x00\n        /* \"#utility.yul\":5260:5261   */\n      0x02\n        /* \"#utility.yul\":5254:5258   */\n      dup3\n        /* \"#utility.yul\":5250:5262   */\n      div\n        /* \"#utility.yul\":5240:5262   */\n      swap1\n      pop\n        /* \"#utility.yul\":5307:5308   */\n      0x01\n        /* \"#utility.yul\":5301:5305   */\n      dup3\n        /* \"#utility.yul\":5297:5309   */\n      and\n        /* \"#utility.yul\":5328:5346   */\n      dup1\n        /* \"#utility.yul\":5318:5399   */\n      tag_125\n      jumpi\n        /* \"#utility.yul\":5384:5388   */\n      0x7f\n        /* \"#utility.yul\":5376:5382   */\n      dup3\n        /* \"#utility.yul\":5372:5389   */\n      and\n        /* \"#utility.yul\":5362:5389   */\n      swap2\n      pop\n        /* \"#utility.yul\":5318:5399   */\n    tag_125:\n        /* \"#utility.yul\":5446:5448   */\n      0x20\n        /* \"#utility.yul\":5438:5444   */\n      dup3\n        /* \"#utility.yul\":5435:5449   */\n      lt\n        /* \"#utility.yul\":5415:5433   */\n      dup2\n        /* \"#utility.yul\":5412:5450   */\n      sub\n        /* \"#utility.yul\":5409:5493   */\n      tag_126\n      jumpi\n        /* \"#utility.yul\":5465:5483   */\n      tag_127\n      tag_48\n      jump\t// in\n    tag_127:\n        /* \"#utility.yul\":5409:5493   */\n    tag_126:\n        /* \"#utility.yul\":5230:5499   */\n      pop\n        /* \"#utility.yul\":5179:5499   */\n      swap2\n      swap1\n      pop\n      jump\t// out\n        /* \"#utility.yul\":5505:5646   */\n    tag_49:\n        /* \"#utility.yul\":5554:5558   */\n      0x00\n        /* \"#utility.yul\":5577:5580   */\n      dup2\n        /* \"#utility.yul\":5569:5580   */\n      swap1\n      pop\n        /* \"#utility.yul\":5600:5603   */\n      dup2\n        /* \"#utility.yul\":5597:5598   */\n      0x00\n        /* \"#utility.yul\":5590:5604   */\n      mstore\n        /* \"#utility.yul\":5634:5638   */\n      0x20\n        /* \"#utility.yul\":5631:5632   */\n      0x00\n        /* \"#utility.yul\":5621:5639   */\n      keccak256\n        /* \"#utility.yul\":5613:5639   */\n      swap1\n      pop\n        /* \"#utility.yul\":5505:5646   */\n      swap2\n      swap1\n      pop\n      jump\t// out\n        /* \"#utility.yul\":5652:5745   */\n    tag_50:\n        /* \"#utility.yul\":5689:5695   */\n      0x00\n        /* \"#utility.yul\":5736:5738   */\n      0x20\n        /* \"#utility.yul\":5731:5733   */\n      0x1f\n        /* \"#utility.yul\":5724:5729   */\n      dup4\n        /* \"#utility.yul\":5720:5734   */\n      add\n        /* \"#utility.yul\":5716:5739   */\n      div\n        /* \"#utility.yul\":5706:5739   */\n      swap1\n      pop\n        /* \"#utility.yul\":5652:5745   */\n      swap2\n      swap1\n      pop\n      jump\t// out\n        /* \"#utility.yul\":5751:5858   */\n    tag_51:\n        /* \"#utility.yul\":5795:5803   */\n      0x00\n        /* \"#utility.yul\":5845:5850   */\n      dup3\n        /* \"#utility.yul\":5839:5843   */\n      dup3\n        /* \"#utility.yul\":5835:5851   */\n      shl\n        /* \"#utility.yul\":5814:5851   */\n      swap1\n      pop\n        /* \"#utility.yul\":5751:5858   */\n      swap3\n      swap2\n      pop\n      pop\n      jump\t// out\n        /* \"#utility.yul\":5864:6257   */\n    tag_52:\n        /* \"#utility.yul\":5933:5939   */\n      0x00\n        /* \"#utility.yul\":5983:5984   */\n      0x08\n        /* \"#utility.yul\":5971:5981   */\n      dup4\n        /* \"#utility.yul\":5967:5985   */\n      mul\n        /* \"#utility.yul\":6006:6103   */\n      tag_132\n        /* \"#utility.yul\":6036:6102   */\n      0xffffffffffffffffffffffffffffffffffffffffffffffffffffffffffffffff\n        /* \"#utility.yul\":6025:6034   */\n      dup3\n        /* \"#utility.yul\":6006:6103   */\n      tag_51\n      jump\t// in\n    tag_132:\n        /* \"#utility.yul\":6124:6163   */\n      tag_133\n        /* \"#utility.yul\":6154:6162   */\n      dup7\n        /* \"#utility.yul\":6143:6152   */\n      dup4\n        /* \"#utility.yul\":6124:6163   */\n      tag_51\n      jump\t// in\n    tag_133:\n        /* \"#utility.yul\":6112:6163   */\n      swap6\n      pop\n        /* \"#utility.yul\":6196:6200   */\n      dup1\n        /* \"#utility.yul\":6192:6201   */\n      not\n        /* \"#utility.yul\":6185:6190   */\n      dup5\n        /* \"#utility.yul\":6181:6202   */\n      and\n        /* \"#utility.yul\":6172:6202   */\n      swap4\n      pop\n        /* \"#utility.yul\":6245:6249   */\n      dup1\n        /* \"#utility.yul\":6235:6243   */\n      dup7\n        /* \"#utility.yul\":6231:6250   */\n      and\n        /* \"#utility.yul\":6224:6229   */\n      dup5\n        /* \"#utility.yul\":6221:6251   */\n      or\n        /* \"#utility.yul\":6211:6251   */\n      swap3\n      pop\n        /* \"#utility.yul\":5940:6257   */\n      pop\n      pop\n        /* \"#utility.yul\":5864:6257   */\n      swap4\n      swap3\n      pop\n      pop\n      pop\n      jump\t// out\n        /* \"#utility.yul\":6263:6323   */\n    tag_53:\n        /* \"#utility.yul\":6291:6294   */\n      0x00\n        /* \"#utility.yul\":6312:6317   */\n      dup2\n        /* \"#utility.yul\":6305:6317   */\n      swap1\n      pop\n        /* \"#utility.yul\":6263:6323   */\n      swap2\n      swap1\n      pop\n      jump\t// out\n        /* \"#utility.yul\":6329:6471   */\n    tag_54:\n        /* \"#utility.yul\":6379:6388   */\n      0x00\n        /* \"#utility.yul\":6412:6465   */\n      tag_136\n        /* \"#utility.yul\":6430:6464   */\n      tag_137\n        /* \"#utility.yul\":6439:6463   */\n      tag_138\n        /* \"#utility.yul\":6457:6462   */\n      dup5\n        /* \"#utility.yul\":6439:6463   */\n      tag_31\n      jump\t// in\n    tag_138:\n        /* \"#utility.yul\":6430:6464   */\n      tag_53\n      jump\t// in\n    tag_137:\n        /* \"#utility.yul\":6412:6465   */\n      tag_31\n      jump\t// in\n    tag_136:\n        /* \"#utility.yul\":6399:6465   */\n      swap1\n      pop\n        /* \"#utility.yul\":6329:6471   */\n      swap2\n      swap1\n      pop\n      jump\t// out\n        /* \"#utility.yul\":6477:6552   */\n    tag_55:\n        /* \"#utility.yul\":6520:6523   */\n      0x00\n        /* \"#utility.yul\":6541:6546   */\n      dup2\n        /* \"#utility.yul\":6534:6546   */\n      swap1\n      pop\n        /* \"#utility.yul\":6477:6552   */\n      swap2\n      swap1\n      pop\n      jump\t// out\n        /* \"#utility.yul\":6558:6827   */\n    tag_56:\n        /* \"#utility.yul\":6668:6707   */\n      tag_141\n        /* \"#utility.yul\":6699:6706   */\n      dup4\n        /* \"#utility.yul\":6668:6707   */\n      tag_54\n      jump\t// in\n    tag_141:\n        /* \"#utility.yul\":6729:6820   */\n      tag_142\n        /* \"#utility.yul\":6778:6819   */\n      tag_143\n        /* \"#utility.yul\":6802:6818   */\n      dup3\n        /* \"#utility.yul\":6778:6819   */\n      tag_55\n      jump\t// in\n    tag_143:\n        /* \"#utility.yul\":6770:6776   */\n      dup5\n        /* \"#utility.yul\":6763:6767   */\n      dup5\n        /* \"#utility.yul\":6757:6768   */\n      sload\n        /* \"#utility.yul\":6729:6820   */\n      tag_52\n      jump\t// in\n    tag_142:\n        /* \"#utility.yul\":6723:6727   */\n      dup3\n        /* \"#utility.yul\":6716:6821   */\n      sstore\n        /* \"#utility.yul\":6634:6827   */\n      pop\n        /* \"#utility.yul\":6558:6827   */\n      pop\n      pop\n      pop\n      jump\t// out\n        /* \"#utility.yul\":6833:6906   */\n    tag_57:\n        /* \"#utility.yul\":6878:6881   */\n      0x00\n        /* \"#utility.yul\":6833:6906   */\n      swap1\n      jump\t// out\n        /* \"#utility.yul\":6912:7101   */\n    tag_58:\n        /* \"#utility.yul\":6989:7021   */\n      tag_146\n      tag_57\n      jump\t// in\n    tag_146:\n        /* \"#utility.yul\":7030:7095   */\n      tag_147\n        /* \"#utility.yul\":7088:7094   */\n      dup2\n        /* \"#utility.yul\":7080:7086   */\n      dup5\n        /* \"#utility.yul\":7074:7078   */\n      dup5\n        /* \"#utility.yul\":7030:7095   */\n      tag_56\n      jump\t// in\n    tag_147:\n        /* \"#utility.yul\":6965:7101   */\n      pop\n        /* \"#utility.yul\":6912:7101   */\n      pop\n      pop\n      jump\t// out\n        /* \"#utility.yul\":7107:7293   */\n    tag_59:\n        /* \"#utility.yul\":7167:7287   */\n    tag_149:\n        /* \"#utility.yul\":7184:7187   */\n      dup2\n        /* \"#utility.yul\":7177:7182   */\n      dup2\n        /* \"#utility.yul\":7174:7188   */\n      lt\n        /* \"#utility.yul\":7167:7287   */\n      iszero\n      tag_151\n      jumpi\n        /* \"#utility.yul\":7238:7277   */\n      tag_152\n        /* \"#utility.yul\":7275:7276   */\n      0x00\n        /* \"#utility.yul\":7268:7273   */\n      dup3\n        /* \"#utility.yul\":7238:7277   */\n      tag_58\n      jump\t// in\n    tag_152:\n        /* \"#utility.yul\":7211:7212   */\n      0x01\n        /* \"#utility.yul\":7204:7209   */\n      dup2\n        /* \"#utility.yul\":7200:7213   */\n      add\n        /* \"#utility.yul\":7191:7213   */\n      swap1\n      pop\n        /* \"#utility.yul\":7167:7287   */\n      jump(tag_149)\n    tag_151:\n        /* \"#utility.yul\":7107:7293   */\n      pop\n      pop\n      jump\t// out\n        /* \"#utility.yul\":7299:7842   */\n    tag_60:\n        /* \"#utility.yul\":7400:7402   */\n      0x1f\n        /* \"#utility.yul\":7395:7398   */\n      dup3\n        /* \"#utility.yul\":7392:7403   */\n      gt\n        /* \"#utility.yul\":7389:7835   */\n      iszero\n      tag_154\n      jumpi\n        /* \"#utility.yul\":7434:7472   */\n      tag_155\n        /* \"#utility.yul\":7466:7471   */\n      dup2\n        /* \"#utility.yul\":7434:7472   */\n      tag_49\n      jump\t// in\n    tag_155:\n        /* \"#utility.yul\":7518:7547   */\n      tag_156\n        /* \"#utility.yul\":7536:7546   */\n      dup5\n        /* \"#utility.yul\":7518:7547   */\n      tag_50\n      jump\t// in\n    tag_156:\n        /* \"#utility.yul\":7508:7516   */\n      dup2\n        /* \"#utility.yul\":7504:7548   */\n      add\n        /* \"#utility.yul\":7701:7703   */\n      0x20\n        /* \"#utility.yul\":7689:7699   */\n      dup6\n        /* \"#utility.yul\":7686:7704   */\n      lt\n        /* \"#utility.yul\":7683:7732   */\n      iszero\n      tag_157\n      jumpi\n        /* \"#utility.yul\":7722:7730   */\n      dup2\n        /* \"#utility.yul\":7707:7730   */\n      swap1\n      pop\n        /* \"#utility.yul\":7683:7732   */\n    tag_157:\n        /* \"#utility.yul\":7745:7825   */\n      tag_158\n        /* \"#utility.yul\":7801:7823   */\n      tag_159\n        /* \"#utility.yul\":7819:7822   */\n      dup6\n        /* \"#utility.yul\":7801:7823   */\n      tag_50\n      jump\t// in\n    tag_159:\n        /* \"#utility.yul\":7791:7799   */\n      dup4\n        /* \"#utility.yul\":7787:7824   */\n      add\n        /* \"#utility.yul\":7774:7785   */\n      dup3\n        /* \"#utility.yul\":7745:7825   */\n      tag_59\n      jump\t// in\n    tag_158:\n        /* \"#utility.yul\":7404:7835   */\n      pop\n      pop\n        /* \"#utility.yul\":7389:7835   */\n    tag_154:\n        /* \"#utility.yul\":7299:7842   */\n      pop\n      pop\n      pop\n      jump\t// out\n        /* \"#utility.yul\":7848:7965   */\n    tag_61:\n        /* \"#utility.yul\":7902:7910   */\n      0x00\n        /* \"#utility.yul\":7952:7957   */\n      dup3\n        /* \"#utility.yul\":7946:7950   */\n      dup3\n        /* \"#utility.yul\":7942:7958   */\n      shr\n        /* \"#utility.yul\":7921:7958   */\n      swap1\n      pop\n        /* \"#utility.yul\":7848:7965   */\n      swap3\n      swap2\n      pop\n      pop\n      jump\t// out\n        /* \"#utility.yul\":7971:8140   */\n    tag_62:\n        /* \"#utility.yul\":8015:8021   */\n      0x00\n        /* \"#utility.yul\":8048:8099   */\n      tag_162\n        /* \"#utility.yul\":8096:8097   */\n      0x00\n        /* \"#utility.yul\":8092:8098   */\n      not\n        /* \"#utility.yul\":8084:8089   */\n      dup5\n        /* \"#utility.yul\":8081:8082   */\n      0x08\n        /* \"#utility.yul\":8077:8090   */\n      mul\n        /* \"#utility.yul\":8048:8099   */\n      tag_61\n      jump\t// in\n    tag_162:\n        /* \"#utility.yul\":8044:8100   */\n      not\n        /* \"#utility.yul\":8129:8133   */\n      dup1\n        /* \"#utility.yul\":8123:8127   */\n      dup4\n        /* \"#utility.yul\":8119:8134   */\n      and\n        /* \"#utility.yul\":8109:8134   */\n      swap2\n      pop\n        /* \"#utility.yul\":8022:8140   */\n      pop\n        /* \"#utility.yul\":7971:8140   */\n      swap3\n      swap2\n      pop\n      pop\n      jump\t// out\n        /* \"#utility.yul\":8145:8440   */\n    tag_63:\n        /* \"#utility.yul\":8221:8225   */\n      0x00\n        /* \"#utility.yul\":8367:8396   */\n      tag_164\n        /* \"#utility.yul\":8392:8395   */\n      dup4\n        /* \"#utility.yul\":8386:8390   */\n      dup4\n        /* \"#utility.yul\":8367:8396   */\n      tag_62\n      jump\t// in\n    tag_164:\n        /* \"#utility.yul\":8359:8396   */\n      swap2\n      pop\n        /* \"#utility.yul\":8429:8432   */\n      dup3\n        /* \"#utility.yul\":8426:8427   */\n      0x02\n        /* \"#utility.yul\":8422:8433   */\n      mul\n        /* \"#utility.yul\":8416:8420   */\n      dup3\n        /* \"#utility.yul\":8413:8434   */\n      or\n        /* \"#utility.yul\":8405:8434   */\n      swap1\n      pop\n        /* \"#utility.yul\":8145:8440   */\n      swap3\n      swap2\n      pop\n      pop\n      jump\t// out\n        /* \"#utility.yul\":8445:9840   */\n    tag_27:\n        /* \"#utility.yul\":8562:8599   */\n      tag_166\n        /* \"#utility.yul\":8595:8598   */\n      dup3\n        /* \"#utility.yul\":8562:8599   */\n      tag_34\n      jump\t// in\n    tag_166:\n        /* \"#utility.yul\":8664:8682   */\n      0xffffffffffffffff\n        /* \"#utility.yul\":8656:8662   */\n      dup2\n        /* \"#utility.yul\":8653:8683   */\n      gt\n        /* \"#utility.yul\":8650:8706   */\n      iszero\n      tag_167\n      jumpi\n        /* \"#utility.yul\":8686:8704   */\n      tag_168\n      tag_41\n      jump\t// in\n    tag_168:\n        /* \"#utility.yul\":8650:8706   */\n    tag_167:\n        /* \"#utility.yul\":8730:8768   */\n      tag_169\n        /* \"#utility.yul\":8762:8766   */\n      dup3\n        /* \"#utility.yul\":8756:8767   */\n      sload\n        /* \"#utility.yul\":8730:8768   */\n      tag_18\n      jump\t// in\n    tag_169:\n        /* \"#utility.yul\":8815:8882   */\n      tag_170\n        /* \"#utility.yul\":8875:8881   */\n      dup3\n        /* \"#utility.yul\":8867:8873   */\n      dup3\n        /* \"#utility.yul\":8861:8865   */\n      dup6\n        /* \"#utility.yul\":8815:8882   */\n      tag_60\n      jump\t// in\n    tag_170:\n        /* \"#utility.yul\":8909:8910   */\n      0x00\n        /* \"#utility.yul\":8933:8937   */\n      0x20\n        /* \"#utility.yul\":8920:8937   */\n      swap1\n      pop\n        /* \"#utility.yul\":8965:8967   */\n      0x1f\n        /* \"#utility.yul\":8957:8963   */\n      dup4\n        /* \"#utility.yul\":8954:8968   */\n      gt\n        /* \"#utility.yul\":8982:8983   */\n      0x01\n        /* \"#utility.yul\":8977:9595   */\n      dup2\n      eq\n      tag_172\n      jumpi\n        /* \"#utility.yul\":9639:9640   */\n      0x00\n        /* \"#utility.yul\":9656:9662   */\n      dup5\n        /* \"#utility.yul\":9653:9730   */\n      iszero\n      tag_173\n      jumpi\n        /* \"#utility.yul\":9705:9714   */\n      dup3\n        /* \"#utility.yul\":9700:9703   */\n      dup8\n        /* \"#utility.yul\":9696:9715   */\n      add\n        /* \"#utility.yul\":9690:9716   */\n      mload\n        /* \"#utility.yul\":9681:9716   */\n      swap1\n      pop\n        /* \"#utility.yul\":9653:9730   */\n    tag_173:\n        /* \"#utility.yul\":9756:9823   */\n      tag_174\n        /* \"#utility.yul\":9816:9822   */\n      dup6\n        /* \"#utility.yul\":9809:9814   */\n      dup3\n        /* \"#utility.yul\":9756:9823   */\n      tag_63\n      jump\t// in\n    tag_174:\n        /* \"#utility.yul\":9750:9754   */\n      dup7\n        /* \"#utility.yul\":9743:9824   */\n      sstore\n        /* \"#utility.yul\":9612:9834   */\n      pop\n        /* \"#utility.yul\":8947:9834   */\n      jump(tag_171)\n        /* \"#utility.yul\":8977:9595   */\n    tag_172:\n        /* \"#utility.yul\":9029:9033   */\n      0x1f\n        /* \"#utility.yul\":9025:9034   */\n      not\n        /* \"#utility.yul\":9017:9023   */\n      dup5\n        /* \"#utility.yul\":9013:9035   */\n      and\n        /* \"#utility.yul\":9063:9100   */\n      tag_175\n        /* \"#utility.yul\":9095:9099   */\n      dup7\n        /* \"#utility.yul\":9063:9100   */\n      tag_49\n      jump\t// in\n    tag_175:\n        /* \"#utility.yul\":9122:9123   */\n      0x00\n        /* \"#utility.yul\":9136:9344   */\n    tag_176:\n        /* \"#utility.yul\":9150:9157   */\n      dup3\n        /* \"#utility.yul\":9147:9148   */\n      dup2\n        /* \"#utility.yul\":9144:9158   */\n      lt\n        /* \"#utility.yul\":9136:9344   */\n      iszero\n      tag_178\n      jumpi\n        /* \"#utility.yul\":9229:9238   */\n      dup5\n        /* \"#utility.yul\":9224:9227   */\n      dup10\n        /* \"#utility.yul\":9220:9239   */\n      add\n        /* \"#utility.yul\":9214:9240   */\n      mload\n        /* \"#utility.yul\":9206:9212   */\n      dup3\n        /* \"#utility.yul\":9199:9241   */\n      sstore\n        /* \"#utility.yul\":9280:9281   */\n      0x01\n        /* \"#utility.yul\":9272:9278   */\n      dup3\n        /* \"#utility.yul\":9268:9282   */\n      add\n        /* \"#utility.yul\":9258:9282   */\n      swap2\n      pop\n        /* \"#utility.yul\":9327:9329   */\n      0x20\n        /* \"#utility.yul\":9316:9325   */\n      dup6\n        /* \"#utility.yul\":9312:9330   */\n      add\n        /* \"#utility.yul\":9299:9330   */\n      swap5\n      pop\n        /* \"#utility.yul\":9173:9177   */\n      0x20\n        /* \"#utility.yul\":9170:9171   */\n      dup2\n        /* \"#utility.yul\":9166:9178   */\n      add\n        /* \"#utility.yul\":9161:9178   */\n      swap1\n      pop\n        /* \"#utility.yul\":9136:9344   */\n      jump(tag_176)\n    tag_178:\n        /* \"#utility.yul\":9372:9378   */\n      dup7\n        /* \"#utility.yul\":9363:9370   */\n      dup4\n        /* \"#utility.yul\":9360:9379   */\n      lt\n        /* \"#utility.yul\":9357:9536   */\n      iszero\n      tag_179\n      jumpi\n        /* \"#utility.yul\":9430:9439   */\n      dup5\n        /* \"#utility.yul\":9425:9428   */\n      dup10\n        /* \"#utility.yul\":9421:9440   */\n      add\n        /* \"#utility.yul\":9415:9441   */\n      mload\n        /* \"#utility.yul\":9473:9521   */\n      tag_180\n        /* \"#utility.yul\":9515:9519   */\n      0x1f\n        /* \"#utility.yul\":9507:9513   */\n      dup10\n        /* \"#utility.yul\":9503:9520   */\n      and\n        /* \"#utility.yul\":9492:9501   */\n      dup3\n        /* \"#utility.yul\":9473:9521   */\n      tag_62\n      jump\t// in\n    tag_180:\n        /* \"#utility.yul\":9465:9471   */\n      dup4\n        /* \"#utility.yul\":9458:9522   */\n      sstore\n        /* \"#utility.yul\":9380:9536   */\n      pop\n        /* \"#utility.yul\":9357:9536   */\n    tag_179:\n        /* \"#utility.yul\":9582:9583   */\n      0x01\n        /* \"#utility.yul\":9578:9579   */\n      0x02\n        /* \"#utility.yul\":9570:9576   */\n      dup9\n        /* \"#utility.yul\":9566:9580   */\n      mul\n        /* \"#utility.yul\":9562:9584   */\n      add\n        /* \"#utility.yul\":9556:9560   */\n      dup9\n        /* \"#utility.yul\":9549:9585   */\n      sstore\n        /* \"#utility.yul\":8984:9595   */\n      pop\n      pop\n      pop\n        /* \"#utility.yul\":8947:9834   */\n    tag_171:\n      pop\n        /* \"#utility.yul\":8537:9840   */\n      pop\n      pop\n      pop\n        /* \"#utility.yul\":8445:9840   */\n      pop\n      pop\n      jump\t// out\n\n    auxdata: 0xa26469706673582212204c3fa68fd8c58ddb6dbc56103fb3cd1b030ab6dbafd315a840e5094b859deb7a64736f6c63430008120033\n}\n",
				"bytecode": {
					"linkReferences": {},
					"object": "608060405234801561001057600080fd5b50610735806100206000396000f3fe608060405234801561001057600080fd5b50600436106100365760003560e01c8063b9ff5ec91461003b578063ca424bcf1461006b575b600080fd5b610055600480360381019061005091906101c4565b610087565b6040516100629190610281565b60405180910390f35b610085600480360381019061008091906103d8565b610133565b005b6000818154811061009757600080fd5b9060005260206000200160009150905080546100b290610450565b80601f01602080910402602001604051908101604052809291908181526020018280546100de90610450565b801561012b5780601f106101005761010080835404028352916020019161012b565b820191906000526020600020905b81548152906001019060200180831161010e57829003601f168201915b505050505081565b60048151101561014257600080fd5b600081908060018154018082558091505060019003906000526020600020016000909190919091509081610176919061062d565b5050565b6000604051905090565b600080fd5b600080fd5b6000819050919050565b6101a18161018e565b81146101ac57600080fd5b50565b6000813590506101be81610198565b92915050565b6000602082840312156101da576101d9610184565b5b60006101e8848285016101af565b91505092915050565b600081519050919050565b600082825260208201905092915050565b60005b8381101561022b578082015181840152602081019050610210565b60008484015250505050565b6000601f19601f8301169050919050565b6000610253826101f1565b61025d81856101fc565b935061026d81856020860161020d565b61027681610237565b840191505092915050565b6000602082019050818103600083015261029b8184610248565b905092915050565b600080fd5b600080fd5b7f4e487b7100000000000000000000000000000000000000000000000000000000600052604160045260246000fd5b6102e582610237565b810181811067ffffffffffffffff82111715610304576103036102ad565b5b80604052505050565b600061031761017a565b905061032382826102dc565b919050565b600067ffffffffffffffff821115610343576103426102ad565b5b61034c82610237565b9050602081019050919050565b82818337600083830152505050565b600061037b61037684610328565b61030d565b905082815260208101848484011115610397576103966102a8565b5b6103a2848285610359565b509392505050565b600082601f8301126103bf576103be6102a3565b5b81356103cf848260208601610368565b91505092915050565b6000602082840312156103ee576103ed610184565b5b600082013567ffffffffffffffff81111561040c5761040b610189565b5b610418848285016103aa565b91505092915050565b7f4e487b7100000000000000000000000000000000000000000000000000000000600052602260045260246000fd5b6000600282049050600182168061046857607f821691505b60208210810361047b5761047a610421565b5b50919050565b60008190508160005260206000209050919050565b60006020601f8301049050919050565b600082821b905092915050565b6000600883026104e37fffffffffffffffffffffffffffffffffffffffffffffffffffffffffffffffff826104a6565b6104ed86836104a6565b95508019841693508086168417925050509392505050565b6000819050919050565b600061052a6105256105208461018e565b610505565b61018e565b9050919050565b6000819050919050565b6105448361050f565b61055861055082610531565b8484546104b3565b825550505050565b600090565b61056d610560565b61057881848461053b565b505050565b5b8181101561059c57610591600082610565565b60018101905061057e565b5050565b601f8211156105e1576105b281610481565b6105bb84610496565b810160208510156105ca578190505b6105de6105d685610496565b83018261057d565b50505b505050565b600082821c905092915050565b6000610604600019846008026105e6565b1980831691505092915050565b600061061d83836105f3565b9150826002028217905092915050565b610636826101f1565b67ffffffffffffffff81111561064f5761064e6102ad565b5b6106598254610450565b6106648282856105a0565b600060209050601f8311600181146106975760008415610685578287015190505b61068f8582610611565b8655506106f7565b601f1984166106a586610481565b60005b828110156106cd578489015182556001820191506020850194506020810190506106a8565b868310156106ea57848901516106e6601f8916826105f3565b8355505b6001600288020188555050505b50505050505056fea26469706673582212204c3fa68fd8c58ddb6dbc56103fb3cd1b030ab6dbafd315a840e5094b859deb7a64736f6c63430008120033",
					"opcodes": "PUSH1 0x80 PUSH1 0x40 MSTORE CALLVALUE DUP1 ISZERO PUSH2 0x10 JUMPI PUSH1 0x0 DUP1 REVERT JUMPDEST POP PUSH2 0x735 DUP1 PUSH2 0x20 PUSH1 0x0 CODECOPY PUSH1 0x0 RETURN INVALID PUSH1 0x80 PUSH1 0x40 MSTORE CALLVALUE DUP1 ISZERO PUSH2 0x10 JUMPI PUSH1 0x0 DUP1 REVERT JUMPDEST POP PUSH1 0x4 CALLDATASIZE LT PUSH2 0x36 JUMPI PUSH1 0x0 CALLDATALOAD PUSH1 0xE0 SHR DUP1 PUSH4 0xB9FF5EC9 EQ PUSH2 0x3B JUMPI DUP1 PUSH4 0xCA424BCF EQ PUSH2 0x6B JUMPI JUMPDEST PUSH1 0x0 DUP1 REVERT JUMPDEST PUSH2 0x55 PUSH1 0x4 DUP1 CALLDATASIZE SUB DUP2 ADD SWAP1 PUSH2 0x50 SWAP2 SWAP1 PUSH2 0x1C4 JUMP JUMPDEST PUSH2 0x87 JUMP JUMPDEST PUSH1 0x40 MLOAD PUSH2 0x62 SWAP2 SWAP1 PUSH2 0x281 JUMP JUMPDEST PUSH1 0x40 MLOAD DUP1 SWAP2 SUB SWAP1 RETURN JUMPDEST PUSH2 0x85 PUSH1 0x4 DUP1 CALLDATASIZE SUB DUP2 ADD SWAP1 PUSH2 0x80 SWAP2 SWAP1 PUSH2 0x3D8 JUMP JUMPDEST PUSH2 0x133 JUMP JUMPDEST STOP JUMPDEST PUSH1 0x0 DUP2 DUP2 SLOAD DUP2 LT PUSH2 0x97 JUMPI PUSH1 0x0 DUP1 REVERT JUMPDEST SWAP1 PUSH1 0x0 MSTORE PUSH1 0x20 PUSH1 0x0 KECCAK256 ADD PUSH1 0x0 SWAP2 POP SWAP1 POP DUP1 SLOAD PUSH2 0xB2 SWAP1 PUSH2 0x450 JUMP JUMPDEST DUP1 PUSH1 0x1F ADD PUSH1 0x20 DUP1 SWAP2 DIV MUL PUSH1 0x20 ADD PUSH1 0x40 MLOAD SWAP1 DUP2 ADD PUSH1 0x40 MSTORE DUP1 SWAP3 SWAP2 SWAP1 DUP2 DUP2 MSTORE PUSH1 0x20 ADD DUP3 DUP1 SLOAD PUSH2 0xDE SWAP1 PUSH2 0x450 JUMP JUMPDEST DUP1 ISZERO PUSH2 0x12B JUMPI DUP1 PUSH1 0x1F LT PUSH2 0x100 JUMPI PUSH2 0x100 DUP1 DUP4 SLOAD DIV MUL DUP4 MSTORE SWAP2 PUSH1 0x20 ADD SWAP2 PUSH2 0x12B JUMP JUMPDEST DUP3 ADD SWAP2 SWAP1 PUSH1 0x0 MSTORE PUSH1 0x20 PUSH1 0x0 KECCAK256 SWAP1 JUMPDEST DUP2 SLOAD DUP2 MSTORE SWAP1 PUSH1 0x1 ADD SWAP1 PUSH1 0x20 ADD DUP1 DUP4 GT PUSH2 0x10E JUMPI DUP3 SWAP1 SUB PUSH1 0x1F AND DUP3 ADD SWAP2 JUMPDEST POP POP POP POP POP DUP2 JUMP JUMPDEST PUSH1 0x4 DUP2 MLOAD LT ISZERO PUSH2 0x142 JUMPI PUSH1 0x0 DUP1 REVERT JUMPDEST PUSH1 0x0 DUP2 SWAP1 DUP1 PUSH1 0x1 DUP2 SLOAD ADD DUP1 DUP3 SSTORE DUP1 SWAP2 POP POP PUSH1 0x1 SWAP1 SUB SWAP1 PUSH1 0x0 MSTORE PUSH1 0x20 PUSH1 0x0 KECCAK256 ADD PUSH1 0x0 SWAP1 SWAP2 SWAP1 SWAP2 SWAP1 SWAP2 POP SWAP1 DUP2 PUSH2 0x176 SWAP2 SWAP1 PUSH2 0x62D JUMP JUMPDEST POP POP JUMP JUMPDEST PUSH1 0x0 PUSH1 0x40 MLOAD SWAP1 POP SWAP1 JUMP JUMPDEST PUSH1 0x0 DUP1 REVERT JUMPDEST PUSH1 0x0 DUP1 REVERT JUMPDEST PUSH1 0x0 DUP2 SWAP1 POP SWAP2 SWAP1 POP JUMP JUMPDEST PUSH2 0x1A1 DUP2 PUSH2 0x18E JUMP JUMPDEST DUP2 EQ PUSH2 0x1AC JUMPI PUSH1 0x0 DUP1 REVERT JUMPDEST POP JUMP JUMPDEST PUSH1 0x0 DUP2 CALLDATALOAD SWAP1 POP PUSH2 0x1BE DUP2 PUSH2 0x198 JUMP JUMPDEST SWAP3 SWAP2 POP POP JUMP JUMPDEST PUSH1 0x0 PUSH1 0x20 DUP3 DUP5 SUB SLT ISZERO PUSH2 0x1DA JUMPI PUSH2 0x1D9 PUSH2 0x184 JUMP JUMPDEST JUMPDEST PUSH1 0x0 PUSH2 0x1E8 DUP5 DUP3 DUP6 ADD PUSH2 0x1AF JUMP JUMPDEST SWAP2 POP POP SWAP3 SWAP2 POP POP JUMP JUMPDEST PUSH1 0x0 DUP2 MLOAD SWAP1 POP SWAP2 SWAP1 POP JUMP JUMPDEST PUSH1 0x0 DUP3 DUP3 MSTORE PUSH1 0x20 DUP3 ADD SWAP1 POP SWAP3 SWAP2 POP POP JUMP JUMPDEST PUSH1 0x0 JUMPDEST DUP4 DUP2 LT ISZERO PUSH2 0x22B JUMPI DUP1 DUP3 ADD MLOAD DUP2 DUP5 ADD MSTORE PUSH1 0x20 DUP2 ADD SWAP1 POP PUSH2 0x210 JUMP JUMPDEST PUSH1 0x0 DUP5 DUP5 ADD MSTORE POP POP POP POP JUMP JUMPDEST PUSH1 0x0 PUSH1 0x1F NOT PUSH1 0x1F DUP4 ADD AND SWAP1 POP SWAP2 SWAP1 POP JUMP JUMPDEST PUSH1 0x0 PUSH2 0x253 DUP3 PUSH2 0x1F1 JUMP JUMPDEST PUSH2 0x25D DUP2 DUP6 PUSH2 0x1FC JUMP JUMPDEST SWAP4 POP PUSH2 0x26D DUP2 DUP6 PUSH1 0x20 DUP7 ADD PUSH2 0x20D JUMP JUMPDEST PUSH2 0x276 DUP2 PUSH2 0x237 JUMP JUMPDEST DUP5 ADD SWAP2 POP POP SWAP3 SWAP2 POP POP JUMP JUMPDEST PUSH1 0x0 PUSH1 0x20 DUP3 ADD SWAP1 POP DUP2 DUP2 SUB PUSH1 0x0 DUP4 ADD MSTORE PUSH2 0x29B DUP2 DUP5 PUSH2 0x248 JUMP JUMPDEST SWAP1 POP SWAP3 SWAP2 POP POP JUMP JUMPDEST PUSH1 0x0 DUP1 REVERT JUMPDEST PUSH1 0x0 DUP1 REVERT JUMPDEST PUSH32 0x4E487B7100000000000000000000000000000000000000000000000000000000 PUSH1 0x0 MSTORE PUSH1 0x41 PUSH1 0x4 MSTORE PUSH1 0x24 PUSH1 0x0 REVERT JUMPDEST PUSH2 0x2E5 DUP3 PUSH2 0x237 JUMP JUMPDEST DUP2 ADD DUP2 DUP2 LT PUSH8 0xFFFFFFFFFFFFFFFF DUP3 GT OR ISZERO PUSH2 0x304 JUMPI PUSH2 0x303 PUSH2 0x2AD JUMP JUMPDEST JUMPDEST DUP1 PUSH1 0x40 MSTORE POP POP POP JUMP JUMPDEST PUSH1 0x0 PUSH2 0x317 PUSH2 0x17A JUMP JUMPDEST SWAP1 POP PUSH2 0x323 DUP3 DUP3 PUSH2 0x2DC JUMP JUMPDEST SWAP2 SWAP1 POP JUMP JUMPDEST PUSH1 0x0 PUSH8 0xFFFFFFFFFFFFFFFF DUP3 GT ISZERO PUSH2 0x343 JUMPI PUSH2 0x342 PUSH2 0x2AD JUMP JUMPDEST JUMPDEST PUSH2 0x34C DUP3 PUSH2 0x237 JUMP JUMPDEST SWAP1 POP PUSH1 0x20 DUP2 ADD SWAP1 POP SWAP2 SWAP1 POP JUMP JUMPDEST DUP3 DUP2 DUP4 CALLDATACOPY PUSH1 0x0 DUP4 DUP4 ADD MSTORE POP POP POP JUMP JUMPDEST PUSH1 0x0 PUSH2 0x37B PUSH2 0x376 DUP5 PUSH2 0x328 JUMP JUMPDEST PUSH2 0x30D JUMP JUMPDEST SWAP1 POP DUP3 DUP2 MSTORE PUSH1 0x20 DUP2 ADD DUP5 DUP5 DUP5 ADD GT ISZERO PUSH2 0x397 JUMPI PUSH2 0x396 PUSH2 0x2A8 JUMP JUMPDEST JUMPDEST PUSH2 0x3A2 DUP5 DUP3 DUP6 PUSH2 0x359 JUMP JUMPDEST POP SWAP4 SWAP3 POP POP POP JUMP JUMPDEST PUSH1 0x0 DUP3 PUSH1 0x1F DUP4 ADD SLT PUSH2 0x3BF JUMPI PUSH2 0x3BE PUSH2 0x2A3 JUMP JUMPDEST JUMPDEST DUP2 CALLDATALOAD PUSH2 0x3CF DUP5 DUP3 PUSH1 0x20 DUP7 ADD PUSH2 0x368 JUMP JUMPDEST SWAP2 POP POP SWAP3 SWAP2 POP POP JUMP JUMPDEST PUSH1 0x0 PUSH1 0x20 DUP3 DUP5 SUB SLT ISZERO PUSH2 0x3EE JUMPI PUSH2 0x3ED PUSH2 0x184 JUMP JUMPDEST JUMPDEST PUSH1 0x0 DUP3 ADD CALLDATALOAD PUSH8 0xFFFFFFFFFFFFFFFF DUP2 GT ISZERO PUSH2 0x40C JUMPI PUSH2 0x40B PUSH2 0x189 JUMP JUMPDEST JUMPDEST PUSH2 0x418 DUP5 DUP3 DUP6 ADD PUSH2 0x3AA JUMP JUMPDEST SWAP2 POP POP SWAP3 SWAP2 POP POP JUMP JUMPDEST PUSH32 0x4E487B7100000000000000000000000000000000000000000000000000000000 PUSH1 0x0 MSTORE PUSH1 0x22 PUSH1 0x4 MSTORE PUSH1 0x24 PUSH1 0x0 REVERT JUMPDEST PUSH1 0x0 PUSH1 0x2 DUP3 DIV SWAP1 POP PUSH1 0x1 DUP3 AND DUP1 PUSH2 0x468 JUMPI PUSH1 0x7F DUP3 AND SWAP2 POP JUMPDEST PUSH1 0x20 DUP3 LT DUP2 SUB PUSH2 0x47B JUMPI PUSH2 0x47A PUSH2 0x421 JUMP JUMPDEST JUMPDEST POP SWAP2 SWAP1 POP JUMP JUMPDEST PUSH1 0x0 DUP2 SWAP1 POP DUP2 PUSH1 0x0 MSTORE PUSH1 0x20 PUSH1 0x0 KECCAK256 SWAP1 POP SWAP2 SWAP1 POP JUMP JUMPDEST PUSH1 0x0 PUSH1 0x20 PUSH1 0x1F DUP4 ADD DIV SWAP1 POP SWAP2 SWAP1 POP JUMP JUMPDEST PUSH1 0x0 DUP3 DUP3 SHL SWAP1 POP SWAP3 SWAP2 POP POP JUMP JUMPDEST PUSH1 0x0 PUSH1 0x8 DUP4 MUL PUSH2 0x4E3 PUSH32 0xFFFFFFFFFFFFFFFFFFFFFFFFFFFFFFFFFFFFFFFFFFFFFFFFFFFFFFFFFFFFFFFF DUP3 PUSH2 0x4A6 JUMP JUMPDEST PUSH2 0x4ED DUP7 DUP4 PUSH2 0x4A6 JUMP JUMPDEST SWAP6 POP DUP1 NOT DUP5 AND SWAP4 POP DUP1 DUP7 AND DUP5 OR SWAP3 POP POP POP SWAP4 SWAP3 POP POP POP JUMP JUMPDEST PUSH1 0x0 DUP2 SWAP1 POP SWAP2 SWAP1 POP JUMP JUMPDEST PUSH1 0x0 PUSH2 0x52A PUSH2 0x525 PUSH2 0x520 DUP5 PUSH2 0x18E JUMP JUMPDEST PUSH2 0x505 JUMP JUMPDEST PUSH2 0x18E JUMP JUMPDEST SWAP1 POP SWAP2 SWAP1 POP JUMP JUMPDEST PUSH1 0x0 DUP2 SWAP1 POP SWAP2 SWAP1 POP JUMP JUMPDEST PUSH2 0x544 DUP4 PUSH2 0x50F JUMP JUMPDEST PUSH2 0x558 PUSH2 0x550 DUP3 PUSH2 0x531 JUMP JUMPDEST DUP5 DUP5 SLOAD PUSH2 0x4B3 JUMP JUMPDEST DUP3 SSTORE POP POP POP POP JUMP JUMPDEST PUSH1 0x0 SWAP1 JUMP JUMPDEST PUSH2 0x56D PUSH2 0x560 JUMP JUMPDEST PUSH2 0x578 DUP2 DUP5 DUP5 PUSH2 0x53B JUMP JUMPDEST POP POP POP JUMP JUMPDEST JUMPDEST DUP2 DUP2 LT ISZERO PUSH2 0x59C JUMPI PUSH2 0x591 PUSH1 0x0 DUP3 PUSH2 0x565 JUMP JUMPDEST PUSH1 0x1 DUP2 ADD SWAP1 POP PUSH2 0x57E JUMP JUMPDEST POP POP JUMP JUMPDEST PUSH1 0x1F DUP3 GT ISZERO PUSH2 0x5E1 JUMPI PUSH2 0x5B2 DUP2 PUSH2 0x481 JUMP JUMPDEST PUSH2 0x5BB DUP5 PUSH2 0x496 JUMP JUMPDEST DUP2 ADD PUSH1 0x20 DUP6 LT ISZERO PUSH2 0x5CA JUMPI DUP2 SWAP1 POP JUMPDEST PUSH2 0x5DE PUSH2 0x5D6 DUP6 PUSH2 0x496 JUMP JUMPDEST DUP4 ADD DUP3 PUSH2 0x57D JUMP JUMPDEST POP POP JUMPDEST POP POP POP JUMP JUMPDEST PUSH1 0x0 DUP3 DUP3 SHR SWAP1 POP SWAP3 SWAP2 POP POP JUMP JUMPDEST PUSH1 0x0 PUSH2 0x604 PUSH1 0x0 NOT DUP5 PUSH1 0x8 MUL PUSH2 0x5E6 JUMP JUMPDEST NOT DUP1 DUP4 AND SWAP2 POP POP SWAP3 SWAP2 POP POP JUMP JUMPDEST PUSH1 0x0 PUSH2 0x61D DUP4 DUP4 PUSH2 0x5F3 JUMP JUMPDEST SWAP2 POP DUP3 PUSH1 0x2 MUL DUP3 OR SWAP1 POP SWAP3 SWAP2 POP POP JUMP JUMPDEST PUSH2 0x636 DUP3 PUSH2 0x1F1 JUMP JUMPDEST PUSH8 0xFFFFFFFFFFFFFFFF DUP2 GT ISZERO PUSH2 0x64F JUMPI PUSH2 0x64E PUSH2 0x2AD JUMP JUMPDEST JUMPDEST PUSH2 0x659 DUP3 SLOAD PUSH2 0x450 JUMP JUMPDEST PUSH2 0x664 DUP3 DUP3 DUP6 PUSH2 0x5A0 JUMP JUMPDEST PUSH1 0x0 PUSH1 0x20 SWAP1 POP PUSH1 0x1F DUP4 GT PUSH1 0x1 DUP2 EQ PUSH2 0x697 JUMPI PUSH1 0x0 DUP5 ISZERO PUSH2 0x685 JUMPI DUP3 DUP8 ADD MLOAD SWAP1 POP JUMPDEST PUSH2 0x68F DUP6 DUP3 PUSH2 0x611 JUMP JUMPDEST DUP7 SSTORE POP PUSH2 0x6F7 JUMP JUMPDEST PUSH1 0x1F NOT DUP5 AND PUSH2 0x6A5 DUP7 PUSH2 0x481 JUMP JUMPDEST PUSH1 0x0 JUMPDEST DUP3 DUP2 LT ISZERO PUSH2 0x6CD JUMPI DUP5 DUP10 ADD MLOAD DUP3 SSTORE PUSH1 0x1 DUP3 ADD SWAP2 POP PUSH1 0x20 DUP6 ADD SWAP5 POP PUSH1 0x20 DUP2 ADD SWAP1 POP PUSH2 0x6A8 JUMP JUMPDEST DUP7 DUP4 LT ISZERO PUSH2 0x6EA JUMPI DUP5 DUP10 ADD MLOAD PUSH2 0x6E6 PUSH1 0x1F DUP10 AND DUP3 PUSH2 0x5F3 JUMP JUMPDEST DUP4 SSTORE POP JUMPDEST PUSH1 0x1 PUSH1 0x2 DUP9 MUL ADD DUP9 SSTORE POP POP POP JUMPDEST POP POP POP POP POP POP JUMP INVALID LOG2 PUSH5 0x6970667358 0x22 SLT KECCAK256 0x4C EXTCODEHASH 0xA6 DUP16 0xD8 0xC5 DUP14 0xDB PUSH14 0xBC56103FB3CD1B030AB6DBAFD315 0xA8 BLOCKHASH 0xE5 MULMOD 0x4B DUP6 SWAP14 0xEB PUSH27 0x64736F6C6343000812003300000000000000000000000000000000 "
				},
				"gasEstimates": {
					"creation": {
						"codeDepositCost": "369000",
						"executionCost": "405",
						"totalCost": "369405"
					},
					"external": {
						"letter(uint256)": "infinite",
						"setLetters(string)": "infinite"
					}
				},
				"methodIdentifiers": {
					"letter(uint256)": "b9ff5ec9",
					"setLetters(string)": "ca424bcf"
				}
			},
			"storageLayout": {
				"storage": [
					{
						"astId": 132,
						"contract": "contract/solidity_41~50.sol:Q44",
						"label": "letter",
						"offset": 0,
						"slot": "0",
						"type": "t_array(t_string_storage)dyn_storage"
					}
				],
				"types": {
					"t_array(t_string_storage)dyn_storage": {
						"base": "t_string_storage",
						"encoding": "dynamic_array",
						"label": "string[]",
						"numberOfBytes": "32"
					},
					"t_string_storage": {
						"encoding": "bytes",
						"label": "string",
						"numberOfBytes": "32"
					}
				}
			},
			"userdoc": {
				"kind": "user",
				"methods": {},
				"version": 1
			}
		}
	}
}